{
	"data": {
		"bytecode": {
			"linkReferences": {},
			"object": "60a06040523073ffffffffffffffffffffffffffffffffffffffff1660809073ffffffffffffffffffffffffffffffffffffffff1681525034801562000043575f80fd5b50620000546200005a60201b60201c565b620001c4565b5f6200006b6200015e60201b60201c565b9050805f0160089054906101000a900460ff1615620000b6576040517ff92ee8a900000000000000000000000000000000000000000000000000000000815260040160405180910390fd5b67ffffffffffffffff8016815f015f9054906101000a900467ffffffffffffffff1667ffffffffffffffff16146200015b5767ffffffffffffffff815f015f6101000a81548167ffffffffffffffff021916908367ffffffffffffffff1602179055507fc7f505b2f371ae2175ee4913f4499e1f2633a7b5936321eed1cdaeb6115181d267ffffffffffffffff604051620001529190620001a9565b60405180910390a15b50565b5f7ff0c57e16840df040f15088dc2f81fe391c3923bec73e23a9662efc9c229c6a00905090565b5f67ffffffffffffffff82169050919050565b620001a38162000185565b82525050565b5f602082019050620001be5f83018462000198565b92915050565b6080516144ed620001eb5f395f818161273f01528181612794015261294e01526144ed5ff3fe608060405260043610610228575f3560e01c80638456cb5911610122578063acb18c0b116100aa578063c4d66de81161006e578063c4d66de814610785578063c7f758a8146107ad578063df357d3e146107f3578063f2fde38b1461081d578063f84038b1146108455761022f565b8063acb18c0b146106a5578063acd1bdb4146106cf578063ad3cb1cc146106f7578063b8077c2514610721578063c470b2a21461075d5761022f565b80638da5cb5b116100f15780638da5cb5b146105c1578063937e09b1146105eb578063a5fe07a914610615578063a884600814610651578063a9c307661461067b5761022f565b80638456cb5914610531578063880cdc3114610547578063893d20e81461056f5780638b40db2d146105995761022f565b80634f1ef286116101b05780636805b84b116101745780636805b84b146104755780636f9fb98a1461049f578063715018a6146104c9578063798974dd146104df578063831c43ac146105095761022f565b80634f1ef286146103b557806352d1902d146103d15780635545db0d146103fb578063566f9578146104235780635c975abb1461044b5761022f565b80633f4ba83a116101f75780633f4ba83a14610305578063400e39491461031b57806343e9658c1461034557806345598b4a1461038357806345d3292b146103ab5761022f565b8063013cf08b146102335780630ea142f714610277578063155ce98f1461029f5780631f6d4942146102c75761022f565b3661022f57005b5f80fd5b34801561023e575f80fd5b5061025960048036038101906102549190613039565b61086f565b60405161026e999897969594939291906131cf565b60405180910390f35b348015610282575f80fd5b5061029d60048036038101906102989190613039565b610989565b005b3480156102aa575f80fd5b506102c560048036038101906102c09190613039565b610c2a565b005b3480156102d2575f80fd5b506102ed60048036038101906102e8919061328b565b610c44565b6040516102fc939291906132b6565b60405180910390f35b348015610310575f80fd5b50610319610c69565b005b348015610326575f80fd5b5061032f610c7b565b60405161033c91906132eb565b60405180910390f35b348015610350575f80fd5b5061036b6004803603810190610366919061328b565b610c81565b60405161037a939291906132b6565b60405180910390f35b34801561038e575f80fd5b506103a960048036038101906103a49190613039565b610d50565b005b6103b361106d565b005b6103cf60048036038101906103ca9190613430565b611154565b005b3480156103dc575f80fd5b506103e5611173565b6040516103f291906134a2565b60405180910390f35b348015610406575f80fd5b50610421600480360381019061041c9190613039565b6111a4565b005b34801561042e575f80fd5b5061044960048036038101906104449190613039565b6115cb565b005b348015610456575f80fd5b5061045f611a31565b60405161046c91906134d5565b60405180910390f35b348015610480575f80fd5b50610489611a53565b60405161049691906134d5565b60405180910390f35b3480156104aa575f80fd5b506104b3611a61565b6040516104c091906132eb565b60405180910390f35b3480156104d4575f80fd5b506104dd611a68565b005b3480156104ea575f80fd5b506104f3611a7b565b60405161050091906132eb565b60405180910390f35b348015610514575f80fd5b5061052f600480360381019061052a91906135b6565b611a84565b005b34801561053c575f80fd5b50610545611bae565b005b348015610552575f80fd5b5061056d6004803603810190610568919061328b565b611bc0565b005b34801561057a575f80fd5b50610583611bdc565b6040516105909190613622565b60405180910390f35b3480156105a4575f80fd5b506105bf60048036038101906105ba9190613039565b611bea565b005b3480156105cc575f80fd5b506105d5611c04565b6040516105e29190613622565b60405180910390f35b3480156105f6575f80fd5b506105ff611c39565b60405161060c91906132eb565b60405180910390f35b348015610620575f80fd5b5061063b6004803603810190610636919061363b565b611c3f565b60405161064891906132eb565b60405180910390f35b34801561065c575f80fd5b50610665611c5f565b60405161067291906132eb565b60405180910390f35b348015610686575f80fd5b5061068f611c68565b60405161069c91906132eb565b60405180910390f35b3480156106b0575f80fd5b506106b9611c6e565b6040516106c691906132eb565b60405180910390f35b3480156106da575f80fd5b506106f560048036038101906106f09190613039565b611c74565b005b348015610702575f80fd5b5061070b611c8e565b6040516107189190613679565b60405180910390f35b34801561072c575f80fd5b506107476004803603810190610742919061363b565b611cc7565b60405161075491906132eb565b60405180910390f35b348015610768575f80fd5b50610783600480360381019061077e9190613699565b611d1d565b005b348015610790575f80fd5b506107ab60048036038101906107a6919061328b565b611ef7565b005b3480156107b8575f80fd5b506107d360048036038101906107ce9190613039565b6120a6565b6040516107ea9b9a9998979695949392919061377b565b60405180910390f35b3480156107fe575f80fd5b5061080761249e565b60405161081491906132eb565b60405180910390f35b348015610828575f80fd5b50610843600480360381019061083e919061328b565b6124a7565b005b348015610850575f80fd5b5061085961252b565b60405161086691906132eb565b60405180910390f35b6002602052805f5260405f205f91509050805f015f9054906101000a900473ffffffffffffffffffffffffffffffffffffffff16908060010154908060020154908060030180546108bf9061386d565b80601f01602080910402602001604051908101604052809291908181526020018280546108eb9061386d565b80156109365780601f1061090d57610100808354040283529160200191610936565b820191905f5260205f20905b81548152906001019060200180831161091957829003601f168201915b505050505090806004015f9054906101000a900473ffffffffffffffffffffffffffffffffffffffff1690806005015490806006015490806007015f9054906101000a900460ff16908060080154905089565b610991612534565b5f60025f8381526020019081526020015f2090506109ae81612575565b5f60028111156109c1576109c061315c565b5b816007015f9054906101000a900460ff1660028111156109e4576109e361315c565b5b1480610a245750600160028111156109ff576109fe61315c565b5b816007015f9054906101000a900460ff166002811115610a2257610a2161315c565b5b145b610a63576040517f08c379a0000000000000000000000000000000000000000000000000000000008152600401610a5a90613933565b60405180910390fd5b5f60015f8481526020019081526020015f205f3373ffffffffffffffffffffffffffffffffffffffff1673ffffffffffffffffffffffffffffffffffffffff1681526020019081526020015f205490505f8111610af5576040517f08c379a0000000000000000000000000000000000000000000000000000000008152600401610aec906139c1565b60405180910390fd5b805f803373ffffffffffffffffffffffffffffffffffffffff1673ffffffffffffffffffffffffffffffffffffffff1681526020019081526020015f206001015f828254610b439190613a0c565b92505081905550805f803373ffffffffffffffffffffffffffffffffffffffff1673ffffffffffffffffffffffffffffffffffffffff1681526020019081526020015f206002015f828254610b989190613a3f565b9250508190555080826006015f828254610bb29190613a3f565b925050819055506001826008015f828254610bcd9190613a3f565b925050819055505f60015f8581526020019081526020015f205f3373ffffffffffffffffffffffffffffffffffffffff1673ffffffffffffffffffffffffffffffffffffffff1681526020019081526020015f2081905550505050565b610c32612608565b610c3a61268f565b8060058190555050565b5f602052805f5260405f205f91509050805f0154908060010154908060020154905083565b610c71612608565b610c796126cf565b565b60065481565b5f805f805f8573ffffffffffffffffffffffffffffffffffffffff1673ffffffffffffffffffffffffffffffffffffffff1681526020019081526020015f205f015492505f808573ffffffffffffffffffffffffffffffffffffffff1673ffffffffffffffffffffffffffffffffffffffff1681526020019081526020015f206001015491505f808573ffffffffffffffffffffffffffffffffffffffff1673ffffffffffffffffffffffffffffffffffffffff1681526020019081526020015f206002015490509193909250565b610d58612534565b5f60025f8381526020019081526020015f209050805f015f9054906101000a900473ffffffffffffffffffffffffffffffffffffffff1673ffffffffffffffffffffffffffffffffffffffff163373ffffffffffffffffffffffffffffffffffffffff1614610dfc576040517f08c379a0000000000000000000000000000000000000000000000000000000008152600401610df390613ae2565b60405180910390fd5b610e0581612575565b5f6002811115610e1857610e1761315c565b5b816007015f9054906101000a900460ff166002811115610e3b57610e3a61315c565b5b14610e7b576040517f08c379a0000000000000000000000000000000000000000000000000000000008152600401610e7290613b70565b60405180910390fd5b6001816007015f6101000a81548160ff02191690836002811115610ea257610ea161315c565b5b02179055505f5b8160090180549050811015611068575f826009018281548110610ecf57610ece613b8e565b5b905f5260205f20015f9054906101000a900473ffffffffffffffffffffffffffffffffffffffff1690505f60015f8681526020019081526020015f205f8373ffffffffffffffffffffffffffffffffffffffff1673ffffffffffffffffffffffffffffffffffffffff1681526020019081526020015f205490505f81111561105157805f808473ffffffffffffffffffffffffffffffffffffffff1673ffffffffffffffffffffffffffffffffffffffff1681526020019081526020015f206001015f828254610f9f9190613a0c565b92505081905550805f808473ffffffffffffffffffffffffffffffffffffffff1673ffffffffffffffffffffffffffffffffffffffff1681526020019081526020015f206002015f828254610ff49190613a3f565b925050819055505f60015f8781526020019081526020015f205f8473ffffffffffffffffffffffffffffffffffffffff1673ffffffffffffffffffffffffffffffffffffffff1681526020019081526020015f2081905550611058565b505061105b565b50505b8080600101915050610ea9565b505050565b611075612534565b6003543410156110ba576040517f08c379a00000000000000000000000000000000000000000000000000000000081526004016110b190613c05565b60405180910390fd5b425f803373ffffffffffffffffffffffffffffffffffffffff1673ffffffffffffffffffffffffffffffffffffffff1681526020019081526020015f205f0181905550345f803373ffffffffffffffffffffffffffffffffffffffff1673ffffffffffffffffffffffffffffffffffffffff1681526020019081526020015f206001015f82825461114b9190613a0c565b92505081905550565b61115c61273d565b61116582612823565b61116f828261282e565b5050565b5f61117c61294c565b7f360894a13ba1a3210667c828492db98dca3e2076cc3735a920a3ca505d382bbc5f1b905090565b6111ac612534565b5f60025f8381526020019081526020015f209050805f015f9054906101000a900473ffffffffffffffffffffffffffffffffffffffff1673ffffffffffffffffffffffffffffffffffffffff163373ffffffffffffffffffffffffffffffffffffffff1614611250576040517f08c379a000000000000000000000000000000000000000000000000000000000815260040161124790613ae2565b60405180910390fd5b61125981612575565b5f600281111561126c5761126b61315c565b5b816007015f9054906101000a900460ff16600281111561128f5761128e61315c565b5b146112cf576040517f08c379a00000000000000000000000000000000000000000000000000000000081526004016112c690613c93565b60405180910390fd5b80600501548160060154101561131a576040517f08c379a000000000000000000000000000000000000000000000000000000000815260040161131190613d21565b60405180910390fd5b8060060154471015611361576040517f08c379a000000000000000000000000000000000000000000000000000000000815260040161135890613daf565b60405180910390fd5b6002816007015f6101000a81548160ff021916908360028111156113885761138761315c565b5b02179055505f5b816009018054905081101561155b575f8260090182815481106113b5576113b4613b8e565b5b905f5260205f20015f9054906101000a900473ffffffffffffffffffffffffffffffffffffffff1690505f60015f8681526020019081526020015f205f8373ffffffffffffffffffffffffffffffffffffffff1673ffffffffffffffffffffffffffffffffffffffff1681526020019081526020015f205490505f81111561154457805f808473ffffffffffffffffffffffffffffffffffffffff1673ffffffffffffffffffffffffffffffffffffffff1681526020019081526020015f206002015f8282546114859190613a3f565b925050819055505f60015f8781526020019081526020015f205f8473ffffffffffffffffffffffffffffffffffffffff1673ffffffffffffffffffffffffffffffffffffffff1681526020019081526020015f208190555083600a0182908060018154018082558091505060019003905f5260205f20015f9091909190916101000a81548173ffffffffffffffffffffffffffffffffffffffff021916908373ffffffffffffffffffffffffffffffffffffffff16021790555061154b565b505061154e565b50505b808060010191505061138f565b50806004015f9054906101000a900473ffffffffffffffffffffffffffffffffffffffff1673ffffffffffffffffffffffffffffffffffffffff166108fc826006015490811502906040515f60405180830381858888f193505050501580156115c6573d5f803e3d5ffd5b505050565b6115d3612534565b5f60025f8381526020019081526020015f2090506115f081612575565b5f60028111156116035761160261315c565b5b816007015f9054906101000a900460ff1660028111156116265761162561315c565b5b14611666576040517f08c379a000000000000000000000000000000000000000000000000000000000815260040161165d90613e17565b60405180910390fd5b5f805f3373ffffffffffffffffffffffffffffffffffffffff1673ffffffffffffffffffffffffffffffffffffffff1681526020019081526020015f206001015403611769575f805f3373ffffffffffffffffffffffffffffffffffffffff1673ffffffffffffffffffffffffffffffffffffffff1681526020019081526020015f2060020154111561172e576040517f08c379a000000000000000000000000000000000000000000000000000000000815260040161172590613ecb565b60405180910390fd5b6040517f08c379a000000000000000000000000000000000000000000000000000000000815260040161176090613f33565b60405180910390fd5b60016004546117789190613f51565b5f803373ffffffffffffffffffffffffffffffffffffffff1673ffffffffffffffffffffffffffffffffffffffff1681526020019081526020015f205f0154426117c29190613a3f565b1015611803576040517f08c379a00000000000000000000000000000000000000000000000000000000081526004016117fa90614002565b60405180910390fd5b5f805f3373ffffffffffffffffffffffffffffffffffffffff1673ffffffffffffffffffffffffffffffffffffffff1681526020019081526020015f206001015490505f805f3373ffffffffffffffffffffffffffffffffffffffff1673ffffffffffffffffffffffffffffffffffffffff1681526020019081526020015f2060010181905550805f803373ffffffffffffffffffffffffffffffffffffffff1673ffffffffffffffffffffffffffffffffffffffff1681526020019081526020015f206002015f8282546118d89190613a0c565b9250508190555080826006015f8282546118f29190613a0c565b925050819055505f60015f8581526020019081526020015f205f3373ffffffffffffffffffffffffffffffffffffffff1673ffffffffffffffffffffffffffffffffffffffff1681526020019081526020015f2054036119ca576001826008015f8282546119609190613a0c565b925050819055508160090133908060018154018082558091505060019003905f5260205f20015f9091909190916101000a81548173ffffffffffffffffffffffffffffffffffffffff021916908373ffffffffffffffffffffffffffffffffffffffff1602179055505b8060015f8581526020019081526020015f205f3373ffffffffffffffffffffffffffffffffffffffff1673ffffffffffffffffffffffffffffffffffffffff1681526020019081526020015f205f828254611a259190613a0c565b92505081905550505050565b5f80611a3b6129d3565b9050805f015f9054906101000a900460ff1691505090565b5f611a5c611a31565b905090565b5f47905090565b611a70612608565b611a795f6129fa565b565b5f600654905090565b611a8c612534565b5f60025f60065481526020019081526020015f20905033815f015f6101000a81548173ffffffffffffffffffffffffffffffffffffffff021916908373ffffffffffffffffffffffffffffffffffffffff160217905550600654816001018190555042816002018190555083816003019081611b0891906141bd565b5082816004015f6101000a81548173ffffffffffffffffffffffffffffffffffffffff021916908373ffffffffffffffffffffffffffffffffffffffff1602179055508181600501819055505f81600601819055505f816007015f6101000a81548160ff02191690836002811115611b8357611b8261315c565b5b02179055505f816008018190555060065f815480929190611ba39061428c565b919050555050505050565b611bb6612608565b611bbe612acb565b565b611bc8612608565b611bd061268f565b611bd9816124a7565b50565b5f611be5611c04565b905090565b611bf2612608565b611bfa61268f565b8060048190555050565b5f80611c0e612b3a565b9050805f015f9054906101000a900473ffffffffffffffffffffffffffffffffffffffff1691505090565b60035481565b6001602052815f5260405f20602052805f5260405f205f91509150505481565b5f600454905090565b60055481565b60045481565b611c7c612608565b611c8461268f565b8060038190555050565b6040518060400160405280600581526020017f352e302e3000000000000000000000000000000000000000000000000000000081525081565b5f60015f8481526020019081526020015f205f8373ffffffffffffffffffffffffffffffffffffffff1673ffffffffffffffffffffffffffffffffffffffff1681526020019081526020015f2054905092915050565b611d25612534565b5f805f3373ffffffffffffffffffffffffffffffffffffffff1673ffffffffffffffffffffffffffffffffffffffff1681526020019081526020015f206001015403611e28575f805f3373ffffffffffffffffffffffffffffffffffffffff1673ffffffffffffffffffffffffffffffffffffffff1681526020019081526020015f20600201541115611ded576040517f08c379a0000000000000000000000000000000000000000000000000000000008152600401611de49061431d565b60405180910390fd5b6040517f08c379a0000000000000000000000000000000000000000000000000000000008152600401611e1f90614385565b60405180910390fd5b5f805f3373ffffffffffffffffffffffffffffffffffffffff1673ffffffffffffffffffffffffffffffffffffffff1681526020019081526020015f206001015490505f805f3373ffffffffffffffffffffffffffffffffffffffff1673ffffffffffffffffffffffffffffffffffffffff1681526020019081526020015f20600101819055508173ffffffffffffffffffffffffffffffffffffffff166108fc8290811502906040515f60405180830381858888f19350505050158015611ef2573d5f803e3d5ffd5b505050565b5f611f00612b61565b90505f815f0160089054906101000a900460ff161590505f825f015f9054906101000a900467ffffffffffffffff1690505f808267ffffffffffffffff16148015611f485750825b90505f60018367ffffffffffffffff16148015611f7b57505f3073ffffffffffffffffffffffffffffffffffffffff163b145b905081158015611f89575080155b15611fc0576040517ff92ee8a900000000000000000000000000000000000000000000000000000000815260040160405180910390fd5b6001855f015f6101000a81548167ffffffffffffffff021916908367ffffffffffffffff160217905550831561200d576001855f0160086101000a81548160ff0219169083151502179055505b612015612b88565b61201e86612b9a565b612026612bae565b6601902d7bb3800060038190555060146004819055506007600581905550831561209e575f855f0160086101000a81548160ff0219169083151502179055507fc7f505b2f371ae2175ee4913f4499e1f2633a7b5936321eed1cdaeb6115181d2600160405161209591906143ef565b60405180910390a15b505050505050565b5f805f60605f805f60605f60608060025f8d81526020019081526020015f205f015f9054906101000a900473ffffffffffffffffffffffffffffffffffffffff169a5060025f8d81526020019081526020015f2060010154995060025f8d81526020019081526020015f2060020154985060025f8d81526020019081526020015f2060030180546121369061386d565b80601f01602080910402602001604051908101604052809291908181526020018280546121629061386d565b80156121ad5780601f10612184576101008083540402835291602001916121ad565b820191905f5260205f20905b81548152906001019060200180831161219057829003601f168201915b5050505050975060025f8d81526020019081526020015f206004015f9054906101000a900473ffffffffffffffffffffffffffffffffffffffff16965060025f8d81526020019081526020015f2060050154955060025f8d81526020019081526020015f206006015494505f60025f8e81526020019081526020015f206007015f9054906101000a900460ff1690505f600281111561224f5761224e61315c565b5b8160028111156122625761226161315c565b5b036122a4576040518060400160405280600681526020017f41637469766500000000000000000000000000000000000000000000000000008152509450612347565b600160028111156122b8576122b761315c565b5b8160028111156122cb576122ca61315c565b5b0361230d576040518060400160405280600781526020017f45787069726564000000000000000000000000000000000000000000000000008152509450612346565b6040518060400160405280600981526020017f436f6d706c65746564000000000000000000000000000000000000000000000081525094505b5b60025f8e81526020019081526020015f2060080154935060025f8e81526020019081526020015f206009018054806020026020016040519081016040528092919081815260200182805480156123ef57602002820191905f5260205f20905b815f9054906101000a900473ffffffffffffffffffffffffffffffffffffffff1673ffffffffffffffffffffffffffffffffffffffff16815260200190600101908083116123a6575b5050505050925060025f8e81526020019081526020015f20600a0180548060200260200160405190810160405280929190818152602001828054801561248757602002820191905f5260205f20905b815f9054906101000a900473ffffffffffffffffffffffffffffffffffffffff1673ffffffffffffffffffffffffffffffffffffffff168152602001906001019080831161243e575b505050505091505091939597999b90929496989a50565b5f600554905090565b6124af612608565b5f73ffffffffffffffffffffffffffffffffffffffff168173ffffffffffffffffffffffffffffffffffffffff160361251f575f6040517f1e4fbdf70000000000000000000000000000000000000000000000000000000081526004016125169190613622565b60405180910390fd5b612528816129fa565b50565b5f600354905090565b61253c611a31565b15612573576040517fd93c066500000000000000000000000000000000000000000000000000000000815260040160405180910390fd5b565b5f60028111156125885761258761315c565b5b816007015f9054906101000a900460ff1660028111156125ab576125aa61315c565b5b0361260557620151806005546125c19190613f51565b8160020154426125d19190613a3f565b1115612604576001816007015f6101000a81548160ff021916908360028111156125fe576125fd61315c565b5b02179055505b5b50565b612610612bb8565b73ffffffffffffffffffffffffffffffffffffffff1661262e611c04565b73ffffffffffffffffffffffffffffffffffffffff161461268d57612651612bb8565b6040517f118cdaa70000000000000000000000000000000000000000000000000000000081526004016126849190613622565b60405180910390fd5b565b612697611a31565b6126cd576040517f8dfc202b00000000000000000000000000000000000000000000000000000000815260040160405180910390fd5b565b6126d761268f565b5f6126e06129d3565b90505f815f015f6101000a81548160ff0219169083151502179055507f5db9ee0a495bf2e6ff9c91a7834c1ba4fdd244a5e8aa4e537bd38aeae4b073aa612725612bb8565b6040516127329190613622565b60405180910390a150565b7f000000000000000000000000000000000000000000000000000000000000000073ffffffffffffffffffffffffffffffffffffffff163073ffffffffffffffffffffffffffffffffffffffff1614806127ea57507f000000000000000000000000000000000000000000000000000000000000000073ffffffffffffffffffffffffffffffffffffffff166127d1612bbf565b73ffffffffffffffffffffffffffffffffffffffff1614155b15612821576040517fe07c8dba00000000000000000000000000000000000000000000000000000000815260040160405180910390fd5b565b61282b612608565b50565b8173ffffffffffffffffffffffffffffffffffffffff166352d1902d6040518163ffffffff1660e01b8152600401602060405180830381865afa92505050801561289657506040513d601f19601f820116820180604052508101906128939190614432565b60015b6128d757816040517f4c9c8ce30000000000000000000000000000000000000000000000000000000081526004016128ce9190613622565b60405180910390fd5b7f360894a13ba1a3210667c828492db98dca3e2076cc3735a920a3ca505d382bbc5f1b811461293d57806040517faa1d49a400000000000000000000000000000000000000000000000000000000815260040161293491906134a2565b60405180910390fd5b6129478383612c12565b505050565b7f000000000000000000000000000000000000000000000000000000000000000073ffffffffffffffffffffffffffffffffffffffff163073ffffffffffffffffffffffffffffffffffffffff16146129d1576040517fe07c8dba00000000000000000000000000000000000000000000000000000000815260040160405180910390fd5b565b5f7fcd5ed15c6e187e77e9aee88184c21f4f2182ab5827cb3b7e07fbedcd63f03300905090565b5f612a03612b3a565b90505f815f015f9054906101000a900473ffffffffffffffffffffffffffffffffffffffff16905082825f015f6101000a81548173ffffffffffffffffffffffffffffffffffffffff021916908373ffffffffffffffffffffffffffffffffffffffff1602179055508273ffffffffffffffffffffffffffffffffffffffff168173ffffffffffffffffffffffffffffffffffffffff167f8be0079c531659141344cd1fd0a4f28419497f9722a3daafe3b4186f6b6457e060405160405180910390a3505050565b612ad3612534565b5f612adc6129d3565b90506001815f015f6101000a81548160ff0219169083151502179055507f62e78cea01bee320cd4e420270b5ea74000d11b0c9f74754ebdbfc544b05a258612b22612bb8565b604051612b2f9190613622565b60405180910390a150565b5f7f9016d09d72d40fdae2fd8ceac6b6234c7706214fd39c1cd1e609a0528c199300905090565b5f7ff0c57e16840df040f15088dc2f81fe391c3923bec73e23a9662efc9c229c6a00905090565b612b90612c84565b612b98612cc4565b565b612ba2612c84565b612bab81612cf4565b50565b612bb6612c84565b565b5f33905090565b5f612beb7f360894a13ba1a3210667c828492db98dca3e2076cc3735a920a3ca505d382bbc5f1b612d78565b5f015f9054906101000a900473ffffffffffffffffffffffffffffffffffffffff16905090565b612c1b82612d81565b8173ffffffffffffffffffffffffffffffffffffffff167fbc7cd75a20ee27fd9adebab32041f755214dbc6bffa90cc0225b39da2e5c2d3b60405160405180910390a25f81511115612c7757612c718282612e4a565b50612c80565b612c7f612eca565b5b5050565b612c8c612f06565b612cc2576040517fd7e6bcf800000000000000000000000000000000000000000000000000000000815260040160405180910390fd5b565b612ccc612c84565b5f612cd56129d3565b90505f815f015f6101000a81548160ff02191690831515021790555050565b612cfc612c84565b5f73ffffffffffffffffffffffffffffffffffffffff168173ffffffffffffffffffffffffffffffffffffffff1603612d6c575f6040517f1e4fbdf7000000000000000000000000000000000000000000000000000000008152600401612d639190613622565b60405180910390fd5b612d75816129fa565b50565b5f819050919050565b5f8173ffffffffffffffffffffffffffffffffffffffff163b03612ddc57806040517f4c9c8ce3000000000000000000000000000000000000000000000000000000008152600401612dd39190613622565b60405180910390fd5b80612e087f360894a13ba1a3210667c828492db98dca3e2076cc3735a920a3ca505d382bbc5f1b612d78565b5f015f6101000a81548173ffffffffffffffffffffffffffffffffffffffff021916908373ffffffffffffffffffffffffffffffffffffffff16021790555050565b60605f808473ffffffffffffffffffffffffffffffffffffffff1684604051612e7391906144a1565b5f60405180830381855af49150503d805f8114612eab576040519150601f19603f3d011682016040523d82523d5f602084013e612eb0565b606091505b5091509150612ec0858383612f24565b9250505092915050565b5f341115612f04576040517fb398979f00000000000000000000000000000000000000000000000000000000815260040160405180910390fd5b565b5f612f0f612b61565b5f0160089054906101000a900460ff16905090565b606082612f3957612f3482612fb1565b612fa9565b5f8251148015612f5f57505f8473ffffffffffffffffffffffffffffffffffffffff163b145b15612fa157836040517f9996b315000000000000000000000000000000000000000000000000000000008152600401612f989190613622565b60405180910390fd5b819050612faa565b5b9392505050565b5f81511115612fc35780518082602001fd5b6040517f1425ea4200000000000000000000000000000000000000000000000000000000815260040160405180910390fd5b5f604051905090565b5f80fd5b5f80fd5b5f819050919050565b61301881613006565b8114613022575f80fd5b50565b5f813590506130338161300f565b92915050565b5f6020828403121561304e5761304d612ffe565b5b5f61305b84828501613025565b91505092915050565b5f73ffffffffffffffffffffffffffffffffffffffff82169050919050565b5f61308d82613064565b9050919050565b61309d81613083565b82525050565b6130ac81613006565b82525050565b5f81519050919050565b5f82825260208201905092915050565b5f5b838110156130e95780820151818401526020810190506130ce565b5f8484015250505050565b5f601f19601f8301169050919050565b5f61310e826130b2565b61311881856130bc565b93506131288185602086016130cc565b613131816130f4565b840191505092915050565b5f61314682613064565b9050919050565b6131568161313c565b82525050565b7f4e487b71000000000000000000000000000000000000000000000000000000005f52602160045260245ffd5b6003811061319a5761319961315c565b5b50565b5f8190506131aa82613189565b919050565b5f6131b98261319d565b9050919050565b6131c9816131af565b82525050565b5f610120820190506131e35f83018c613094565b6131f0602083018b6130a3565b6131fd604083018a6130a3565b818103606083015261320f8189613104565b905061321e608083018861314d565b61322b60a08301876130a3565b61323860c08301866130a3565b61324560e08301856131c0565b6132536101008301846130a3565b9a9950505050505050505050565b61326a81613083565b8114613274575f80fd5b50565b5f8135905061328581613261565b92915050565b5f602082840312156132a05761329f612ffe565b5b5f6132ad84828501613277565b91505092915050565b5f6060820190506132c95f8301866130a3565b6132d660208301856130a3565b6132e360408301846130a3565b949350505050565b5f6020820190506132fe5f8301846130a3565b92915050565b5f80fd5b5f80fd5b7f4e487b71000000000000000000000000000000000000000000000000000000005f52604160045260245ffd5b613342826130f4565b810181811067ffffffffffffffff821117156133615761336061330c565b5b80604052505050565b5f613373612ff5565b905061337f8282613339565b919050565b5f67ffffffffffffffff82111561339e5761339d61330c565b5b6133a7826130f4565b9050602081019050919050565b828183375f83830152505050565b5f6133d46133cf84613384565b61336a565b9050828152602081018484840111156133f0576133ef613308565b5b6133fb8482856133b4565b509392505050565b5f82601f83011261341757613416613304565b5b81356134278482602086016133c2565b91505092915050565b5f806040838503121561344657613445612ffe565b5b5f61345385828601613277565b925050602083013567ffffffffffffffff81111561347457613473613002565b5b61348085828601613403565b9150509250929050565b5f819050919050565b61349c8161348a565b82525050565b5f6020820190506134b55f830184613493565b92915050565b5f8115159050919050565b6134cf816134bb565b82525050565b5f6020820190506134e85f8301846134c6565b92915050565b5f67ffffffffffffffff8211156135085761350761330c565b5b613511826130f4565b9050602081019050919050565b5f61353061352b846134ee565b61336a565b90508281526020810184848401111561354c5761354b613308565b5b6135578482856133b4565b509392505050565b5f82601f83011261357357613572613304565b5b813561358384826020860161351e565b91505092915050565b6135958161313c565b811461359f575f80fd5b50565b5f813590506135b08161358c565b92915050565b5f805f606084860312156135cd576135cc612ffe565b5b5f84013567ffffffffffffffff8111156135ea576135e9613002565b5b6135f68682870161355f565b9350506020613607868287016135a2565b925050604061361886828701613025565b9150509250925092565b5f6020820190506136355f830184613094565b92915050565b5f806040838503121561365157613650612ffe565b5b5f61365e85828601613025565b925050602061366f85828601613277565b9150509250929050565b5f6020820190508181035f8301526136918184613104565b905092915050565b5f602082840312156136ae576136ad612ffe565b5b5f6136bb848285016135a2565b91505092915050565b5f81519050919050565b5f82825260208201905092915050565b5f819050602082019050919050565b6136f681613083565b82525050565b5f61370783836136ed565b60208301905092915050565b5f602082019050919050565b5f613729826136c4565b61373381856136ce565b935061373e836136de565b805f5b8381101561376e57815161375588826136fc565b975061376083613713565b925050600181019050613741565b5085935050505092915050565b5f6101608201905061378f5f83018e613094565b61379c602083018d6130a3565b6137a9604083018c6130a3565b81810360608301526137bb818b613104565b90506137ca608083018a613094565b6137d760a08301896130a3565b6137e460c08301886130a3565b81810360e08301526137f68187613104565b90506138066101008301866130a3565b818103610120830152613819818561371f565b905081810361014083015261382e818461371f565b90509c9b505050505050505050505050565b7f4e487b71000000000000000000000000000000000000000000000000000000005f52602260045260245ffd5b5f600282049050600182168061388457607f821691505b60208210810361389757613896613840565b5b50919050565b7f5468652063616d706169676e20697320636f6d706c65746564207375636365735f8201527f7366756c6c7920616e6420646f6e6174696f6e20636f756c64206e6f7420626560208201527f2077697468647261776e00000000000000000000000000000000000000000000604082015250565b5f61391d604a836130bc565b91506139288261389d565b606082019050919050565b5f6020820190508181035f83015261394a81613911565b9050919050565b7f596f752068617665206e6f7420646f6e6174656420746f20746869732063616d5f8201527f706169676e000000000000000000000000000000000000000000000000000000602082015250565b5f6139ab6025836130bc565b91506139b682613951565b604082019050919050565b5f6020820190508181035f8301526139d88161399f565b9050919050565b7f4e487b71000000000000000000000000000000000000000000000000000000005f52601160045260245ffd5b5f613a1682613006565b9150613a2183613006565b9250828201905080821115613a3957613a386139df565b5b92915050565b5f613a4982613006565b9150613a5483613006565b9250828203905081811115613a6c57613a6b6139df565b5b92915050565b7f4f6e6c792070726f706f7365722063616e206368616e6765207468652063616d5f8201527f706169676e207374617465000000000000000000000000000000000000000000602082015250565b5f613acc602b836130bc565b9150613ad782613a72565b604082019050919050565b5f6020820190508181035f830152613af981613ac0565b9050919050565b7f5468652063616d706169676e206973206e6f74206163746976652e20436f756c5f8201527f64206e6f742062652063616e63656c6c65640000000000000000000000000000602082015250565b5f613b5a6032836130bc565b9150613b6582613b00565b604082019050919050565b5f6020820190508181035f830152613b8781613b4e565b9050919050565b7f4e487b71000000000000000000000000000000000000000000000000000000005f52603260045260245ffd5b7f4d696e696d756d20436f6e747269627574696f6e206973206e6f74206d6574005f82015250565b5f613bef601f836130bc565b9150613bfa82613bbb565b602082019050919050565b5f6020820190508181035f830152613c1c81613be3565b9050919050565b7f5468652063616d706169676e206973206e6f74206163746976652e20436f756c5f8201527f64206e6f7420626520636c6f7365640000000000000000000000000000000000602082015250565b5f613c7d602f836130bc565b9150613c8882613c23565b604082019050919050565b5f6020820190508181035f830152613caa81613c71565b9050919050565b7f5468652063616d706169676e20646f6573206e6f74206861766520656e6f75675f8201527f68206d6f6e657900000000000000000000000000000000000000000000000000602082015250565b5f613d0b6027836130bc565b9150613d1682613cb1565b604082019050919050565b5f6020820190508181035f830152613d3881613cff565b9050919050565b7f54686520636f6e747261637420646f6573206e6f74206861766520656e6f75675f8201527f68206d6f6e657900000000000000000000000000000000000000000000000000602082015250565b5f613d996027836130bc565b9150613da482613d3f565b604082019050919050565b5f6020820190508181035f830152613dc681613d8d565b9050919050565b7f5468652063616d706169676e206973206e6f74206163746976650000000000005f82015250565b5f613e01601a836130bc565b9150613e0c82613dcd565b602082019050919050565b5f6020820190508181035f830152613e2e81613df5565b9050919050565b7f596f7520646f206e6f7420686176652062616c616e636520666f72206e6577205f8201527f766f74696e672c20706c65617365207761697420666f7220746865206375727260208201527f656e7420766f74696e6720746f2066696e697368000000000000000000000000604082015250565b5f613eb56054836130bc565b9150613ec082613e35565b606082019050919050565b5f6020820190508181035f830152613ee281613ea9565b9050919050565b7f596f75206d757374206265206120636f6e7472696275746f72000000000000005f82015250565b5f613f1d6019836130bc565b9150613f2882613ee9565b602082019050919050565b5f6020820190508181035f830152613f4a81613f11565b9050919050565b5f613f5b82613006565b9150613f6683613006565b9250828202613f7481613006565b91508282048414831517613f8b57613f8a6139df565b5b5092915050565b7f5468652062616c616e636520796f7520646f6e61746564206973207374696c6c5f8201527f20696e2070656e64696e67000000000000000000000000000000000000000000602082015250565b5f613fec602b836130bc565b9150613ff782613f92565b604082019050919050565b5f6020820190508181035f83015261401981613fe0565b9050919050565b5f819050815f5260205f209050919050565b5f6020601f8301049050919050565b5f82821b905092915050565b5f6008830261407c7fffffffffffffffffffffffffffffffffffffffffffffffffffffffffffffffff82614041565b6140868683614041565b95508019841693508086168417925050509392505050565b5f819050919050565b5f6140c16140bc6140b784613006565b61409e565b613006565b9050919050565b5f819050919050565b6140da836140a7565b6140ee6140e6826140c8565b84845461404d565b825550505050565b5f90565b6141026140f6565b61410d8184846140d1565b505050565b5b81811015614130576141255f826140fa565b600181019050614113565b5050565b601f8211156141755761414681614020565b61414f84614032565b8101602085101561415e578190505b61417261416a85614032565b830182614112565b50505b505050565b5f82821c905092915050565b5f6141955f198460080261417a565b1980831691505092915050565b5f6141ad8383614186565b9150826002028217905092915050565b6141c6826130b2565b67ffffffffffffffff8111156141df576141de61330c565b5b6141e9825461386d565b6141f4828285614134565b5f60209050601f831160018114614225575f8415614213578287015190505b61421d85826141a2565b865550614284565b601f19841661423386614020565b5f5b8281101561425a57848901518255600182019150602085019450602081019050614235565b868310156142775784890151614273601f891682614186565b8355505b6001600288020188555050505b505050505050565b5f61429682613006565b91507fffffffffffffffffffffffffffffffffffffffffffffffffffffffffffffffff82036142c8576142c76139df565b5b600182019050919050565b7f54686520766f74696e67206973206e6f742066696e69736865642079657400005f82015250565b5f614307601e836130bc565b9150614312826142d3565b602082019050919050565b5f6020820190508181035f830152614334816142fb565b9050919050565b7f596f752068617665206e6f206d6f6e657920746f2077697468647261770000005f82015250565b5f61436f601d836130bc565b915061437a8261433b565b602082019050919050565b5f6020820190508181035f83015261439c81614363565b9050919050565b5f819050919050565b5f67ffffffffffffffff82169050919050565b5f6143d96143d46143cf846143a3565b61409e565b6143ac565b9050919050565b6143e9816143bf565b82525050565b5f6020820190506144025f8301846143e0565b92915050565b6144118161348a565b811461441b575f80fd5b50565b5f8151905061442c81614408565b92915050565b5f6020828403121561444757614446612ffe565b5b5f6144548482850161441e565b91505092915050565b5f81519050919050565b5f81905092915050565b5f61447b8261445d565b6144858185614467565b93506144958185602086016130cc565b80840191505092915050565b5f6144ac8284614471565b91508190509291505056fea26469706673582212202cfcee709e024dc43a71786ea2526f4acc6e4743b7d4718ad16855fd14b68d0764736f6c63430008160033",
			"opcodes": "PUSH1 0xA0 PUSH1 0x40 MSTORE ADDRESS PUSH20 0xFFFFFFFFFFFFFFFFFFFFFFFFFFFFFFFFFFFFFFFF AND PUSH1 0x80 SWAP1 PUSH20 0xFFFFFFFFFFFFFFFFFFFFFFFFFFFFFFFFFFFFFFFF AND DUP2 MSTORE POP CALLVALUE DUP1 ISZERO PUSH3 0x43 JUMPI PUSH0 DUP1 REVERT JUMPDEST POP PUSH3 0x54 PUSH3 0x5A PUSH1 0x20 SHL PUSH1 0x20 SHR JUMP JUMPDEST PUSH3 0x1C4 JUMP JUMPDEST PUSH0 PUSH3 0x6B PUSH3 0x15E PUSH1 0x20 SHL PUSH1 0x20 SHR JUMP JUMPDEST SWAP1 POP DUP1 PUSH0 ADD PUSH1 0x8 SWAP1 SLOAD SWAP1 PUSH2 0x100 EXP SWAP1 DIV PUSH1 0xFF AND ISZERO PUSH3 0xB6 JUMPI PUSH1 0x40 MLOAD PUSH32 0xF92EE8A900000000000000000000000000000000000000000000000000000000 DUP2 MSTORE PUSH1 0x4 ADD PUSH1 0x40 MLOAD DUP1 SWAP2 SUB SWAP1 REVERT JUMPDEST PUSH8 0xFFFFFFFFFFFFFFFF DUP1 AND DUP2 PUSH0 ADD PUSH0 SWAP1 SLOAD SWAP1 PUSH2 0x100 EXP SWAP1 DIV PUSH8 0xFFFFFFFFFFFFFFFF AND PUSH8 0xFFFFFFFFFFFFFFFF AND EQ PUSH3 0x15B JUMPI PUSH8 0xFFFFFFFFFFFFFFFF DUP2 PUSH0 ADD PUSH0 PUSH2 0x100 EXP DUP2 SLOAD DUP2 PUSH8 0xFFFFFFFFFFFFFFFF MUL NOT AND SWAP1 DUP4 PUSH8 0xFFFFFFFFFFFFFFFF AND MUL OR SWAP1 SSTORE POP PUSH32 0xC7F505B2F371AE2175EE4913F4499E1F2633A7B5936321EED1CDAEB6115181D2 PUSH8 0xFFFFFFFFFFFFFFFF PUSH1 0x40 MLOAD PUSH3 0x152 SWAP2 SWAP1 PUSH3 0x1A9 JUMP JUMPDEST PUSH1 0x40 MLOAD DUP1 SWAP2 SUB SWAP1 LOG1 JUMPDEST POP JUMP JUMPDEST PUSH0 PUSH32 0xF0C57E16840DF040F15088DC2F81FE391C3923BEC73E23A9662EFC9C229C6A00 SWAP1 POP SWAP1 JUMP JUMPDEST PUSH0 PUSH8 0xFFFFFFFFFFFFFFFF DUP3 AND SWAP1 POP SWAP2 SWAP1 POP JUMP JUMPDEST PUSH3 0x1A3 DUP2 PUSH3 0x185 JUMP JUMPDEST DUP3 MSTORE POP POP JUMP JUMPDEST PUSH0 PUSH1 0x20 DUP3 ADD SWAP1 POP PUSH3 0x1BE PUSH0 DUP4 ADD DUP5 PUSH3 0x198 JUMP JUMPDEST SWAP3 SWAP2 POP POP JUMP JUMPDEST PUSH1 0x80 MLOAD PUSH2 0x44ED PUSH3 0x1EB PUSH0 CODECOPY PUSH0 DUP2 DUP2 PUSH2 0x273F ADD MSTORE DUP2 DUP2 PUSH2 0x2794 ADD MSTORE PUSH2 0x294E ADD MSTORE PUSH2 0x44ED PUSH0 RETURN INVALID PUSH1 0x80 PUSH1 0x40 MSTORE PUSH1 0x4 CALLDATASIZE LT PUSH2 0x228 JUMPI PUSH0 CALLDATALOAD PUSH1 0xE0 SHR DUP1 PUSH4 0x8456CB59 GT PUSH2 0x122 JUMPI DUP1 PUSH4 0xACB18C0B GT PUSH2 0xAA JUMPI DUP1 PUSH4 0xC4D66DE8 GT PUSH2 0x6E JUMPI DUP1 PUSH4 0xC4D66DE8 EQ PUSH2 0x785 JUMPI DUP1 PUSH4 0xC7F758A8 EQ PUSH2 0x7AD JUMPI DUP1 PUSH4 0xDF357D3E EQ PUSH2 0x7F3 JUMPI DUP1 PUSH4 0xF2FDE38B EQ PUSH2 0x81D JUMPI DUP1 PUSH4 0xF84038B1 EQ PUSH2 0x845 JUMPI PUSH2 0x22F JUMP JUMPDEST DUP1 PUSH4 0xACB18C0B EQ PUSH2 0x6A5 JUMPI DUP1 PUSH4 0xACD1BDB4 EQ PUSH2 0x6CF JUMPI DUP1 PUSH4 0xAD3CB1CC EQ PUSH2 0x6F7 JUMPI DUP1 PUSH4 0xB8077C25 EQ PUSH2 0x721 JUMPI DUP1 PUSH4 0xC470B2A2 EQ PUSH2 0x75D JUMPI PUSH2 0x22F JUMP JUMPDEST DUP1 PUSH4 0x8DA5CB5B GT PUSH2 0xF1 JUMPI DUP1 PUSH4 0x8DA5CB5B EQ PUSH2 0x5C1 JUMPI DUP1 PUSH4 0x937E09B1 EQ PUSH2 0x5EB JUMPI DUP1 PUSH4 0xA5FE07A9 EQ PUSH2 0x615 JUMPI DUP1 PUSH4 0xA8846008 EQ PUSH2 0x651 JUMPI DUP1 PUSH4 0xA9C30766 EQ PUSH2 0x67B JUMPI PUSH2 0x22F JUMP JUMPDEST DUP1 PUSH4 0x8456CB59 EQ PUSH2 0x531 JUMPI DUP1 PUSH4 0x880CDC31 EQ PUSH2 0x547 JUMPI DUP1 PUSH4 0x893D20E8 EQ PUSH2 0x56F JUMPI DUP1 PUSH4 0x8B40DB2D EQ PUSH2 0x599 JUMPI PUSH2 0x22F JUMP JUMPDEST DUP1 PUSH4 0x4F1EF286 GT PUSH2 0x1B0 JUMPI DUP1 PUSH4 0x6805B84B GT PUSH2 0x174 JUMPI DUP1 PUSH4 0x6805B84B EQ PUSH2 0x475 JUMPI DUP1 PUSH4 0x6F9FB98A EQ PUSH2 0x49F JUMPI DUP1 PUSH4 0x715018A6 EQ PUSH2 0x4C9 JUMPI DUP1 PUSH4 0x798974DD EQ PUSH2 0x4DF JUMPI DUP1 PUSH4 0x831C43AC EQ PUSH2 0x509 JUMPI PUSH2 0x22F JUMP JUMPDEST DUP1 PUSH4 0x4F1EF286 EQ PUSH2 0x3B5 JUMPI DUP1 PUSH4 0x52D1902D EQ PUSH2 0x3D1 JUMPI DUP1 PUSH4 0x5545DB0D EQ PUSH2 0x3FB JUMPI DUP1 PUSH4 0x566F9578 EQ PUSH2 0x423 JUMPI DUP1 PUSH4 0x5C975ABB EQ PUSH2 0x44B JUMPI PUSH2 0x22F JUMP JUMPDEST DUP1 PUSH4 0x3F4BA83A GT PUSH2 0x1F7 JUMPI DUP1 PUSH4 0x3F4BA83A EQ PUSH2 0x305 JUMPI DUP1 PUSH4 0x400E3949 EQ PUSH2 0x31B JUMPI DUP1 PUSH4 0x43E9658C EQ PUSH2 0x345 JUMPI DUP1 PUSH4 0x45598B4A EQ PUSH2 0x383 JUMPI DUP1 PUSH4 0x45D3292B EQ PUSH2 0x3AB JUMPI PUSH2 0x22F JUMP JUMPDEST DUP1 PUSH4 0x13CF08B EQ PUSH2 0x233 JUMPI DUP1 PUSH4 0xEA142F7 EQ PUSH2 0x277 JUMPI DUP1 PUSH4 0x155CE98F EQ PUSH2 0x29F JUMPI DUP1 PUSH4 0x1F6D4942 EQ PUSH2 0x2C7 JUMPI PUSH2 0x22F JUMP JUMPDEST CALLDATASIZE PUSH2 0x22F JUMPI STOP JUMPDEST PUSH0 DUP1 REVERT JUMPDEST CALLVALUE DUP1 ISZERO PUSH2 0x23E JUMPI PUSH0 DUP1 REVERT JUMPDEST POP PUSH2 0x259 PUSH1 0x4 DUP1 CALLDATASIZE SUB DUP2 ADD SWAP1 PUSH2 0x254 SWAP2 SWAP1 PUSH2 0x3039 JUMP JUMPDEST PUSH2 0x86F JUMP JUMPDEST PUSH1 0x40 MLOAD PUSH2 0x26E SWAP10 SWAP9 SWAP8 SWAP7 SWAP6 SWAP5 SWAP4 SWAP3 SWAP2 SWAP1 PUSH2 0x31CF JUMP JUMPDEST PUSH1 0x40 MLOAD DUP1 SWAP2 SUB SWAP1 RETURN JUMPDEST CALLVALUE DUP1 ISZERO PUSH2 0x282 JUMPI PUSH0 DUP1 REVERT JUMPDEST POP PUSH2 0x29D PUSH1 0x4 DUP1 CALLDATASIZE SUB DUP2 ADD SWAP1 PUSH2 0x298 SWAP2 SWAP1 PUSH2 0x3039 JUMP JUMPDEST PUSH2 0x989 JUMP JUMPDEST STOP JUMPDEST CALLVALUE DUP1 ISZERO PUSH2 0x2AA JUMPI PUSH0 DUP1 REVERT JUMPDEST POP PUSH2 0x2C5 PUSH1 0x4 DUP1 CALLDATASIZE SUB DUP2 ADD SWAP1 PUSH2 0x2C0 SWAP2 SWAP1 PUSH2 0x3039 JUMP JUMPDEST PUSH2 0xC2A JUMP JUMPDEST STOP JUMPDEST CALLVALUE DUP1 ISZERO PUSH2 0x2D2 JUMPI PUSH0 DUP1 REVERT JUMPDEST POP PUSH2 0x2ED PUSH1 0x4 DUP1 CALLDATASIZE SUB DUP2 ADD SWAP1 PUSH2 0x2E8 SWAP2 SWAP1 PUSH2 0x328B JUMP JUMPDEST PUSH2 0xC44 JUMP JUMPDEST PUSH1 0x40 MLOAD PUSH2 0x2FC SWAP4 SWAP3 SWAP2 SWAP1 PUSH2 0x32B6 JUMP JUMPDEST PUSH1 0x40 MLOAD DUP1 SWAP2 SUB SWAP1 RETURN JUMPDEST CALLVALUE DUP1 ISZERO PUSH2 0x310 JUMPI PUSH0 DUP1 REVERT JUMPDEST POP PUSH2 0x319 PUSH2 0xC69 JUMP JUMPDEST STOP JUMPDEST CALLVALUE DUP1 ISZERO PUSH2 0x326 JUMPI PUSH0 DUP1 REVERT JUMPDEST POP PUSH2 0x32F PUSH2 0xC7B JUMP JUMPDEST PUSH1 0x40 MLOAD PUSH2 0x33C SWAP2 SWAP1 PUSH2 0x32EB JUMP JUMPDEST PUSH1 0x40 MLOAD DUP1 SWAP2 SUB SWAP1 RETURN JUMPDEST CALLVALUE DUP1 ISZERO PUSH2 0x350 JUMPI PUSH0 DUP1 REVERT JUMPDEST POP PUSH2 0x36B PUSH1 0x4 DUP1 CALLDATASIZE SUB DUP2 ADD SWAP1 PUSH2 0x366 SWAP2 SWAP1 PUSH2 0x328B JUMP JUMPDEST PUSH2 0xC81 JUMP JUMPDEST PUSH1 0x40 MLOAD PUSH2 0x37A SWAP4 SWAP3 SWAP2 SWAP1 PUSH2 0x32B6 JUMP JUMPDEST PUSH1 0x40 MLOAD DUP1 SWAP2 SUB SWAP1 RETURN JUMPDEST CALLVALUE DUP1 ISZERO PUSH2 0x38E JUMPI PUSH0 DUP1 REVERT JUMPDEST POP PUSH2 0x3A9 PUSH1 0x4 DUP1 CALLDATASIZE SUB DUP2 ADD SWAP1 PUSH2 0x3A4 SWAP2 SWAP1 PUSH2 0x3039 JUMP JUMPDEST PUSH2 0xD50 JUMP JUMPDEST STOP JUMPDEST PUSH2 0x3B3 PUSH2 0x106D JUMP JUMPDEST STOP JUMPDEST PUSH2 0x3CF PUSH1 0x4 DUP1 CALLDATASIZE SUB DUP2 ADD SWAP1 PUSH2 0x3CA SWAP2 SWAP1 PUSH2 0x3430 JUMP JUMPDEST PUSH2 0x1154 JUMP JUMPDEST STOP JUMPDEST CALLVALUE DUP1 ISZERO PUSH2 0x3DC JUMPI PUSH0 DUP1 REVERT JUMPDEST POP PUSH2 0x3E5 PUSH2 0x1173 JUMP JUMPDEST PUSH1 0x40 MLOAD PUSH2 0x3F2 SWAP2 SWAP1 PUSH2 0x34A2 JUMP JUMPDEST PUSH1 0x40 MLOAD DUP1 SWAP2 SUB SWAP1 RETURN JUMPDEST CALLVALUE DUP1 ISZERO PUSH2 0x406 JUMPI PUSH0 DUP1 REVERT JUMPDEST POP PUSH2 0x421 PUSH1 0x4 DUP1 CALLDATASIZE SUB DUP2 ADD SWAP1 PUSH2 0x41C SWAP2 SWAP1 PUSH2 0x3039 JUMP JUMPDEST PUSH2 0x11A4 JUMP JUMPDEST STOP JUMPDEST CALLVALUE DUP1 ISZERO PUSH2 0x42E JUMPI PUSH0 DUP1 REVERT JUMPDEST POP PUSH2 0x449 PUSH1 0x4 DUP1 CALLDATASIZE SUB DUP2 ADD SWAP1 PUSH2 0x444 SWAP2 SWAP1 PUSH2 0x3039 JUMP JUMPDEST PUSH2 0x15CB JUMP JUMPDEST STOP JUMPDEST CALLVALUE DUP1 ISZERO PUSH2 0x456 JUMPI PUSH0 DUP1 REVERT JUMPDEST POP PUSH2 0x45F PUSH2 0x1A31 JUMP JUMPDEST PUSH1 0x40 MLOAD PUSH2 0x46C SWAP2 SWAP1 PUSH2 0x34D5 JUMP JUMPDEST PUSH1 0x40 MLOAD DUP1 SWAP2 SUB SWAP1 RETURN JUMPDEST CALLVALUE DUP1 ISZERO PUSH2 0x480 JUMPI PUSH0 DUP1 REVERT JUMPDEST POP PUSH2 0x489 PUSH2 0x1A53 JUMP JUMPDEST PUSH1 0x40 MLOAD PUSH2 0x496 SWAP2 SWAP1 PUSH2 0x34D5 JUMP JUMPDEST PUSH1 0x40 MLOAD DUP1 SWAP2 SUB SWAP1 RETURN JUMPDEST CALLVALUE DUP1 ISZERO PUSH2 0x4AA JUMPI PUSH0 DUP1 REVERT JUMPDEST POP PUSH2 0x4B3 PUSH2 0x1A61 JUMP JUMPDEST PUSH1 0x40 MLOAD PUSH2 0x4C0 SWAP2 SWAP1 PUSH2 0x32EB JUMP JUMPDEST PUSH1 0x40 MLOAD DUP1 SWAP2 SUB SWAP1 RETURN JUMPDEST CALLVALUE DUP1 ISZERO PUSH2 0x4D4 JUMPI PUSH0 DUP1 REVERT JUMPDEST POP PUSH2 0x4DD PUSH2 0x1A68 JUMP JUMPDEST STOP JUMPDEST CALLVALUE DUP1 ISZERO PUSH2 0x4EA JUMPI PUSH0 DUP1 REVERT JUMPDEST POP PUSH2 0x4F3 PUSH2 0x1A7B JUMP JUMPDEST PUSH1 0x40 MLOAD PUSH2 0x500 SWAP2 SWAP1 PUSH2 0x32EB JUMP JUMPDEST PUSH1 0x40 MLOAD DUP1 SWAP2 SUB SWAP1 RETURN JUMPDEST CALLVALUE DUP1 ISZERO PUSH2 0x514 JUMPI PUSH0 DUP1 REVERT JUMPDEST POP PUSH2 0x52F PUSH1 0x4 DUP1 CALLDATASIZE SUB DUP2 ADD SWAP1 PUSH2 0x52A SWAP2 SWAP1 PUSH2 0x35B6 JUMP JUMPDEST PUSH2 0x1A84 JUMP JUMPDEST STOP JUMPDEST CALLVALUE DUP1 ISZERO PUSH2 0x53C JUMPI PUSH0 DUP1 REVERT JUMPDEST POP PUSH2 0x545 PUSH2 0x1BAE JUMP JUMPDEST STOP JUMPDEST CALLVALUE DUP1 ISZERO PUSH2 0x552 JUMPI PUSH0 DUP1 REVERT JUMPDEST POP PUSH2 0x56D PUSH1 0x4 DUP1 CALLDATASIZE SUB DUP2 ADD SWAP1 PUSH2 0x568 SWAP2 SWAP1 PUSH2 0x328B JUMP JUMPDEST PUSH2 0x1BC0 JUMP JUMPDEST STOP JUMPDEST CALLVALUE DUP1 ISZERO PUSH2 0x57A JUMPI PUSH0 DUP1 REVERT JUMPDEST POP PUSH2 0x583 PUSH2 0x1BDC JUMP JUMPDEST PUSH1 0x40 MLOAD PUSH2 0x590 SWAP2 SWAP1 PUSH2 0x3622 JUMP JUMPDEST PUSH1 0x40 MLOAD DUP1 SWAP2 SUB SWAP1 RETURN JUMPDEST CALLVALUE DUP1 ISZERO PUSH2 0x5A4 JUMPI PUSH0 DUP1 REVERT JUMPDEST POP PUSH2 0x5BF PUSH1 0x4 DUP1 CALLDATASIZE SUB DUP2 ADD SWAP1 PUSH2 0x5BA SWAP2 SWAP1 PUSH2 0x3039 JUMP JUMPDEST PUSH2 0x1BEA JUMP JUMPDEST STOP JUMPDEST CALLVALUE DUP1 ISZERO PUSH2 0x5CC JUMPI PUSH0 DUP1 REVERT JUMPDEST POP PUSH2 0x5D5 PUSH2 0x1C04 JUMP JUMPDEST PUSH1 0x40 MLOAD PUSH2 0x5E2 SWAP2 SWAP1 PUSH2 0x3622 JUMP JUMPDEST PUSH1 0x40 MLOAD DUP1 SWAP2 SUB SWAP1 RETURN JUMPDEST CALLVALUE DUP1 ISZERO PUSH2 0x5F6 JUMPI PUSH0 DUP1 REVERT JUMPDEST POP PUSH2 0x5FF PUSH2 0x1C39 JUMP JUMPDEST PUSH1 0x40 MLOAD PUSH2 0x60C SWAP2 SWAP1 PUSH2 0x32EB JUMP JUMPDEST PUSH1 0x40 MLOAD DUP1 SWAP2 SUB SWAP1 RETURN JUMPDEST CALLVALUE DUP1 ISZERO PUSH2 0x620 JUMPI PUSH0 DUP1 REVERT JUMPDEST POP PUSH2 0x63B PUSH1 0x4 DUP1 CALLDATASIZE SUB DUP2 ADD SWAP1 PUSH2 0x636 SWAP2 SWAP1 PUSH2 0x363B JUMP JUMPDEST PUSH2 0x1C3F JUMP JUMPDEST PUSH1 0x40 MLOAD PUSH2 0x648 SWAP2 SWAP1 PUSH2 0x32EB JUMP JUMPDEST PUSH1 0x40 MLOAD DUP1 SWAP2 SUB SWAP1 RETURN JUMPDEST CALLVALUE DUP1 ISZERO PUSH2 0x65C JUMPI PUSH0 DUP1 REVERT JUMPDEST POP PUSH2 0x665 PUSH2 0x1C5F JUMP JUMPDEST PUSH1 0x40 MLOAD PUSH2 0x672 SWAP2 SWAP1 PUSH2 0x32EB JUMP JUMPDEST PUSH1 0x40 MLOAD DUP1 SWAP2 SUB SWAP1 RETURN JUMPDEST CALLVALUE DUP1 ISZERO PUSH2 0x686 JUMPI PUSH0 DUP1 REVERT JUMPDEST POP PUSH2 0x68F PUSH2 0x1C68 JUMP JUMPDEST PUSH1 0x40 MLOAD PUSH2 0x69C SWAP2 SWAP1 PUSH2 0x32EB JUMP JUMPDEST PUSH1 0x40 MLOAD DUP1 SWAP2 SUB SWAP1 RETURN JUMPDEST CALLVALUE DUP1 ISZERO PUSH2 0x6B0 JUMPI PUSH0 DUP1 REVERT JUMPDEST POP PUSH2 0x6B9 PUSH2 0x1C6E JUMP JUMPDEST PUSH1 0x40 MLOAD PUSH2 0x6C6 SWAP2 SWAP1 PUSH2 0x32EB JUMP JUMPDEST PUSH1 0x40 MLOAD DUP1 SWAP2 SUB SWAP1 RETURN JUMPDEST CALLVALUE DUP1 ISZERO PUSH2 0x6DA JUMPI PUSH0 DUP1 REVERT JUMPDEST POP PUSH2 0x6F5 PUSH1 0x4 DUP1 CALLDATASIZE SUB DUP2 ADD SWAP1 PUSH2 0x6F0 SWAP2 SWAP1 PUSH2 0x3039 JUMP JUMPDEST PUSH2 0x1C74 JUMP JUMPDEST STOP JUMPDEST CALLVALUE DUP1 ISZERO PUSH2 0x702 JUMPI PUSH0 DUP1 REVERT JUMPDEST POP PUSH2 0x70B PUSH2 0x1C8E JUMP JUMPDEST PUSH1 0x40 MLOAD PUSH2 0x718 SWAP2 SWAP1 PUSH2 0x3679 JUMP JUMPDEST PUSH1 0x40 MLOAD DUP1 SWAP2 SUB SWAP1 RETURN JUMPDEST CALLVALUE DUP1 ISZERO PUSH2 0x72C JUMPI PUSH0 DUP1 REVERT JUMPDEST POP PUSH2 0x747 PUSH1 0x4 DUP1 CALLDATASIZE SUB DUP2 ADD SWAP1 PUSH2 0x742 SWAP2 SWAP1 PUSH2 0x363B JUMP JUMPDEST PUSH2 0x1CC7 JUMP JUMPDEST PUSH1 0x40 MLOAD PUSH2 0x754 SWAP2 SWAP1 PUSH2 0x32EB JUMP JUMPDEST PUSH1 0x40 MLOAD DUP1 SWAP2 SUB SWAP1 RETURN JUMPDEST CALLVALUE DUP1 ISZERO PUSH2 0x768 JUMPI PUSH0 DUP1 REVERT JUMPDEST POP PUSH2 0x783 PUSH1 0x4 DUP1 CALLDATASIZE SUB DUP2 ADD SWAP1 PUSH2 0x77E SWAP2 SWAP1 PUSH2 0x3699 JUMP JUMPDEST PUSH2 0x1D1D JUMP JUMPDEST STOP JUMPDEST CALLVALUE DUP1 ISZERO PUSH2 0x790 JUMPI PUSH0 DUP1 REVERT JUMPDEST POP PUSH2 0x7AB PUSH1 0x4 DUP1 CALLDATASIZE SUB DUP2 ADD SWAP1 PUSH2 0x7A6 SWAP2 SWAP1 PUSH2 0x328B JUMP JUMPDEST PUSH2 0x1EF7 JUMP JUMPDEST STOP JUMPDEST CALLVALUE DUP1 ISZERO PUSH2 0x7B8 JUMPI PUSH0 DUP1 REVERT JUMPDEST POP PUSH2 0x7D3 PUSH1 0x4 DUP1 CALLDATASIZE SUB DUP2 ADD SWAP1 PUSH2 0x7CE SWAP2 SWAP1 PUSH2 0x3039 JUMP JUMPDEST PUSH2 0x20A6 JUMP JUMPDEST PUSH1 0x40 MLOAD PUSH2 0x7EA SWAP12 SWAP11 SWAP10 SWAP9 SWAP8 SWAP7 SWAP6 SWAP5 SWAP4 SWAP3 SWAP2 SWAP1 PUSH2 0x377B JUMP JUMPDEST PUSH1 0x40 MLOAD DUP1 SWAP2 SUB SWAP1 RETURN JUMPDEST CALLVALUE DUP1 ISZERO PUSH2 0x7FE JUMPI PUSH0 DUP1 REVERT JUMPDEST POP PUSH2 0x807 PUSH2 0x249E JUMP JUMPDEST PUSH1 0x40 MLOAD PUSH2 0x814 SWAP2 SWAP1 PUSH2 0x32EB JUMP JUMPDEST PUSH1 0x40 MLOAD DUP1 SWAP2 SUB SWAP1 RETURN JUMPDEST CALLVALUE DUP1 ISZERO PUSH2 0x828 JUMPI PUSH0 DUP1 REVERT JUMPDEST POP PUSH2 0x843 PUSH1 0x4 DUP1 CALLDATASIZE SUB DUP2 ADD SWAP1 PUSH2 0x83E SWAP2 SWAP1 PUSH2 0x328B JUMP JUMPDEST PUSH2 0x24A7 JUMP JUMPDEST STOP JUMPDEST CALLVALUE DUP1 ISZERO PUSH2 0x850 JUMPI PUSH0 DUP1 REVERT JUMPDEST POP PUSH2 0x859 PUSH2 0x252B JUMP JUMPDEST PUSH1 0x40 MLOAD PUSH2 0x866 SWAP2 SWAP1 PUSH2 0x32EB JUMP JUMPDEST PUSH1 0x40 MLOAD DUP1 SWAP2 SUB SWAP1 RETURN JUMPDEST PUSH1 0x2 PUSH1 0x20 MSTORE DUP1 PUSH0 MSTORE PUSH1 0x40 PUSH0 KECCAK256 PUSH0 SWAP2 POP SWAP1 POP DUP1 PUSH0 ADD PUSH0 SWAP1 SLOAD SWAP1 PUSH2 0x100 EXP SWAP1 DIV PUSH20 0xFFFFFFFFFFFFFFFFFFFFFFFFFFFFFFFFFFFFFFFF AND SWAP1 DUP1 PUSH1 0x1 ADD SLOAD SWAP1 DUP1 PUSH1 0x2 ADD SLOAD SWAP1 DUP1 PUSH1 0x3 ADD DUP1 SLOAD PUSH2 0x8BF SWAP1 PUSH2 0x386D JUMP JUMPDEST DUP1 PUSH1 0x1F ADD PUSH1 0x20 DUP1 SWAP2 DIV MUL PUSH1 0x20 ADD PUSH1 0x40 MLOAD SWAP1 DUP2 ADD PUSH1 0x40 MSTORE DUP1 SWAP3 SWAP2 SWAP1 DUP2 DUP2 MSTORE PUSH1 0x20 ADD DUP3 DUP1 SLOAD PUSH2 0x8EB SWAP1 PUSH2 0x386D JUMP JUMPDEST DUP1 ISZERO PUSH2 0x936 JUMPI DUP1 PUSH1 0x1F LT PUSH2 0x90D JUMPI PUSH2 0x100 DUP1 DUP4 SLOAD DIV MUL DUP4 MSTORE SWAP2 PUSH1 0x20 ADD SWAP2 PUSH2 0x936 JUMP JUMPDEST DUP3 ADD SWAP2 SWAP1 PUSH0 MSTORE PUSH1 0x20 PUSH0 KECCAK256 SWAP1 JUMPDEST DUP2 SLOAD DUP2 MSTORE SWAP1 PUSH1 0x1 ADD SWAP1 PUSH1 0x20 ADD DUP1 DUP4 GT PUSH2 0x919 JUMPI DUP3 SWAP1 SUB PUSH1 0x1F AND DUP3 ADD SWAP2 JUMPDEST POP POP POP POP POP SWAP1 DUP1 PUSH1 0x4 ADD PUSH0 SWAP1 SLOAD SWAP1 PUSH2 0x100 EXP SWAP1 DIV PUSH20 0xFFFFFFFFFFFFFFFFFFFFFFFFFFFFFFFFFFFFFFFF AND SWAP1 DUP1 PUSH1 0x5 ADD SLOAD SWAP1 DUP1 PUSH1 0x6 ADD SLOAD SWAP1 DUP1 PUSH1 0x7 ADD PUSH0 SWAP1 SLOAD SWAP1 PUSH2 0x100 EXP SWAP1 DIV PUSH1 0xFF AND SWAP1 DUP1 PUSH1 0x8 ADD SLOAD SWAP1 POP DUP10 JUMP JUMPDEST PUSH2 0x991 PUSH2 0x2534 JUMP JUMPDEST PUSH0 PUSH1 0x2 PUSH0 DUP4 DUP2 MSTORE PUSH1 0x20 ADD SWAP1 DUP2 MSTORE PUSH1 0x20 ADD PUSH0 KECCAK256 SWAP1 POP PUSH2 0x9AE DUP2 PUSH2 0x2575 JUMP JUMPDEST PUSH0 PUSH1 0x2 DUP2 GT ISZERO PUSH2 0x9C1 JUMPI PUSH2 0x9C0 PUSH2 0x315C JUMP JUMPDEST JUMPDEST DUP2 PUSH1 0x7 ADD PUSH0 SWAP1 SLOAD SWAP1 PUSH2 0x100 EXP SWAP1 DIV PUSH1 0xFF AND PUSH1 0x2 DUP2 GT ISZERO PUSH2 0x9E4 JUMPI PUSH2 0x9E3 PUSH2 0x315C JUMP JUMPDEST JUMPDEST EQ DUP1 PUSH2 0xA24 JUMPI POP PUSH1 0x1 PUSH1 0x2 DUP2 GT ISZERO PUSH2 0x9FF JUMPI PUSH2 0x9FE PUSH2 0x315C JUMP JUMPDEST JUMPDEST DUP2 PUSH1 0x7 ADD PUSH0 SWAP1 SLOAD SWAP1 PUSH2 0x100 EXP SWAP1 DIV PUSH1 0xFF AND PUSH1 0x2 DUP2 GT ISZERO PUSH2 0xA22 JUMPI PUSH2 0xA21 PUSH2 0x315C JUMP JUMPDEST JUMPDEST EQ JUMPDEST PUSH2 0xA63 JUMPI PUSH1 0x40 MLOAD PUSH32 0x8C379A000000000000000000000000000000000000000000000000000000000 DUP2 MSTORE PUSH1 0x4 ADD PUSH2 0xA5A SWAP1 PUSH2 0x3933 JUMP JUMPDEST PUSH1 0x40 MLOAD DUP1 SWAP2 SUB SWAP1 REVERT JUMPDEST PUSH0 PUSH1 0x1 PUSH0 DUP5 DUP2 MSTORE PUSH1 0x20 ADD SWAP1 DUP2 MSTORE PUSH1 0x20 ADD PUSH0 KECCAK256 PUSH0 CALLER PUSH20 0xFFFFFFFFFFFFFFFFFFFFFFFFFFFFFFFFFFFFFFFF AND PUSH20 0xFFFFFFFFFFFFFFFFFFFFFFFFFFFFFFFFFFFFFFFF AND DUP2 MSTORE PUSH1 0x20 ADD SWAP1 DUP2 MSTORE PUSH1 0x20 ADD PUSH0 KECCAK256 SLOAD SWAP1 POP PUSH0 DUP2 GT PUSH2 0xAF5 JUMPI PUSH1 0x40 MLOAD PUSH32 0x8C379A000000000000000000000000000000000000000000000000000000000 DUP2 MSTORE PUSH1 0x4 ADD PUSH2 0xAEC SWAP1 PUSH2 0x39C1 JUMP JUMPDEST PUSH1 0x40 MLOAD DUP1 SWAP2 SUB SWAP1 REVERT JUMPDEST DUP1 PUSH0 DUP1 CALLER PUSH20 0xFFFFFFFFFFFFFFFFFFFFFFFFFFFFFFFFFFFFFFFF AND PUSH20 0xFFFFFFFFFFFFFFFFFFFFFFFFFFFFFFFFFFFFFFFF AND DUP2 MSTORE PUSH1 0x20 ADD SWAP1 DUP2 MSTORE PUSH1 0x20 ADD PUSH0 KECCAK256 PUSH1 0x1 ADD PUSH0 DUP3 DUP3 SLOAD PUSH2 0xB43 SWAP2 SWAP1 PUSH2 0x3A0C JUMP JUMPDEST SWAP3 POP POP DUP2 SWAP1 SSTORE POP DUP1 PUSH0 DUP1 CALLER PUSH20 0xFFFFFFFFFFFFFFFFFFFFFFFFFFFFFFFFFFFFFFFF AND PUSH20 0xFFFFFFFFFFFFFFFFFFFFFFFFFFFFFFFFFFFFFFFF AND DUP2 MSTORE PUSH1 0x20 ADD SWAP1 DUP2 MSTORE PUSH1 0x20 ADD PUSH0 KECCAK256 PUSH1 0x2 ADD PUSH0 DUP3 DUP3 SLOAD PUSH2 0xB98 SWAP2 SWAP1 PUSH2 0x3A3F JUMP JUMPDEST SWAP3 POP POP DUP2 SWAP1 SSTORE POP DUP1 DUP3 PUSH1 0x6 ADD PUSH0 DUP3 DUP3 SLOAD PUSH2 0xBB2 SWAP2 SWAP1 PUSH2 0x3A3F JUMP JUMPDEST SWAP3 POP POP DUP2 SWAP1 SSTORE POP PUSH1 0x1 DUP3 PUSH1 0x8 ADD PUSH0 DUP3 DUP3 SLOAD PUSH2 0xBCD SWAP2 SWAP1 PUSH2 0x3A3F JUMP JUMPDEST SWAP3 POP POP DUP2 SWAP1 SSTORE POP PUSH0 PUSH1 0x1 PUSH0 DUP6 DUP2 MSTORE PUSH1 0x20 ADD SWAP1 DUP2 MSTORE PUSH1 0x20 ADD PUSH0 KECCAK256 PUSH0 CALLER PUSH20 0xFFFFFFFFFFFFFFFFFFFFFFFFFFFFFFFFFFFFFFFF AND PUSH20 0xFFFFFFFFFFFFFFFFFFFFFFFFFFFFFFFFFFFFFFFF AND DUP2 MSTORE PUSH1 0x20 ADD SWAP1 DUP2 MSTORE PUSH1 0x20 ADD PUSH0 KECCAK256 DUP2 SWAP1 SSTORE POP POP POP POP JUMP JUMPDEST PUSH2 0xC32 PUSH2 0x2608 JUMP JUMPDEST PUSH2 0xC3A PUSH2 0x268F JUMP JUMPDEST DUP1 PUSH1 0x5 DUP2 SWAP1 SSTORE POP POP JUMP JUMPDEST PUSH0 PUSH1 0x20 MSTORE DUP1 PUSH0 MSTORE PUSH1 0x40 PUSH0 KECCAK256 PUSH0 SWAP2 POP SWAP1 POP DUP1 PUSH0 ADD SLOAD SWAP1 DUP1 PUSH1 0x1 ADD SLOAD SWAP1 DUP1 PUSH1 0x2 ADD SLOAD SWAP1 POP DUP4 JUMP JUMPDEST PUSH2 0xC71 PUSH2 0x2608 JUMP JUMPDEST PUSH2 0xC79 PUSH2 0x26CF JUMP JUMPDEST JUMP JUMPDEST PUSH1 0x6 SLOAD DUP2 JUMP JUMPDEST PUSH0 DUP1 PUSH0 DUP1 PUSH0 DUP6 PUSH20 0xFFFFFFFFFFFFFFFFFFFFFFFFFFFFFFFFFFFFFFFF AND PUSH20 0xFFFFFFFFFFFFFFFFFFFFFFFFFFFFFFFFFFFFFFFF AND DUP2 MSTORE PUSH1 0x20 ADD SWAP1 DUP2 MSTORE PUSH1 0x20 ADD PUSH0 KECCAK256 PUSH0 ADD SLOAD SWAP3 POP PUSH0 DUP1 DUP6 PUSH20 0xFFFFFFFFFFFFFFFFFFFFFFFFFFFFFFFFFFFFFFFF AND PUSH20 0xFFFFFFFFFFFFFFFFFFFFFFFFFFFFFFFFFFFFFFFF AND DUP2 MSTORE PUSH1 0x20 ADD SWAP1 DUP2 MSTORE PUSH1 0x20 ADD PUSH0 KECCAK256 PUSH1 0x1 ADD SLOAD SWAP2 POP PUSH0 DUP1 DUP6 PUSH20 0xFFFFFFFFFFFFFFFFFFFFFFFFFFFFFFFFFFFFFFFF AND PUSH20 0xFFFFFFFFFFFFFFFFFFFFFFFFFFFFFFFFFFFFFFFF AND DUP2 MSTORE PUSH1 0x20 ADD SWAP1 DUP2 MSTORE PUSH1 0x20 ADD PUSH0 KECCAK256 PUSH1 0x2 ADD SLOAD SWAP1 POP SWAP2 SWAP4 SWAP1 SWAP3 POP JUMP JUMPDEST PUSH2 0xD58 PUSH2 0x2534 JUMP JUMPDEST PUSH0 PUSH1 0x2 PUSH0 DUP4 DUP2 MSTORE PUSH1 0x20 ADD SWAP1 DUP2 MSTORE PUSH1 0x20 ADD PUSH0 KECCAK256 SWAP1 POP DUP1 PUSH0 ADD PUSH0 SWAP1 SLOAD SWAP1 PUSH2 0x100 EXP SWAP1 DIV PUSH20 0xFFFFFFFFFFFFFFFFFFFFFFFFFFFFFFFFFFFFFFFF AND PUSH20 0xFFFFFFFFFFFFFFFFFFFFFFFFFFFFFFFFFFFFFFFF AND CALLER PUSH20 0xFFFFFFFFFFFFFFFFFFFFFFFFFFFFFFFFFFFFFFFF AND EQ PUSH2 0xDFC JUMPI PUSH1 0x40 MLOAD PUSH32 0x8C379A000000000000000000000000000000000000000000000000000000000 DUP2 MSTORE PUSH1 0x4 ADD PUSH2 0xDF3 SWAP1 PUSH2 0x3AE2 JUMP JUMPDEST PUSH1 0x40 MLOAD DUP1 SWAP2 SUB SWAP1 REVERT JUMPDEST PUSH2 0xE05 DUP2 PUSH2 0x2575 JUMP JUMPDEST PUSH0 PUSH1 0x2 DUP2 GT ISZERO PUSH2 0xE18 JUMPI PUSH2 0xE17 PUSH2 0x315C JUMP JUMPDEST JUMPDEST DUP2 PUSH1 0x7 ADD PUSH0 SWAP1 SLOAD SWAP1 PUSH2 0x100 EXP SWAP1 DIV PUSH1 0xFF AND PUSH1 0x2 DUP2 GT ISZERO PUSH2 0xE3B JUMPI PUSH2 0xE3A PUSH2 0x315C JUMP JUMPDEST JUMPDEST EQ PUSH2 0xE7B JUMPI PUSH1 0x40 MLOAD PUSH32 0x8C379A000000000000000000000000000000000000000000000000000000000 DUP2 MSTORE PUSH1 0x4 ADD PUSH2 0xE72 SWAP1 PUSH2 0x3B70 JUMP JUMPDEST PUSH1 0x40 MLOAD DUP1 SWAP2 SUB SWAP1 REVERT JUMPDEST PUSH1 0x1 DUP2 PUSH1 0x7 ADD PUSH0 PUSH2 0x100 EXP DUP2 SLOAD DUP2 PUSH1 0xFF MUL NOT AND SWAP1 DUP4 PUSH1 0x2 DUP2 GT ISZERO PUSH2 0xEA2 JUMPI PUSH2 0xEA1 PUSH2 0x315C JUMP JUMPDEST JUMPDEST MUL OR SWAP1 SSTORE POP PUSH0 JUMPDEST DUP2 PUSH1 0x9 ADD DUP1 SLOAD SWAP1 POP DUP2 LT ISZERO PUSH2 0x1068 JUMPI PUSH0 DUP3 PUSH1 0x9 ADD DUP3 DUP2 SLOAD DUP2 LT PUSH2 0xECF JUMPI PUSH2 0xECE PUSH2 0x3B8E JUMP JUMPDEST JUMPDEST SWAP1 PUSH0 MSTORE PUSH1 0x20 PUSH0 KECCAK256 ADD PUSH0 SWAP1 SLOAD SWAP1 PUSH2 0x100 EXP SWAP1 DIV PUSH20 0xFFFFFFFFFFFFFFFFFFFFFFFFFFFFFFFFFFFFFFFF AND SWAP1 POP PUSH0 PUSH1 0x1 PUSH0 DUP7 DUP2 MSTORE PUSH1 0x20 ADD SWAP1 DUP2 MSTORE PUSH1 0x20 ADD PUSH0 KECCAK256 PUSH0 DUP4 PUSH20 0xFFFFFFFFFFFFFFFFFFFFFFFFFFFFFFFFFFFFFFFF AND PUSH20 0xFFFFFFFFFFFFFFFFFFFFFFFFFFFFFFFFFFFFFFFF AND DUP2 MSTORE PUSH1 0x20 ADD SWAP1 DUP2 MSTORE PUSH1 0x20 ADD PUSH0 KECCAK256 SLOAD SWAP1 POP PUSH0 DUP2 GT ISZERO PUSH2 0x1051 JUMPI DUP1 PUSH0 DUP1 DUP5 PUSH20 0xFFFFFFFFFFFFFFFFFFFFFFFFFFFFFFFFFFFFFFFF AND PUSH20 0xFFFFFFFFFFFFFFFFFFFFFFFFFFFFFFFFFFFFFFFF AND DUP2 MSTORE PUSH1 0x20 ADD SWAP1 DUP2 MSTORE PUSH1 0x20 ADD PUSH0 KECCAK256 PUSH1 0x1 ADD PUSH0 DUP3 DUP3 SLOAD PUSH2 0xF9F SWAP2 SWAP1 PUSH2 0x3A0C JUMP JUMPDEST SWAP3 POP POP DUP2 SWAP1 SSTORE POP DUP1 PUSH0 DUP1 DUP5 PUSH20 0xFFFFFFFFFFFFFFFFFFFFFFFFFFFFFFFFFFFFFFFF AND PUSH20 0xFFFFFFFFFFFFFFFFFFFFFFFFFFFFFFFFFFFFFFFF AND DUP2 MSTORE PUSH1 0x20 ADD SWAP1 DUP2 MSTORE PUSH1 0x20 ADD PUSH0 KECCAK256 PUSH1 0x2 ADD PUSH0 DUP3 DUP3 SLOAD PUSH2 0xFF4 SWAP2 SWAP1 PUSH2 0x3A3F JUMP JUMPDEST SWAP3 POP POP DUP2 SWAP1 SSTORE POP PUSH0 PUSH1 0x1 PUSH0 DUP8 DUP2 MSTORE PUSH1 0x20 ADD SWAP1 DUP2 MSTORE PUSH1 0x20 ADD PUSH0 KECCAK256 PUSH0 DUP5 PUSH20 0xFFFFFFFFFFFFFFFFFFFFFFFFFFFFFFFFFFFFFFFF AND PUSH20 0xFFFFFFFFFFFFFFFFFFFFFFFFFFFFFFFFFFFFFFFF AND DUP2 MSTORE PUSH1 0x20 ADD SWAP1 DUP2 MSTORE PUSH1 0x20 ADD PUSH0 KECCAK256 DUP2 SWAP1 SSTORE POP PUSH2 0x1058 JUMP JUMPDEST POP POP PUSH2 0x105B JUMP JUMPDEST POP POP JUMPDEST DUP1 DUP1 PUSH1 0x1 ADD SWAP2 POP POP PUSH2 0xEA9 JUMP JUMPDEST POP POP POP JUMP JUMPDEST PUSH2 0x1075 PUSH2 0x2534 JUMP JUMPDEST PUSH1 0x3 SLOAD CALLVALUE LT ISZERO PUSH2 0x10BA JUMPI PUSH1 0x40 MLOAD PUSH32 0x8C379A000000000000000000000000000000000000000000000000000000000 DUP2 MSTORE PUSH1 0x4 ADD PUSH2 0x10B1 SWAP1 PUSH2 0x3C05 JUMP JUMPDEST PUSH1 0x40 MLOAD DUP1 SWAP2 SUB SWAP1 REVERT JUMPDEST TIMESTAMP PUSH0 DUP1 CALLER PUSH20 0xFFFFFFFFFFFFFFFFFFFFFFFFFFFFFFFFFFFFFFFF AND PUSH20 0xFFFFFFFFFFFFFFFFFFFFFFFFFFFFFFFFFFFFFFFF AND DUP2 MSTORE PUSH1 0x20 ADD SWAP1 DUP2 MSTORE PUSH1 0x20 ADD PUSH0 KECCAK256 PUSH0 ADD DUP2 SWAP1 SSTORE POP CALLVALUE PUSH0 DUP1 CALLER PUSH20 0xFFFFFFFFFFFFFFFFFFFFFFFFFFFFFFFFFFFFFFFF AND PUSH20 0xFFFFFFFFFFFFFFFFFFFFFFFFFFFFFFFFFFFFFFFF AND DUP2 MSTORE PUSH1 0x20 ADD SWAP1 DUP2 MSTORE PUSH1 0x20 ADD PUSH0 KECCAK256 PUSH1 0x1 ADD PUSH0 DUP3 DUP3 SLOAD PUSH2 0x114B SWAP2 SWAP1 PUSH2 0x3A0C JUMP JUMPDEST SWAP3 POP POP DUP2 SWAP1 SSTORE POP JUMP JUMPDEST PUSH2 0x115C PUSH2 0x273D JUMP JUMPDEST PUSH2 0x1165 DUP3 PUSH2 0x2823 JUMP JUMPDEST PUSH2 0x116F DUP3 DUP3 PUSH2 0x282E JUMP JUMPDEST POP POP JUMP JUMPDEST PUSH0 PUSH2 0x117C PUSH2 0x294C JUMP JUMPDEST PUSH32 0x360894A13BA1A3210667C828492DB98DCA3E2076CC3735A920A3CA505D382BBC PUSH0 SHL SWAP1 POP SWAP1 JUMP JUMPDEST PUSH2 0x11AC PUSH2 0x2534 JUMP JUMPDEST PUSH0 PUSH1 0x2 PUSH0 DUP4 DUP2 MSTORE PUSH1 0x20 ADD SWAP1 DUP2 MSTORE PUSH1 0x20 ADD PUSH0 KECCAK256 SWAP1 POP DUP1 PUSH0 ADD PUSH0 SWAP1 SLOAD SWAP1 PUSH2 0x100 EXP SWAP1 DIV PUSH20 0xFFFFFFFFFFFFFFFFFFFFFFFFFFFFFFFFFFFFFFFF AND PUSH20 0xFFFFFFFFFFFFFFFFFFFFFFFFFFFFFFFFFFFFFFFF AND CALLER PUSH20 0xFFFFFFFFFFFFFFFFFFFFFFFFFFFFFFFFFFFFFFFF AND EQ PUSH2 0x1250 JUMPI PUSH1 0x40 MLOAD PUSH32 0x8C379A000000000000000000000000000000000000000000000000000000000 DUP2 MSTORE PUSH1 0x4 ADD PUSH2 0x1247 SWAP1 PUSH2 0x3AE2 JUMP JUMPDEST PUSH1 0x40 MLOAD DUP1 SWAP2 SUB SWAP1 REVERT JUMPDEST PUSH2 0x1259 DUP2 PUSH2 0x2575 JUMP JUMPDEST PUSH0 PUSH1 0x2 DUP2 GT ISZERO PUSH2 0x126C JUMPI PUSH2 0x126B PUSH2 0x315C JUMP JUMPDEST JUMPDEST DUP2 PUSH1 0x7 ADD PUSH0 SWAP1 SLOAD SWAP1 PUSH2 0x100 EXP SWAP1 DIV PUSH1 0xFF AND PUSH1 0x2 DUP2 GT ISZERO PUSH2 0x128F JUMPI PUSH2 0x128E PUSH2 0x315C JUMP JUMPDEST JUMPDEST EQ PUSH2 0x12CF JUMPI PUSH1 0x40 MLOAD PUSH32 0x8C379A000000000000000000000000000000000000000000000000000000000 DUP2 MSTORE PUSH1 0x4 ADD PUSH2 0x12C6 SWAP1 PUSH2 0x3C93 JUMP JUMPDEST PUSH1 0x40 MLOAD DUP1 SWAP2 SUB SWAP1 REVERT JUMPDEST DUP1 PUSH1 0x5 ADD SLOAD DUP2 PUSH1 0x6 ADD SLOAD LT ISZERO PUSH2 0x131A JUMPI PUSH1 0x40 MLOAD PUSH32 0x8C379A000000000000000000000000000000000000000000000000000000000 DUP2 MSTORE PUSH1 0x4 ADD PUSH2 0x1311 SWAP1 PUSH2 0x3D21 JUMP JUMPDEST PUSH1 0x40 MLOAD DUP1 SWAP2 SUB SWAP1 REVERT JUMPDEST DUP1 PUSH1 0x6 ADD SLOAD SELFBALANCE LT ISZERO PUSH2 0x1361 JUMPI PUSH1 0x40 MLOAD PUSH32 0x8C379A000000000000000000000000000000000000000000000000000000000 DUP2 MSTORE PUSH1 0x4 ADD PUSH2 0x1358 SWAP1 PUSH2 0x3DAF JUMP JUMPDEST PUSH1 0x40 MLOAD DUP1 SWAP2 SUB SWAP1 REVERT JUMPDEST PUSH1 0x2 DUP2 PUSH1 0x7 ADD PUSH0 PUSH2 0x100 EXP DUP2 SLOAD DUP2 PUSH1 0xFF MUL NOT AND SWAP1 DUP4 PUSH1 0x2 DUP2 GT ISZERO PUSH2 0x1388 JUMPI PUSH2 0x1387 PUSH2 0x315C JUMP JUMPDEST JUMPDEST MUL OR SWAP1 SSTORE POP PUSH0 JUMPDEST DUP2 PUSH1 0x9 ADD DUP1 SLOAD SWAP1 POP DUP2 LT ISZERO PUSH2 0x155B JUMPI PUSH0 DUP3 PUSH1 0x9 ADD DUP3 DUP2 SLOAD DUP2 LT PUSH2 0x13B5 JUMPI PUSH2 0x13B4 PUSH2 0x3B8E JUMP JUMPDEST JUMPDEST SWAP1 PUSH0 MSTORE PUSH1 0x20 PUSH0 KECCAK256 ADD PUSH0 SWAP1 SLOAD SWAP1 PUSH2 0x100 EXP SWAP1 DIV PUSH20 0xFFFFFFFFFFFFFFFFFFFFFFFFFFFFFFFFFFFFFFFF AND SWAP1 POP PUSH0 PUSH1 0x1 PUSH0 DUP7 DUP2 MSTORE PUSH1 0x20 ADD SWAP1 DUP2 MSTORE PUSH1 0x20 ADD PUSH0 KECCAK256 PUSH0 DUP4 PUSH20 0xFFFFFFFFFFFFFFFFFFFFFFFFFFFFFFFFFFFFFFFF AND PUSH20 0xFFFFFFFFFFFFFFFFFFFFFFFFFFFFFFFFFFFFFFFF AND DUP2 MSTORE PUSH1 0x20 ADD SWAP1 DUP2 MSTORE PUSH1 0x20 ADD PUSH0 KECCAK256 SLOAD SWAP1 POP PUSH0 DUP2 GT ISZERO PUSH2 0x1544 JUMPI DUP1 PUSH0 DUP1 DUP5 PUSH20 0xFFFFFFFFFFFFFFFFFFFFFFFFFFFFFFFFFFFFFFFF AND PUSH20 0xFFFFFFFFFFFFFFFFFFFFFFFFFFFFFFFFFFFFFFFF AND DUP2 MSTORE PUSH1 0x20 ADD SWAP1 DUP2 MSTORE PUSH1 0x20 ADD PUSH0 KECCAK256 PUSH1 0x2 ADD PUSH0 DUP3 DUP3 SLOAD PUSH2 0x1485 SWAP2 SWAP1 PUSH2 0x3A3F JUMP JUMPDEST SWAP3 POP POP DUP2 SWAP1 SSTORE POP PUSH0 PUSH1 0x1 PUSH0 DUP8 DUP2 MSTORE PUSH1 0x20 ADD SWAP1 DUP2 MSTORE PUSH1 0x20 ADD PUSH0 KECCAK256 PUSH0 DUP5 PUSH20 0xFFFFFFFFFFFFFFFFFFFFFFFFFFFFFFFFFFFFFFFF AND PUSH20 0xFFFFFFFFFFFFFFFFFFFFFFFFFFFFFFFFFFFFFFFF AND DUP2 MSTORE PUSH1 0x20 ADD SWAP1 DUP2 MSTORE PUSH1 0x20 ADD PUSH0 KECCAK256 DUP2 SWAP1 SSTORE POP DUP4 PUSH1 0xA ADD DUP3 SWAP1 DUP1 PUSH1 0x1 DUP2 SLOAD ADD DUP1 DUP3 SSTORE DUP1 SWAP2 POP POP PUSH1 0x1 SWAP1 SUB SWAP1 PUSH0 MSTORE PUSH1 0x20 PUSH0 KECCAK256 ADD PUSH0 SWAP1 SWAP2 SWAP1 SWAP2 SWAP1 SWAP2 PUSH2 0x100 EXP DUP2 SLOAD DUP2 PUSH20 0xFFFFFFFFFFFFFFFFFFFFFFFFFFFFFFFFFFFFFFFF MUL NOT AND SWAP1 DUP4 PUSH20 0xFFFFFFFFFFFFFFFFFFFFFFFFFFFFFFFFFFFFFFFF AND MUL OR SWAP1 SSTORE POP PUSH2 0x154B JUMP JUMPDEST POP POP PUSH2 0x154E JUMP JUMPDEST POP POP JUMPDEST DUP1 DUP1 PUSH1 0x1 ADD SWAP2 POP POP PUSH2 0x138F JUMP JUMPDEST POP DUP1 PUSH1 0x4 ADD PUSH0 SWAP1 SLOAD SWAP1 PUSH2 0x100 EXP SWAP1 DIV PUSH20 0xFFFFFFFFFFFFFFFFFFFFFFFFFFFFFFFFFFFFFFFF AND PUSH20 0xFFFFFFFFFFFFFFFFFFFFFFFFFFFFFFFFFFFFFFFF AND PUSH2 0x8FC DUP3 PUSH1 0x6 ADD SLOAD SWAP1 DUP2 ISZERO MUL SWAP1 PUSH1 0x40 MLOAD PUSH0 PUSH1 0x40 MLOAD DUP1 DUP4 SUB DUP2 DUP6 DUP9 DUP9 CALL SWAP4 POP POP POP POP ISZERO DUP1 ISZERO PUSH2 0x15C6 JUMPI RETURNDATASIZE PUSH0 DUP1 RETURNDATACOPY RETURNDATASIZE PUSH0 REVERT JUMPDEST POP POP POP JUMP JUMPDEST PUSH2 0x15D3 PUSH2 0x2534 JUMP JUMPDEST PUSH0 PUSH1 0x2 PUSH0 DUP4 DUP2 MSTORE PUSH1 0x20 ADD SWAP1 DUP2 MSTORE PUSH1 0x20 ADD PUSH0 KECCAK256 SWAP1 POP PUSH2 0x15F0 DUP2 PUSH2 0x2575 JUMP JUMPDEST PUSH0 PUSH1 0x2 DUP2 GT ISZERO PUSH2 0x1603 JUMPI PUSH2 0x1602 PUSH2 0x315C JUMP JUMPDEST JUMPDEST DUP2 PUSH1 0x7 ADD PUSH0 SWAP1 SLOAD SWAP1 PUSH2 0x100 EXP SWAP1 DIV PUSH1 0xFF AND PUSH1 0x2 DUP2 GT ISZERO PUSH2 0x1626 JUMPI PUSH2 0x1625 PUSH2 0x315C JUMP JUMPDEST JUMPDEST EQ PUSH2 0x1666 JUMPI PUSH1 0x40 MLOAD PUSH32 0x8C379A000000000000000000000000000000000000000000000000000000000 DUP2 MSTORE PUSH1 0x4 ADD PUSH2 0x165D SWAP1 PUSH2 0x3E17 JUMP JUMPDEST PUSH1 0x40 MLOAD DUP1 SWAP2 SUB SWAP1 REVERT JUMPDEST PUSH0 DUP1 PUSH0 CALLER PUSH20 0xFFFFFFFFFFFFFFFFFFFFFFFFFFFFFFFFFFFFFFFF AND PUSH20 0xFFFFFFFFFFFFFFFFFFFFFFFFFFFFFFFFFFFFFFFF AND DUP2 MSTORE PUSH1 0x20 ADD SWAP1 DUP2 MSTORE PUSH1 0x20 ADD PUSH0 KECCAK256 PUSH1 0x1 ADD SLOAD SUB PUSH2 0x1769 JUMPI PUSH0 DUP1 PUSH0 CALLER PUSH20 0xFFFFFFFFFFFFFFFFFFFFFFFFFFFFFFFFFFFFFFFF AND PUSH20 0xFFFFFFFFFFFFFFFFFFFFFFFFFFFFFFFFFFFFFFFF AND DUP2 MSTORE PUSH1 0x20 ADD SWAP1 DUP2 MSTORE PUSH1 0x20 ADD PUSH0 KECCAK256 PUSH1 0x2 ADD SLOAD GT ISZERO PUSH2 0x172E JUMPI PUSH1 0x40 MLOAD PUSH32 0x8C379A000000000000000000000000000000000000000000000000000000000 DUP2 MSTORE PUSH1 0x4 ADD PUSH2 0x1725 SWAP1 PUSH2 0x3ECB JUMP JUMPDEST PUSH1 0x40 MLOAD DUP1 SWAP2 SUB SWAP1 REVERT JUMPDEST PUSH1 0x40 MLOAD PUSH32 0x8C379A000000000000000000000000000000000000000000000000000000000 DUP2 MSTORE PUSH1 0x4 ADD PUSH2 0x1760 SWAP1 PUSH2 0x3F33 JUMP JUMPDEST PUSH1 0x40 MLOAD DUP1 SWAP2 SUB SWAP1 REVERT JUMPDEST PUSH1 0x1 PUSH1 0x4 SLOAD PUSH2 0x1778 SWAP2 SWAP1 PUSH2 0x3F51 JUMP JUMPDEST PUSH0 DUP1 CALLER PUSH20 0xFFFFFFFFFFFFFFFFFFFFFFFFFFFFFFFFFFFFFFFF AND PUSH20 0xFFFFFFFFFFFFFFFFFFFFFFFFFFFFFFFFFFFFFFFF AND DUP2 MSTORE PUSH1 0x20 ADD SWAP1 DUP2 MSTORE PUSH1 0x20 ADD PUSH0 KECCAK256 PUSH0 ADD SLOAD TIMESTAMP PUSH2 0x17C2 SWAP2 SWAP1 PUSH2 0x3A3F JUMP JUMPDEST LT ISZERO PUSH2 0x1803 JUMPI PUSH1 0x40 MLOAD PUSH32 0x8C379A000000000000000000000000000000000000000000000000000000000 DUP2 MSTORE PUSH1 0x4 ADD PUSH2 0x17FA SWAP1 PUSH2 0x4002 JUMP JUMPDEST PUSH1 0x40 MLOAD DUP1 SWAP2 SUB SWAP1 REVERT JUMPDEST PUSH0 DUP1 PUSH0 CALLER PUSH20 0xFFFFFFFFFFFFFFFFFFFFFFFFFFFFFFFFFFFFFFFF AND PUSH20 0xFFFFFFFFFFFFFFFFFFFFFFFFFFFFFFFFFFFFFFFF AND DUP2 MSTORE PUSH1 0x20 ADD SWAP1 DUP2 MSTORE PUSH1 0x20 ADD PUSH0 KECCAK256 PUSH1 0x1 ADD SLOAD SWAP1 POP PUSH0 DUP1 PUSH0 CALLER PUSH20 0xFFFFFFFFFFFFFFFFFFFFFFFFFFFFFFFFFFFFFFFF AND PUSH20 0xFFFFFFFFFFFFFFFFFFFFFFFFFFFFFFFFFFFFFFFF AND DUP2 MSTORE PUSH1 0x20 ADD SWAP1 DUP2 MSTORE PUSH1 0x20 ADD PUSH0 KECCAK256 PUSH1 0x1 ADD DUP2 SWAP1 SSTORE POP DUP1 PUSH0 DUP1 CALLER PUSH20 0xFFFFFFFFFFFFFFFFFFFFFFFFFFFFFFFFFFFFFFFF AND PUSH20 0xFFFFFFFFFFFFFFFFFFFFFFFFFFFFFFFFFFFFFFFF AND DUP2 MSTORE PUSH1 0x20 ADD SWAP1 DUP2 MSTORE PUSH1 0x20 ADD PUSH0 KECCAK256 PUSH1 0x2 ADD PUSH0 DUP3 DUP3 SLOAD PUSH2 0x18D8 SWAP2 SWAP1 PUSH2 0x3A0C JUMP JUMPDEST SWAP3 POP POP DUP2 SWAP1 SSTORE POP DUP1 DUP3 PUSH1 0x6 ADD PUSH0 DUP3 DUP3 SLOAD PUSH2 0x18F2 SWAP2 SWAP1 PUSH2 0x3A0C JUMP JUMPDEST SWAP3 POP POP DUP2 SWAP1 SSTORE POP PUSH0 PUSH1 0x1 PUSH0 DUP6 DUP2 MSTORE PUSH1 0x20 ADD SWAP1 DUP2 MSTORE PUSH1 0x20 ADD PUSH0 KECCAK256 PUSH0 CALLER PUSH20 0xFFFFFFFFFFFFFFFFFFFFFFFFFFFFFFFFFFFFFFFF AND PUSH20 0xFFFFFFFFFFFFFFFFFFFFFFFFFFFFFFFFFFFFFFFF AND DUP2 MSTORE PUSH1 0x20 ADD SWAP1 DUP2 MSTORE PUSH1 0x20 ADD PUSH0 KECCAK256 SLOAD SUB PUSH2 0x19CA JUMPI PUSH1 0x1 DUP3 PUSH1 0x8 ADD PUSH0 DUP3 DUP3 SLOAD PUSH2 0x1960 SWAP2 SWAP1 PUSH2 0x3A0C JUMP JUMPDEST SWAP3 POP POP DUP2 SWAP1 SSTORE POP DUP2 PUSH1 0x9 ADD CALLER SWAP1 DUP1 PUSH1 0x1 DUP2 SLOAD ADD DUP1 DUP3 SSTORE DUP1 SWAP2 POP POP PUSH1 0x1 SWAP1 SUB SWAP1 PUSH0 MSTORE PUSH1 0x20 PUSH0 KECCAK256 ADD PUSH0 SWAP1 SWAP2 SWAP1 SWAP2 SWAP1 SWAP2 PUSH2 0x100 EXP DUP2 SLOAD DUP2 PUSH20 0xFFFFFFFFFFFFFFFFFFFFFFFFFFFFFFFFFFFFFFFF MUL NOT AND SWAP1 DUP4 PUSH20 0xFFFFFFFFFFFFFFFFFFFFFFFFFFFFFFFFFFFFFFFF AND MUL OR SWAP1 SSTORE POP JUMPDEST DUP1 PUSH1 0x1 PUSH0 DUP6 DUP2 MSTORE PUSH1 0x20 ADD SWAP1 DUP2 MSTORE PUSH1 0x20 ADD PUSH0 KECCAK256 PUSH0 CALLER PUSH20 0xFFFFFFFFFFFFFFFFFFFFFFFFFFFFFFFFFFFFFFFF AND PUSH20 0xFFFFFFFFFFFFFFFFFFFFFFFFFFFFFFFFFFFFFFFF AND DUP2 MSTORE PUSH1 0x20 ADD SWAP1 DUP2 MSTORE PUSH1 0x20 ADD PUSH0 KECCAK256 PUSH0 DUP3 DUP3 SLOAD PUSH2 0x1A25 SWAP2 SWAP1 PUSH2 0x3A0C JUMP JUMPDEST SWAP3 POP POP DUP2 SWAP1 SSTORE POP POP POP POP JUMP JUMPDEST PUSH0 DUP1 PUSH2 0x1A3B PUSH2 0x29D3 JUMP JUMPDEST SWAP1 POP DUP1 PUSH0 ADD PUSH0 SWAP1 SLOAD SWAP1 PUSH2 0x100 EXP SWAP1 DIV PUSH1 0xFF AND SWAP2 POP POP SWAP1 JUMP JUMPDEST PUSH0 PUSH2 0x1A5C PUSH2 0x1A31 JUMP JUMPDEST SWAP1 POP SWAP1 JUMP JUMPDEST PUSH0 SELFBALANCE SWAP1 POP SWAP1 JUMP JUMPDEST PUSH2 0x1A70 PUSH2 0x2608 JUMP JUMPDEST PUSH2 0x1A79 PUSH0 PUSH2 0x29FA JUMP JUMPDEST JUMP JUMPDEST PUSH0 PUSH1 0x6 SLOAD SWAP1 POP SWAP1 JUMP JUMPDEST PUSH2 0x1A8C PUSH2 0x2534 JUMP JUMPDEST PUSH0 PUSH1 0x2 PUSH0 PUSH1 0x6 SLOAD DUP2 MSTORE PUSH1 0x20 ADD SWAP1 DUP2 MSTORE PUSH1 0x20 ADD PUSH0 KECCAK256 SWAP1 POP CALLER DUP2 PUSH0 ADD PUSH0 PUSH2 0x100 EXP DUP2 SLOAD DUP2 PUSH20 0xFFFFFFFFFFFFFFFFFFFFFFFFFFFFFFFFFFFFFFFF MUL NOT AND SWAP1 DUP4 PUSH20 0xFFFFFFFFFFFFFFFFFFFFFFFFFFFFFFFFFFFFFFFF AND MUL OR SWAP1 SSTORE POP PUSH1 0x6 SLOAD DUP2 PUSH1 0x1 ADD DUP2 SWAP1 SSTORE POP TIMESTAMP DUP2 PUSH1 0x2 ADD DUP2 SWAP1 SSTORE POP DUP4 DUP2 PUSH1 0x3 ADD SWAP1 DUP2 PUSH2 0x1B08 SWAP2 SWAP1 PUSH2 0x41BD JUMP JUMPDEST POP DUP3 DUP2 PUSH1 0x4 ADD PUSH0 PUSH2 0x100 EXP DUP2 SLOAD DUP2 PUSH20 0xFFFFFFFFFFFFFFFFFFFFFFFFFFFFFFFFFFFFFFFF MUL NOT AND SWAP1 DUP4 PUSH20 0xFFFFFFFFFFFFFFFFFFFFFFFFFFFFFFFFFFFFFFFF AND MUL OR SWAP1 SSTORE POP DUP2 DUP2 PUSH1 0x5 ADD DUP2 SWAP1 SSTORE POP PUSH0 DUP2 PUSH1 0x6 ADD DUP2 SWAP1 SSTORE POP PUSH0 DUP2 PUSH1 0x7 ADD PUSH0 PUSH2 0x100 EXP DUP2 SLOAD DUP2 PUSH1 0xFF MUL NOT AND SWAP1 DUP4 PUSH1 0x2 DUP2 GT ISZERO PUSH2 0x1B83 JUMPI PUSH2 0x1B82 PUSH2 0x315C JUMP JUMPDEST JUMPDEST MUL OR SWAP1 SSTORE POP PUSH0 DUP2 PUSH1 0x8 ADD DUP2 SWAP1 SSTORE POP PUSH1 0x6 PUSH0 DUP2 SLOAD DUP1 SWAP3 SWAP2 SWAP1 PUSH2 0x1BA3 SWAP1 PUSH2 0x428C JUMP JUMPDEST SWAP2 SWAP1 POP SSTORE POP POP POP POP POP JUMP JUMPDEST PUSH2 0x1BB6 PUSH2 0x2608 JUMP JUMPDEST PUSH2 0x1BBE PUSH2 0x2ACB JUMP JUMPDEST JUMP JUMPDEST PUSH2 0x1BC8 PUSH2 0x2608 JUMP JUMPDEST PUSH2 0x1BD0 PUSH2 0x268F JUMP JUMPDEST PUSH2 0x1BD9 DUP2 PUSH2 0x24A7 JUMP JUMPDEST POP JUMP JUMPDEST PUSH0 PUSH2 0x1BE5 PUSH2 0x1C04 JUMP JUMPDEST SWAP1 POP SWAP1 JUMP JUMPDEST PUSH2 0x1BF2 PUSH2 0x2608 JUMP JUMPDEST PUSH2 0x1BFA PUSH2 0x268F JUMP JUMPDEST DUP1 PUSH1 0x4 DUP2 SWAP1 SSTORE POP POP JUMP JUMPDEST PUSH0 DUP1 PUSH2 0x1C0E PUSH2 0x2B3A JUMP JUMPDEST SWAP1 POP DUP1 PUSH0 ADD PUSH0 SWAP1 SLOAD SWAP1 PUSH2 0x100 EXP SWAP1 DIV PUSH20 0xFFFFFFFFFFFFFFFFFFFFFFFFFFFFFFFFFFFFFFFF AND SWAP2 POP POP SWAP1 JUMP JUMPDEST PUSH1 0x3 SLOAD DUP2 JUMP JUMPDEST PUSH1 0x1 PUSH1 0x20 MSTORE DUP2 PUSH0 MSTORE PUSH1 0x40 PUSH0 KECCAK256 PUSH1 0x20 MSTORE DUP1 PUSH0 MSTORE PUSH1 0x40 PUSH0 KECCAK256 PUSH0 SWAP2 POP SWAP2 POP POP SLOAD DUP2 JUMP JUMPDEST PUSH0 PUSH1 0x4 SLOAD SWAP1 POP SWAP1 JUMP JUMPDEST PUSH1 0x5 SLOAD DUP2 JUMP JUMPDEST PUSH1 0x4 SLOAD DUP2 JUMP JUMPDEST PUSH2 0x1C7C PUSH2 0x2608 JUMP JUMPDEST PUSH2 0x1C84 PUSH2 0x268F JUMP JUMPDEST DUP1 PUSH1 0x3 DUP2 SWAP1 SSTORE POP POP JUMP JUMPDEST PUSH1 0x40 MLOAD DUP1 PUSH1 0x40 ADD PUSH1 0x40 MSTORE DUP1 PUSH1 0x5 DUP2 MSTORE PUSH1 0x20 ADD PUSH32 0x352E302E30000000000000000000000000000000000000000000000000000000 DUP2 MSTORE POP DUP2 JUMP JUMPDEST PUSH0 PUSH1 0x1 PUSH0 DUP5 DUP2 MSTORE PUSH1 0x20 ADD SWAP1 DUP2 MSTORE PUSH1 0x20 ADD PUSH0 KECCAK256 PUSH0 DUP4 PUSH20 0xFFFFFFFFFFFFFFFFFFFFFFFFFFFFFFFFFFFFFFFF AND PUSH20 0xFFFFFFFFFFFFFFFFFFFFFFFFFFFFFFFFFFFFFFFF AND DUP2 MSTORE PUSH1 0x20 ADD SWAP1 DUP2 MSTORE PUSH1 0x20 ADD PUSH0 KECCAK256 SLOAD SWAP1 POP SWAP3 SWAP2 POP POP JUMP JUMPDEST PUSH2 0x1D25 PUSH2 0x2534 JUMP JUMPDEST PUSH0 DUP1 PUSH0 CALLER PUSH20 0xFFFFFFFFFFFFFFFFFFFFFFFFFFFFFFFFFFFFFFFF AND PUSH20 0xFFFFFFFFFFFFFFFFFFFFFFFFFFFFFFFFFFFFFFFF AND DUP2 MSTORE PUSH1 0x20 ADD SWAP1 DUP2 MSTORE PUSH1 0x20 ADD PUSH0 KECCAK256 PUSH1 0x1 ADD SLOAD SUB PUSH2 0x1E28 JUMPI PUSH0 DUP1 PUSH0 CALLER PUSH20 0xFFFFFFFFFFFFFFFFFFFFFFFFFFFFFFFFFFFFFFFF AND PUSH20 0xFFFFFFFFFFFFFFFFFFFFFFFFFFFFFFFFFFFFFFFF AND DUP2 MSTORE PUSH1 0x20 ADD SWAP1 DUP2 MSTORE PUSH1 0x20 ADD PUSH0 KECCAK256 PUSH1 0x2 ADD SLOAD GT ISZERO PUSH2 0x1DED JUMPI PUSH1 0x40 MLOAD PUSH32 0x8C379A000000000000000000000000000000000000000000000000000000000 DUP2 MSTORE PUSH1 0x4 ADD PUSH2 0x1DE4 SWAP1 PUSH2 0x431D JUMP JUMPDEST PUSH1 0x40 MLOAD DUP1 SWAP2 SUB SWAP1 REVERT JUMPDEST PUSH1 0x40 MLOAD PUSH32 0x8C379A000000000000000000000000000000000000000000000000000000000 DUP2 MSTORE PUSH1 0x4 ADD PUSH2 0x1E1F SWAP1 PUSH2 0x4385 JUMP JUMPDEST PUSH1 0x40 MLOAD DUP1 SWAP2 SUB SWAP1 REVERT JUMPDEST PUSH0 DUP1 PUSH0 CALLER PUSH20 0xFFFFFFFFFFFFFFFFFFFFFFFFFFFFFFFFFFFFFFFF AND PUSH20 0xFFFFFFFFFFFFFFFFFFFFFFFFFFFFFFFFFFFFFFFF AND DUP2 MSTORE PUSH1 0x20 ADD SWAP1 DUP2 MSTORE PUSH1 0x20 ADD PUSH0 KECCAK256 PUSH1 0x1 ADD SLOAD SWAP1 POP PUSH0 DUP1 PUSH0 CALLER PUSH20 0xFFFFFFFFFFFFFFFFFFFFFFFFFFFFFFFFFFFFFFFF AND PUSH20 0xFFFFFFFFFFFFFFFFFFFFFFFFFFFFFFFFFFFFFFFF AND DUP2 MSTORE PUSH1 0x20 ADD SWAP1 DUP2 MSTORE PUSH1 0x20 ADD PUSH0 KECCAK256 PUSH1 0x1 ADD DUP2 SWAP1 SSTORE POP DUP2 PUSH20 0xFFFFFFFFFFFFFFFFFFFFFFFFFFFFFFFFFFFFFFFF AND PUSH2 0x8FC DUP3 SWAP1 DUP2 ISZERO MUL SWAP1 PUSH1 0x40 MLOAD PUSH0 PUSH1 0x40 MLOAD DUP1 DUP4 SUB DUP2 DUP6 DUP9 DUP9 CALL SWAP4 POP POP POP POP ISZERO DUP1 ISZERO PUSH2 0x1EF2 JUMPI RETURNDATASIZE PUSH0 DUP1 RETURNDATACOPY RETURNDATASIZE PUSH0 REVERT JUMPDEST POP POP POP JUMP JUMPDEST PUSH0 PUSH2 0x1F00 PUSH2 0x2B61 JUMP JUMPDEST SWAP1 POP PUSH0 DUP2 PUSH0 ADD PUSH1 0x8 SWAP1 SLOAD SWAP1 PUSH2 0x100 EXP SWAP1 DIV PUSH1 0xFF AND ISZERO SWAP1 POP PUSH0 DUP3 PUSH0 ADD PUSH0 SWAP1 SLOAD SWAP1 PUSH2 0x100 EXP SWAP1 DIV PUSH8 0xFFFFFFFFFFFFFFFF AND SWAP1 POP PUSH0 DUP1 DUP3 PUSH8 0xFFFFFFFFFFFFFFFF AND EQ DUP1 ISZERO PUSH2 0x1F48 JUMPI POP DUP3 JUMPDEST SWAP1 POP PUSH0 PUSH1 0x1 DUP4 PUSH8 0xFFFFFFFFFFFFFFFF AND EQ DUP1 ISZERO PUSH2 0x1F7B JUMPI POP PUSH0 ADDRESS PUSH20 0xFFFFFFFFFFFFFFFFFFFFFFFFFFFFFFFFFFFFFFFF AND EXTCODESIZE EQ JUMPDEST SWAP1 POP DUP2 ISZERO DUP1 ISZERO PUSH2 0x1F89 JUMPI POP DUP1 ISZERO JUMPDEST ISZERO PUSH2 0x1FC0 JUMPI PUSH1 0x40 MLOAD PUSH32 0xF92EE8A900000000000000000000000000000000000000000000000000000000 DUP2 MSTORE PUSH1 0x4 ADD PUSH1 0x40 MLOAD DUP1 SWAP2 SUB SWAP1 REVERT JUMPDEST PUSH1 0x1 DUP6 PUSH0 ADD PUSH0 PUSH2 0x100 EXP DUP2 SLOAD DUP2 PUSH8 0xFFFFFFFFFFFFFFFF MUL NOT AND SWAP1 DUP4 PUSH8 0xFFFFFFFFFFFFFFFF AND MUL OR SWAP1 SSTORE POP DUP4 ISZERO PUSH2 0x200D JUMPI PUSH1 0x1 DUP6 PUSH0 ADD PUSH1 0x8 PUSH2 0x100 EXP DUP2 SLOAD DUP2 PUSH1 0xFF MUL NOT AND SWAP1 DUP4 ISZERO ISZERO MUL OR SWAP1 SSTORE POP JUMPDEST PUSH2 0x2015 PUSH2 0x2B88 JUMP JUMPDEST PUSH2 0x201E DUP7 PUSH2 0x2B9A JUMP JUMPDEST PUSH2 0x2026 PUSH2 0x2BAE JUMP JUMPDEST PUSH7 0x1902D7BB38000 PUSH1 0x3 DUP2 SWAP1 SSTORE POP PUSH1 0x14 PUSH1 0x4 DUP2 SWAP1 SSTORE POP PUSH1 0x7 PUSH1 0x5 DUP2 SWAP1 SSTORE POP DUP4 ISZERO PUSH2 0x209E JUMPI PUSH0 DUP6 PUSH0 ADD PUSH1 0x8 PUSH2 0x100 EXP DUP2 SLOAD DUP2 PUSH1 0xFF MUL NOT AND SWAP1 DUP4 ISZERO ISZERO MUL OR SWAP1 SSTORE POP PUSH32 0xC7F505B2F371AE2175EE4913F4499E1F2633A7B5936321EED1CDAEB6115181D2 PUSH1 0x1 PUSH1 0x40 MLOAD PUSH2 0x2095 SWAP2 SWAP1 PUSH2 0x43EF JUMP JUMPDEST PUSH1 0x40 MLOAD DUP1 SWAP2 SUB SWAP1 LOG1 JUMPDEST POP POP POP POP POP POP JUMP JUMPDEST PUSH0 DUP1 PUSH0 PUSH1 0x60 PUSH0 DUP1 PUSH0 PUSH1 0x60 PUSH0 PUSH1 0x60 DUP1 PUSH1 0x2 PUSH0 DUP14 DUP2 MSTORE PUSH1 0x20 ADD SWAP1 DUP2 MSTORE PUSH1 0x20 ADD PUSH0 KECCAK256 PUSH0 ADD PUSH0 SWAP1 SLOAD SWAP1 PUSH2 0x100 EXP SWAP1 DIV PUSH20 0xFFFFFFFFFFFFFFFFFFFFFFFFFFFFFFFFFFFFFFFF AND SWAP11 POP PUSH1 0x2 PUSH0 DUP14 DUP2 MSTORE PUSH1 0x20 ADD SWAP1 DUP2 MSTORE PUSH1 0x20 ADD PUSH0 KECCAK256 PUSH1 0x1 ADD SLOAD SWAP10 POP PUSH1 0x2 PUSH0 DUP14 DUP2 MSTORE PUSH1 0x20 ADD SWAP1 DUP2 MSTORE PUSH1 0x20 ADD PUSH0 KECCAK256 PUSH1 0x2 ADD SLOAD SWAP9 POP PUSH1 0x2 PUSH0 DUP14 DUP2 MSTORE PUSH1 0x20 ADD SWAP1 DUP2 MSTORE PUSH1 0x20 ADD PUSH0 KECCAK256 PUSH1 0x3 ADD DUP1 SLOAD PUSH2 0x2136 SWAP1 PUSH2 0x386D JUMP JUMPDEST DUP1 PUSH1 0x1F ADD PUSH1 0x20 DUP1 SWAP2 DIV MUL PUSH1 0x20 ADD PUSH1 0x40 MLOAD SWAP1 DUP2 ADD PUSH1 0x40 MSTORE DUP1 SWAP3 SWAP2 SWAP1 DUP2 DUP2 MSTORE PUSH1 0x20 ADD DUP3 DUP1 SLOAD PUSH2 0x2162 SWAP1 PUSH2 0x386D JUMP JUMPDEST DUP1 ISZERO PUSH2 0x21AD JUMPI DUP1 PUSH1 0x1F LT PUSH2 0x2184 JUMPI PUSH2 0x100 DUP1 DUP4 SLOAD DIV MUL DUP4 MSTORE SWAP2 PUSH1 0x20 ADD SWAP2 PUSH2 0x21AD JUMP JUMPDEST DUP3 ADD SWAP2 SWAP1 PUSH0 MSTORE PUSH1 0x20 PUSH0 KECCAK256 SWAP1 JUMPDEST DUP2 SLOAD DUP2 MSTORE SWAP1 PUSH1 0x1 ADD SWAP1 PUSH1 0x20 ADD DUP1 DUP4 GT PUSH2 0x2190 JUMPI DUP3 SWAP1 SUB PUSH1 0x1F AND DUP3 ADD SWAP2 JUMPDEST POP POP POP POP POP SWAP8 POP PUSH1 0x2 PUSH0 DUP14 DUP2 MSTORE PUSH1 0x20 ADD SWAP1 DUP2 MSTORE PUSH1 0x20 ADD PUSH0 KECCAK256 PUSH1 0x4 ADD PUSH0 SWAP1 SLOAD SWAP1 PUSH2 0x100 EXP SWAP1 DIV PUSH20 0xFFFFFFFFFFFFFFFFFFFFFFFFFFFFFFFFFFFFFFFF AND SWAP7 POP PUSH1 0x2 PUSH0 DUP14 DUP2 MSTORE PUSH1 0x20 ADD SWAP1 DUP2 MSTORE PUSH1 0x20 ADD PUSH0 KECCAK256 PUSH1 0x5 ADD SLOAD SWAP6 POP PUSH1 0x2 PUSH0 DUP14 DUP2 MSTORE PUSH1 0x20 ADD SWAP1 DUP2 MSTORE PUSH1 0x20 ADD PUSH0 KECCAK256 PUSH1 0x6 ADD SLOAD SWAP5 POP PUSH0 PUSH1 0x2 PUSH0 DUP15 DUP2 MSTORE PUSH1 0x20 ADD SWAP1 DUP2 MSTORE PUSH1 0x20 ADD PUSH0 KECCAK256 PUSH1 0x7 ADD PUSH0 SWAP1 SLOAD SWAP1 PUSH2 0x100 EXP SWAP1 DIV PUSH1 0xFF AND SWAP1 POP PUSH0 PUSH1 0x2 DUP2 GT ISZERO PUSH2 0x224F JUMPI PUSH2 0x224E PUSH2 0x315C JUMP JUMPDEST JUMPDEST DUP2 PUSH1 0x2 DUP2 GT ISZERO PUSH2 0x2262 JUMPI PUSH2 0x2261 PUSH2 0x315C JUMP JUMPDEST JUMPDEST SUB PUSH2 0x22A4 JUMPI PUSH1 0x40 MLOAD DUP1 PUSH1 0x40 ADD PUSH1 0x40 MSTORE DUP1 PUSH1 0x6 DUP2 MSTORE PUSH1 0x20 ADD PUSH32 0x4163746976650000000000000000000000000000000000000000000000000000 DUP2 MSTORE POP SWAP5 POP PUSH2 0x2347 JUMP JUMPDEST PUSH1 0x1 PUSH1 0x2 DUP2 GT ISZERO PUSH2 0x22B8 JUMPI PUSH2 0x22B7 PUSH2 0x315C JUMP JUMPDEST JUMPDEST DUP2 PUSH1 0x2 DUP2 GT ISZERO PUSH2 0x22CB JUMPI PUSH2 0x22CA PUSH2 0x315C JUMP JUMPDEST JUMPDEST SUB PUSH2 0x230D JUMPI PUSH1 0x40 MLOAD DUP1 PUSH1 0x40 ADD PUSH1 0x40 MSTORE DUP1 PUSH1 0x7 DUP2 MSTORE PUSH1 0x20 ADD PUSH32 0x4578706972656400000000000000000000000000000000000000000000000000 DUP2 MSTORE POP SWAP5 POP PUSH2 0x2346 JUMP JUMPDEST PUSH1 0x40 MLOAD DUP1 PUSH1 0x40 ADD PUSH1 0x40 MSTORE DUP1 PUSH1 0x9 DUP2 MSTORE PUSH1 0x20 ADD PUSH32 0x436F6D706C657465640000000000000000000000000000000000000000000000 DUP2 MSTORE POP SWAP5 POP JUMPDEST JUMPDEST PUSH1 0x2 PUSH0 DUP15 DUP2 MSTORE PUSH1 0x20 ADD SWAP1 DUP2 MSTORE PUSH1 0x20 ADD PUSH0 KECCAK256 PUSH1 0x8 ADD SLOAD SWAP4 POP PUSH1 0x2 PUSH0 DUP15 DUP2 MSTORE PUSH1 0x20 ADD SWAP1 DUP2 MSTORE PUSH1 0x20 ADD PUSH0 KECCAK256 PUSH1 0x9 ADD DUP1 SLOAD DUP1 PUSH1 0x20 MUL PUSH1 0x20 ADD PUSH1 0x40 MLOAD SWAP1 DUP2 ADD PUSH1 0x40 MSTORE DUP1 SWAP3 SWAP2 SWAP1 DUP2 DUP2 MSTORE PUSH1 0x20 ADD DUP3 DUP1 SLOAD DUP1 ISZERO PUSH2 0x23EF JUMPI PUSH1 0x20 MUL DUP3 ADD SWAP2 SWAP1 PUSH0 MSTORE PUSH1 0x20 PUSH0 KECCAK256 SWAP1 JUMPDEST DUP2 PUSH0 SWAP1 SLOAD SWAP1 PUSH2 0x100 EXP SWAP1 DIV PUSH20 0xFFFFFFFFFFFFFFFFFFFFFFFFFFFFFFFFFFFFFFFF AND PUSH20 0xFFFFFFFFFFFFFFFFFFFFFFFFFFFFFFFFFFFFFFFF AND DUP2 MSTORE PUSH1 0x20 ADD SWAP1 PUSH1 0x1 ADD SWAP1 DUP1 DUP4 GT PUSH2 0x23A6 JUMPI JUMPDEST POP POP POP POP POP SWAP3 POP PUSH1 0x2 PUSH0 DUP15 DUP2 MSTORE PUSH1 0x20 ADD SWAP1 DUP2 MSTORE PUSH1 0x20 ADD PUSH0 KECCAK256 PUSH1 0xA ADD DUP1 SLOAD DUP1 PUSH1 0x20 MUL PUSH1 0x20 ADD PUSH1 0x40 MLOAD SWAP1 DUP2 ADD PUSH1 0x40 MSTORE DUP1 SWAP3 SWAP2 SWAP1 DUP2 DUP2 MSTORE PUSH1 0x20 ADD DUP3 DUP1 SLOAD DUP1 ISZERO PUSH2 0x2487 JUMPI PUSH1 0x20 MUL DUP3 ADD SWAP2 SWAP1 PUSH0 MSTORE PUSH1 0x20 PUSH0 KECCAK256 SWAP1 JUMPDEST DUP2 PUSH0 SWAP1 SLOAD SWAP1 PUSH2 0x100 EXP SWAP1 DIV PUSH20 0xFFFFFFFFFFFFFFFFFFFFFFFFFFFFFFFFFFFFFFFF AND PUSH20 0xFFFFFFFFFFFFFFFFFFFFFFFFFFFFFFFFFFFFFFFF AND DUP2 MSTORE PUSH1 0x20 ADD SWAP1 PUSH1 0x1 ADD SWAP1 DUP1 DUP4 GT PUSH2 0x243E JUMPI JUMPDEST POP POP POP POP POP SWAP2 POP POP SWAP2 SWAP4 SWAP6 SWAP8 SWAP10 SWAP12 SWAP1 SWAP3 SWAP5 SWAP7 SWAP9 SWAP11 POP JUMP JUMPDEST PUSH0 PUSH1 0x5 SLOAD SWAP1 POP SWAP1 JUMP JUMPDEST PUSH2 0x24AF PUSH2 0x2608 JUMP JUMPDEST PUSH0 PUSH20 0xFFFFFFFFFFFFFFFFFFFFFFFFFFFFFFFFFFFFFFFF AND DUP2 PUSH20 0xFFFFFFFFFFFFFFFFFFFFFFFFFFFFFFFFFFFFFFFF AND SUB PUSH2 0x251F JUMPI PUSH0 PUSH1 0x40 MLOAD PUSH32 0x1E4FBDF700000000000000000000000000000000000000000000000000000000 DUP2 MSTORE PUSH1 0x4 ADD PUSH2 0x2516 SWAP2 SWAP1 PUSH2 0x3622 JUMP JUMPDEST PUSH1 0x40 MLOAD DUP1 SWAP2 SUB SWAP1 REVERT JUMPDEST PUSH2 0x2528 DUP2 PUSH2 0x29FA JUMP JUMPDEST POP JUMP JUMPDEST PUSH0 PUSH1 0x3 SLOAD SWAP1 POP SWAP1 JUMP JUMPDEST PUSH2 0x253C PUSH2 0x1A31 JUMP JUMPDEST ISZERO PUSH2 0x2573 JUMPI PUSH1 0x40 MLOAD PUSH32 0xD93C066500000000000000000000000000000000000000000000000000000000 DUP2 MSTORE PUSH1 0x4 ADD PUSH1 0x40 MLOAD DUP1 SWAP2 SUB SWAP1 REVERT JUMPDEST JUMP JUMPDEST PUSH0 PUSH1 0x2 DUP2 GT ISZERO PUSH2 0x2588 JUMPI PUSH2 0x2587 PUSH2 0x315C JUMP JUMPDEST JUMPDEST DUP2 PUSH1 0x7 ADD PUSH0 SWAP1 SLOAD SWAP1 PUSH2 0x100 EXP SWAP1 DIV PUSH1 0xFF AND PUSH1 0x2 DUP2 GT ISZERO PUSH2 0x25AB JUMPI PUSH2 0x25AA PUSH2 0x315C JUMP JUMPDEST JUMPDEST SUB PUSH2 0x2605 JUMPI PUSH3 0x15180 PUSH1 0x5 SLOAD PUSH2 0x25C1 SWAP2 SWAP1 PUSH2 0x3F51 JUMP JUMPDEST DUP2 PUSH1 0x2 ADD SLOAD TIMESTAMP PUSH2 0x25D1 SWAP2 SWAP1 PUSH2 0x3A3F JUMP JUMPDEST GT ISZERO PUSH2 0x2604 JUMPI PUSH1 0x1 DUP2 PUSH1 0x7 ADD PUSH0 PUSH2 0x100 EXP DUP2 SLOAD DUP2 PUSH1 0xFF MUL NOT AND SWAP1 DUP4 PUSH1 0x2 DUP2 GT ISZERO PUSH2 0x25FE JUMPI PUSH2 0x25FD PUSH2 0x315C JUMP JUMPDEST JUMPDEST MUL OR SWAP1 SSTORE POP JUMPDEST JUMPDEST POP JUMP JUMPDEST PUSH2 0x2610 PUSH2 0x2BB8 JUMP JUMPDEST PUSH20 0xFFFFFFFFFFFFFFFFFFFFFFFFFFFFFFFFFFFFFFFF AND PUSH2 0x262E PUSH2 0x1C04 JUMP JUMPDEST PUSH20 0xFFFFFFFFFFFFFFFFFFFFFFFFFFFFFFFFFFFFFFFF AND EQ PUSH2 0x268D JUMPI PUSH2 0x2651 PUSH2 0x2BB8 JUMP JUMPDEST PUSH1 0x40 MLOAD PUSH32 0x118CDAA700000000000000000000000000000000000000000000000000000000 DUP2 MSTORE PUSH1 0x4 ADD PUSH2 0x2684 SWAP2 SWAP1 PUSH2 0x3622 JUMP JUMPDEST PUSH1 0x40 MLOAD DUP1 SWAP2 SUB SWAP1 REVERT JUMPDEST JUMP JUMPDEST PUSH2 0x2697 PUSH2 0x1A31 JUMP JUMPDEST PUSH2 0x26CD JUMPI PUSH1 0x40 MLOAD PUSH32 0x8DFC202B00000000000000000000000000000000000000000000000000000000 DUP2 MSTORE PUSH1 0x4 ADD PUSH1 0x40 MLOAD DUP1 SWAP2 SUB SWAP1 REVERT JUMPDEST JUMP JUMPDEST PUSH2 0x26D7 PUSH2 0x268F JUMP JUMPDEST PUSH0 PUSH2 0x26E0 PUSH2 0x29D3 JUMP JUMPDEST SWAP1 POP PUSH0 DUP2 PUSH0 ADD PUSH0 PUSH2 0x100 EXP DUP2 SLOAD DUP2 PUSH1 0xFF MUL NOT AND SWAP1 DUP4 ISZERO ISZERO MUL OR SWAP1 SSTORE POP PUSH32 0x5DB9EE0A495BF2E6FF9C91A7834C1BA4FDD244A5E8AA4E537BD38AEAE4B073AA PUSH2 0x2725 PUSH2 0x2BB8 JUMP JUMPDEST PUSH1 0x40 MLOAD PUSH2 0x2732 SWAP2 SWAP1 PUSH2 0x3622 JUMP JUMPDEST PUSH1 0x40 MLOAD DUP1 SWAP2 SUB SWAP1 LOG1 POP JUMP JUMPDEST PUSH32 0x0 PUSH20 0xFFFFFFFFFFFFFFFFFFFFFFFFFFFFFFFFFFFFFFFF AND ADDRESS PUSH20 0xFFFFFFFFFFFFFFFFFFFFFFFFFFFFFFFFFFFFFFFF AND EQ DUP1 PUSH2 0x27EA JUMPI POP PUSH32 0x0 PUSH20 0xFFFFFFFFFFFFFFFFFFFFFFFFFFFFFFFFFFFFFFFF AND PUSH2 0x27D1 PUSH2 0x2BBF JUMP JUMPDEST PUSH20 0xFFFFFFFFFFFFFFFFFFFFFFFFFFFFFFFFFFFFFFFF AND EQ ISZERO JUMPDEST ISZERO PUSH2 0x2821 JUMPI PUSH1 0x40 MLOAD PUSH32 0xE07C8DBA00000000000000000000000000000000000000000000000000000000 DUP2 MSTORE PUSH1 0x4 ADD PUSH1 0x40 MLOAD DUP1 SWAP2 SUB SWAP1 REVERT JUMPDEST JUMP JUMPDEST PUSH2 0x282B PUSH2 0x2608 JUMP JUMPDEST POP JUMP JUMPDEST DUP2 PUSH20 0xFFFFFFFFFFFFFFFFFFFFFFFFFFFFFFFFFFFFFFFF AND PUSH4 0x52D1902D PUSH1 0x40 MLOAD DUP2 PUSH4 0xFFFFFFFF AND PUSH1 0xE0 SHL DUP2 MSTORE PUSH1 0x4 ADD PUSH1 0x20 PUSH1 0x40 MLOAD DUP1 DUP4 SUB DUP2 DUP7 GAS STATICCALL SWAP3 POP POP POP DUP1 ISZERO PUSH2 0x2896 JUMPI POP PUSH1 0x40 MLOAD RETURNDATASIZE PUSH1 0x1F NOT PUSH1 0x1F DUP3 ADD AND DUP3 ADD DUP1 PUSH1 0x40 MSTORE POP DUP2 ADD SWAP1 PUSH2 0x2893 SWAP2 SWAP1 PUSH2 0x4432 JUMP JUMPDEST PUSH1 0x1 JUMPDEST PUSH2 0x28D7 JUMPI DUP2 PUSH1 0x40 MLOAD PUSH32 0x4C9C8CE300000000000000000000000000000000000000000000000000000000 DUP2 MSTORE PUSH1 0x4 ADD PUSH2 0x28CE SWAP2 SWAP1 PUSH2 0x3622 JUMP JUMPDEST PUSH1 0x40 MLOAD DUP1 SWAP2 SUB SWAP1 REVERT JUMPDEST PUSH32 0x360894A13BA1A3210667C828492DB98DCA3E2076CC3735A920A3CA505D382BBC PUSH0 SHL DUP2 EQ PUSH2 0x293D JUMPI DUP1 PUSH1 0x40 MLOAD PUSH32 0xAA1D49A400000000000000000000000000000000000000000000000000000000 DUP2 MSTORE PUSH1 0x4 ADD PUSH2 0x2934 SWAP2 SWAP1 PUSH2 0x34A2 JUMP JUMPDEST PUSH1 0x40 MLOAD DUP1 SWAP2 SUB SWAP1 REVERT JUMPDEST PUSH2 0x2947 DUP4 DUP4 PUSH2 0x2C12 JUMP JUMPDEST POP POP POP JUMP JUMPDEST PUSH32 0x0 PUSH20 0xFFFFFFFFFFFFFFFFFFFFFFFFFFFFFFFFFFFFFFFF AND ADDRESS PUSH20 0xFFFFFFFFFFFFFFFFFFFFFFFFFFFFFFFFFFFFFFFF AND EQ PUSH2 0x29D1 JUMPI PUSH1 0x40 MLOAD PUSH32 0xE07C8DBA00000000000000000000000000000000000000000000000000000000 DUP2 MSTORE PUSH1 0x4 ADD PUSH1 0x40 MLOAD DUP1 SWAP2 SUB SWAP1 REVERT JUMPDEST JUMP JUMPDEST PUSH0 PUSH32 0xCD5ED15C6E187E77E9AEE88184C21F4F2182AB5827CB3B7E07FBEDCD63F03300 SWAP1 POP SWAP1 JUMP JUMPDEST PUSH0 PUSH2 0x2A03 PUSH2 0x2B3A JUMP JUMPDEST SWAP1 POP PUSH0 DUP2 PUSH0 ADD PUSH0 SWAP1 SLOAD SWAP1 PUSH2 0x100 EXP SWAP1 DIV PUSH20 0xFFFFFFFFFFFFFFFFFFFFFFFFFFFFFFFFFFFFFFFF AND SWAP1 POP DUP3 DUP3 PUSH0 ADD PUSH0 PUSH2 0x100 EXP DUP2 SLOAD DUP2 PUSH20 0xFFFFFFFFFFFFFFFFFFFFFFFFFFFFFFFFFFFFFFFF MUL NOT AND SWAP1 DUP4 PUSH20 0xFFFFFFFFFFFFFFFFFFFFFFFFFFFFFFFFFFFFFFFF AND MUL OR SWAP1 SSTORE POP DUP3 PUSH20 0xFFFFFFFFFFFFFFFFFFFFFFFFFFFFFFFFFFFFFFFF AND DUP2 PUSH20 0xFFFFFFFFFFFFFFFFFFFFFFFFFFFFFFFFFFFFFFFF AND PUSH32 0x8BE0079C531659141344CD1FD0A4F28419497F9722A3DAAFE3B4186F6B6457E0 PUSH1 0x40 MLOAD PUSH1 0x40 MLOAD DUP1 SWAP2 SUB SWAP1 LOG3 POP POP POP JUMP JUMPDEST PUSH2 0x2AD3 PUSH2 0x2534 JUMP JUMPDEST PUSH0 PUSH2 0x2ADC PUSH2 0x29D3 JUMP JUMPDEST SWAP1 POP PUSH1 0x1 DUP2 PUSH0 ADD PUSH0 PUSH2 0x100 EXP DUP2 SLOAD DUP2 PUSH1 0xFF MUL NOT AND SWAP1 DUP4 ISZERO ISZERO MUL OR SWAP1 SSTORE POP PUSH32 0x62E78CEA01BEE320CD4E420270B5EA74000D11B0C9F74754EBDBFC544B05A258 PUSH2 0x2B22 PUSH2 0x2BB8 JUMP JUMPDEST PUSH1 0x40 MLOAD PUSH2 0x2B2F SWAP2 SWAP1 PUSH2 0x3622 JUMP JUMPDEST PUSH1 0x40 MLOAD DUP1 SWAP2 SUB SWAP1 LOG1 POP JUMP JUMPDEST PUSH0 PUSH32 0x9016D09D72D40FDAE2FD8CEAC6B6234C7706214FD39C1CD1E609A0528C199300 SWAP1 POP SWAP1 JUMP JUMPDEST PUSH0 PUSH32 0xF0C57E16840DF040F15088DC2F81FE391C3923BEC73E23A9662EFC9C229C6A00 SWAP1 POP SWAP1 JUMP JUMPDEST PUSH2 0x2B90 PUSH2 0x2C84 JUMP JUMPDEST PUSH2 0x2B98 PUSH2 0x2CC4 JUMP JUMPDEST JUMP JUMPDEST PUSH2 0x2BA2 PUSH2 0x2C84 JUMP JUMPDEST PUSH2 0x2BAB DUP2 PUSH2 0x2CF4 JUMP JUMPDEST POP JUMP JUMPDEST PUSH2 0x2BB6 PUSH2 0x2C84 JUMP JUMPDEST JUMP JUMPDEST PUSH0 CALLER SWAP1 POP SWAP1 JUMP JUMPDEST PUSH0 PUSH2 0x2BEB PUSH32 0x360894A13BA1A3210667C828492DB98DCA3E2076CC3735A920A3CA505D382BBC PUSH0 SHL PUSH2 0x2D78 JUMP JUMPDEST PUSH0 ADD PUSH0 SWAP1 SLOAD SWAP1 PUSH2 0x100 EXP SWAP1 DIV PUSH20 0xFFFFFFFFFFFFFFFFFFFFFFFFFFFFFFFFFFFFFFFF AND SWAP1 POP SWAP1 JUMP JUMPDEST PUSH2 0x2C1B DUP3 PUSH2 0x2D81 JUMP JUMPDEST DUP2 PUSH20 0xFFFFFFFFFFFFFFFFFFFFFFFFFFFFFFFFFFFFFFFF AND PUSH32 0xBC7CD75A20EE27FD9ADEBAB32041F755214DBC6BFFA90CC0225B39DA2E5C2D3B PUSH1 0x40 MLOAD PUSH1 0x40 MLOAD DUP1 SWAP2 SUB SWAP1 LOG2 PUSH0 DUP2 MLOAD GT ISZERO PUSH2 0x2C77 JUMPI PUSH2 0x2C71 DUP3 DUP3 PUSH2 0x2E4A JUMP JUMPDEST POP PUSH2 0x2C80 JUMP JUMPDEST PUSH2 0x2C7F PUSH2 0x2ECA JUMP JUMPDEST JUMPDEST POP POP JUMP JUMPDEST PUSH2 0x2C8C PUSH2 0x2F06 JUMP JUMPDEST PUSH2 0x2CC2 JUMPI PUSH1 0x40 MLOAD PUSH32 0xD7E6BCF800000000000000000000000000000000000000000000000000000000 DUP2 MSTORE PUSH1 0x4 ADD PUSH1 0x40 MLOAD DUP1 SWAP2 SUB SWAP1 REVERT JUMPDEST JUMP JUMPDEST PUSH2 0x2CCC PUSH2 0x2C84 JUMP JUMPDEST PUSH0 PUSH2 0x2CD5 PUSH2 0x29D3 JUMP JUMPDEST SWAP1 POP PUSH0 DUP2 PUSH0 ADD PUSH0 PUSH2 0x100 EXP DUP2 SLOAD DUP2 PUSH1 0xFF MUL NOT AND SWAP1 DUP4 ISZERO ISZERO MUL OR SWAP1 SSTORE POP POP JUMP JUMPDEST PUSH2 0x2CFC PUSH2 0x2C84 JUMP JUMPDEST PUSH0 PUSH20 0xFFFFFFFFFFFFFFFFFFFFFFFFFFFFFFFFFFFFFFFF AND DUP2 PUSH20 0xFFFFFFFFFFFFFFFFFFFFFFFFFFFFFFFFFFFFFFFF AND SUB PUSH2 0x2D6C JUMPI PUSH0 PUSH1 0x40 MLOAD PUSH32 0x1E4FBDF700000000000000000000000000000000000000000000000000000000 DUP2 MSTORE PUSH1 0x4 ADD PUSH2 0x2D63 SWAP2 SWAP1 PUSH2 0x3622 JUMP JUMPDEST PUSH1 0x40 MLOAD DUP1 SWAP2 SUB SWAP1 REVERT JUMPDEST PUSH2 0x2D75 DUP2 PUSH2 0x29FA JUMP JUMPDEST POP JUMP JUMPDEST PUSH0 DUP2 SWAP1 POP SWAP2 SWAP1 POP JUMP JUMPDEST PUSH0 DUP2 PUSH20 0xFFFFFFFFFFFFFFFFFFFFFFFFFFFFFFFFFFFFFFFF AND EXTCODESIZE SUB PUSH2 0x2DDC JUMPI DUP1 PUSH1 0x40 MLOAD PUSH32 0x4C9C8CE300000000000000000000000000000000000000000000000000000000 DUP2 MSTORE PUSH1 0x4 ADD PUSH2 0x2DD3 SWAP2 SWAP1 PUSH2 0x3622 JUMP JUMPDEST PUSH1 0x40 MLOAD DUP1 SWAP2 SUB SWAP1 REVERT JUMPDEST DUP1 PUSH2 0x2E08 PUSH32 0x360894A13BA1A3210667C828492DB98DCA3E2076CC3735A920A3CA505D382BBC PUSH0 SHL PUSH2 0x2D78 JUMP JUMPDEST PUSH0 ADD PUSH0 PUSH2 0x100 EXP DUP2 SLOAD DUP2 PUSH20 0xFFFFFFFFFFFFFFFFFFFFFFFFFFFFFFFFFFFFFFFF MUL NOT AND SWAP1 DUP4 PUSH20 0xFFFFFFFFFFFFFFFFFFFFFFFFFFFFFFFFFFFFFFFF AND MUL OR SWAP1 SSTORE POP POP JUMP JUMPDEST PUSH1 0x60 PUSH0 DUP1 DUP5 PUSH20 0xFFFFFFFFFFFFFFFFFFFFFFFFFFFFFFFFFFFFFFFF AND DUP5 PUSH1 0x40 MLOAD PUSH2 0x2E73 SWAP2 SWAP1 PUSH2 0x44A1 JUMP JUMPDEST PUSH0 PUSH1 0x40 MLOAD DUP1 DUP4 SUB DUP2 DUP6 GAS DELEGATECALL SWAP2 POP POP RETURNDATASIZE DUP1 PUSH0 DUP2 EQ PUSH2 0x2EAB JUMPI PUSH1 0x40 MLOAD SWAP2 POP PUSH1 0x1F NOT PUSH1 0x3F RETURNDATASIZE ADD AND DUP3 ADD PUSH1 0x40 MSTORE RETURNDATASIZE DUP3 MSTORE RETURNDATASIZE PUSH0 PUSH1 0x20 DUP5 ADD RETURNDATACOPY PUSH2 0x2EB0 JUMP JUMPDEST PUSH1 0x60 SWAP2 POP JUMPDEST POP SWAP2 POP SWAP2 POP PUSH2 0x2EC0 DUP6 DUP4 DUP4 PUSH2 0x2F24 JUMP JUMPDEST SWAP3 POP POP POP SWAP3 SWAP2 POP POP JUMP JUMPDEST PUSH0 CALLVALUE GT ISZERO PUSH2 0x2F04 JUMPI PUSH1 0x40 MLOAD PUSH32 0xB398979F00000000000000000000000000000000000000000000000000000000 DUP2 MSTORE PUSH1 0x4 ADD PUSH1 0x40 MLOAD DUP1 SWAP2 SUB SWAP1 REVERT JUMPDEST JUMP JUMPDEST PUSH0 PUSH2 0x2F0F PUSH2 0x2B61 JUMP JUMPDEST PUSH0 ADD PUSH1 0x8 SWAP1 SLOAD SWAP1 PUSH2 0x100 EXP SWAP1 DIV PUSH1 0xFF AND SWAP1 POP SWAP1 JUMP JUMPDEST PUSH1 0x60 DUP3 PUSH2 0x2F39 JUMPI PUSH2 0x2F34 DUP3 PUSH2 0x2FB1 JUMP JUMPDEST PUSH2 0x2FA9 JUMP JUMPDEST PUSH0 DUP3 MLOAD EQ DUP1 ISZERO PUSH2 0x2F5F JUMPI POP PUSH0 DUP5 PUSH20 0xFFFFFFFFFFFFFFFFFFFFFFFFFFFFFFFFFFFFFFFF AND EXTCODESIZE EQ JUMPDEST ISZERO PUSH2 0x2FA1 JUMPI DUP4 PUSH1 0x40 MLOAD PUSH32 0x9996B31500000000000000000000000000000000000000000000000000000000 DUP2 MSTORE PUSH1 0x4 ADD PUSH2 0x2F98 SWAP2 SWAP1 PUSH2 0x3622 JUMP JUMPDEST PUSH1 0x40 MLOAD DUP1 SWAP2 SUB SWAP1 REVERT JUMPDEST DUP2 SWAP1 POP PUSH2 0x2FAA JUMP JUMPDEST JUMPDEST SWAP4 SWAP3 POP POP POP JUMP JUMPDEST PUSH0 DUP2 MLOAD GT ISZERO PUSH2 0x2FC3 JUMPI DUP1 MLOAD DUP1 DUP3 PUSH1 0x20 ADD REVERT JUMPDEST PUSH1 0x40 MLOAD PUSH32 0x1425EA4200000000000000000000000000000000000000000000000000000000 DUP2 MSTORE PUSH1 0x4 ADD PUSH1 0x40 MLOAD DUP1 SWAP2 SUB SWAP1 REVERT JUMPDEST PUSH0 PUSH1 0x40 MLOAD SWAP1 POP SWAP1 JUMP JUMPDEST PUSH0 DUP1 REVERT JUMPDEST PUSH0 DUP1 REVERT JUMPDEST PUSH0 DUP2 SWAP1 POP SWAP2 SWAP1 POP JUMP JUMPDEST PUSH2 0x3018 DUP2 PUSH2 0x3006 JUMP JUMPDEST DUP2 EQ PUSH2 0x3022 JUMPI PUSH0 DUP1 REVERT JUMPDEST POP JUMP JUMPDEST PUSH0 DUP2 CALLDATALOAD SWAP1 POP PUSH2 0x3033 DUP2 PUSH2 0x300F JUMP JUMPDEST SWAP3 SWAP2 POP POP JUMP JUMPDEST PUSH0 PUSH1 0x20 DUP3 DUP5 SUB SLT ISZERO PUSH2 0x304E JUMPI PUSH2 0x304D PUSH2 0x2FFE JUMP JUMPDEST JUMPDEST PUSH0 PUSH2 0x305B DUP5 DUP3 DUP6 ADD PUSH2 0x3025 JUMP JUMPDEST SWAP2 POP POP SWAP3 SWAP2 POP POP JUMP JUMPDEST PUSH0 PUSH20 0xFFFFFFFFFFFFFFFFFFFFFFFFFFFFFFFFFFFFFFFF DUP3 AND SWAP1 POP SWAP2 SWAP1 POP JUMP JUMPDEST PUSH0 PUSH2 0x308D DUP3 PUSH2 0x3064 JUMP JUMPDEST SWAP1 POP SWAP2 SWAP1 POP JUMP JUMPDEST PUSH2 0x309D DUP2 PUSH2 0x3083 JUMP JUMPDEST DUP3 MSTORE POP POP JUMP JUMPDEST PUSH2 0x30AC DUP2 PUSH2 0x3006 JUMP JUMPDEST DUP3 MSTORE POP POP JUMP JUMPDEST PUSH0 DUP2 MLOAD SWAP1 POP SWAP2 SWAP1 POP JUMP JUMPDEST PUSH0 DUP3 DUP3 MSTORE PUSH1 0x20 DUP3 ADD SWAP1 POP SWAP3 SWAP2 POP POP JUMP JUMPDEST PUSH0 JUMPDEST DUP4 DUP2 LT ISZERO PUSH2 0x30E9 JUMPI DUP1 DUP3 ADD MLOAD DUP2 DUP5 ADD MSTORE PUSH1 0x20 DUP2 ADD SWAP1 POP PUSH2 0x30CE JUMP JUMPDEST PUSH0 DUP5 DUP5 ADD MSTORE POP POP POP POP JUMP JUMPDEST PUSH0 PUSH1 0x1F NOT PUSH1 0x1F DUP4 ADD AND SWAP1 POP SWAP2 SWAP1 POP JUMP JUMPDEST PUSH0 PUSH2 0x310E DUP3 PUSH2 0x30B2 JUMP JUMPDEST PUSH2 0x3118 DUP2 DUP6 PUSH2 0x30BC JUMP JUMPDEST SWAP4 POP PUSH2 0x3128 DUP2 DUP6 PUSH1 0x20 DUP7 ADD PUSH2 0x30CC JUMP JUMPDEST PUSH2 0x3131 DUP2 PUSH2 0x30F4 JUMP JUMPDEST DUP5 ADD SWAP2 POP POP SWAP3 SWAP2 POP POP JUMP JUMPDEST PUSH0 PUSH2 0x3146 DUP3 PUSH2 0x3064 JUMP JUMPDEST SWAP1 POP SWAP2 SWAP1 POP JUMP JUMPDEST PUSH2 0x3156 DUP2 PUSH2 0x313C JUMP JUMPDEST DUP3 MSTORE POP POP JUMP JUMPDEST PUSH32 0x4E487B7100000000000000000000000000000000000000000000000000000000 PUSH0 MSTORE PUSH1 0x21 PUSH1 0x4 MSTORE PUSH1 0x24 PUSH0 REVERT JUMPDEST PUSH1 0x3 DUP2 LT PUSH2 0x319A JUMPI PUSH2 0x3199 PUSH2 0x315C JUMP JUMPDEST JUMPDEST POP JUMP JUMPDEST PUSH0 DUP2 SWAP1 POP PUSH2 0x31AA DUP3 PUSH2 0x3189 JUMP JUMPDEST SWAP2 SWAP1 POP JUMP JUMPDEST PUSH0 PUSH2 0x31B9 DUP3 PUSH2 0x319D JUMP JUMPDEST SWAP1 POP SWAP2 SWAP1 POP JUMP JUMPDEST PUSH2 0x31C9 DUP2 PUSH2 0x31AF JUMP JUMPDEST DUP3 MSTORE POP POP JUMP JUMPDEST PUSH0 PUSH2 0x120 DUP3 ADD SWAP1 POP PUSH2 0x31E3 PUSH0 DUP4 ADD DUP13 PUSH2 0x3094 JUMP JUMPDEST PUSH2 0x31F0 PUSH1 0x20 DUP4 ADD DUP12 PUSH2 0x30A3 JUMP JUMPDEST PUSH2 0x31FD PUSH1 0x40 DUP4 ADD DUP11 PUSH2 0x30A3 JUMP JUMPDEST DUP2 DUP2 SUB PUSH1 0x60 DUP4 ADD MSTORE PUSH2 0x320F DUP2 DUP10 PUSH2 0x3104 JUMP JUMPDEST SWAP1 POP PUSH2 0x321E PUSH1 0x80 DUP4 ADD DUP9 PUSH2 0x314D JUMP JUMPDEST PUSH2 0x322B PUSH1 0xA0 DUP4 ADD DUP8 PUSH2 0x30A3 JUMP JUMPDEST PUSH2 0x3238 PUSH1 0xC0 DUP4 ADD DUP7 PUSH2 0x30A3 JUMP JUMPDEST PUSH2 0x3245 PUSH1 0xE0 DUP4 ADD DUP6 PUSH2 0x31C0 JUMP JUMPDEST PUSH2 0x3253 PUSH2 0x100 DUP4 ADD DUP5 PUSH2 0x30A3 JUMP JUMPDEST SWAP11 SWAP10 POP POP POP POP POP POP POP POP POP POP JUMP JUMPDEST PUSH2 0x326A DUP2 PUSH2 0x3083 JUMP JUMPDEST DUP2 EQ PUSH2 0x3274 JUMPI PUSH0 DUP1 REVERT JUMPDEST POP JUMP JUMPDEST PUSH0 DUP2 CALLDATALOAD SWAP1 POP PUSH2 0x3285 DUP2 PUSH2 0x3261 JUMP JUMPDEST SWAP3 SWAP2 POP POP JUMP JUMPDEST PUSH0 PUSH1 0x20 DUP3 DUP5 SUB SLT ISZERO PUSH2 0x32A0 JUMPI PUSH2 0x329F PUSH2 0x2FFE JUMP JUMPDEST JUMPDEST PUSH0 PUSH2 0x32AD DUP5 DUP3 DUP6 ADD PUSH2 0x3277 JUMP JUMPDEST SWAP2 POP POP SWAP3 SWAP2 POP POP JUMP JUMPDEST PUSH0 PUSH1 0x60 DUP3 ADD SWAP1 POP PUSH2 0x32C9 PUSH0 DUP4 ADD DUP7 PUSH2 0x30A3 JUMP JUMPDEST PUSH2 0x32D6 PUSH1 0x20 DUP4 ADD DUP6 PUSH2 0x30A3 JUMP JUMPDEST PUSH2 0x32E3 PUSH1 0x40 DUP4 ADD DUP5 PUSH2 0x30A3 JUMP JUMPDEST SWAP5 SWAP4 POP POP POP POP JUMP JUMPDEST PUSH0 PUSH1 0x20 DUP3 ADD SWAP1 POP PUSH2 0x32FE PUSH0 DUP4 ADD DUP5 PUSH2 0x30A3 JUMP JUMPDEST SWAP3 SWAP2 POP POP JUMP JUMPDEST PUSH0 DUP1 REVERT JUMPDEST PUSH0 DUP1 REVERT JUMPDEST PUSH32 0x4E487B7100000000000000000000000000000000000000000000000000000000 PUSH0 MSTORE PUSH1 0x41 PUSH1 0x4 MSTORE PUSH1 0x24 PUSH0 REVERT JUMPDEST PUSH2 0x3342 DUP3 PUSH2 0x30F4 JUMP JUMPDEST DUP2 ADD DUP2 DUP2 LT PUSH8 0xFFFFFFFFFFFFFFFF DUP3 GT OR ISZERO PUSH2 0x3361 JUMPI PUSH2 0x3360 PUSH2 0x330C JUMP JUMPDEST JUMPDEST DUP1 PUSH1 0x40 MSTORE POP POP POP JUMP JUMPDEST PUSH0 PUSH2 0x3373 PUSH2 0x2FF5 JUMP JUMPDEST SWAP1 POP PUSH2 0x337F DUP3 DUP3 PUSH2 0x3339 JUMP JUMPDEST SWAP2 SWAP1 POP JUMP JUMPDEST PUSH0 PUSH8 0xFFFFFFFFFFFFFFFF DUP3 GT ISZERO PUSH2 0x339E JUMPI PUSH2 0x339D PUSH2 0x330C JUMP JUMPDEST JUMPDEST PUSH2 0x33A7 DUP3 PUSH2 0x30F4 JUMP JUMPDEST SWAP1 POP PUSH1 0x20 DUP2 ADD SWAP1 POP SWAP2 SWAP1 POP JUMP JUMPDEST DUP3 DUP2 DUP4 CALLDATACOPY PUSH0 DUP4 DUP4 ADD MSTORE POP POP POP JUMP JUMPDEST PUSH0 PUSH2 0x33D4 PUSH2 0x33CF DUP5 PUSH2 0x3384 JUMP JUMPDEST PUSH2 0x336A JUMP JUMPDEST SWAP1 POP DUP3 DUP2 MSTORE PUSH1 0x20 DUP2 ADD DUP5 DUP5 DUP5 ADD GT ISZERO PUSH2 0x33F0 JUMPI PUSH2 0x33EF PUSH2 0x3308 JUMP JUMPDEST JUMPDEST PUSH2 0x33FB DUP5 DUP3 DUP6 PUSH2 0x33B4 JUMP JUMPDEST POP SWAP4 SWAP3 POP POP POP JUMP JUMPDEST PUSH0 DUP3 PUSH1 0x1F DUP4 ADD SLT PUSH2 0x3417 JUMPI PUSH2 0x3416 PUSH2 0x3304 JUMP JUMPDEST JUMPDEST DUP2 CALLDATALOAD PUSH2 0x3427 DUP5 DUP3 PUSH1 0x20 DUP7 ADD PUSH2 0x33C2 JUMP JUMPDEST SWAP2 POP POP SWAP3 SWAP2 POP POP JUMP JUMPDEST PUSH0 DUP1 PUSH1 0x40 DUP4 DUP6 SUB SLT ISZERO PUSH2 0x3446 JUMPI PUSH2 0x3445 PUSH2 0x2FFE JUMP JUMPDEST JUMPDEST PUSH0 PUSH2 0x3453 DUP6 DUP3 DUP7 ADD PUSH2 0x3277 JUMP JUMPDEST SWAP3 POP POP PUSH1 0x20 DUP4 ADD CALLDATALOAD PUSH8 0xFFFFFFFFFFFFFFFF DUP2 GT ISZERO PUSH2 0x3474 JUMPI PUSH2 0x3473 PUSH2 0x3002 JUMP JUMPDEST JUMPDEST PUSH2 0x3480 DUP6 DUP3 DUP7 ADD PUSH2 0x3403 JUMP JUMPDEST SWAP2 POP POP SWAP3 POP SWAP3 SWAP1 POP JUMP JUMPDEST PUSH0 DUP2 SWAP1 POP SWAP2 SWAP1 POP JUMP JUMPDEST PUSH2 0x349C DUP2 PUSH2 0x348A JUMP JUMPDEST DUP3 MSTORE POP POP JUMP JUMPDEST PUSH0 PUSH1 0x20 DUP3 ADD SWAP1 POP PUSH2 0x34B5 PUSH0 DUP4 ADD DUP5 PUSH2 0x3493 JUMP JUMPDEST SWAP3 SWAP2 POP POP JUMP JUMPDEST PUSH0 DUP2 ISZERO ISZERO SWAP1 POP SWAP2 SWAP1 POP JUMP JUMPDEST PUSH2 0x34CF DUP2 PUSH2 0x34BB JUMP JUMPDEST DUP3 MSTORE POP POP JUMP JUMPDEST PUSH0 PUSH1 0x20 DUP3 ADD SWAP1 POP PUSH2 0x34E8 PUSH0 DUP4 ADD DUP5 PUSH2 0x34C6 JUMP JUMPDEST SWAP3 SWAP2 POP POP JUMP JUMPDEST PUSH0 PUSH8 0xFFFFFFFFFFFFFFFF DUP3 GT ISZERO PUSH2 0x3508 JUMPI PUSH2 0x3507 PUSH2 0x330C JUMP JUMPDEST JUMPDEST PUSH2 0x3511 DUP3 PUSH2 0x30F4 JUMP JUMPDEST SWAP1 POP PUSH1 0x20 DUP2 ADD SWAP1 POP SWAP2 SWAP1 POP JUMP JUMPDEST PUSH0 PUSH2 0x3530 PUSH2 0x352B DUP5 PUSH2 0x34EE JUMP JUMPDEST PUSH2 0x336A JUMP JUMPDEST SWAP1 POP DUP3 DUP2 MSTORE PUSH1 0x20 DUP2 ADD DUP5 DUP5 DUP5 ADD GT ISZERO PUSH2 0x354C JUMPI PUSH2 0x354B PUSH2 0x3308 JUMP JUMPDEST JUMPDEST PUSH2 0x3557 DUP5 DUP3 DUP6 PUSH2 0x33B4 JUMP JUMPDEST POP SWAP4 SWAP3 POP POP POP JUMP JUMPDEST PUSH0 DUP3 PUSH1 0x1F DUP4 ADD SLT PUSH2 0x3573 JUMPI PUSH2 0x3572 PUSH2 0x3304 JUMP JUMPDEST JUMPDEST DUP2 CALLDATALOAD PUSH2 0x3583 DUP5 DUP3 PUSH1 0x20 DUP7 ADD PUSH2 0x351E JUMP JUMPDEST SWAP2 POP POP SWAP3 SWAP2 POP POP JUMP JUMPDEST PUSH2 0x3595 DUP2 PUSH2 0x313C JUMP JUMPDEST DUP2 EQ PUSH2 0x359F JUMPI PUSH0 DUP1 REVERT JUMPDEST POP JUMP JUMPDEST PUSH0 DUP2 CALLDATALOAD SWAP1 POP PUSH2 0x35B0 DUP2 PUSH2 0x358C JUMP JUMPDEST SWAP3 SWAP2 POP POP JUMP JUMPDEST PUSH0 DUP1 PUSH0 PUSH1 0x60 DUP5 DUP7 SUB SLT ISZERO PUSH2 0x35CD JUMPI PUSH2 0x35CC PUSH2 0x2FFE JUMP JUMPDEST JUMPDEST PUSH0 DUP5 ADD CALLDATALOAD PUSH8 0xFFFFFFFFFFFFFFFF DUP2 GT ISZERO PUSH2 0x35EA JUMPI PUSH2 0x35E9 PUSH2 0x3002 JUMP JUMPDEST JUMPDEST PUSH2 0x35F6 DUP7 DUP3 DUP8 ADD PUSH2 0x355F JUMP JUMPDEST SWAP4 POP POP PUSH1 0x20 PUSH2 0x3607 DUP7 DUP3 DUP8 ADD PUSH2 0x35A2 JUMP JUMPDEST SWAP3 POP POP PUSH1 0x40 PUSH2 0x3618 DUP7 DUP3 DUP8 ADD PUSH2 0x3025 JUMP JUMPDEST SWAP2 POP POP SWAP3 POP SWAP3 POP SWAP3 JUMP JUMPDEST PUSH0 PUSH1 0x20 DUP3 ADD SWAP1 POP PUSH2 0x3635 PUSH0 DUP4 ADD DUP5 PUSH2 0x3094 JUMP JUMPDEST SWAP3 SWAP2 POP POP JUMP JUMPDEST PUSH0 DUP1 PUSH1 0x40 DUP4 DUP6 SUB SLT ISZERO PUSH2 0x3651 JUMPI PUSH2 0x3650 PUSH2 0x2FFE JUMP JUMPDEST JUMPDEST PUSH0 PUSH2 0x365E DUP6 DUP3 DUP7 ADD PUSH2 0x3025 JUMP JUMPDEST SWAP3 POP POP PUSH1 0x20 PUSH2 0x366F DUP6 DUP3 DUP7 ADD PUSH2 0x3277 JUMP JUMPDEST SWAP2 POP POP SWAP3 POP SWAP3 SWAP1 POP JUMP JUMPDEST PUSH0 PUSH1 0x20 DUP3 ADD SWAP1 POP DUP2 DUP2 SUB PUSH0 DUP4 ADD MSTORE PUSH2 0x3691 DUP2 DUP5 PUSH2 0x3104 JUMP JUMPDEST SWAP1 POP SWAP3 SWAP2 POP POP JUMP JUMPDEST PUSH0 PUSH1 0x20 DUP3 DUP5 SUB SLT ISZERO PUSH2 0x36AE JUMPI PUSH2 0x36AD PUSH2 0x2FFE JUMP JUMPDEST JUMPDEST PUSH0 PUSH2 0x36BB DUP5 DUP3 DUP6 ADD PUSH2 0x35A2 JUMP JUMPDEST SWAP2 POP POP SWAP3 SWAP2 POP POP JUMP JUMPDEST PUSH0 DUP2 MLOAD SWAP1 POP SWAP2 SWAP1 POP JUMP JUMPDEST PUSH0 DUP3 DUP3 MSTORE PUSH1 0x20 DUP3 ADD SWAP1 POP SWAP3 SWAP2 POP POP JUMP JUMPDEST PUSH0 DUP2 SWAP1 POP PUSH1 0x20 DUP3 ADD SWAP1 POP SWAP2 SWAP1 POP JUMP JUMPDEST PUSH2 0x36F6 DUP2 PUSH2 0x3083 JUMP JUMPDEST DUP3 MSTORE POP POP JUMP JUMPDEST PUSH0 PUSH2 0x3707 DUP4 DUP4 PUSH2 0x36ED JUMP JUMPDEST PUSH1 0x20 DUP4 ADD SWAP1 POP SWAP3 SWAP2 POP POP JUMP JUMPDEST PUSH0 PUSH1 0x20 DUP3 ADD SWAP1 POP SWAP2 SWAP1 POP JUMP JUMPDEST PUSH0 PUSH2 0x3729 DUP3 PUSH2 0x36C4 JUMP JUMPDEST PUSH2 0x3733 DUP2 DUP6 PUSH2 0x36CE JUMP JUMPDEST SWAP4 POP PUSH2 0x373E DUP4 PUSH2 0x36DE JUMP JUMPDEST DUP1 PUSH0 JUMPDEST DUP4 DUP2 LT ISZERO PUSH2 0x376E JUMPI DUP2 MLOAD PUSH2 0x3755 DUP9 DUP3 PUSH2 0x36FC JUMP JUMPDEST SWAP8 POP PUSH2 0x3760 DUP4 PUSH2 0x3713 JUMP JUMPDEST SWAP3 POP POP PUSH1 0x1 DUP2 ADD SWAP1 POP PUSH2 0x3741 JUMP JUMPDEST POP DUP6 SWAP4 POP POP POP POP SWAP3 SWAP2 POP POP JUMP JUMPDEST PUSH0 PUSH2 0x160 DUP3 ADD SWAP1 POP PUSH2 0x378F PUSH0 DUP4 ADD DUP15 PUSH2 0x3094 JUMP JUMPDEST PUSH2 0x379C PUSH1 0x20 DUP4 ADD DUP14 PUSH2 0x30A3 JUMP JUMPDEST PUSH2 0x37A9 PUSH1 0x40 DUP4 ADD DUP13 PUSH2 0x30A3 JUMP JUMPDEST DUP2 DUP2 SUB PUSH1 0x60 DUP4 ADD MSTORE PUSH2 0x37BB DUP2 DUP12 PUSH2 0x3104 JUMP JUMPDEST SWAP1 POP PUSH2 0x37CA PUSH1 0x80 DUP4 ADD DUP11 PUSH2 0x3094 JUMP JUMPDEST PUSH2 0x37D7 PUSH1 0xA0 DUP4 ADD DUP10 PUSH2 0x30A3 JUMP JUMPDEST PUSH2 0x37E4 PUSH1 0xC0 DUP4 ADD DUP9 PUSH2 0x30A3 JUMP JUMPDEST DUP2 DUP2 SUB PUSH1 0xE0 DUP4 ADD MSTORE PUSH2 0x37F6 DUP2 DUP8 PUSH2 0x3104 JUMP JUMPDEST SWAP1 POP PUSH2 0x3806 PUSH2 0x100 DUP4 ADD DUP7 PUSH2 0x30A3 JUMP JUMPDEST DUP2 DUP2 SUB PUSH2 0x120 DUP4 ADD MSTORE PUSH2 0x3819 DUP2 DUP6 PUSH2 0x371F JUMP JUMPDEST SWAP1 POP DUP2 DUP2 SUB PUSH2 0x140 DUP4 ADD MSTORE PUSH2 0x382E DUP2 DUP5 PUSH2 0x371F JUMP JUMPDEST SWAP1 POP SWAP13 SWAP12 POP POP POP POP POP POP POP POP POP POP POP POP JUMP JUMPDEST PUSH32 0x4E487B7100000000000000000000000000000000000000000000000000000000 PUSH0 MSTORE PUSH1 0x22 PUSH1 0x4 MSTORE PUSH1 0x24 PUSH0 REVERT JUMPDEST PUSH0 PUSH1 0x2 DUP3 DIV SWAP1 POP PUSH1 0x1 DUP3 AND DUP1 PUSH2 0x3884 JUMPI PUSH1 0x7F DUP3 AND SWAP2 POP JUMPDEST PUSH1 0x20 DUP3 LT DUP2 SUB PUSH2 0x3897 JUMPI PUSH2 0x3896 PUSH2 0x3840 JUMP JUMPDEST JUMPDEST POP SWAP2 SWAP1 POP JUMP JUMPDEST PUSH32 0x5468652063616D706169676E20697320636F6D706C6574656420737563636573 PUSH0 DUP3 ADD MSTORE PUSH32 0x7366756C6C7920616E6420646F6E6174696F6E20636F756C64206E6F74206265 PUSH1 0x20 DUP3 ADD MSTORE PUSH32 0x2077697468647261776E00000000000000000000000000000000000000000000 PUSH1 0x40 DUP3 ADD MSTORE POP JUMP JUMPDEST PUSH0 PUSH2 0x391D PUSH1 0x4A DUP4 PUSH2 0x30BC JUMP JUMPDEST SWAP2 POP PUSH2 0x3928 DUP3 PUSH2 0x389D JUMP JUMPDEST PUSH1 0x60 DUP3 ADD SWAP1 POP SWAP2 SWAP1 POP JUMP JUMPDEST PUSH0 PUSH1 0x20 DUP3 ADD SWAP1 POP DUP2 DUP2 SUB PUSH0 DUP4 ADD MSTORE PUSH2 0x394A DUP2 PUSH2 0x3911 JUMP JUMPDEST SWAP1 POP SWAP2 SWAP1 POP JUMP JUMPDEST PUSH32 0x596F752068617665206E6F7420646F6E6174656420746F20746869732063616D PUSH0 DUP3 ADD MSTORE PUSH32 0x706169676E000000000000000000000000000000000000000000000000000000 PUSH1 0x20 DUP3 ADD MSTORE POP JUMP JUMPDEST PUSH0 PUSH2 0x39AB PUSH1 0x25 DUP4 PUSH2 0x30BC JUMP JUMPDEST SWAP2 POP PUSH2 0x39B6 DUP3 PUSH2 0x3951 JUMP JUMPDEST PUSH1 0x40 DUP3 ADD SWAP1 POP SWAP2 SWAP1 POP JUMP JUMPDEST PUSH0 PUSH1 0x20 DUP3 ADD SWAP1 POP DUP2 DUP2 SUB PUSH0 DUP4 ADD MSTORE PUSH2 0x39D8 DUP2 PUSH2 0x399F JUMP JUMPDEST SWAP1 POP SWAP2 SWAP1 POP JUMP JUMPDEST PUSH32 0x4E487B7100000000000000000000000000000000000000000000000000000000 PUSH0 MSTORE PUSH1 0x11 PUSH1 0x4 MSTORE PUSH1 0x24 PUSH0 REVERT JUMPDEST PUSH0 PUSH2 0x3A16 DUP3 PUSH2 0x3006 JUMP JUMPDEST SWAP2 POP PUSH2 0x3A21 DUP4 PUSH2 0x3006 JUMP JUMPDEST SWAP3 POP DUP3 DUP3 ADD SWAP1 POP DUP1 DUP3 GT ISZERO PUSH2 0x3A39 JUMPI PUSH2 0x3A38 PUSH2 0x39DF JUMP JUMPDEST JUMPDEST SWAP3 SWAP2 POP POP JUMP JUMPDEST PUSH0 PUSH2 0x3A49 DUP3 PUSH2 0x3006 JUMP JUMPDEST SWAP2 POP PUSH2 0x3A54 DUP4 PUSH2 0x3006 JUMP JUMPDEST SWAP3 POP DUP3 DUP3 SUB SWAP1 POP DUP2 DUP2 GT ISZERO PUSH2 0x3A6C JUMPI PUSH2 0x3A6B PUSH2 0x39DF JUMP JUMPDEST JUMPDEST SWAP3 SWAP2 POP POP JUMP JUMPDEST PUSH32 0x4F6E6C792070726F706F7365722063616E206368616E6765207468652063616D PUSH0 DUP3 ADD MSTORE PUSH32 0x706169676E207374617465000000000000000000000000000000000000000000 PUSH1 0x20 DUP3 ADD MSTORE POP JUMP JUMPDEST PUSH0 PUSH2 0x3ACC PUSH1 0x2B DUP4 PUSH2 0x30BC JUMP JUMPDEST SWAP2 POP PUSH2 0x3AD7 DUP3 PUSH2 0x3A72 JUMP JUMPDEST PUSH1 0x40 DUP3 ADD SWAP1 POP SWAP2 SWAP1 POP JUMP JUMPDEST PUSH0 PUSH1 0x20 DUP3 ADD SWAP1 POP DUP2 DUP2 SUB PUSH0 DUP4 ADD MSTORE PUSH2 0x3AF9 DUP2 PUSH2 0x3AC0 JUMP JUMPDEST SWAP1 POP SWAP2 SWAP1 POP JUMP JUMPDEST PUSH32 0x5468652063616D706169676E206973206E6F74206163746976652E20436F756C PUSH0 DUP3 ADD MSTORE PUSH32 0x64206E6F742062652063616E63656C6C65640000000000000000000000000000 PUSH1 0x20 DUP3 ADD MSTORE POP JUMP JUMPDEST PUSH0 PUSH2 0x3B5A PUSH1 0x32 DUP4 PUSH2 0x30BC JUMP JUMPDEST SWAP2 POP PUSH2 0x3B65 DUP3 PUSH2 0x3B00 JUMP JUMPDEST PUSH1 0x40 DUP3 ADD SWAP1 POP SWAP2 SWAP1 POP JUMP JUMPDEST PUSH0 PUSH1 0x20 DUP3 ADD SWAP1 POP DUP2 DUP2 SUB PUSH0 DUP4 ADD MSTORE PUSH2 0x3B87 DUP2 PUSH2 0x3B4E JUMP JUMPDEST SWAP1 POP SWAP2 SWAP1 POP JUMP JUMPDEST PUSH32 0x4E487B7100000000000000000000000000000000000000000000000000000000 PUSH0 MSTORE PUSH1 0x32 PUSH1 0x4 MSTORE PUSH1 0x24 PUSH0 REVERT JUMPDEST PUSH32 0x4D696E696D756D20436F6E747269627574696F6E206973206E6F74206D657400 PUSH0 DUP3 ADD MSTORE POP JUMP JUMPDEST PUSH0 PUSH2 0x3BEF PUSH1 0x1F DUP4 PUSH2 0x30BC JUMP JUMPDEST SWAP2 POP PUSH2 0x3BFA DUP3 PUSH2 0x3BBB JUMP JUMPDEST PUSH1 0x20 DUP3 ADD SWAP1 POP SWAP2 SWAP1 POP JUMP JUMPDEST PUSH0 PUSH1 0x20 DUP3 ADD SWAP1 POP DUP2 DUP2 SUB PUSH0 DUP4 ADD MSTORE PUSH2 0x3C1C DUP2 PUSH2 0x3BE3 JUMP JUMPDEST SWAP1 POP SWAP2 SWAP1 POP JUMP JUMPDEST PUSH32 0x5468652063616D706169676E206973206E6F74206163746976652E20436F756C PUSH0 DUP3 ADD MSTORE PUSH32 0x64206E6F7420626520636C6F7365640000000000000000000000000000000000 PUSH1 0x20 DUP3 ADD MSTORE POP JUMP JUMPDEST PUSH0 PUSH2 0x3C7D PUSH1 0x2F DUP4 PUSH2 0x30BC JUMP JUMPDEST SWAP2 POP PUSH2 0x3C88 DUP3 PUSH2 0x3C23 JUMP JUMPDEST PUSH1 0x40 DUP3 ADD SWAP1 POP SWAP2 SWAP1 POP JUMP JUMPDEST PUSH0 PUSH1 0x20 DUP3 ADD SWAP1 POP DUP2 DUP2 SUB PUSH0 DUP4 ADD MSTORE PUSH2 0x3CAA DUP2 PUSH2 0x3C71 JUMP JUMPDEST SWAP1 POP SWAP2 SWAP1 POP JUMP JUMPDEST PUSH32 0x5468652063616D706169676E20646F6573206E6F74206861766520656E6F7567 PUSH0 DUP3 ADD MSTORE PUSH32 0x68206D6F6E657900000000000000000000000000000000000000000000000000 PUSH1 0x20 DUP3 ADD MSTORE POP JUMP JUMPDEST PUSH0 PUSH2 0x3D0B PUSH1 0x27 DUP4 PUSH2 0x30BC JUMP JUMPDEST SWAP2 POP PUSH2 0x3D16 DUP3 PUSH2 0x3CB1 JUMP JUMPDEST PUSH1 0x40 DUP3 ADD SWAP1 POP SWAP2 SWAP1 POP JUMP JUMPDEST PUSH0 PUSH1 0x20 DUP3 ADD SWAP1 POP DUP2 DUP2 SUB PUSH0 DUP4 ADD MSTORE PUSH2 0x3D38 DUP2 PUSH2 0x3CFF JUMP JUMPDEST SWAP1 POP SWAP2 SWAP1 POP JUMP JUMPDEST PUSH32 0x54686520636F6E747261637420646F6573206E6F74206861766520656E6F7567 PUSH0 DUP3 ADD MSTORE PUSH32 0x68206D6F6E657900000000000000000000000000000000000000000000000000 PUSH1 0x20 DUP3 ADD MSTORE POP JUMP JUMPDEST PUSH0 PUSH2 0x3D99 PUSH1 0x27 DUP4 PUSH2 0x30BC JUMP JUMPDEST SWAP2 POP PUSH2 0x3DA4 DUP3 PUSH2 0x3D3F JUMP JUMPDEST PUSH1 0x40 DUP3 ADD SWAP1 POP SWAP2 SWAP1 POP JUMP JUMPDEST PUSH0 PUSH1 0x20 DUP3 ADD SWAP1 POP DUP2 DUP2 SUB PUSH0 DUP4 ADD MSTORE PUSH2 0x3DC6 DUP2 PUSH2 0x3D8D JUMP JUMPDEST SWAP1 POP SWAP2 SWAP1 POP JUMP JUMPDEST PUSH32 0x5468652063616D706169676E206973206E6F7420616374697665000000000000 PUSH0 DUP3 ADD MSTORE POP JUMP JUMPDEST PUSH0 PUSH2 0x3E01 PUSH1 0x1A DUP4 PUSH2 0x30BC JUMP JUMPDEST SWAP2 POP PUSH2 0x3E0C DUP3 PUSH2 0x3DCD JUMP JUMPDEST PUSH1 0x20 DUP3 ADD SWAP1 POP SWAP2 SWAP1 POP JUMP JUMPDEST PUSH0 PUSH1 0x20 DUP3 ADD SWAP1 POP DUP2 DUP2 SUB PUSH0 DUP4 ADD MSTORE PUSH2 0x3E2E DUP2 PUSH2 0x3DF5 JUMP JUMPDEST SWAP1 POP SWAP2 SWAP1 POP JUMP JUMPDEST PUSH32 0x596F7520646F206E6F7420686176652062616C616E636520666F72206E657720 PUSH0 DUP3 ADD MSTORE PUSH32 0x766F74696E672C20706C65617365207761697420666F72207468652063757272 PUSH1 0x20 DUP3 ADD MSTORE PUSH32 0x656E7420766F74696E6720746F2066696E697368000000000000000000000000 PUSH1 0x40 DUP3 ADD MSTORE POP JUMP JUMPDEST PUSH0 PUSH2 0x3EB5 PUSH1 0x54 DUP4 PUSH2 0x30BC JUMP JUMPDEST SWAP2 POP PUSH2 0x3EC0 DUP3 PUSH2 0x3E35 JUMP JUMPDEST PUSH1 0x60 DUP3 ADD SWAP1 POP SWAP2 SWAP1 POP JUMP JUMPDEST PUSH0 PUSH1 0x20 DUP3 ADD SWAP1 POP DUP2 DUP2 SUB PUSH0 DUP4 ADD MSTORE PUSH2 0x3EE2 DUP2 PUSH2 0x3EA9 JUMP JUMPDEST SWAP1 POP SWAP2 SWAP1 POP JUMP JUMPDEST PUSH32 0x596F75206D757374206265206120636F6E7472696275746F7200000000000000 PUSH0 DUP3 ADD MSTORE POP JUMP JUMPDEST PUSH0 PUSH2 0x3F1D PUSH1 0x19 DUP4 PUSH2 0x30BC JUMP JUMPDEST SWAP2 POP PUSH2 0x3F28 DUP3 PUSH2 0x3EE9 JUMP JUMPDEST PUSH1 0x20 DUP3 ADD SWAP1 POP SWAP2 SWAP1 POP JUMP JUMPDEST PUSH0 PUSH1 0x20 DUP3 ADD SWAP1 POP DUP2 DUP2 SUB PUSH0 DUP4 ADD MSTORE PUSH2 0x3F4A DUP2 PUSH2 0x3F11 JUMP JUMPDEST SWAP1 POP SWAP2 SWAP1 POP JUMP JUMPDEST PUSH0 PUSH2 0x3F5B DUP3 PUSH2 0x3006 JUMP JUMPDEST SWAP2 POP PUSH2 0x3F66 DUP4 PUSH2 0x3006 JUMP JUMPDEST SWAP3 POP DUP3 DUP3 MUL PUSH2 0x3F74 DUP2 PUSH2 0x3006 JUMP JUMPDEST SWAP2 POP DUP3 DUP3 DIV DUP5 EQ DUP4 ISZERO OR PUSH2 0x3F8B JUMPI PUSH2 0x3F8A PUSH2 0x39DF JUMP JUMPDEST JUMPDEST POP SWAP3 SWAP2 POP POP JUMP JUMPDEST PUSH32 0x5468652062616C616E636520796F7520646F6E61746564206973207374696C6C PUSH0 DUP3 ADD MSTORE PUSH32 0x20696E2070656E64696E67000000000000000000000000000000000000000000 PUSH1 0x20 DUP3 ADD MSTORE POP JUMP JUMPDEST PUSH0 PUSH2 0x3FEC PUSH1 0x2B DUP4 PUSH2 0x30BC JUMP JUMPDEST SWAP2 POP PUSH2 0x3FF7 DUP3 PUSH2 0x3F92 JUMP JUMPDEST PUSH1 0x40 DUP3 ADD SWAP1 POP SWAP2 SWAP1 POP JUMP JUMPDEST PUSH0 PUSH1 0x20 DUP3 ADD SWAP1 POP DUP2 DUP2 SUB PUSH0 DUP4 ADD MSTORE PUSH2 0x4019 DUP2 PUSH2 0x3FE0 JUMP JUMPDEST SWAP1 POP SWAP2 SWAP1 POP JUMP JUMPDEST PUSH0 DUP2 SWAP1 POP DUP2 PUSH0 MSTORE PUSH1 0x20 PUSH0 KECCAK256 SWAP1 POP SWAP2 SWAP1 POP JUMP JUMPDEST PUSH0 PUSH1 0x20 PUSH1 0x1F DUP4 ADD DIV SWAP1 POP SWAP2 SWAP1 POP JUMP JUMPDEST PUSH0 DUP3 DUP3 SHL SWAP1 POP SWAP3 SWAP2 POP POP JUMP JUMPDEST PUSH0 PUSH1 0x8 DUP4 MUL PUSH2 0x407C PUSH32 0xFFFFFFFFFFFFFFFFFFFFFFFFFFFFFFFFFFFFFFFFFFFFFFFFFFFFFFFFFFFFFFFF DUP3 PUSH2 0x4041 JUMP JUMPDEST PUSH2 0x4086 DUP7 DUP4 PUSH2 0x4041 JUMP JUMPDEST SWAP6 POP DUP1 NOT DUP5 AND SWAP4 POP DUP1 DUP7 AND DUP5 OR SWAP3 POP POP POP SWAP4 SWAP3 POP POP POP JUMP JUMPDEST PUSH0 DUP2 SWAP1 POP SWAP2 SWAP1 POP JUMP JUMPDEST PUSH0 PUSH2 0x40C1 PUSH2 0x40BC PUSH2 0x40B7 DUP5 PUSH2 0x3006 JUMP JUMPDEST PUSH2 0x409E JUMP JUMPDEST PUSH2 0x3006 JUMP JUMPDEST SWAP1 POP SWAP2 SWAP1 POP JUMP JUMPDEST PUSH0 DUP2 SWAP1 POP SWAP2 SWAP1 POP JUMP JUMPDEST PUSH2 0x40DA DUP4 PUSH2 0x40A7 JUMP JUMPDEST PUSH2 0x40EE PUSH2 0x40E6 DUP3 PUSH2 0x40C8 JUMP JUMPDEST DUP5 DUP5 SLOAD PUSH2 0x404D JUMP JUMPDEST DUP3 SSTORE POP POP POP POP JUMP JUMPDEST PUSH0 SWAP1 JUMP JUMPDEST PUSH2 0x4102 PUSH2 0x40F6 JUMP JUMPDEST PUSH2 0x410D DUP2 DUP5 DUP5 PUSH2 0x40D1 JUMP JUMPDEST POP POP POP JUMP JUMPDEST JUMPDEST DUP2 DUP2 LT ISZERO PUSH2 0x4130 JUMPI PUSH2 0x4125 PUSH0 DUP3 PUSH2 0x40FA JUMP JUMPDEST PUSH1 0x1 DUP2 ADD SWAP1 POP PUSH2 0x4113 JUMP JUMPDEST POP POP JUMP JUMPDEST PUSH1 0x1F DUP3 GT ISZERO PUSH2 0x4175 JUMPI PUSH2 0x4146 DUP2 PUSH2 0x4020 JUMP JUMPDEST PUSH2 0x414F DUP5 PUSH2 0x4032 JUMP JUMPDEST DUP2 ADD PUSH1 0x20 DUP6 LT ISZERO PUSH2 0x415E JUMPI DUP2 SWAP1 POP JUMPDEST PUSH2 0x4172 PUSH2 0x416A DUP6 PUSH2 0x4032 JUMP JUMPDEST DUP4 ADD DUP3 PUSH2 0x4112 JUMP JUMPDEST POP POP JUMPDEST POP POP POP JUMP JUMPDEST PUSH0 DUP3 DUP3 SHR SWAP1 POP SWAP3 SWAP2 POP POP JUMP JUMPDEST PUSH0 PUSH2 0x4195 PUSH0 NOT DUP5 PUSH1 0x8 MUL PUSH2 0x417A JUMP JUMPDEST NOT DUP1 DUP4 AND SWAP2 POP POP SWAP3 SWAP2 POP POP JUMP JUMPDEST PUSH0 PUSH2 0x41AD DUP4 DUP4 PUSH2 0x4186 JUMP JUMPDEST SWAP2 POP DUP3 PUSH1 0x2 MUL DUP3 OR SWAP1 POP SWAP3 SWAP2 POP POP JUMP JUMPDEST PUSH2 0x41C6 DUP3 PUSH2 0x30B2 JUMP JUMPDEST PUSH8 0xFFFFFFFFFFFFFFFF DUP2 GT ISZERO PUSH2 0x41DF JUMPI PUSH2 0x41DE PUSH2 0x330C JUMP JUMPDEST JUMPDEST PUSH2 0x41E9 DUP3 SLOAD PUSH2 0x386D JUMP JUMPDEST PUSH2 0x41F4 DUP3 DUP3 DUP6 PUSH2 0x4134 JUMP JUMPDEST PUSH0 PUSH1 0x20 SWAP1 POP PUSH1 0x1F DUP4 GT PUSH1 0x1 DUP2 EQ PUSH2 0x4225 JUMPI PUSH0 DUP5 ISZERO PUSH2 0x4213 JUMPI DUP3 DUP8 ADD MLOAD SWAP1 POP JUMPDEST PUSH2 0x421D DUP6 DUP3 PUSH2 0x41A2 JUMP JUMPDEST DUP7 SSTORE POP PUSH2 0x4284 JUMP JUMPDEST PUSH1 0x1F NOT DUP5 AND PUSH2 0x4233 DUP7 PUSH2 0x4020 JUMP JUMPDEST PUSH0 JUMPDEST DUP3 DUP2 LT ISZERO PUSH2 0x425A JUMPI DUP5 DUP10 ADD MLOAD DUP3 SSTORE PUSH1 0x1 DUP3 ADD SWAP2 POP PUSH1 0x20 DUP6 ADD SWAP5 POP PUSH1 0x20 DUP2 ADD SWAP1 POP PUSH2 0x4235 JUMP JUMPDEST DUP7 DUP4 LT ISZERO PUSH2 0x4277 JUMPI DUP5 DUP10 ADD MLOAD PUSH2 0x4273 PUSH1 0x1F DUP10 AND DUP3 PUSH2 0x4186 JUMP JUMPDEST DUP4 SSTORE POP JUMPDEST PUSH1 0x1 PUSH1 0x2 DUP9 MUL ADD DUP9 SSTORE POP POP POP JUMPDEST POP POP POP POP POP POP JUMP JUMPDEST PUSH0 PUSH2 0x4296 DUP3 PUSH2 0x3006 JUMP JUMPDEST SWAP2 POP PUSH32 0xFFFFFFFFFFFFFFFFFFFFFFFFFFFFFFFFFFFFFFFFFFFFFFFFFFFFFFFFFFFFFFFF DUP3 SUB PUSH2 0x42C8 JUMPI PUSH2 0x42C7 PUSH2 0x39DF JUMP JUMPDEST JUMPDEST PUSH1 0x1 DUP3 ADD SWAP1 POP SWAP2 SWAP1 POP JUMP JUMPDEST PUSH32 0x54686520766F74696E67206973206E6F742066696E6973686564207965740000 PUSH0 DUP3 ADD MSTORE POP JUMP JUMPDEST PUSH0 PUSH2 0x4307 PUSH1 0x1E DUP4 PUSH2 0x30BC JUMP JUMPDEST SWAP2 POP PUSH2 0x4312 DUP3 PUSH2 0x42D3 JUMP JUMPDEST PUSH1 0x20 DUP3 ADD SWAP1 POP SWAP2 SWAP1 POP JUMP JUMPDEST PUSH0 PUSH1 0x20 DUP3 ADD SWAP1 POP DUP2 DUP2 SUB PUSH0 DUP4 ADD MSTORE PUSH2 0x4334 DUP2 PUSH2 0x42FB JUMP JUMPDEST SWAP1 POP SWAP2 SWAP1 POP JUMP JUMPDEST PUSH32 0x596F752068617665206E6F206D6F6E657920746F207769746864726177000000 PUSH0 DUP3 ADD MSTORE POP JUMP JUMPDEST PUSH0 PUSH2 0x436F PUSH1 0x1D DUP4 PUSH2 0x30BC JUMP JUMPDEST SWAP2 POP PUSH2 0x437A DUP3 PUSH2 0x433B JUMP JUMPDEST PUSH1 0x20 DUP3 ADD SWAP1 POP SWAP2 SWAP1 POP JUMP JUMPDEST PUSH0 PUSH1 0x20 DUP3 ADD SWAP1 POP DUP2 DUP2 SUB PUSH0 DUP4 ADD MSTORE PUSH2 0x439C DUP2 PUSH2 0x4363 JUMP JUMPDEST SWAP1 POP SWAP2 SWAP1 POP JUMP JUMPDEST PUSH0 DUP2 SWAP1 POP SWAP2 SWAP1 POP JUMP JUMPDEST PUSH0 PUSH8 0xFFFFFFFFFFFFFFFF DUP3 AND SWAP1 POP SWAP2 SWAP1 POP JUMP JUMPDEST PUSH0 PUSH2 0x43D9 PUSH2 0x43D4 PUSH2 0x43CF DUP5 PUSH2 0x43A3 JUMP JUMPDEST PUSH2 0x409E JUMP JUMPDEST PUSH2 0x43AC JUMP JUMPDEST SWAP1 POP SWAP2 SWAP1 POP JUMP JUMPDEST PUSH2 0x43E9 DUP2 PUSH2 0x43BF JUMP JUMPDEST DUP3 MSTORE POP POP JUMP JUMPDEST PUSH0 PUSH1 0x20 DUP3 ADD SWAP1 POP PUSH2 0x4402 PUSH0 DUP4 ADD DUP5 PUSH2 0x43E0 JUMP JUMPDEST SWAP3 SWAP2 POP POP JUMP JUMPDEST PUSH2 0x4411 DUP2 PUSH2 0x348A JUMP JUMPDEST DUP2 EQ PUSH2 0x441B JUMPI PUSH0 DUP1 REVERT JUMPDEST POP JUMP JUMPDEST PUSH0 DUP2 MLOAD SWAP1 POP PUSH2 0x442C DUP2 PUSH2 0x4408 JUMP JUMPDEST SWAP3 SWAP2 POP POP JUMP JUMPDEST PUSH0 PUSH1 0x20 DUP3 DUP5 SUB SLT ISZERO PUSH2 0x4447 JUMPI PUSH2 0x4446 PUSH2 0x2FFE JUMP JUMPDEST JUMPDEST PUSH0 PUSH2 0x4454 DUP5 DUP3 DUP6 ADD PUSH2 0x441E JUMP JUMPDEST SWAP2 POP POP SWAP3 SWAP2 POP POP JUMP JUMPDEST PUSH0 DUP2 MLOAD SWAP1 POP SWAP2 SWAP1 POP JUMP JUMPDEST PUSH0 DUP2 SWAP1 POP SWAP3 SWAP2 POP POP JUMP JUMPDEST PUSH0 PUSH2 0x447B DUP3 PUSH2 0x445D JUMP JUMPDEST PUSH2 0x4485 DUP2 DUP6 PUSH2 0x4467 JUMP JUMPDEST SWAP4 POP PUSH2 0x4495 DUP2 DUP6 PUSH1 0x20 DUP7 ADD PUSH2 0x30CC JUMP JUMPDEST DUP1 DUP5 ADD SWAP2 POP POP SWAP3 SWAP2 POP POP JUMP JUMPDEST PUSH0 PUSH2 0x44AC DUP3 DUP5 PUSH2 0x4471 JUMP JUMPDEST SWAP2 POP DUP2 SWAP1 POP SWAP3 SWAP2 POP POP JUMP INVALID LOG2 PUSH5 0x6970667358 0x22 SLT KECCAK256 0x2C 0xFC 0xEE PUSH17 0x9E024DC43A71786EA2526F4ACC6E4743B7 0xD4 PUSH18 0x8AD16855FD14B68D0764736F6C6343000816 STOP CALLER "
		},
		"gasEstimates": {
			"creation": {
				"codeDepositCost": "3529000",
				"executionCost": "infinite",
				"totalCost": "infinite"
			},
			"external": {
				"UPGRADE_INTERFACE_VERSION()": "infinite",
				"campaignLength()": "2558",
				"cancelCampaign(uint256)": "infinite",
				"contributors(address)": "infinite",
				"createProposal(string,address,uint256)": "infinite",
				"donateProposal(uint256)": "infinite",
				"finishCampaign(uint256)": "infinite",
				"frozenElapse()": "2470",
				"getCampaignLength()": "2520",
				"getContractBalance()": "401",
				"getContributors(address)": "infinite",
				"getFrozenElapse()": "2543",
				"getMinimumContribution()": "2564",
				"getNumProposals()": "2543",
				"getOwner()": "2691",
				"getPaused()": "2604",
				"getProposal(uint256)": "infinite",
				"getProposalDonationAmount(uint256,address)": "infinite",
				"initialize(address)": "infinite",
				"minimumContribution()": "2492",
				"numProposals()": "2493",
				"owner()": "2612",
				"pause()": "infinite",
				"paused()": "2659",
				"proposalDonationAmount(uint256,address)": "infinite",
				"proposals(uint256)": "infinite",
				"proxiableUUID()": "infinite",
				"receiveDonation()": "infinite",
				"renounceOwnership()": "infinite",
				"transferOwnership(address)": "infinite",
				"unpause()": "infinite",
				"updateCampaignLength(uint256)": "infinite",
				"updateFrozenElapse(uint256)": "infinite",
				"updateMinimumContribution(uint256)": "infinite",
				"updateOwner(address)": "infinite",
				"upgradeToAndCall(address,bytes)": "infinite",
				"withdrawDonationFromCampaign(uint256)": "infinite",
				"withdrawDonationFromPlateform(address)": "infinite"
			},
			"internal": {
				"_authorizeUpgrade(address)": "infinite",
				"_updateCampaignState(struct CrowdFunding.Proposal storage pointer)": "infinite"
			}
		},
		"methodIdentifiers": {
			"UPGRADE_INTERFACE_VERSION()": "ad3cb1cc",
			"campaignLength()": "a9c30766",
			"cancelCampaign(uint256)": "45598b4a",
			"contributors(address)": "1f6d4942",
			"createProposal(string,address,uint256)": "831c43ac",
			"donateProposal(uint256)": "566f9578",
			"finishCampaign(uint256)": "5545db0d",
			"frozenElapse()": "acb18c0b",
			"getCampaignLength()": "df357d3e",
			"getContractBalance()": "6f9fb98a",
			"getContributors(address)": "43e9658c",
			"getFrozenElapse()": "a8846008",
			"getMinimumContribution()": "f84038b1",
			"getNumProposals()": "798974dd",
			"getOwner()": "893d20e8",
			"getPaused()": "6805b84b",
			"getProposal(uint256)": "c7f758a8",
			"getProposalDonationAmount(uint256,address)": "b8077c25",
			"initialize(address)": "c4d66de8",
			"minimumContribution()": "937e09b1",
			"numProposals()": "400e3949",
			"owner()": "8da5cb5b",
			"pause()": "8456cb59",
			"paused()": "5c975abb",
			"proposalDonationAmount(uint256,address)": "a5fe07a9",
			"proposals(uint256)": "013cf08b",
			"proxiableUUID()": "52d1902d",
			"receiveDonation()": "45d3292b",
			"renounceOwnership()": "715018a6",
			"transferOwnership(address)": "f2fde38b",
			"unpause()": "3f4ba83a",
			"updateCampaignLength(uint256)": "155ce98f",
			"updateFrozenElapse(uint256)": "8b40db2d",
			"updateMinimumContribution(uint256)": "acd1bdb4",
			"updateOwner(address)": "880cdc31",
			"upgradeToAndCall(address,bytes)": "4f1ef286",
			"withdrawDonationFromCampaign(uint256)": "0ea142f7",
			"withdrawDonationFromPlateform(address)": "c470b2a2"
		}
	},
	"abi": [
		{
			"inputs": [],
			"stateMutability": "nonpayable",
			"type": "constructor"
		},
		{
			"inputs": [
				{
					"internalType": "address",
					"name": "target",
					"type": "address"
				}
			],
			"name": "AddressEmptyCode",
			"type": "error"
		},
		{
			"inputs": [
				{
					"internalType": "address",
					"name": "implementation",
					"type": "address"
				}
			],
			"name": "ERC1967InvalidImplementation",
			"type": "error"
		},
		{
			"inputs": [],
			"name": "ERC1967NonPayable",
			"type": "error"
		},
		{
			"inputs": [],
			"name": "EnforcedPause",
			"type": "error"
		},
		{
			"inputs": [],
			"name": "ExpectedPause",
			"type": "error"
		},
		{
			"inputs": [],
			"name": "FailedInnerCall",
			"type": "error"
		},
		{
			"inputs": [],
			"name": "InvalidInitialization",
			"type": "error"
		},
		{
			"inputs": [],
			"name": "NotInitializing",
			"type": "error"
		},
		{
			"inputs": [
				{
					"internalType": "address",
					"name": "owner",
					"type": "address"
				}
			],
			"name": "OwnableInvalidOwner",
			"type": "error"
		},
		{
			"inputs": [
				{
					"internalType": "address",
					"name": "account",
					"type": "address"
				}
			],
			"name": "OwnableUnauthorizedAccount",
			"type": "error"
		},
		{
			"inputs": [],
			"name": "UUPSUnauthorizedCallContext",
			"type": "error"
		},
		{
			"inputs": [
				{
					"internalType": "bytes32",
					"name": "slot",
					"type": "bytes32"
				}
			],
			"name": "UUPSUnsupportedProxiableUUID",
			"type": "error"
		},
		{
			"anonymous": false,
			"inputs": [
				{
					"indexed": false,
					"internalType": "uint64",
					"name": "version",
					"type": "uint64"
				}
			],
			"name": "Initialized",
			"type": "event"
		},
		{
			"anonymous": false,
			"inputs": [
				{
					"indexed": true,
					"internalType": "address",
					"name": "previousOwner",
					"type": "address"
				},
				{
					"indexed": true,
					"internalType": "address",
					"name": "newOwner",
					"type": "address"
				}
			],
			"name": "OwnershipTransferred",
			"type": "event"
		},
		{
			"anonymous": false,
			"inputs": [
				{
					"indexed": false,
					"internalType": "address",
					"name": "account",
					"type": "address"
				}
			],
			"name": "Paused",
			"type": "event"
		},
		{
			"anonymous": false,
			"inputs": [
				{
					"indexed": false,
					"internalType": "address",
					"name": "account",
					"type": "address"
				}
			],
			"name": "Unpaused",
			"type": "event"
		},
		{
			"anonymous": false,
			"inputs": [
				{
					"indexed": true,
					"internalType": "address",
					"name": "implementation",
					"type": "address"
				}
			],
			"name": "Upgraded",
			"type": "event"
		},
		{
			"inputs": [],
			"name": "UPGRADE_INTERFACE_VERSION",
			"outputs": [
				{
					"internalType": "string",
					"name": "",
					"type": "string"
				}
			],
			"stateMutability": "view",
			"type": "function"
		},
		{
			"inputs": [],
			"name": "campaignLength",
			"outputs": [
				{
					"internalType": "uint256",
					"name": "",
					"type": "uint256"
				}
			],
			"stateMutability": "view",
			"type": "function"
		},
		{
			"inputs": [
				{
					"internalType": "uint256",
					"name": "proposalID",
					"type": "uint256"
				}
			],
			"name": "cancelCampaign",
			"outputs": [],
			"stateMutability": "nonpayable",
			"type": "function"
		},
		{
			"inputs": [
				{
					"internalType": "address",
					"name": "",
					"type": "address"
				}
			],
			"name": "contributors",
			"outputs": [
				{
					"internalType": "uint256",
					"name": "timestamp",
					"type": "uint256"
				},
				{
					"internalType": "uint256",
					"name": "coldAmount",
					"type": "uint256"
				},
				{
					"internalType": "uint256",
					"name": "hotAmount",
					"type": "uint256"
				}
			],
			"stateMutability": "view",
			"type": "function"
		},
		{
			"inputs": [
				{
					"internalType": "string",
					"name": "description",
					"type": "string"
				},
				{
					"internalType": "address payable",
					"name": "recipient",
					"type": "address"
				},
				{
					"internalType": "uint256",
					"name": "targetAmount",
					"type": "uint256"
				}
			],
			"name": "createProposal",
			"outputs": [],
			"stateMutability": "nonpayable",
			"type": "function"
		},
		{
			"inputs": [
				{
					"internalType": "uint256",
					"name": "proposalID",
					"type": "uint256"
				}
			],
			"name": "donateProposal",
			"outputs": [],
			"stateMutability": "nonpayable",
			"type": "function"
		},
		{
			"inputs": [
				{
					"internalType": "uint256",
					"name": "proposalID",
					"type": "uint256"
				}
			],
			"name": "finishCampaign",
			"outputs": [],
			"stateMutability": "nonpayable",
			"type": "function"
		},
		{
			"inputs": [],
			"name": "frozenElapse",
			"outputs": [
				{
					"internalType": "uint256",
					"name": "",
					"type": "uint256"
				}
			],
			"stateMutability": "view",
			"type": "function"
		},
		{
			"inputs": [],
			"name": "getCampaignLength",
			"outputs": [
				{
					"internalType": "uint256",
					"name": "",
					"type": "uint256"
				}
			],
			"stateMutability": "view",
			"type": "function"
		},
		{
			"inputs": [],
			"name": "getContractBalance",
			"outputs": [
				{
					"internalType": "uint256",
					"name": "",
					"type": "uint256"
				}
			],
			"stateMutability": "view",
			"type": "function"
		},
		{
			"inputs": [
				{
					"internalType": "address",
					"name": "donor",
					"type": "address"
				}
			],
			"name": "getContributors",
			"outputs": [
				{
					"internalType": "uint256",
					"name": "timestamp",
					"type": "uint256"
				},
				{
					"internalType": "uint256",
					"name": "coldAmount",
					"type": "uint256"
				},
				{
					"internalType": "uint256",
					"name": "hotAmount",
					"type": "uint256"
				}
			],
			"stateMutability": "view",
			"type": "function"
		},
		{
			"inputs": [],
			"name": "getFrozenElapse",
			"outputs": [
				{
					"internalType": "uint256",
					"name": "",
					"type": "uint256"
				}
			],
			"stateMutability": "view",
			"type": "function"
		},
		{
			"inputs": [],
			"name": "getMinimumContribution",
			"outputs": [
				{
					"internalType": "uint256",
					"name": "",
					"type": "uint256"
				}
			],
			"stateMutability": "view",
			"type": "function"
		},
		{
			"inputs": [],
			"name": "getNumProposals",
			"outputs": [
				{
					"internalType": "uint256",
					"name": "",
					"type": "uint256"
				}
			],
			"stateMutability": "view",
			"type": "function"
		},
		{
			"inputs": [],
			"name": "getOwner",
			"outputs": [
				{
					"internalType": "address",
					"name": "",
					"type": "address"
				}
			],
			"stateMutability": "view",
			"type": "function"
		},
		{
			"inputs": [],
			"name": "getPaused",
			"outputs": [
				{
					"internalType": "bool",
					"name": "",
					"type": "bool"
				}
			],
			"stateMutability": "view",
			"type": "function"
		},
		{
			"inputs": [
				{
					"internalType": "uint256",
					"name": "proposalID",
					"type": "uint256"
				}
			],
			"name": "getProposal",
			"outputs": [
				{
					"internalType": "address",
					"name": "proposer",
					"type": "address"
				},
				{
					"internalType": "uint256",
					"name": "uniqueid",
					"type": "uint256"
				},
				{
					"internalType": "uint256",
					"name": "startTime",
					"type": "uint256"
				},
				{
					"internalType": "string",
					"name": "description",
					"type": "string"
				},
				{
					"internalType": "address",
					"name": "recipient",
					"type": "address"
				},
				{
					"internalType": "uint256",
					"name": "targetAmount",
					"type": "uint256"
				},
				{
					"internalType": "uint256",
					"name": "currentAmount",
					"type": "uint256"
				},
				{
					"internalType": "string",
					"name": "re_state",
					"type": "string"
				},
				{
					"internalType": "uint256",
					"name": "numDonors",
					"type": "uint256"
				},
				{
					"internalType": "address[]",
					"name": "donors",
					"type": "address[]"
				},
				{
					"internalType": "address[]",
					"name": "finalDonors",
					"type": "address[]"
				}
			],
			"stateMutability": "view",
			"type": "function"
		},
		{
			"inputs": [
				{
					"internalType": "uint256",
					"name": "proposalID",
					"type": "uint256"
				},
				{
					"internalType": "address",
					"name": "donor",
					"type": "address"
				}
			],
			"name": "getProposalDonationAmount",
			"outputs": [
				{
					"internalType": "uint256",
					"name": "",
					"type": "uint256"
				}
			],
			"stateMutability": "view",
			"type": "function"
		},
		{
			"inputs": [
				{
					"internalType": "address",
					"name": "initialOwner",
					"type": "address"
				}
			],
			"name": "initialize",
			"outputs": [],
			"stateMutability": "nonpayable",
			"type": "function"
		},
		{
			"inputs": [],
			"name": "minimumContribution",
			"outputs": [
				{
					"internalType": "uint256",
					"name": "",
					"type": "uint256"
				}
			],
			"stateMutability": "view",
			"type": "function"
		},
		{
			"inputs": [],
			"name": "numProposals",
			"outputs": [
				{
					"internalType": "uint256",
					"name": "",
					"type": "uint256"
				}
			],
			"stateMutability": "view",
			"type": "function"
		},
		{
			"inputs": [],
			"name": "owner",
			"outputs": [
				{
					"internalType": "address",
					"name": "",
					"type": "address"
				}
			],
			"stateMutability": "view",
			"type": "function"
		},
		{
			"inputs": [],
			"name": "pause",
			"outputs": [],
			"stateMutability": "nonpayable",
			"type": "function"
		},
		{
			"inputs": [],
			"name": "paused",
			"outputs": [
				{
					"internalType": "bool",
					"name": "",
					"type": "bool"
				}
			],
			"stateMutability": "view",
			"type": "function"
		},
		{
			"inputs": [
				{
					"internalType": "uint256",
					"name": "",
					"type": "uint256"
				},
				{
					"internalType": "address",
					"name": "",
					"type": "address"
				}
			],
			"name": "proposalDonationAmount",
			"outputs": [
				{
					"internalType": "uint256",
					"name": "",
					"type": "uint256"
				}
			],
			"stateMutability": "view",
			"type": "function"
		},
		{
			"inputs": [
				{
					"internalType": "uint256",
					"name": "",
					"type": "uint256"
				}
			],
			"name": "proposals",
			"outputs": [
				{
					"internalType": "address",
					"name": "proposer",
					"type": "address"
				},
				{
					"internalType": "uint256",
					"name": "uniqueid",
					"type": "uint256"
				},
				{
					"internalType": "uint256",
					"name": "startTime",
					"type": "uint256"
				},
				{
					"internalType": "string",
					"name": "description",
					"type": "string"
				},
				{
					"internalType": "address payable",
					"name": "recipient",
					"type": "address"
				},
				{
					"internalType": "uint256",
					"name": "targetAmount",
					"type": "uint256"
				},
				{
					"internalType": "uint256",
					"name": "currentAmount",
					"type": "uint256"
				},
				{
					"internalType": "enum CrowdFunding.State",
					"name": "state",
					"type": "uint8"
				},
				{
					"internalType": "uint256",
					"name": "numDonors",
					"type": "uint256"
				}
			],
			"stateMutability": "view",
			"type": "function"
		},
		{
			"inputs": [],
			"name": "proxiableUUID",
			"outputs": [
				{
					"internalType": "bytes32",
					"name": "",
					"type": "bytes32"
				}
			],
			"stateMutability": "view",
			"type": "function"
		},
		{
			"inputs": [],
			"name": "receiveDonation",
			"outputs": [],
			"stateMutability": "payable",
			"type": "function"
		},
		{
			"inputs": [],
			"name": "renounceOwnership",
			"outputs": [],
			"stateMutability": "nonpayable",
			"type": "function"
		},
		{
			"inputs": [
				{
					"internalType": "address",
					"name": "newOwner",
					"type": "address"
				}
			],
			"name": "transferOwnership",
			"outputs": [],
			"stateMutability": "nonpayable",
			"type": "function"
		},
		{
			"inputs": [],
			"name": "unpause",
			"outputs": [],
			"stateMutability": "nonpayable",
			"type": "function"
		},
		{
			"inputs": [
				{
					"internalType": "uint256",
					"name": "newCampaignLength",
					"type": "uint256"
				}
			],
			"name": "updateCampaignLength",
			"outputs": [],
			"stateMutability": "nonpayable",
			"type": "function"
		},
		{
			"inputs": [
				{
					"internalType": "uint256",
					"name": "newFrozenElapse",
					"type": "uint256"
				}
			],
			"name": "updateFrozenElapse",
			"outputs": [],
			"stateMutability": "nonpayable",
			"type": "function"
		},
		{
			"inputs": [
				{
					"internalType": "uint256",
					"name": "newMinimumContribution",
					"type": "uint256"
				}
			],
			"name": "updateMinimumContribution",
			"outputs": [],
			"stateMutability": "nonpayable",
			"type": "function"
		},
		{
			"inputs": [
				{
					"internalType": "address",
					"name": "newOwner",
					"type": "address"
				}
			],
			"name": "updateOwner",
			"outputs": [],
			"stateMutability": "nonpayable",
			"type": "function"
		},
		{
			"inputs": [
				{
					"internalType": "address",
					"name": "newImplementation",
					"type": "address"
				},
				{
					"internalType": "bytes",
					"name": "data",
					"type": "bytes"
				}
			],
			"name": "upgradeToAndCall",
			"outputs": [],
			"stateMutability": "payable",
			"type": "function"
		},
		{
			"inputs": [
				{
					"internalType": "uint256",
					"name": "proposalID",
					"type": "uint256"
				}
			],
			"name": "withdrawDonationFromCampaign",
			"outputs": [],
			"stateMutability": "nonpayable",
			"type": "function"
		},
		{
			"inputs": [
				{
					"internalType": "address payable",
					"name": "receiver",
					"type": "address"
				}
			],
			"name": "withdrawDonationFromPlateform",
			"outputs": [],
			"stateMutability": "nonpayable",
			"type": "function"
		},
		{
			"stateMutability": "payable",
			"type": "receive"
		}
	]
}