{
	"data": {
		"bytecode": {
			"linkReferences": {},
			"object": "60a06040523060805234801562000014575f80fd5b506200001f62000025565b620000d9565b7ff0c57e16840df040f15088dc2f81fe391c3923bec73e23a9662efc9c229c6a00805468010000000000000000900460ff1615620000765760405163f92ee8a960e01b815260040160405180910390fd5b80546001600160401b0390811614620000d65780546001600160401b0319166001600160401b0390811782556040519081527fc7f505b2f371ae2175ee4913f4499e1f2633a7b5936321eed1cdaeb6115181d29060200160405180910390a15b50565b6080516130d7620001005f395f818161240e01528181612437015261257601526130d75ff3fe608060405260043610610262575f3560e01c8063798974dd1161013f578063a9c30766116100b3578063c7f758a811610078578063c7f758a814610750578063df357d3e14610786578063e390d21f1461079a578063edf5db5c146107af578063f2fde38b14610818578063f84038b114610837575f80fd5b8063a9c30766146106ab578063acb18c0b146106c0578063ad3cb1cc146106d5578063b8077c2514610712578063c4d66de814610731575f80fd5b8063893d20e811610104578063893d20e8146105be5780638da5cb5b14610604578063937e09b11461062d5780639e84d44114610642578063a5fe07a914610661578063a884600814610697575f80fd5b8063798974dd14610544578063815bf26814610558578063831c43ac1461056c5780638456cb591461058b578063880cdc311461059f575f80fd5b806345d3292b116101d6578063566f95781161019b578063566f95781461049d5780635a332e65146104bc5780635c975abb146104db5780636805b84b1461050a5780636f9fb98a1461051e578063715018a614610530575f80fd5b806345d3292b1461043b5780634f1ef2861461044357806352d1902d146104565780635545db0d1461046a5780635658d39114610489575f80fd5b80631f6d4942116102275780631f6d49421461033e5780633f4ba83a14610393578063400e3949146103a7578063403de107146103bc57806343e9658c146103db57806345598b4a1461041c575f80fd5b8063013cf08b1461026d5780630a64522f146102aa5780630af857c1146102cd5780630ea142f7146102ee578063199b934d1461030d575f80fd5b3661026957005b5f80fd5b348015610278575f80fd5b5061028c6102873660046128f3565b61084b565b6040516102a19998979695949392919061297f565b60405180910390f35b3480156102b5575f80fd5b506102bf60095481565b6040519081526020016102a1565b3480156102d8575f80fd5b506102ec6102e73660046129fb565b610932565b005b3480156102f9575f80fd5b506102ec6103083660046128f3565b610a5b565b348015610318575f80fd5b5061032c6103273660046128f3565b610c4e565b6040516102a196959493929190612a16565b348015610349575f80fd5b506103786103583660046129fb565b5f6020819052908152604090208054600182015460029092015490919083565b604080519384526020840192909252908201526060016102a1565b34801561039e575f80fd5b506102ec610ea3565b3480156103b2575f80fd5b506102bf60075481565b3480156103c7575f80fd5b506102ec6103d63660046128f3565b610eb5565b3480156103e6575f80fd5b506103786103f53660046129fb565b6001600160a01b03165f908152602081905260409020805460018201546002909201549092565b348015610427575f80fd5b506102ec6104363660046128f3565b6110ac565b6102ec611292565b6102ec610451366004612ae6565b611317565b348015610461575f80fd5b506102bf611336565b348015610475575f80fd5b506102ec6104843660046128f3565b611351565b348015610494575f80fd5b506009546102bf565b3480156104a8575f80fd5b506102ec6104b73660046128f3565b611622565b3480156104c7575f80fd5b506102ec6104d63660046128f3565b6118ec565b3480156104e6575f80fd5b505f805160206130828339815191525460ff165b60405190151581526020016102a1565b348015610515575f80fd5b506104fa611aad565b348015610529575f80fd5b50476102bf565b34801561053b575f80fd5b506102ec611acb565b34801561054f575f80fd5b506007546102bf565b348015610563575f80fd5b506008546102bf565b348015610577575f80fd5b506102ec610586366004612b64565b611adc565b348015610596575f80fd5b506102ec611b7a565b3480156105aa575f80fd5b506102ec6105b93660046129fb565b611b8a565b3480156105c9575f80fd5b506105ec5f611ac65f80516020613042833981519152546001600160a01b031690565b6040516001600160a01b0390911681526020016102a1565b34801561060f575f80fd5b505f80516020613042833981519152546001600160a01b03166105ec565b348015610638575f80fd5b506102bf60045481565b34801561064d575f80fd5b506102ec61065c366004612bba565b611ba6565b34801561066c575f80fd5b506102bf61067b366004612bfc565b600160209081525f928352604080842090915290825290205481565b3480156106a2575f80fd5b506005546102bf565b3480156106b6575f80fd5b506102bf60065481565b3480156106cb575f80fd5b506102bf60055481565b3480156106e0575f80fd5b50610705604051806040016040528060058152602001640352e302e360dc1b81525081565b6040516102a19190612c2a565b34801561071d575f80fd5b506102bf61072c366004612bfc565b611e47565b34801561073c575f80fd5b506102ec61074b3660046129fb565b611e70565b34801561075b575f80fd5b5061076f61076a3660046128f3565b611fa8565b6040516102a19b9a99989796959493929190612c7e565b348015610791575f80fd5b506006546102bf565b3480156107a5575f80fd5b506102bf60085481565b3480156107ba575f80fd5b506108066107c93660046128f3565b600360208190525f9182526040909120805460018201546002830154938301546004840154600590940154929460ff928316949093919290911686565b6040516102a196959493929190612d18565b348015610823575f80fd5b506102ec6108323660046129fb565b61223c565b348015610842575f80fd5b506004546102bf565b600260208190525f918252604090912080546001820154928201546003830180546001600160a01b039093169493919261088490612d5f565b80601f01602080910402602001604051908101604052809291908181526020018280546108b090612d5f565b80156108fb5780601f106108d2576101008083540402835291602001916108fb565b820191905f5260205f20905b8154815290600101906020018083116108de57829003601f168201915b50505050600483015460058401546006850154600786015460089096015494956001600160a01b03909316949193509160ff169089565b61093a612276565b335f908152602081905260408120600101549003610a0a57335f90815260208190526040902060020154156109c25760405162461bcd60e51b815260206004820152602360248201527f5468652063726f7766756e64696e67206973206e6f742066696e6973686564206044820152621e595d60ea1b60648201526084015b60405180910390fd5b60405162461bcd60e51b815260206004820152601d60248201527f596f752068617665206e6f206d6f6e657920746f20776974686472617700000060448201526064016109b9565b335f90815260208190526040808220600101805490839055905190916001600160a01b0384169183156108fc0291849190818181858888f19350505050158015610a56573d5f803e3d5ffd5b505050565b610a63612276565b5f818152600260205260409020610a79816122a6565b5f600782015460ff166002811115610a9357610a93612957565b1480610ab757506001600782015460ff166002811115610ab557610ab5612957565b145b610b3c5760405162461bcd60e51b815260206004820152604a60248201527f5468652063616d706169676e20697320636f6d706c657465642073756363657360448201527f7366756c6c7920616e6420646f6e6174696f6e20636f756c64206e6f74206265606482015269103bb4ba34323930bbb760b11b608482015260a4016109b9565b5f82815260016020908152604080832033845290915290205480610bb05760405162461bcd60e51b815260206004820152602560248201527f596f752068617665206e6f7420646f6e6174656420746f20746869732063616d6044820152643830b4b3b760d91b60648201526084016109b9565b335f9081526020819052604081206001018054839290610bd1908490612dab565b9091555050335f9081526020819052604081206002018054839290610bf7908490612dbe565b9250508190555080826006015f828254610c119190612dbe565b925050819055506001826008015f828254610c2c9190612dbe565b9091555050505f91825250600160209081526040808320338452909152812055565b5f8181526003602081905260408220805460019091015490926060929091829182918591839160ff1690811115610c8757610c87612957565b03610cbf576040518060400160405280601381526020017226b4b734b6bab6a1b7b73a3934b13aba34b7b760691b8152509450610dc9565b60015f8881526003602081905260409091206001015460ff1690811115610ce857610ce8612957565b03610d19576040518060400160405280600c81526020016b46726f7a656e456c6170736560a01b8152509450610dc9565b60025f8881526003602081905260409091206001015460ff1690811115610d4257610d42612957565b03610d75576040518060400160405280600e81526020016d086c2dae0c2d2cedc98cadccee8d60931b8152509450610dc9565b5f8781526003602081905260409091206001015460ff1681811115610d9c57610d9c612957565b03610dc9576040518060400160405280600c81526020016b0acdee8d2dcce98cadccee8d60a31b81525094505b5f878152600360208190526040822060028101549181015460048201546005909201549297509550935060ff1690816002811115610e0957610e09612957565b03610e34576040518060400160405280600681526020016541637469766560d01b8152509150610e99565b6001816002811115610e4857610e48612957565b03610e745760405180604001604052806007815260200166115e1c1a5c995960ca1b8152509150610e99565b6040518060400160405280600981526020016810dbdb5c1b195d195960ba1b81525091505b5091939550919395565b610eab612303565b610eb361234b565b565b335f8181526020819052604081206002810154600190910154610ed89190612dab565b11610ef55760405162461bcd60e51b81526004016109b990612dd1565b5f828152600360205260409020610f0b816123aa565b5f600582015460ff166002811115610f2557610f25612957565b14610f725760405162461bcd60e51b815260206004820152601a60248201527f546865206465636973696f6e206973206e6f742061637469766500000000000060448201526064016109b9565b610f7d600247612e16565b610f88906001612dab565b81600401541015610fec5760405162461bcd60e51b815260206004820152602860248201527f546865206465636973696f6e20646f6573206e6f742068617665206f7665722060448201526735302520766f746560c01b60648201526084016109b9565b5f600182015460ff16600381111561100657611006612957565b0361101857600281015460045561109a565b60018082015460ff16600381111561103257611032612957565b0361104457600281015460055561109a565b6002600182015460ff16600381111561105f5761105f612957565b0361107157600281015460065561109a565b6003600182015460ff16600381111561108c5761108c612957565b0361109a5760028101546009555b600501805460ff191660021790555050565b6110b4612276565b5f81815260026020526040902080546001600160a01b031633146110ea5760405162461bcd60e51b81526004016109b990612e35565b6110f3816122a6565b5f600782015460ff16600281111561110d5761110d612957565b146111755760405162461bcd60e51b815260206004820152603260248201527f5468652063616d706169676e206973206e6f74206163746976652e20436f756c60448201527119081b9bdd0818994818d85b98d95b1b195960721b60648201526084016109b9565b60078101805460ff191660011790555f5b6009820154811015611280575f8260090182815481106111a8576111a8612e80565b5f9182526020808320909101548683526001825260408084206001600160a01b03909216808552919092529120549091508015611264576001600160a01b0382165f9081526020819052604081206001018054839290611209908490612dab565b90915550506001600160a01b0382165f9081526020819052604081206002018054839290611238908490612dbe565b90915550505f8581526001602090815260408083206001600160a01b038616845290915281205561126b565b505061126e565b50505b8061127881612e94565b915050611186565b505f6006820181905560089091015550565b61129a612276565b6004543410156112ec5760405162461bcd60e51b815260206004820152601b60248201527f4d696e696d756d20646f6e6174696f6e206973206e6f74206d6574000000000060448201526064016109b9565b335f9081526020819052604081204281556001018054349290611310908490612dab565b9091555050565b61131f612403565b611328826124a7565b61133282826124af565b5050565b5f61133f61256b565b505f8051602061306283398151915290565b611359612276565b5f81815260026020526040902080546001600160a01b0316331461138f5760405162461bcd60e51b81526004016109b990612e35565b611398816122a6565b5f600782015460ff1660028111156113b2576113b2612957565b146114175760405162461bcd60e51b815260206004820152602f60248201527f5468652063616d706169676e206973206e6f74206163746976652e20436f756c60448201526e19081b9bdd0818994818db1bdcd959608a1b60648201526084016109b9565b80600501548160060154101561147f5760405162461bcd60e51b815260206004820152602760248201527f5468652063616d706169676e20646f6573206e6f74206861766520656e6f756760448201526668206d6f6e657960c81b60648201526084016109b9565b80600601544710156114e35760405162461bcd60e51b815260206004820152602760248201527f54686520636f6e747261637420646f6573206e6f74206861766520656e6f756760448201526668206d6f6e657960c81b60648201526084016109b9565b60078101805460ff191660021790555f5b60098201548110156115e4575f82600901828154811061151657611516612e80565b5f9182526020808320909101548683526001825260408084206001600160a01b039092168085529190925291205490915080156115c8576001600160a01b0382165f9081526020819052604081206002018054839290611577908490612dbe565b90915550505f8581526001602081815260408084206001600160a01b038716808652908352908420849055600a880180549384018155845292200180546001600160a01b03191690911790556115cf565b50506115d2565b50505b806115dc81612e94565b9150506114f4565b50600481015460068201546040516001600160a01b039092169181156108fc0291905f818181858888f19350505050158015610a56573d5f803e3d5ffd5b61162a612276565b5f818152600260205260409020611640816122a6565b5f600782015460ff16600281111561165a5761165a612957565b146116a75760405162461bcd60e51b815260206004820152601a60248201527f5468652063616d706169676e206973206e6f742061637469766500000000000060448201526064016109b9565b335f9081526020819052604081206001015490036117c957335f90815260208190526040902060020154156117755760405162461bcd60e51b815260206004820152606260248201527f596f7520646f206e6f7420686176652062616c616e636520666f72206e65772060448201527f646f6e6174696f6e2c20706c65617365207761697420666f722074686520637560648201527f7272656e74206163746976652063726f7766756e64696e6720746f2066696e696084820152610e6d60f31b60a482015260c4016109b9565b60405162461bcd60e51b8152602060048201526024808201527f596f7520646f206e6f7420686176652062616c616e636520666f7220646f6e616044820152633a34b7b760e11b60648201526084016109b9565b6005546117d7906001612eac565b335f908152602081905260409020546117f09042612dbe565b101561180e5760405162461bcd60e51b81526004016109b990612ec3565b335f90815260208190526040812060018101805490839055600290910180549192839261183c908490612dab565b9250508190555080826006015f8282546118569190612dab565b90915550505f83815260016020908152604080832033845290915281205490036118ba576001826008015f82825461188e9190612dab565b90915550506009820180546001810182555f91825260209091200180546001600160a01b031916331790555b5f838152600160209081526040808320338452909152812080548392906118e2908490612dab565b9091555050505050565b335f818152602081905260408120600281015460019091015461190f9190612dab565b1161192c5760405162461bcd60e51b81526004016109b990612dd1565b5f828152600360205260409020611942816123aa565b5f600582015460ff16600281111561195c5761195c612957565b146119a95760405162461bcd60e51b815260206004820152601a60248201527f546865206465636973696f6e206973206e6f742061637469766500000000000060448201526064016109b9565b335f90815260068201602052604090205460ff1615611a0a5760405162461bcd60e51b815260206004820152601f60248201527f596f75206861766520766f74656420746f2074686973206465636973696f6e0060448201526064016109b9565b600554611a18906001612eac565b335f90815260208190526040902054611a319042612dbe565b1015611a4f5760405162461bcd60e51b81526004016109b990612ec3565b335f9081526020819052604081206001810154600290910154611a729190612dab565b905080826004015f828254611a879190612dab565b9091555050335f90815260069092016020525060409020805460ff191660011790555050565b5f611ac65f805160206130828339815191525460ff1690565b905090565b611ad3612303565b610eb35f6125b4565b611ae4612276565b600780545f90815260026020819052604090912080546001600160a01b0319163317815591546001830155429082015560038101611b228582612f53565b506004810180546001600160a01b0319166001600160a01b038516179055600581018290555f600682018190556007808301805460ff1916905560088301829055805491611b6f83612e94565b919050555050505050565b611b82612303565b610eb3612611565b611b92612303565b611b9a612659565b611ba38161223c565b50565b335f8181526020819052604081206002810154600190910154611bc99190612dab565b11611be65760405162461bcd60e51b81526004016109b990612dd1565b600554611bf4906001612eac565b335f90815260208190526040902054611c0d9042612dbe565b1015611c2b5760405162461bcd60e51b81526004016109b990612ec3565b6008545f818152600360209081526040918290209283559051611c6891017226b4b734b6bab6a1b7b73a3934b13aba34b7b760691b815260130190565b6040516020818303038152906040528051906020012084604051602001611c8f919061300f565b6040516020818303038152906040528051906020012003611cc657600180820180545f9260ff1990911690835b0217905550611e18565b6040516b46726f7a656e456c6170736560a01b6020820152602c016040516020818303038152906040528051906020012084604051602001611d08919061300f565b6040516020818303038152906040528051906020012003611d35576001818101805460ff19168280611cbc565b6040516d086c2dae0c2d2cedc98cadccee8d60931b6020820152602e016040516020818303038152906040528051906020012084604051602001611d79919061300f565b6040516020818303038152906040528051906020012003611dab576001808201805460029260ff199091169083611cbc565b6040516b0acdee8d2dcce98cadccee8d60a31b6020820152602c016040516020818303038152906040528051906020012084604051602001611ded919061300f565b6040516020818303038152906040528051906020012003611e185760018101805460ff191660031790555b6002810183905542600382015560058101805460ff191690555f600482018190556008805491611b6f83612e94565b5f8281526001602090815260408083206001600160a01b03851684529091529020545b92915050565b7ff0c57e16840df040f15088dc2f81fe391c3923bec73e23a9662efc9c229c6a008054600160401b810460ff16159067ffffffffffffffff165f81158015611eb55750825b90505f8267ffffffffffffffff166001148015611ed15750303b155b905081158015611edf575080155b15611efd5760405163f92ee8a960e01b815260040160405180910390fd5b845467ffffffffffffffff191660011785558315611f2757845460ff60401b1916600160401b1785555b611f2f612688565b611f3886612698565b611f406126a9565b6601902d7bb380006004556014600555600760068190556009558315611fa057845460ff60401b19168555604051600181527fc7f505b2f371ae2175ee4913f4499e1f2633a7b5936321eed1cdaeb6115181d29060200160405180910390a15b505050505050565b5f81815260026020819052604082208054600182015492820154600390920180546001600160a01b0390921694606092909182918291859183918391829190611ff090612d5f565b80601f016020809104026020016040519081016040528092919081815260200182805461201c90612d5f565b80156120675780601f1061203e57610100808354040283529160200191612067565b820191905f5260205f20905b81548152906001019060200180831161204a57829003601f168201915b5050505f8f8152600260205260408120600481015460058201546006830154600790930154969e506001600160a01b039091169c509a50985060ff9093169291506120af9050565b8160028111156120c1576120c1612957565b036120ec576040518060400160405280600681526020016541637469766560d01b8152509450612151565b600181600281111561210057612100612957565b0361212c5760405180604001604052806007815260200166115e1c1a5c995960ca1b8152509450612151565b6040518060400160405280600981526020016810dbdb5c1b195d195960ba1b81525094505b5f8d815260026020908152604091829020600881015460099091018054845181850281018501909552808552919750918301828280156121b857602002820191905f5260205f20905b81546001600160a01b0316815260019091019060200180831161219a575b5050505050925060025f8e81526020019081526020015f20600a0180548060200260200160405190810160405280929190818152602001828054801561222557602002820191905f5260205f20905b81546001600160a01b03168152600190910190602001808311612207575b505050505091505091939597999b90929496989a50565b612244612303565b6001600160a01b03811661226d57604051631e4fbdf760e01b81525f60048201526024016109b9565b611ba3816125b4565b5f805160206130828339815191525460ff1615610eb35760405163d93c066560e01b815260040160405180910390fd5b5f600782015460ff1660028111156122c0576122c0612957565b03611ba3576006546122d59062015180612eac565b60028201546122e49042612dbe565b1115611ba3576007810180546001919060ff191682805b021790555050565b336123225f80516020613042833981519152546001600160a01b031690565b6001600160a01b031614610eb35760405163118cdaa760e01b81523360048201526024016109b9565b612353612659565b5f80516020613082833981519152805460ff191681557f5db9ee0a495bf2e6ff9c91a7834c1ba4fdd244a5e8aa4e537bd38aeae4b073aa335b6040516001600160a01b03909116815260200160405180910390a150565b5f600582015460ff1660028111156123c4576123c4612957565b03611ba3576009546123d99062015180612eac565b60038201546123e89042612dbe565b1115611ba3576005810180546001919060ff191682806122fb565b306001600160a01b037f000000000000000000000000000000000000000000000000000000000000000016148061248957507f00000000000000000000000000000000000000000000000000000000000000006001600160a01b031661247d5f80516020613062833981519152546001600160a01b031690565b6001600160a01b031614155b15610eb35760405163703e46dd60e11b815260040160405180910390fd5b611ba3612303565b816001600160a01b03166352d1902d6040518163ffffffff1660e01b8152600401602060405180830381865afa925050508015612509575060408051601f3d908101601f191682019092526125069181019061302a565b60015b61253157604051634c9c8ce360e01b81526001600160a01b03831660048201526024016109b9565b5f80516020613062833981519152811461256157604051632a87526960e21b8152600481018290526024016109b9565b610a5683836126b1565b306001600160a01b037f00000000000000000000000000000000000000000000000000000000000000001614610eb35760405163703e46dd60e11b815260040160405180910390fd5b5f8051602061304283398151915280546001600160a01b031981166001600160a01b03848116918217845560405192169182907f8be0079c531659141344cd1fd0a4f28419497f9722a3daafe3b4186f6b6457e0905f90a3505050565b612619612276565b5f80516020613082833981519152805460ff191660011781557f62e78cea01bee320cd4e420270b5ea74000d11b0c9f74754ebdbfc544b05a2583361238c565b5f805160206130828339815191525460ff16610eb357604051638dfc202b60e01b815260040160405180910390fd5b612690612706565b610eb361274f565b6126a0612706565b611ba38161276f565b610eb3612706565b6126ba82612777565b6040516001600160a01b038316907fbc7cd75a20ee27fd9adebab32041f755214dbc6bffa90cc0225b39da2e5c2d3b905f90a28051156126fe57610a5682826127da565b61133261284c565b7ff0c57e16840df040f15088dc2f81fe391c3923bec73e23a9662efc9c229c6a0054600160401b900460ff16610eb357604051631afcd79f60e31b815260040160405180910390fd5b612757612706565b5f80516020613082833981519152805460ff19169055565b612244612706565b806001600160a01b03163b5f036127ac57604051634c9c8ce360e01b81526001600160a01b03821660048201526024016109b9565b5f8051602061306283398151915280546001600160a01b0319166001600160a01b0392909216919091179055565b60605f80846001600160a01b0316846040516127f6919061300f565b5f60405180830381855af49150503d805f811461282e576040519150601f19603f3d011682016040523d82523d5f602084013e612833565b606091505b509150915061284385838361286b565b95945050505050565b3415610eb35760405163b398979f60e01b815260040160405180910390fd5b6060826128805761287b826128ca565b6128c3565b815115801561289757506001600160a01b0384163b155b156128c057604051639996b31560e01b81526001600160a01b03851660048201526024016109b9565b50805b9392505050565b8051156128da5780518082602001fd5b604051630a12f52160e11b815260040160405180910390fd5b5f60208284031215612903575f80fd5b5035919050565b5f5b8381101561292457818101518382015260200161290c565b50505f910152565b5f815180845261294381602086016020860161290a565b601f01601f19169290920160200192915050565b634e487b7160e01b5f52602160045260245ffd5b6003811061297b5761297b612957565b9052565b5f61012060018060a01b03808d1684528b60208501528a60408501528160608501526129ad8285018b61292c565b9250808916608085015250508560a08301528460c08301526129d260e083018561296b565b826101008301529a9950505050505050505050565b6001600160a01b0381168114611ba3575f80fd5b5f60208284031215612a0b575f80fd5b81356128c3816129e7565b86815260c060208201525f612a2e60c083018861292c565b86604084015285606084015284608084015282810360a0840152612a52818561292c565b9998505050505050505050565b634e487b7160e01b5f52604160045260245ffd5b5f67ffffffffffffffff80841115612a8d57612a8d612a5f565b604051601f8501601f19908116603f01168101908282118183101715612ab557612ab5612a5f565b81604052809350858152868686011115612acd575f80fd5b858560208301375f602087830101525050509392505050565b5f8060408385031215612af7575f80fd5b8235612b02816129e7565b9150602083013567ffffffffffffffff811115612b1d575f80fd5b8301601f81018513612b2d575f80fd5b612b3c85823560208401612a73565b9150509250929050565b5f82601f830112612b55575f80fd5b6128c383833560208501612a73565b5f805f60608486031215612b76575f80fd5b833567ffffffffffffffff811115612b8c575f80fd5b612b9886828701612b46565b9350506020840135612ba9816129e7565b929592945050506040919091013590565b5f8060408385031215612bcb575f80fd5b823567ffffffffffffffff811115612be1575f80fd5b612bed85828601612b46565b95602094909401359450505050565b5f8060408385031215612c0d575f80fd5b823591506020830135612c1f816129e7565b809150509250929050565b602081525f6128c3602083018461292c565b5f8151808452602080850194508084015f5b83811015612c735781516001600160a01b031687529582019590820190600101612c4e565b509495945050505050565b5f61016060018060a01b03808f1684528d60208501528c6040850152816060850152612cac8285018d61292c565b9150808b166080850152508860a08401528760c084015282810360e0840152612cd5818861292c565b905085610100840152828103610120840152612cf18186612c3c565b9050828103610140840152612d068185612c3c565b9e9d5050505050505050505050505050565b86815260c0810160048710612d2f57612d2f612957565b866020830152856040830152846060830152836080830152612d5460a083018461296b565b979650505050505050565b600181811c90821680612d7357607f821691505b602082108103612d9157634e487b7160e01b5f52602260045260245ffd5b50919050565b634e487b7160e01b5f52601160045260245ffd5b80820180821115611e6a57611e6a612d97565b81810381811115611e6a57611e6a612d97565b60208082526025908201527f596f75206d75737420646f6e61746520746f2074686520706c6174666f726d20604082015264199a5c9cdd60da1b606082015260800190565b5f82612e3057634e487b7160e01b5f52601260045260245ffd5b500490565b6020808252602b908201527f4f6e6c792070726f706f7365722063616e206368616e6765207468652063616d60408201526a706169676e20737461746560a81b606082015260800190565b634e487b7160e01b5f52603260045260245ffd5b5f60018201612ea557612ea5612d97565b5060010190565b8082028115828204841417611e6a57611e6a612d97565b6020808252602b908201527f5468652062616c616e636520796f7520646f6e61746564206973207374696c6c60408201526a20696e2070656e64696e6760a81b606082015260800190565b601f821115610a56575f81815260208120601f850160051c81016020861015612f345750805b601f850160051c820191505b81811015611fa057828155600101612f40565b815167ffffffffffffffff811115612f6d57612f6d612a5f565b612f8181612f7b8454612d5f565b84612f0e565b602080601f831160018114612fb4575f8415612f9d5750858301515b5f19600386901b1c1916600185901b178555611fa0565b5f85815260208120601f198616915b82811015612fe257888601518255948401946001909101908401612fc3565b5085821015612fff57878501515f19600388901b60f8161c191681555b5050505050600190811b01905550565b5f825161302081846020870161290a565b9190910192915050565b5f6020828403121561303a575f80fd5b505191905056fe9016d09d72d40fdae2fd8ceac6b6234c7706214fd39c1cd1e609a0528c199300360894a13ba1a3210667c828492db98dca3e2076cc3735a920a3ca505d382bbccd5ed15c6e187e77e9aee88184c21f4f2182ab5827cb3b7e07fbedcd63f03300a2646970667358221220c28e002a292a31480f06699bcc5d9a751a8dd2101b8b08aae447ac7cdce13d0a64736f6c63430008150033",
			"opcodes": "PUSH1 0xA0 PUSH1 0x40 MSTORE ADDRESS PUSH1 0x80 MSTORE CALLVALUE DUP1 ISZERO PUSH3 0x14 JUMPI PUSH0 DUP1 REVERT JUMPDEST POP PUSH3 0x1F PUSH3 0x25 JUMP JUMPDEST PUSH3 0xD9 JUMP JUMPDEST PUSH32 0xF0C57E16840DF040F15088DC2F81FE391C3923BEC73E23A9662EFC9C229C6A00 DUP1 SLOAD PUSH9 0x10000000000000000 SWAP1 DIV PUSH1 0xFF AND ISZERO PUSH3 0x76 JUMPI PUSH1 0x40 MLOAD PUSH4 0xF92EE8A9 PUSH1 0xE0 SHL DUP2 MSTORE PUSH1 0x4 ADD PUSH1 0x40 MLOAD DUP1 SWAP2 SUB SWAP1 REVERT JUMPDEST DUP1 SLOAD PUSH1 0x1 PUSH1 0x1 PUSH1 0x40 SHL SUB SWAP1 DUP2 AND EQ PUSH3 0xD6 JUMPI DUP1 SLOAD PUSH1 0x1 PUSH1 0x1 PUSH1 0x40 SHL SUB NOT AND PUSH1 0x1 PUSH1 0x1 PUSH1 0x40 SHL SUB SWAP1 DUP2 OR DUP3 SSTORE PUSH1 0x40 MLOAD SWAP1 DUP2 MSTORE PUSH32 0xC7F505B2F371AE2175EE4913F4499E1F2633A7B5936321EED1CDAEB6115181D2 SWAP1 PUSH1 0x20 ADD PUSH1 0x40 MLOAD DUP1 SWAP2 SUB SWAP1 LOG1 JUMPDEST POP JUMP JUMPDEST PUSH1 0x80 MLOAD PUSH2 0x30D7 PUSH3 0x100 PUSH0 CODECOPY PUSH0 DUP2 DUP2 PUSH2 0x240E ADD MSTORE DUP2 DUP2 PUSH2 0x2437 ADD MSTORE PUSH2 0x2576 ADD MSTORE PUSH2 0x30D7 PUSH0 RETURN INVALID PUSH1 0x80 PUSH1 0x40 MSTORE PUSH1 0x4 CALLDATASIZE LT PUSH2 0x262 JUMPI PUSH0 CALLDATALOAD PUSH1 0xE0 SHR DUP1 PUSH4 0x798974DD GT PUSH2 0x13F JUMPI DUP1 PUSH4 0xA9C30766 GT PUSH2 0xB3 JUMPI DUP1 PUSH4 0xC7F758A8 GT PUSH2 0x78 JUMPI DUP1 PUSH4 0xC7F758A8 EQ PUSH2 0x750 JUMPI DUP1 PUSH4 0xDF357D3E EQ PUSH2 0x786 JUMPI DUP1 PUSH4 0xE390D21F EQ PUSH2 0x79A JUMPI DUP1 PUSH4 0xEDF5DB5C EQ PUSH2 0x7AF JUMPI DUP1 PUSH4 0xF2FDE38B EQ PUSH2 0x818 JUMPI DUP1 PUSH4 0xF84038B1 EQ PUSH2 0x837 JUMPI PUSH0 DUP1 REVERT JUMPDEST DUP1 PUSH4 0xA9C30766 EQ PUSH2 0x6AB JUMPI DUP1 PUSH4 0xACB18C0B EQ PUSH2 0x6C0 JUMPI DUP1 PUSH4 0xAD3CB1CC EQ PUSH2 0x6D5 JUMPI DUP1 PUSH4 0xB8077C25 EQ PUSH2 0x712 JUMPI DUP1 PUSH4 0xC4D66DE8 EQ PUSH2 0x731 JUMPI PUSH0 DUP1 REVERT JUMPDEST DUP1 PUSH4 0x893D20E8 GT PUSH2 0x104 JUMPI DUP1 PUSH4 0x893D20E8 EQ PUSH2 0x5BE JUMPI DUP1 PUSH4 0x8DA5CB5B EQ PUSH2 0x604 JUMPI DUP1 PUSH4 0x937E09B1 EQ PUSH2 0x62D JUMPI DUP1 PUSH4 0x9E84D441 EQ PUSH2 0x642 JUMPI DUP1 PUSH4 0xA5FE07A9 EQ PUSH2 0x661 JUMPI DUP1 PUSH4 0xA8846008 EQ PUSH2 0x697 JUMPI PUSH0 DUP1 REVERT JUMPDEST DUP1 PUSH4 0x798974DD EQ PUSH2 0x544 JUMPI DUP1 PUSH4 0x815BF268 EQ PUSH2 0x558 JUMPI DUP1 PUSH4 0x831C43AC EQ PUSH2 0x56C JUMPI DUP1 PUSH4 0x8456CB59 EQ PUSH2 0x58B JUMPI DUP1 PUSH4 0x880CDC31 EQ PUSH2 0x59F JUMPI PUSH0 DUP1 REVERT JUMPDEST DUP1 PUSH4 0x45D3292B GT PUSH2 0x1D6 JUMPI DUP1 PUSH4 0x566F9578 GT PUSH2 0x19B JUMPI DUP1 PUSH4 0x566F9578 EQ PUSH2 0x49D JUMPI DUP1 PUSH4 0x5A332E65 EQ PUSH2 0x4BC JUMPI DUP1 PUSH4 0x5C975ABB EQ PUSH2 0x4DB JUMPI DUP1 PUSH4 0x6805B84B EQ PUSH2 0x50A JUMPI DUP1 PUSH4 0x6F9FB98A EQ PUSH2 0x51E JUMPI DUP1 PUSH4 0x715018A6 EQ PUSH2 0x530 JUMPI PUSH0 DUP1 REVERT JUMPDEST DUP1 PUSH4 0x45D3292B EQ PUSH2 0x43B JUMPI DUP1 PUSH4 0x4F1EF286 EQ PUSH2 0x443 JUMPI DUP1 PUSH4 0x52D1902D EQ PUSH2 0x456 JUMPI DUP1 PUSH4 0x5545DB0D EQ PUSH2 0x46A JUMPI DUP1 PUSH4 0x5658D391 EQ PUSH2 0x489 JUMPI PUSH0 DUP1 REVERT JUMPDEST DUP1 PUSH4 0x1F6D4942 GT PUSH2 0x227 JUMPI DUP1 PUSH4 0x1F6D4942 EQ PUSH2 0x33E JUMPI DUP1 PUSH4 0x3F4BA83A EQ PUSH2 0x393 JUMPI DUP1 PUSH4 0x400E3949 EQ PUSH2 0x3A7 JUMPI DUP1 PUSH4 0x403DE107 EQ PUSH2 0x3BC JUMPI DUP1 PUSH4 0x43E9658C EQ PUSH2 0x3DB JUMPI DUP1 PUSH4 0x45598B4A EQ PUSH2 0x41C JUMPI PUSH0 DUP1 REVERT JUMPDEST DUP1 PUSH4 0x13CF08B EQ PUSH2 0x26D JUMPI DUP1 PUSH4 0xA64522F EQ PUSH2 0x2AA JUMPI DUP1 PUSH4 0xAF857C1 EQ PUSH2 0x2CD JUMPI DUP1 PUSH4 0xEA142F7 EQ PUSH2 0x2EE JUMPI DUP1 PUSH4 0x199B934D EQ PUSH2 0x30D JUMPI PUSH0 DUP1 REVERT JUMPDEST CALLDATASIZE PUSH2 0x269 JUMPI STOP JUMPDEST PUSH0 DUP1 REVERT JUMPDEST CALLVALUE DUP1 ISZERO PUSH2 0x278 JUMPI PUSH0 DUP1 REVERT JUMPDEST POP PUSH2 0x28C PUSH2 0x287 CALLDATASIZE PUSH1 0x4 PUSH2 0x28F3 JUMP JUMPDEST PUSH2 0x84B JUMP JUMPDEST PUSH1 0x40 MLOAD PUSH2 0x2A1 SWAP10 SWAP9 SWAP8 SWAP7 SWAP6 SWAP5 SWAP4 SWAP3 SWAP2 SWAP1 PUSH2 0x297F JUMP JUMPDEST PUSH1 0x40 MLOAD DUP1 SWAP2 SUB SWAP1 RETURN JUMPDEST CALLVALUE DUP1 ISZERO PUSH2 0x2B5 JUMPI PUSH0 DUP1 REVERT JUMPDEST POP PUSH2 0x2BF PUSH1 0x9 SLOAD DUP2 JUMP JUMPDEST PUSH1 0x40 MLOAD SWAP1 DUP2 MSTORE PUSH1 0x20 ADD PUSH2 0x2A1 JUMP JUMPDEST CALLVALUE DUP1 ISZERO PUSH2 0x2D8 JUMPI PUSH0 DUP1 REVERT JUMPDEST POP PUSH2 0x2EC PUSH2 0x2E7 CALLDATASIZE PUSH1 0x4 PUSH2 0x29FB JUMP JUMPDEST PUSH2 0x932 JUMP JUMPDEST STOP JUMPDEST CALLVALUE DUP1 ISZERO PUSH2 0x2F9 JUMPI PUSH0 DUP1 REVERT JUMPDEST POP PUSH2 0x2EC PUSH2 0x308 CALLDATASIZE PUSH1 0x4 PUSH2 0x28F3 JUMP JUMPDEST PUSH2 0xA5B JUMP JUMPDEST CALLVALUE DUP1 ISZERO PUSH2 0x318 JUMPI PUSH0 DUP1 REVERT JUMPDEST POP PUSH2 0x32C PUSH2 0x327 CALLDATASIZE PUSH1 0x4 PUSH2 0x28F3 JUMP JUMPDEST PUSH2 0xC4E JUMP JUMPDEST PUSH1 0x40 MLOAD PUSH2 0x2A1 SWAP7 SWAP6 SWAP5 SWAP4 SWAP3 SWAP2 SWAP1 PUSH2 0x2A16 JUMP JUMPDEST CALLVALUE DUP1 ISZERO PUSH2 0x349 JUMPI PUSH0 DUP1 REVERT JUMPDEST POP PUSH2 0x378 PUSH2 0x358 CALLDATASIZE PUSH1 0x4 PUSH2 0x29FB JUMP JUMPDEST PUSH0 PUSH1 0x20 DUP2 SWAP1 MSTORE SWAP1 DUP2 MSTORE PUSH1 0x40 SWAP1 KECCAK256 DUP1 SLOAD PUSH1 0x1 DUP3 ADD SLOAD PUSH1 0x2 SWAP1 SWAP3 ADD SLOAD SWAP1 SWAP2 SWAP1 DUP4 JUMP JUMPDEST PUSH1 0x40 DUP1 MLOAD SWAP4 DUP5 MSTORE PUSH1 0x20 DUP5 ADD SWAP3 SWAP1 SWAP3 MSTORE SWAP1 DUP3 ADD MSTORE PUSH1 0x60 ADD PUSH2 0x2A1 JUMP JUMPDEST CALLVALUE DUP1 ISZERO PUSH2 0x39E JUMPI PUSH0 DUP1 REVERT JUMPDEST POP PUSH2 0x2EC PUSH2 0xEA3 JUMP JUMPDEST CALLVALUE DUP1 ISZERO PUSH2 0x3B2 JUMPI PUSH0 DUP1 REVERT JUMPDEST POP PUSH2 0x2BF PUSH1 0x7 SLOAD DUP2 JUMP JUMPDEST CALLVALUE DUP1 ISZERO PUSH2 0x3C7 JUMPI PUSH0 DUP1 REVERT JUMPDEST POP PUSH2 0x2EC PUSH2 0x3D6 CALLDATASIZE PUSH1 0x4 PUSH2 0x28F3 JUMP JUMPDEST PUSH2 0xEB5 JUMP JUMPDEST CALLVALUE DUP1 ISZERO PUSH2 0x3E6 JUMPI PUSH0 DUP1 REVERT JUMPDEST POP PUSH2 0x378 PUSH2 0x3F5 CALLDATASIZE PUSH1 0x4 PUSH2 0x29FB JUMP JUMPDEST PUSH1 0x1 PUSH1 0x1 PUSH1 0xA0 SHL SUB AND PUSH0 SWAP1 DUP2 MSTORE PUSH1 0x20 DUP2 SWAP1 MSTORE PUSH1 0x40 SWAP1 KECCAK256 DUP1 SLOAD PUSH1 0x1 DUP3 ADD SLOAD PUSH1 0x2 SWAP1 SWAP3 ADD SLOAD SWAP1 SWAP3 JUMP JUMPDEST CALLVALUE DUP1 ISZERO PUSH2 0x427 JUMPI PUSH0 DUP1 REVERT JUMPDEST POP PUSH2 0x2EC PUSH2 0x436 CALLDATASIZE PUSH1 0x4 PUSH2 0x28F3 JUMP JUMPDEST PUSH2 0x10AC JUMP JUMPDEST PUSH2 0x2EC PUSH2 0x1292 JUMP JUMPDEST PUSH2 0x2EC PUSH2 0x451 CALLDATASIZE PUSH1 0x4 PUSH2 0x2AE6 JUMP JUMPDEST PUSH2 0x1317 JUMP JUMPDEST CALLVALUE DUP1 ISZERO PUSH2 0x461 JUMPI PUSH0 DUP1 REVERT JUMPDEST POP PUSH2 0x2BF PUSH2 0x1336 JUMP JUMPDEST CALLVALUE DUP1 ISZERO PUSH2 0x475 JUMPI PUSH0 DUP1 REVERT JUMPDEST POP PUSH2 0x2EC PUSH2 0x484 CALLDATASIZE PUSH1 0x4 PUSH2 0x28F3 JUMP JUMPDEST PUSH2 0x1351 JUMP JUMPDEST CALLVALUE DUP1 ISZERO PUSH2 0x494 JUMPI PUSH0 DUP1 REVERT JUMPDEST POP PUSH1 0x9 SLOAD PUSH2 0x2BF JUMP JUMPDEST CALLVALUE DUP1 ISZERO PUSH2 0x4A8 JUMPI PUSH0 DUP1 REVERT JUMPDEST POP PUSH2 0x2EC PUSH2 0x4B7 CALLDATASIZE PUSH1 0x4 PUSH2 0x28F3 JUMP JUMPDEST PUSH2 0x1622 JUMP JUMPDEST CALLVALUE DUP1 ISZERO PUSH2 0x4C7 JUMPI PUSH0 DUP1 REVERT JUMPDEST POP PUSH2 0x2EC PUSH2 0x4D6 CALLDATASIZE PUSH1 0x4 PUSH2 0x28F3 JUMP JUMPDEST PUSH2 0x18EC JUMP JUMPDEST CALLVALUE DUP1 ISZERO PUSH2 0x4E6 JUMPI PUSH0 DUP1 REVERT JUMPDEST POP PUSH0 DUP1 MLOAD PUSH1 0x20 PUSH2 0x3082 DUP4 CODECOPY DUP2 MLOAD SWAP2 MSTORE SLOAD PUSH1 0xFF AND JUMPDEST PUSH1 0x40 MLOAD SWAP1 ISZERO ISZERO DUP2 MSTORE PUSH1 0x20 ADD PUSH2 0x2A1 JUMP JUMPDEST CALLVALUE DUP1 ISZERO PUSH2 0x515 JUMPI PUSH0 DUP1 REVERT JUMPDEST POP PUSH2 0x4FA PUSH2 0x1AAD JUMP JUMPDEST CALLVALUE DUP1 ISZERO PUSH2 0x529 JUMPI PUSH0 DUP1 REVERT JUMPDEST POP SELFBALANCE PUSH2 0x2BF JUMP JUMPDEST CALLVALUE DUP1 ISZERO PUSH2 0x53B JUMPI PUSH0 DUP1 REVERT JUMPDEST POP PUSH2 0x2EC PUSH2 0x1ACB JUMP JUMPDEST CALLVALUE DUP1 ISZERO PUSH2 0x54F JUMPI PUSH0 DUP1 REVERT JUMPDEST POP PUSH1 0x7 SLOAD PUSH2 0x2BF JUMP JUMPDEST CALLVALUE DUP1 ISZERO PUSH2 0x563 JUMPI PUSH0 DUP1 REVERT JUMPDEST POP PUSH1 0x8 SLOAD PUSH2 0x2BF JUMP JUMPDEST CALLVALUE DUP1 ISZERO PUSH2 0x577 JUMPI PUSH0 DUP1 REVERT JUMPDEST POP PUSH2 0x2EC PUSH2 0x586 CALLDATASIZE PUSH1 0x4 PUSH2 0x2B64 JUMP JUMPDEST PUSH2 0x1ADC JUMP JUMPDEST CALLVALUE DUP1 ISZERO PUSH2 0x596 JUMPI PUSH0 DUP1 REVERT JUMPDEST POP PUSH2 0x2EC PUSH2 0x1B7A JUMP JUMPDEST CALLVALUE DUP1 ISZERO PUSH2 0x5AA JUMPI PUSH0 DUP1 REVERT JUMPDEST POP PUSH2 0x2EC PUSH2 0x5B9 CALLDATASIZE PUSH1 0x4 PUSH2 0x29FB JUMP JUMPDEST PUSH2 0x1B8A JUMP JUMPDEST CALLVALUE DUP1 ISZERO PUSH2 0x5C9 JUMPI PUSH0 DUP1 REVERT JUMPDEST POP PUSH2 0x5EC PUSH0 PUSH2 0x1AC6 PUSH0 DUP1 MLOAD PUSH1 0x20 PUSH2 0x3042 DUP4 CODECOPY DUP2 MLOAD SWAP2 MSTORE SLOAD PUSH1 0x1 PUSH1 0x1 PUSH1 0xA0 SHL SUB AND SWAP1 JUMP JUMPDEST PUSH1 0x40 MLOAD PUSH1 0x1 PUSH1 0x1 PUSH1 0xA0 SHL SUB SWAP1 SWAP2 AND DUP2 MSTORE PUSH1 0x20 ADD PUSH2 0x2A1 JUMP JUMPDEST CALLVALUE DUP1 ISZERO PUSH2 0x60F JUMPI PUSH0 DUP1 REVERT JUMPDEST POP PUSH0 DUP1 MLOAD PUSH1 0x20 PUSH2 0x3042 DUP4 CODECOPY DUP2 MLOAD SWAP2 MSTORE SLOAD PUSH1 0x1 PUSH1 0x1 PUSH1 0xA0 SHL SUB AND PUSH2 0x5EC JUMP JUMPDEST CALLVALUE DUP1 ISZERO PUSH2 0x638 JUMPI PUSH0 DUP1 REVERT JUMPDEST POP PUSH2 0x2BF PUSH1 0x4 SLOAD DUP2 JUMP JUMPDEST CALLVALUE DUP1 ISZERO PUSH2 0x64D JUMPI PUSH0 DUP1 REVERT JUMPDEST POP PUSH2 0x2EC PUSH2 0x65C CALLDATASIZE PUSH1 0x4 PUSH2 0x2BBA JUMP JUMPDEST PUSH2 0x1BA6 JUMP JUMPDEST CALLVALUE DUP1 ISZERO PUSH2 0x66C JUMPI PUSH0 DUP1 REVERT JUMPDEST POP PUSH2 0x2BF PUSH2 0x67B CALLDATASIZE PUSH1 0x4 PUSH2 0x2BFC JUMP JUMPDEST PUSH1 0x1 PUSH1 0x20 SWAP1 DUP2 MSTORE PUSH0 SWAP3 DUP4 MSTORE PUSH1 0x40 DUP1 DUP5 KECCAK256 SWAP1 SWAP2 MSTORE SWAP1 DUP3 MSTORE SWAP1 KECCAK256 SLOAD DUP2 JUMP JUMPDEST CALLVALUE DUP1 ISZERO PUSH2 0x6A2 JUMPI PUSH0 DUP1 REVERT JUMPDEST POP PUSH1 0x5 SLOAD PUSH2 0x2BF JUMP JUMPDEST CALLVALUE DUP1 ISZERO PUSH2 0x6B6 JUMPI PUSH0 DUP1 REVERT JUMPDEST POP PUSH2 0x2BF PUSH1 0x6 SLOAD DUP2 JUMP JUMPDEST CALLVALUE DUP1 ISZERO PUSH2 0x6CB JUMPI PUSH0 DUP1 REVERT JUMPDEST POP PUSH2 0x2BF PUSH1 0x5 SLOAD DUP2 JUMP JUMPDEST CALLVALUE DUP1 ISZERO PUSH2 0x6E0 JUMPI PUSH0 DUP1 REVERT JUMPDEST POP PUSH2 0x705 PUSH1 0x40 MLOAD DUP1 PUSH1 0x40 ADD PUSH1 0x40 MSTORE DUP1 PUSH1 0x5 DUP2 MSTORE PUSH1 0x20 ADD PUSH5 0x352E302E3 PUSH1 0xDC SHL DUP2 MSTORE POP DUP2 JUMP JUMPDEST PUSH1 0x40 MLOAD PUSH2 0x2A1 SWAP2 SWAP1 PUSH2 0x2C2A JUMP JUMPDEST CALLVALUE DUP1 ISZERO PUSH2 0x71D JUMPI PUSH0 DUP1 REVERT JUMPDEST POP PUSH2 0x2BF PUSH2 0x72C CALLDATASIZE PUSH1 0x4 PUSH2 0x2BFC JUMP JUMPDEST PUSH2 0x1E47 JUMP JUMPDEST CALLVALUE DUP1 ISZERO PUSH2 0x73C JUMPI PUSH0 DUP1 REVERT JUMPDEST POP PUSH2 0x2EC PUSH2 0x74B CALLDATASIZE PUSH1 0x4 PUSH2 0x29FB JUMP JUMPDEST PUSH2 0x1E70 JUMP JUMPDEST CALLVALUE DUP1 ISZERO PUSH2 0x75B JUMPI PUSH0 DUP1 REVERT JUMPDEST POP PUSH2 0x76F PUSH2 0x76A CALLDATASIZE PUSH1 0x4 PUSH2 0x28F3 JUMP JUMPDEST PUSH2 0x1FA8 JUMP JUMPDEST PUSH1 0x40 MLOAD PUSH2 0x2A1 SWAP12 SWAP11 SWAP10 SWAP9 SWAP8 SWAP7 SWAP6 SWAP5 SWAP4 SWAP3 SWAP2 SWAP1 PUSH2 0x2C7E JUMP JUMPDEST CALLVALUE DUP1 ISZERO PUSH2 0x791 JUMPI PUSH0 DUP1 REVERT JUMPDEST POP PUSH1 0x6 SLOAD PUSH2 0x2BF JUMP JUMPDEST CALLVALUE DUP1 ISZERO PUSH2 0x7A5 JUMPI PUSH0 DUP1 REVERT JUMPDEST POP PUSH2 0x2BF PUSH1 0x8 SLOAD DUP2 JUMP JUMPDEST CALLVALUE DUP1 ISZERO PUSH2 0x7BA JUMPI PUSH0 DUP1 REVERT JUMPDEST POP PUSH2 0x806 PUSH2 0x7C9 CALLDATASIZE PUSH1 0x4 PUSH2 0x28F3 JUMP JUMPDEST PUSH1 0x3 PUSH1 0x20 DUP2 SWAP1 MSTORE PUSH0 SWAP2 DUP3 MSTORE PUSH1 0x40 SWAP1 SWAP2 KECCAK256 DUP1 SLOAD PUSH1 0x1 DUP3 ADD SLOAD PUSH1 0x2 DUP4 ADD SLOAD SWAP4 DUP4 ADD SLOAD PUSH1 0x4 DUP5 ADD SLOAD PUSH1 0x5 SWAP1 SWAP5 ADD SLOAD SWAP3 SWAP5 PUSH1 0xFF SWAP3 DUP4 AND SWAP5 SWAP1 SWAP4 SWAP2 SWAP3 SWAP1 SWAP2 AND DUP7 JUMP JUMPDEST PUSH1 0x40 MLOAD PUSH2 0x2A1 SWAP7 SWAP6 SWAP5 SWAP4 SWAP3 SWAP2 SWAP1 PUSH2 0x2D18 JUMP JUMPDEST CALLVALUE DUP1 ISZERO PUSH2 0x823 JUMPI PUSH0 DUP1 REVERT JUMPDEST POP PUSH2 0x2EC PUSH2 0x832 CALLDATASIZE PUSH1 0x4 PUSH2 0x29FB JUMP JUMPDEST PUSH2 0x223C JUMP JUMPDEST CALLVALUE DUP1 ISZERO PUSH2 0x842 JUMPI PUSH0 DUP1 REVERT JUMPDEST POP PUSH1 0x4 SLOAD PUSH2 0x2BF JUMP JUMPDEST PUSH1 0x2 PUSH1 0x20 DUP2 SWAP1 MSTORE PUSH0 SWAP2 DUP3 MSTORE PUSH1 0x40 SWAP1 SWAP2 KECCAK256 DUP1 SLOAD PUSH1 0x1 DUP3 ADD SLOAD SWAP3 DUP3 ADD SLOAD PUSH1 0x3 DUP4 ADD DUP1 SLOAD PUSH1 0x1 PUSH1 0x1 PUSH1 0xA0 SHL SUB SWAP1 SWAP4 AND SWAP5 SWAP4 SWAP2 SWAP3 PUSH2 0x884 SWAP1 PUSH2 0x2D5F JUMP JUMPDEST DUP1 PUSH1 0x1F ADD PUSH1 0x20 DUP1 SWAP2 DIV MUL PUSH1 0x20 ADD PUSH1 0x40 MLOAD SWAP1 DUP2 ADD PUSH1 0x40 MSTORE DUP1 SWAP3 SWAP2 SWAP1 DUP2 DUP2 MSTORE PUSH1 0x20 ADD DUP3 DUP1 SLOAD PUSH2 0x8B0 SWAP1 PUSH2 0x2D5F JUMP JUMPDEST DUP1 ISZERO PUSH2 0x8FB JUMPI DUP1 PUSH1 0x1F LT PUSH2 0x8D2 JUMPI PUSH2 0x100 DUP1 DUP4 SLOAD DIV MUL DUP4 MSTORE SWAP2 PUSH1 0x20 ADD SWAP2 PUSH2 0x8FB JUMP JUMPDEST DUP3 ADD SWAP2 SWAP1 PUSH0 MSTORE PUSH1 0x20 PUSH0 KECCAK256 SWAP1 JUMPDEST DUP2 SLOAD DUP2 MSTORE SWAP1 PUSH1 0x1 ADD SWAP1 PUSH1 0x20 ADD DUP1 DUP4 GT PUSH2 0x8DE JUMPI DUP3 SWAP1 SUB PUSH1 0x1F AND DUP3 ADD SWAP2 JUMPDEST POP POP POP POP PUSH1 0x4 DUP4 ADD SLOAD PUSH1 0x5 DUP5 ADD SLOAD PUSH1 0x6 DUP6 ADD SLOAD PUSH1 0x7 DUP7 ADD SLOAD PUSH1 0x8 SWAP1 SWAP7 ADD SLOAD SWAP5 SWAP6 PUSH1 0x1 PUSH1 0x1 PUSH1 0xA0 SHL SUB SWAP1 SWAP4 AND SWAP5 SWAP2 SWAP4 POP SWAP2 PUSH1 0xFF AND SWAP1 DUP10 JUMP JUMPDEST PUSH2 0x93A PUSH2 0x2276 JUMP JUMPDEST CALLER PUSH0 SWAP1 DUP2 MSTORE PUSH1 0x20 DUP2 SWAP1 MSTORE PUSH1 0x40 DUP2 KECCAK256 PUSH1 0x1 ADD SLOAD SWAP1 SUB PUSH2 0xA0A JUMPI CALLER PUSH0 SWAP1 DUP2 MSTORE PUSH1 0x20 DUP2 SWAP1 MSTORE PUSH1 0x40 SWAP1 KECCAK256 PUSH1 0x2 ADD SLOAD ISZERO PUSH2 0x9C2 JUMPI PUSH1 0x40 MLOAD PUSH3 0x461BCD PUSH1 0xE5 SHL DUP2 MSTORE PUSH1 0x20 PUSH1 0x4 DUP3 ADD MSTORE PUSH1 0x23 PUSH1 0x24 DUP3 ADD MSTORE PUSH32 0x5468652063726F7766756E64696E67206973206E6F742066696E697368656420 PUSH1 0x44 DUP3 ADD MSTORE PUSH3 0x1E595D PUSH1 0xEA SHL PUSH1 0x64 DUP3 ADD MSTORE PUSH1 0x84 ADD JUMPDEST PUSH1 0x40 MLOAD DUP1 SWAP2 SUB SWAP1 REVERT JUMPDEST PUSH1 0x40 MLOAD PUSH3 0x461BCD PUSH1 0xE5 SHL DUP2 MSTORE PUSH1 0x20 PUSH1 0x4 DUP3 ADD MSTORE PUSH1 0x1D PUSH1 0x24 DUP3 ADD MSTORE PUSH32 0x596F752068617665206E6F206D6F6E657920746F207769746864726177000000 PUSH1 0x44 DUP3 ADD MSTORE PUSH1 0x64 ADD PUSH2 0x9B9 JUMP JUMPDEST CALLER PUSH0 SWAP1 DUP2 MSTORE PUSH1 0x20 DUP2 SWAP1 MSTORE PUSH1 0x40 DUP1 DUP3 KECCAK256 PUSH1 0x1 ADD DUP1 SLOAD SWAP1 DUP4 SWAP1 SSTORE SWAP1 MLOAD SWAP1 SWAP2 PUSH1 0x1 PUSH1 0x1 PUSH1 0xA0 SHL SUB DUP5 AND SWAP2 DUP4 ISZERO PUSH2 0x8FC MUL SWAP2 DUP5 SWAP2 SWAP1 DUP2 DUP2 DUP2 DUP6 DUP9 DUP9 CALL SWAP4 POP POP POP POP ISZERO DUP1 ISZERO PUSH2 0xA56 JUMPI RETURNDATASIZE PUSH0 DUP1 RETURNDATACOPY RETURNDATASIZE PUSH0 REVERT JUMPDEST POP POP POP JUMP JUMPDEST PUSH2 0xA63 PUSH2 0x2276 JUMP JUMPDEST PUSH0 DUP2 DUP2 MSTORE PUSH1 0x2 PUSH1 0x20 MSTORE PUSH1 0x40 SWAP1 KECCAK256 PUSH2 0xA79 DUP2 PUSH2 0x22A6 JUMP JUMPDEST PUSH0 PUSH1 0x7 DUP3 ADD SLOAD PUSH1 0xFF AND PUSH1 0x2 DUP2 GT ISZERO PUSH2 0xA93 JUMPI PUSH2 0xA93 PUSH2 0x2957 JUMP JUMPDEST EQ DUP1 PUSH2 0xAB7 JUMPI POP PUSH1 0x1 PUSH1 0x7 DUP3 ADD SLOAD PUSH1 0xFF AND PUSH1 0x2 DUP2 GT ISZERO PUSH2 0xAB5 JUMPI PUSH2 0xAB5 PUSH2 0x2957 JUMP JUMPDEST EQ JUMPDEST PUSH2 0xB3C JUMPI PUSH1 0x40 MLOAD PUSH3 0x461BCD PUSH1 0xE5 SHL DUP2 MSTORE PUSH1 0x20 PUSH1 0x4 DUP3 ADD MSTORE PUSH1 0x4A PUSH1 0x24 DUP3 ADD MSTORE PUSH32 0x5468652063616D706169676E20697320636F6D706C6574656420737563636573 PUSH1 0x44 DUP3 ADD MSTORE PUSH32 0x7366756C6C7920616E6420646F6E6174696F6E20636F756C64206E6F74206265 PUSH1 0x64 DUP3 ADD MSTORE PUSH10 0x103BB4BA34323930BBB7 PUSH1 0xB1 SHL PUSH1 0x84 DUP3 ADD MSTORE PUSH1 0xA4 ADD PUSH2 0x9B9 JUMP JUMPDEST PUSH0 DUP3 DUP2 MSTORE PUSH1 0x1 PUSH1 0x20 SWAP1 DUP2 MSTORE PUSH1 0x40 DUP1 DUP4 KECCAK256 CALLER DUP5 MSTORE SWAP1 SWAP2 MSTORE SWAP1 KECCAK256 SLOAD DUP1 PUSH2 0xBB0 JUMPI PUSH1 0x40 MLOAD PUSH3 0x461BCD PUSH1 0xE5 SHL DUP2 MSTORE PUSH1 0x20 PUSH1 0x4 DUP3 ADD MSTORE PUSH1 0x25 PUSH1 0x24 DUP3 ADD MSTORE PUSH32 0x596F752068617665206E6F7420646F6E6174656420746F20746869732063616D PUSH1 0x44 DUP3 ADD MSTORE PUSH5 0x3830B4B3B7 PUSH1 0xD9 SHL PUSH1 0x64 DUP3 ADD MSTORE PUSH1 0x84 ADD PUSH2 0x9B9 JUMP JUMPDEST CALLER PUSH0 SWAP1 DUP2 MSTORE PUSH1 0x20 DUP2 SWAP1 MSTORE PUSH1 0x40 DUP2 KECCAK256 PUSH1 0x1 ADD DUP1 SLOAD DUP4 SWAP3 SWAP1 PUSH2 0xBD1 SWAP1 DUP5 SWAP1 PUSH2 0x2DAB JUMP JUMPDEST SWAP1 SWAP2 SSTORE POP POP CALLER PUSH0 SWAP1 DUP2 MSTORE PUSH1 0x20 DUP2 SWAP1 MSTORE PUSH1 0x40 DUP2 KECCAK256 PUSH1 0x2 ADD DUP1 SLOAD DUP4 SWAP3 SWAP1 PUSH2 0xBF7 SWAP1 DUP5 SWAP1 PUSH2 0x2DBE JUMP JUMPDEST SWAP3 POP POP DUP2 SWAP1 SSTORE POP DUP1 DUP3 PUSH1 0x6 ADD PUSH0 DUP3 DUP3 SLOAD PUSH2 0xC11 SWAP2 SWAP1 PUSH2 0x2DBE JUMP JUMPDEST SWAP3 POP POP DUP2 SWAP1 SSTORE POP PUSH1 0x1 DUP3 PUSH1 0x8 ADD PUSH0 DUP3 DUP3 SLOAD PUSH2 0xC2C SWAP2 SWAP1 PUSH2 0x2DBE JUMP JUMPDEST SWAP1 SWAP2 SSTORE POP POP POP PUSH0 SWAP2 DUP3 MSTORE POP PUSH1 0x1 PUSH1 0x20 SWAP1 DUP2 MSTORE PUSH1 0x40 DUP1 DUP4 KECCAK256 CALLER DUP5 MSTORE SWAP1 SWAP2 MSTORE DUP2 KECCAK256 SSTORE JUMP JUMPDEST PUSH0 DUP2 DUP2 MSTORE PUSH1 0x3 PUSH1 0x20 DUP2 SWAP1 MSTORE PUSH1 0x40 DUP3 KECCAK256 DUP1 SLOAD PUSH1 0x1 SWAP1 SWAP2 ADD SLOAD SWAP1 SWAP3 PUSH1 0x60 SWAP3 SWAP1 SWAP2 DUP3 SWAP2 DUP3 SWAP2 DUP6 SWAP2 DUP4 SWAP2 PUSH1 0xFF AND SWAP1 DUP2 GT ISZERO PUSH2 0xC87 JUMPI PUSH2 0xC87 PUSH2 0x2957 JUMP JUMPDEST SUB PUSH2 0xCBF JUMPI PUSH1 0x40 MLOAD DUP1 PUSH1 0x40 ADD PUSH1 0x40 MSTORE DUP1 PUSH1 0x13 DUP2 MSTORE PUSH1 0x20 ADD PUSH19 0x26B4B734B6BAB6A1B7B73A3934B13ABA34B7B7 PUSH1 0x69 SHL DUP2 MSTORE POP SWAP5 POP PUSH2 0xDC9 JUMP JUMPDEST PUSH1 0x1 PUSH0 DUP9 DUP2 MSTORE PUSH1 0x3 PUSH1 0x20 DUP2 SWAP1 MSTORE PUSH1 0x40 SWAP1 SWAP2 KECCAK256 PUSH1 0x1 ADD SLOAD PUSH1 0xFF AND SWAP1 DUP2 GT ISZERO PUSH2 0xCE8 JUMPI PUSH2 0xCE8 PUSH2 0x2957 JUMP JUMPDEST SUB PUSH2 0xD19 JUMPI PUSH1 0x40 MLOAD DUP1 PUSH1 0x40 ADD PUSH1 0x40 MSTORE DUP1 PUSH1 0xC DUP2 MSTORE PUSH1 0x20 ADD PUSH12 0x46726F7A656E456C61707365 PUSH1 0xA0 SHL DUP2 MSTORE POP SWAP5 POP PUSH2 0xDC9 JUMP JUMPDEST PUSH1 0x2 PUSH0 DUP9 DUP2 MSTORE PUSH1 0x3 PUSH1 0x20 DUP2 SWAP1 MSTORE PUSH1 0x40 SWAP1 SWAP2 KECCAK256 PUSH1 0x1 ADD SLOAD PUSH1 0xFF AND SWAP1 DUP2 GT ISZERO PUSH2 0xD42 JUMPI PUSH2 0xD42 PUSH2 0x2957 JUMP JUMPDEST SUB PUSH2 0xD75 JUMPI PUSH1 0x40 MLOAD DUP1 PUSH1 0x40 ADD PUSH1 0x40 MSTORE DUP1 PUSH1 0xE DUP2 MSTORE PUSH1 0x20 ADD PUSH14 0x86C2DAE0C2D2CEDC98CADCCEE8D PUSH1 0x93 SHL DUP2 MSTORE POP SWAP5 POP PUSH2 0xDC9 JUMP JUMPDEST PUSH0 DUP8 DUP2 MSTORE PUSH1 0x3 PUSH1 0x20 DUP2 SWAP1 MSTORE PUSH1 0x40 SWAP1 SWAP2 KECCAK256 PUSH1 0x1 ADD SLOAD PUSH1 0xFF AND DUP2 DUP2 GT ISZERO PUSH2 0xD9C JUMPI PUSH2 0xD9C PUSH2 0x2957 JUMP JUMPDEST SUB PUSH2 0xDC9 JUMPI PUSH1 0x40 MLOAD DUP1 PUSH1 0x40 ADD PUSH1 0x40 MSTORE DUP1 PUSH1 0xC DUP2 MSTORE PUSH1 0x20 ADD PUSH12 0xACDEE8D2DCCE98CADCCEE8D PUSH1 0xA3 SHL DUP2 MSTORE POP SWAP5 POP JUMPDEST PUSH0 DUP8 DUP2 MSTORE PUSH1 0x3 PUSH1 0x20 DUP2 SWAP1 MSTORE PUSH1 0x40 DUP3 KECCAK256 PUSH1 0x2 DUP2 ADD SLOAD SWAP2 DUP2 ADD SLOAD PUSH1 0x4 DUP3 ADD SLOAD PUSH1 0x5 SWAP1 SWAP3 ADD SLOAD SWAP3 SWAP8 POP SWAP6 POP SWAP4 POP PUSH1 0xFF AND SWAP1 DUP2 PUSH1 0x2 DUP2 GT ISZERO PUSH2 0xE09 JUMPI PUSH2 0xE09 PUSH2 0x2957 JUMP JUMPDEST SUB PUSH2 0xE34 JUMPI PUSH1 0x40 MLOAD DUP1 PUSH1 0x40 ADD PUSH1 0x40 MSTORE DUP1 PUSH1 0x6 DUP2 MSTORE PUSH1 0x20 ADD PUSH6 0x416374697665 PUSH1 0xD0 SHL DUP2 MSTORE POP SWAP2 POP PUSH2 0xE99 JUMP JUMPDEST PUSH1 0x1 DUP2 PUSH1 0x2 DUP2 GT ISZERO PUSH2 0xE48 JUMPI PUSH2 0xE48 PUSH2 0x2957 JUMP JUMPDEST SUB PUSH2 0xE74 JUMPI PUSH1 0x40 MLOAD DUP1 PUSH1 0x40 ADD PUSH1 0x40 MSTORE DUP1 PUSH1 0x7 DUP2 MSTORE PUSH1 0x20 ADD PUSH7 0x115E1C1A5C9959 PUSH1 0xCA SHL DUP2 MSTORE POP SWAP2 POP PUSH2 0xE99 JUMP JUMPDEST PUSH1 0x40 MLOAD DUP1 PUSH1 0x40 ADD PUSH1 0x40 MSTORE DUP1 PUSH1 0x9 DUP2 MSTORE PUSH1 0x20 ADD PUSH9 0x10DBDB5C1B195D1959 PUSH1 0xBA SHL DUP2 MSTORE POP SWAP2 POP JUMPDEST POP SWAP2 SWAP4 SWAP6 POP SWAP2 SWAP4 SWAP6 JUMP JUMPDEST PUSH2 0xEAB PUSH2 0x2303 JUMP JUMPDEST PUSH2 0xEB3 PUSH2 0x234B JUMP JUMPDEST JUMP JUMPDEST CALLER PUSH0 DUP2 DUP2 MSTORE PUSH1 0x20 DUP2 SWAP1 MSTORE PUSH1 0x40 DUP2 KECCAK256 PUSH1 0x2 DUP2 ADD SLOAD PUSH1 0x1 SWAP1 SWAP2 ADD SLOAD PUSH2 0xED8 SWAP2 SWAP1 PUSH2 0x2DAB JUMP JUMPDEST GT PUSH2 0xEF5 JUMPI PUSH1 0x40 MLOAD PUSH3 0x461BCD PUSH1 0xE5 SHL DUP2 MSTORE PUSH1 0x4 ADD PUSH2 0x9B9 SWAP1 PUSH2 0x2DD1 JUMP JUMPDEST PUSH0 DUP3 DUP2 MSTORE PUSH1 0x3 PUSH1 0x20 MSTORE PUSH1 0x40 SWAP1 KECCAK256 PUSH2 0xF0B DUP2 PUSH2 0x23AA JUMP JUMPDEST PUSH0 PUSH1 0x5 DUP3 ADD SLOAD PUSH1 0xFF AND PUSH1 0x2 DUP2 GT ISZERO PUSH2 0xF25 JUMPI PUSH2 0xF25 PUSH2 0x2957 JUMP JUMPDEST EQ PUSH2 0xF72 JUMPI PUSH1 0x40 MLOAD PUSH3 0x461BCD PUSH1 0xE5 SHL DUP2 MSTORE PUSH1 0x20 PUSH1 0x4 DUP3 ADD MSTORE PUSH1 0x1A PUSH1 0x24 DUP3 ADD MSTORE PUSH32 0x546865206465636973696F6E206973206E6F7420616374697665000000000000 PUSH1 0x44 DUP3 ADD MSTORE PUSH1 0x64 ADD PUSH2 0x9B9 JUMP JUMPDEST PUSH2 0xF7D PUSH1 0x2 SELFBALANCE PUSH2 0x2E16 JUMP JUMPDEST PUSH2 0xF88 SWAP1 PUSH1 0x1 PUSH2 0x2DAB JUMP JUMPDEST DUP2 PUSH1 0x4 ADD SLOAD LT ISZERO PUSH2 0xFEC JUMPI PUSH1 0x40 MLOAD PUSH3 0x461BCD PUSH1 0xE5 SHL DUP2 MSTORE PUSH1 0x20 PUSH1 0x4 DUP3 ADD MSTORE PUSH1 0x28 PUSH1 0x24 DUP3 ADD MSTORE PUSH32 0x546865206465636973696F6E20646F6573206E6F742068617665206F76657220 PUSH1 0x44 DUP3 ADD MSTORE PUSH8 0x35302520766F7465 PUSH1 0xC0 SHL PUSH1 0x64 DUP3 ADD MSTORE PUSH1 0x84 ADD PUSH2 0x9B9 JUMP JUMPDEST PUSH0 PUSH1 0x1 DUP3 ADD SLOAD PUSH1 0xFF AND PUSH1 0x3 DUP2 GT ISZERO PUSH2 0x1006 JUMPI PUSH2 0x1006 PUSH2 0x2957 JUMP JUMPDEST SUB PUSH2 0x1018 JUMPI PUSH1 0x2 DUP2 ADD SLOAD PUSH1 0x4 SSTORE PUSH2 0x109A JUMP JUMPDEST PUSH1 0x1 DUP1 DUP3 ADD SLOAD PUSH1 0xFF AND PUSH1 0x3 DUP2 GT ISZERO PUSH2 0x1032 JUMPI PUSH2 0x1032 PUSH2 0x2957 JUMP JUMPDEST SUB PUSH2 0x1044 JUMPI PUSH1 0x2 DUP2 ADD SLOAD PUSH1 0x5 SSTORE PUSH2 0x109A JUMP JUMPDEST PUSH1 0x2 PUSH1 0x1 DUP3 ADD SLOAD PUSH1 0xFF AND PUSH1 0x3 DUP2 GT ISZERO PUSH2 0x105F JUMPI PUSH2 0x105F PUSH2 0x2957 JUMP JUMPDEST SUB PUSH2 0x1071 JUMPI PUSH1 0x2 DUP2 ADD SLOAD PUSH1 0x6 SSTORE PUSH2 0x109A JUMP JUMPDEST PUSH1 0x3 PUSH1 0x1 DUP3 ADD SLOAD PUSH1 0xFF AND PUSH1 0x3 DUP2 GT ISZERO PUSH2 0x108C JUMPI PUSH2 0x108C PUSH2 0x2957 JUMP JUMPDEST SUB PUSH2 0x109A JUMPI PUSH1 0x2 DUP2 ADD SLOAD PUSH1 0x9 SSTORE JUMPDEST PUSH1 0x5 ADD DUP1 SLOAD PUSH1 0xFF NOT AND PUSH1 0x2 OR SWAP1 SSTORE POP POP JUMP JUMPDEST PUSH2 0x10B4 PUSH2 0x2276 JUMP JUMPDEST PUSH0 DUP2 DUP2 MSTORE PUSH1 0x2 PUSH1 0x20 MSTORE PUSH1 0x40 SWAP1 KECCAK256 DUP1 SLOAD PUSH1 0x1 PUSH1 0x1 PUSH1 0xA0 SHL SUB AND CALLER EQ PUSH2 0x10EA JUMPI PUSH1 0x40 MLOAD PUSH3 0x461BCD PUSH1 0xE5 SHL DUP2 MSTORE PUSH1 0x4 ADD PUSH2 0x9B9 SWAP1 PUSH2 0x2E35 JUMP JUMPDEST PUSH2 0x10F3 DUP2 PUSH2 0x22A6 JUMP JUMPDEST PUSH0 PUSH1 0x7 DUP3 ADD SLOAD PUSH1 0xFF AND PUSH1 0x2 DUP2 GT ISZERO PUSH2 0x110D JUMPI PUSH2 0x110D PUSH2 0x2957 JUMP JUMPDEST EQ PUSH2 0x1175 JUMPI PUSH1 0x40 MLOAD PUSH3 0x461BCD PUSH1 0xE5 SHL DUP2 MSTORE PUSH1 0x20 PUSH1 0x4 DUP3 ADD MSTORE PUSH1 0x32 PUSH1 0x24 DUP3 ADD MSTORE PUSH32 0x5468652063616D706169676E206973206E6F74206163746976652E20436F756C PUSH1 0x44 DUP3 ADD MSTORE PUSH18 0x19081B9BDD0818994818D85B98D95B1B1959 PUSH1 0x72 SHL PUSH1 0x64 DUP3 ADD MSTORE PUSH1 0x84 ADD PUSH2 0x9B9 JUMP JUMPDEST PUSH1 0x7 DUP2 ADD DUP1 SLOAD PUSH1 0xFF NOT AND PUSH1 0x1 OR SWAP1 SSTORE PUSH0 JUMPDEST PUSH1 0x9 DUP3 ADD SLOAD DUP2 LT ISZERO PUSH2 0x1280 JUMPI PUSH0 DUP3 PUSH1 0x9 ADD DUP3 DUP2 SLOAD DUP2 LT PUSH2 0x11A8 JUMPI PUSH2 0x11A8 PUSH2 0x2E80 JUMP JUMPDEST PUSH0 SWAP2 DUP3 MSTORE PUSH1 0x20 DUP1 DUP4 KECCAK256 SWAP1 SWAP2 ADD SLOAD DUP7 DUP4 MSTORE PUSH1 0x1 DUP3 MSTORE PUSH1 0x40 DUP1 DUP5 KECCAK256 PUSH1 0x1 PUSH1 0x1 PUSH1 0xA0 SHL SUB SWAP1 SWAP3 AND DUP1 DUP6 MSTORE SWAP2 SWAP1 SWAP3 MSTORE SWAP2 KECCAK256 SLOAD SWAP1 SWAP2 POP DUP1 ISZERO PUSH2 0x1264 JUMPI PUSH1 0x1 PUSH1 0x1 PUSH1 0xA0 SHL SUB DUP3 AND PUSH0 SWAP1 DUP2 MSTORE PUSH1 0x20 DUP2 SWAP1 MSTORE PUSH1 0x40 DUP2 KECCAK256 PUSH1 0x1 ADD DUP1 SLOAD DUP4 SWAP3 SWAP1 PUSH2 0x1209 SWAP1 DUP5 SWAP1 PUSH2 0x2DAB JUMP JUMPDEST SWAP1 SWAP2 SSTORE POP POP PUSH1 0x1 PUSH1 0x1 PUSH1 0xA0 SHL SUB DUP3 AND PUSH0 SWAP1 DUP2 MSTORE PUSH1 0x20 DUP2 SWAP1 MSTORE PUSH1 0x40 DUP2 KECCAK256 PUSH1 0x2 ADD DUP1 SLOAD DUP4 SWAP3 SWAP1 PUSH2 0x1238 SWAP1 DUP5 SWAP1 PUSH2 0x2DBE JUMP JUMPDEST SWAP1 SWAP2 SSTORE POP POP PUSH0 DUP6 DUP2 MSTORE PUSH1 0x1 PUSH1 0x20 SWAP1 DUP2 MSTORE PUSH1 0x40 DUP1 DUP4 KECCAK256 PUSH1 0x1 PUSH1 0x1 PUSH1 0xA0 SHL SUB DUP7 AND DUP5 MSTORE SWAP1 SWAP2 MSTORE DUP2 KECCAK256 SSTORE PUSH2 0x126B JUMP JUMPDEST POP POP PUSH2 0x126E JUMP JUMPDEST POP POP JUMPDEST DUP1 PUSH2 0x1278 DUP2 PUSH2 0x2E94 JUMP JUMPDEST SWAP2 POP POP PUSH2 0x1186 JUMP JUMPDEST POP PUSH0 PUSH1 0x6 DUP3 ADD DUP2 SWAP1 SSTORE PUSH1 0x8 SWAP1 SWAP2 ADD SSTORE POP JUMP JUMPDEST PUSH2 0x129A PUSH2 0x2276 JUMP JUMPDEST PUSH1 0x4 SLOAD CALLVALUE LT ISZERO PUSH2 0x12EC JUMPI PUSH1 0x40 MLOAD PUSH3 0x461BCD PUSH1 0xE5 SHL DUP2 MSTORE PUSH1 0x20 PUSH1 0x4 DUP3 ADD MSTORE PUSH1 0x1B PUSH1 0x24 DUP3 ADD MSTORE PUSH32 0x4D696E696D756D20646F6E6174696F6E206973206E6F74206D65740000000000 PUSH1 0x44 DUP3 ADD MSTORE PUSH1 0x64 ADD PUSH2 0x9B9 JUMP JUMPDEST CALLER PUSH0 SWAP1 DUP2 MSTORE PUSH1 0x20 DUP2 SWAP1 MSTORE PUSH1 0x40 DUP2 KECCAK256 TIMESTAMP DUP2 SSTORE PUSH1 0x1 ADD DUP1 SLOAD CALLVALUE SWAP3 SWAP1 PUSH2 0x1310 SWAP1 DUP5 SWAP1 PUSH2 0x2DAB JUMP JUMPDEST SWAP1 SWAP2 SSTORE POP POP JUMP JUMPDEST PUSH2 0x131F PUSH2 0x2403 JUMP JUMPDEST PUSH2 0x1328 DUP3 PUSH2 0x24A7 JUMP JUMPDEST PUSH2 0x1332 DUP3 DUP3 PUSH2 0x24AF JUMP JUMPDEST POP POP JUMP JUMPDEST PUSH0 PUSH2 0x133F PUSH2 0x256B JUMP JUMPDEST POP PUSH0 DUP1 MLOAD PUSH1 0x20 PUSH2 0x3062 DUP4 CODECOPY DUP2 MLOAD SWAP2 MSTORE SWAP1 JUMP JUMPDEST PUSH2 0x1359 PUSH2 0x2276 JUMP JUMPDEST PUSH0 DUP2 DUP2 MSTORE PUSH1 0x2 PUSH1 0x20 MSTORE PUSH1 0x40 SWAP1 KECCAK256 DUP1 SLOAD PUSH1 0x1 PUSH1 0x1 PUSH1 0xA0 SHL SUB AND CALLER EQ PUSH2 0x138F JUMPI PUSH1 0x40 MLOAD PUSH3 0x461BCD PUSH1 0xE5 SHL DUP2 MSTORE PUSH1 0x4 ADD PUSH2 0x9B9 SWAP1 PUSH2 0x2E35 JUMP JUMPDEST PUSH2 0x1398 DUP2 PUSH2 0x22A6 JUMP JUMPDEST PUSH0 PUSH1 0x7 DUP3 ADD SLOAD PUSH1 0xFF AND PUSH1 0x2 DUP2 GT ISZERO PUSH2 0x13B2 JUMPI PUSH2 0x13B2 PUSH2 0x2957 JUMP JUMPDEST EQ PUSH2 0x1417 JUMPI PUSH1 0x40 MLOAD PUSH3 0x461BCD PUSH1 0xE5 SHL DUP2 MSTORE PUSH1 0x20 PUSH1 0x4 DUP3 ADD MSTORE PUSH1 0x2F PUSH1 0x24 DUP3 ADD MSTORE PUSH32 0x5468652063616D706169676E206973206E6F74206163746976652E20436F756C PUSH1 0x44 DUP3 ADD MSTORE PUSH15 0x19081B9BDD0818994818DB1BDCD959 PUSH1 0x8A SHL PUSH1 0x64 DUP3 ADD MSTORE PUSH1 0x84 ADD PUSH2 0x9B9 JUMP JUMPDEST DUP1 PUSH1 0x5 ADD SLOAD DUP2 PUSH1 0x6 ADD SLOAD LT ISZERO PUSH2 0x147F JUMPI PUSH1 0x40 MLOAD PUSH3 0x461BCD PUSH1 0xE5 SHL DUP2 MSTORE PUSH1 0x20 PUSH1 0x4 DUP3 ADD MSTORE PUSH1 0x27 PUSH1 0x24 DUP3 ADD MSTORE PUSH32 0x5468652063616D706169676E20646F6573206E6F74206861766520656E6F7567 PUSH1 0x44 DUP3 ADD MSTORE PUSH7 0x68206D6F6E6579 PUSH1 0xC8 SHL PUSH1 0x64 DUP3 ADD MSTORE PUSH1 0x84 ADD PUSH2 0x9B9 JUMP JUMPDEST DUP1 PUSH1 0x6 ADD SLOAD SELFBALANCE LT ISZERO PUSH2 0x14E3 JUMPI PUSH1 0x40 MLOAD PUSH3 0x461BCD PUSH1 0xE5 SHL DUP2 MSTORE PUSH1 0x20 PUSH1 0x4 DUP3 ADD MSTORE PUSH1 0x27 PUSH1 0x24 DUP3 ADD MSTORE PUSH32 0x54686520636F6E747261637420646F6573206E6F74206861766520656E6F7567 PUSH1 0x44 DUP3 ADD MSTORE PUSH7 0x68206D6F6E6579 PUSH1 0xC8 SHL PUSH1 0x64 DUP3 ADD MSTORE PUSH1 0x84 ADD PUSH2 0x9B9 JUMP JUMPDEST PUSH1 0x7 DUP2 ADD DUP1 SLOAD PUSH1 0xFF NOT AND PUSH1 0x2 OR SWAP1 SSTORE PUSH0 JUMPDEST PUSH1 0x9 DUP3 ADD SLOAD DUP2 LT ISZERO PUSH2 0x15E4 JUMPI PUSH0 DUP3 PUSH1 0x9 ADD DUP3 DUP2 SLOAD DUP2 LT PUSH2 0x1516 JUMPI PUSH2 0x1516 PUSH2 0x2E80 JUMP JUMPDEST PUSH0 SWAP2 DUP3 MSTORE PUSH1 0x20 DUP1 DUP4 KECCAK256 SWAP1 SWAP2 ADD SLOAD DUP7 DUP4 MSTORE PUSH1 0x1 DUP3 MSTORE PUSH1 0x40 DUP1 DUP5 KECCAK256 PUSH1 0x1 PUSH1 0x1 PUSH1 0xA0 SHL SUB SWAP1 SWAP3 AND DUP1 DUP6 MSTORE SWAP2 SWAP1 SWAP3 MSTORE SWAP2 KECCAK256 SLOAD SWAP1 SWAP2 POP DUP1 ISZERO PUSH2 0x15C8 JUMPI PUSH1 0x1 PUSH1 0x1 PUSH1 0xA0 SHL SUB DUP3 AND PUSH0 SWAP1 DUP2 MSTORE PUSH1 0x20 DUP2 SWAP1 MSTORE PUSH1 0x40 DUP2 KECCAK256 PUSH1 0x2 ADD DUP1 SLOAD DUP4 SWAP3 SWAP1 PUSH2 0x1577 SWAP1 DUP5 SWAP1 PUSH2 0x2DBE JUMP JUMPDEST SWAP1 SWAP2 SSTORE POP POP PUSH0 DUP6 DUP2 MSTORE PUSH1 0x1 PUSH1 0x20 DUP2 DUP2 MSTORE PUSH1 0x40 DUP1 DUP5 KECCAK256 PUSH1 0x1 PUSH1 0x1 PUSH1 0xA0 SHL SUB DUP8 AND DUP1 DUP7 MSTORE SWAP1 DUP4 MSTORE SWAP1 DUP5 KECCAK256 DUP5 SWAP1 SSTORE PUSH1 0xA DUP9 ADD DUP1 SLOAD SWAP4 DUP5 ADD DUP2 SSTORE DUP5 MSTORE SWAP3 KECCAK256 ADD DUP1 SLOAD PUSH1 0x1 PUSH1 0x1 PUSH1 0xA0 SHL SUB NOT AND SWAP1 SWAP2 OR SWAP1 SSTORE PUSH2 0x15CF JUMP JUMPDEST POP POP PUSH2 0x15D2 JUMP JUMPDEST POP POP JUMPDEST DUP1 PUSH2 0x15DC DUP2 PUSH2 0x2E94 JUMP JUMPDEST SWAP2 POP POP PUSH2 0x14F4 JUMP JUMPDEST POP PUSH1 0x4 DUP2 ADD SLOAD PUSH1 0x6 DUP3 ADD SLOAD PUSH1 0x40 MLOAD PUSH1 0x1 PUSH1 0x1 PUSH1 0xA0 SHL SUB SWAP1 SWAP3 AND SWAP2 DUP2 ISZERO PUSH2 0x8FC MUL SWAP2 SWAP1 PUSH0 DUP2 DUP2 DUP2 DUP6 DUP9 DUP9 CALL SWAP4 POP POP POP POP ISZERO DUP1 ISZERO PUSH2 0xA56 JUMPI RETURNDATASIZE PUSH0 DUP1 RETURNDATACOPY RETURNDATASIZE PUSH0 REVERT JUMPDEST PUSH2 0x162A PUSH2 0x2276 JUMP JUMPDEST PUSH0 DUP2 DUP2 MSTORE PUSH1 0x2 PUSH1 0x20 MSTORE PUSH1 0x40 SWAP1 KECCAK256 PUSH2 0x1640 DUP2 PUSH2 0x22A6 JUMP JUMPDEST PUSH0 PUSH1 0x7 DUP3 ADD SLOAD PUSH1 0xFF AND PUSH1 0x2 DUP2 GT ISZERO PUSH2 0x165A JUMPI PUSH2 0x165A PUSH2 0x2957 JUMP JUMPDEST EQ PUSH2 0x16A7 JUMPI PUSH1 0x40 MLOAD PUSH3 0x461BCD PUSH1 0xE5 SHL DUP2 MSTORE PUSH1 0x20 PUSH1 0x4 DUP3 ADD MSTORE PUSH1 0x1A PUSH1 0x24 DUP3 ADD MSTORE PUSH32 0x5468652063616D706169676E206973206E6F7420616374697665000000000000 PUSH1 0x44 DUP3 ADD MSTORE PUSH1 0x64 ADD PUSH2 0x9B9 JUMP JUMPDEST CALLER PUSH0 SWAP1 DUP2 MSTORE PUSH1 0x20 DUP2 SWAP1 MSTORE PUSH1 0x40 DUP2 KECCAK256 PUSH1 0x1 ADD SLOAD SWAP1 SUB PUSH2 0x17C9 JUMPI CALLER PUSH0 SWAP1 DUP2 MSTORE PUSH1 0x20 DUP2 SWAP1 MSTORE PUSH1 0x40 SWAP1 KECCAK256 PUSH1 0x2 ADD SLOAD ISZERO PUSH2 0x1775 JUMPI PUSH1 0x40 MLOAD PUSH3 0x461BCD PUSH1 0xE5 SHL DUP2 MSTORE PUSH1 0x20 PUSH1 0x4 DUP3 ADD MSTORE PUSH1 0x62 PUSH1 0x24 DUP3 ADD MSTORE PUSH32 0x596F7520646F206E6F7420686176652062616C616E636520666F72206E657720 PUSH1 0x44 DUP3 ADD MSTORE PUSH32 0x646F6E6174696F6E2C20706C65617365207761697420666F7220746865206375 PUSH1 0x64 DUP3 ADD MSTORE PUSH32 0x7272656E74206163746976652063726F7766756E64696E6720746F2066696E69 PUSH1 0x84 DUP3 ADD MSTORE PUSH2 0xE6D PUSH1 0xF3 SHL PUSH1 0xA4 DUP3 ADD MSTORE PUSH1 0xC4 ADD PUSH2 0x9B9 JUMP JUMPDEST PUSH1 0x40 MLOAD PUSH3 0x461BCD PUSH1 0xE5 SHL DUP2 MSTORE PUSH1 0x20 PUSH1 0x4 DUP3 ADD MSTORE PUSH1 0x24 DUP1 DUP3 ADD MSTORE PUSH32 0x596F7520646F206E6F7420686176652062616C616E636520666F7220646F6E61 PUSH1 0x44 DUP3 ADD MSTORE PUSH4 0x3A34B7B7 PUSH1 0xE1 SHL PUSH1 0x64 DUP3 ADD MSTORE PUSH1 0x84 ADD PUSH2 0x9B9 JUMP JUMPDEST PUSH1 0x5 SLOAD PUSH2 0x17D7 SWAP1 PUSH1 0x1 PUSH2 0x2EAC JUMP JUMPDEST CALLER PUSH0 SWAP1 DUP2 MSTORE PUSH1 0x20 DUP2 SWAP1 MSTORE PUSH1 0x40 SWAP1 KECCAK256 SLOAD PUSH2 0x17F0 SWAP1 TIMESTAMP PUSH2 0x2DBE JUMP JUMPDEST LT ISZERO PUSH2 0x180E JUMPI PUSH1 0x40 MLOAD PUSH3 0x461BCD PUSH1 0xE5 SHL DUP2 MSTORE PUSH1 0x4 ADD PUSH2 0x9B9 SWAP1 PUSH2 0x2EC3 JUMP JUMPDEST CALLER PUSH0 SWAP1 DUP2 MSTORE PUSH1 0x20 DUP2 SWAP1 MSTORE PUSH1 0x40 DUP2 KECCAK256 PUSH1 0x1 DUP2 ADD DUP1 SLOAD SWAP1 DUP4 SWAP1 SSTORE PUSH1 0x2 SWAP1 SWAP2 ADD DUP1 SLOAD SWAP2 SWAP3 DUP4 SWAP3 PUSH2 0x183C SWAP1 DUP5 SWAP1 PUSH2 0x2DAB JUMP JUMPDEST SWAP3 POP POP DUP2 SWAP1 SSTORE POP DUP1 DUP3 PUSH1 0x6 ADD PUSH0 DUP3 DUP3 SLOAD PUSH2 0x1856 SWAP2 SWAP1 PUSH2 0x2DAB JUMP JUMPDEST SWAP1 SWAP2 SSTORE POP POP PUSH0 DUP4 DUP2 MSTORE PUSH1 0x1 PUSH1 0x20 SWAP1 DUP2 MSTORE PUSH1 0x40 DUP1 DUP4 KECCAK256 CALLER DUP5 MSTORE SWAP1 SWAP2 MSTORE DUP2 KECCAK256 SLOAD SWAP1 SUB PUSH2 0x18BA JUMPI PUSH1 0x1 DUP3 PUSH1 0x8 ADD PUSH0 DUP3 DUP3 SLOAD PUSH2 0x188E SWAP2 SWAP1 PUSH2 0x2DAB JUMP JUMPDEST SWAP1 SWAP2 SSTORE POP POP PUSH1 0x9 DUP3 ADD DUP1 SLOAD PUSH1 0x1 DUP2 ADD DUP3 SSTORE PUSH0 SWAP2 DUP3 MSTORE PUSH1 0x20 SWAP1 SWAP2 KECCAK256 ADD DUP1 SLOAD PUSH1 0x1 PUSH1 0x1 PUSH1 0xA0 SHL SUB NOT AND CALLER OR SWAP1 SSTORE JUMPDEST PUSH0 DUP4 DUP2 MSTORE PUSH1 0x1 PUSH1 0x20 SWAP1 DUP2 MSTORE PUSH1 0x40 DUP1 DUP4 KECCAK256 CALLER DUP5 MSTORE SWAP1 SWAP2 MSTORE DUP2 KECCAK256 DUP1 SLOAD DUP4 SWAP3 SWAP1 PUSH2 0x18E2 SWAP1 DUP5 SWAP1 PUSH2 0x2DAB JUMP JUMPDEST SWAP1 SWAP2 SSTORE POP POP POP POP POP JUMP JUMPDEST CALLER PUSH0 DUP2 DUP2 MSTORE PUSH1 0x20 DUP2 SWAP1 MSTORE PUSH1 0x40 DUP2 KECCAK256 PUSH1 0x2 DUP2 ADD SLOAD PUSH1 0x1 SWAP1 SWAP2 ADD SLOAD PUSH2 0x190F SWAP2 SWAP1 PUSH2 0x2DAB JUMP JUMPDEST GT PUSH2 0x192C JUMPI PUSH1 0x40 MLOAD PUSH3 0x461BCD PUSH1 0xE5 SHL DUP2 MSTORE PUSH1 0x4 ADD PUSH2 0x9B9 SWAP1 PUSH2 0x2DD1 JUMP JUMPDEST PUSH0 DUP3 DUP2 MSTORE PUSH1 0x3 PUSH1 0x20 MSTORE PUSH1 0x40 SWAP1 KECCAK256 PUSH2 0x1942 DUP2 PUSH2 0x23AA JUMP JUMPDEST PUSH0 PUSH1 0x5 DUP3 ADD SLOAD PUSH1 0xFF AND PUSH1 0x2 DUP2 GT ISZERO PUSH2 0x195C JUMPI PUSH2 0x195C PUSH2 0x2957 JUMP JUMPDEST EQ PUSH2 0x19A9 JUMPI PUSH1 0x40 MLOAD PUSH3 0x461BCD PUSH1 0xE5 SHL DUP2 MSTORE PUSH1 0x20 PUSH1 0x4 DUP3 ADD MSTORE PUSH1 0x1A PUSH1 0x24 DUP3 ADD MSTORE PUSH32 0x546865206465636973696F6E206973206E6F7420616374697665000000000000 PUSH1 0x44 DUP3 ADD MSTORE PUSH1 0x64 ADD PUSH2 0x9B9 JUMP JUMPDEST CALLER PUSH0 SWAP1 DUP2 MSTORE PUSH1 0x6 DUP3 ADD PUSH1 0x20 MSTORE PUSH1 0x40 SWAP1 KECCAK256 SLOAD PUSH1 0xFF AND ISZERO PUSH2 0x1A0A JUMPI PUSH1 0x40 MLOAD PUSH3 0x461BCD PUSH1 0xE5 SHL DUP2 MSTORE PUSH1 0x20 PUSH1 0x4 DUP3 ADD MSTORE PUSH1 0x1F PUSH1 0x24 DUP3 ADD MSTORE PUSH32 0x596F75206861766520766F74656420746F2074686973206465636973696F6E00 PUSH1 0x44 DUP3 ADD MSTORE PUSH1 0x64 ADD PUSH2 0x9B9 JUMP JUMPDEST PUSH1 0x5 SLOAD PUSH2 0x1A18 SWAP1 PUSH1 0x1 PUSH2 0x2EAC JUMP JUMPDEST CALLER PUSH0 SWAP1 DUP2 MSTORE PUSH1 0x20 DUP2 SWAP1 MSTORE PUSH1 0x40 SWAP1 KECCAK256 SLOAD PUSH2 0x1A31 SWAP1 TIMESTAMP PUSH2 0x2DBE JUMP JUMPDEST LT ISZERO PUSH2 0x1A4F JUMPI PUSH1 0x40 MLOAD PUSH3 0x461BCD PUSH1 0xE5 SHL DUP2 MSTORE PUSH1 0x4 ADD PUSH2 0x9B9 SWAP1 PUSH2 0x2EC3 JUMP JUMPDEST CALLER PUSH0 SWAP1 DUP2 MSTORE PUSH1 0x20 DUP2 SWAP1 MSTORE PUSH1 0x40 DUP2 KECCAK256 PUSH1 0x1 DUP2 ADD SLOAD PUSH1 0x2 SWAP1 SWAP2 ADD SLOAD PUSH2 0x1A72 SWAP2 SWAP1 PUSH2 0x2DAB JUMP JUMPDEST SWAP1 POP DUP1 DUP3 PUSH1 0x4 ADD PUSH0 DUP3 DUP3 SLOAD PUSH2 0x1A87 SWAP2 SWAP1 PUSH2 0x2DAB JUMP JUMPDEST SWAP1 SWAP2 SSTORE POP POP CALLER PUSH0 SWAP1 DUP2 MSTORE PUSH1 0x6 SWAP1 SWAP3 ADD PUSH1 0x20 MSTORE POP PUSH1 0x40 SWAP1 KECCAK256 DUP1 SLOAD PUSH1 0xFF NOT AND PUSH1 0x1 OR SWAP1 SSTORE POP POP JUMP JUMPDEST PUSH0 PUSH2 0x1AC6 PUSH0 DUP1 MLOAD PUSH1 0x20 PUSH2 0x3082 DUP4 CODECOPY DUP2 MLOAD SWAP2 MSTORE SLOAD PUSH1 0xFF AND SWAP1 JUMP JUMPDEST SWAP1 POP SWAP1 JUMP JUMPDEST PUSH2 0x1AD3 PUSH2 0x2303 JUMP JUMPDEST PUSH2 0xEB3 PUSH0 PUSH2 0x25B4 JUMP JUMPDEST PUSH2 0x1AE4 PUSH2 0x2276 JUMP JUMPDEST PUSH1 0x7 DUP1 SLOAD PUSH0 SWAP1 DUP2 MSTORE PUSH1 0x2 PUSH1 0x20 DUP2 SWAP1 MSTORE PUSH1 0x40 SWAP1 SWAP2 KECCAK256 DUP1 SLOAD PUSH1 0x1 PUSH1 0x1 PUSH1 0xA0 SHL SUB NOT AND CALLER OR DUP2 SSTORE SWAP2 SLOAD PUSH1 0x1 DUP4 ADD SSTORE TIMESTAMP SWAP1 DUP3 ADD SSTORE PUSH1 0x3 DUP2 ADD PUSH2 0x1B22 DUP6 DUP3 PUSH2 0x2F53 JUMP JUMPDEST POP PUSH1 0x4 DUP2 ADD DUP1 SLOAD PUSH1 0x1 PUSH1 0x1 PUSH1 0xA0 SHL SUB NOT AND PUSH1 0x1 PUSH1 0x1 PUSH1 0xA0 SHL SUB DUP6 AND OR SWAP1 SSTORE PUSH1 0x5 DUP2 ADD DUP3 SWAP1 SSTORE PUSH0 PUSH1 0x6 DUP3 ADD DUP2 SWAP1 SSTORE PUSH1 0x7 DUP1 DUP4 ADD DUP1 SLOAD PUSH1 0xFF NOT AND SWAP1 SSTORE PUSH1 0x8 DUP4 ADD DUP3 SWAP1 SSTORE DUP1 SLOAD SWAP2 PUSH2 0x1B6F DUP4 PUSH2 0x2E94 JUMP JUMPDEST SWAP2 SWAP1 POP SSTORE POP POP POP POP POP JUMP JUMPDEST PUSH2 0x1B82 PUSH2 0x2303 JUMP JUMPDEST PUSH2 0xEB3 PUSH2 0x2611 JUMP JUMPDEST PUSH2 0x1B92 PUSH2 0x2303 JUMP JUMPDEST PUSH2 0x1B9A PUSH2 0x2659 JUMP JUMPDEST PUSH2 0x1BA3 DUP2 PUSH2 0x223C JUMP JUMPDEST POP JUMP JUMPDEST CALLER PUSH0 DUP2 DUP2 MSTORE PUSH1 0x20 DUP2 SWAP1 MSTORE PUSH1 0x40 DUP2 KECCAK256 PUSH1 0x2 DUP2 ADD SLOAD PUSH1 0x1 SWAP1 SWAP2 ADD SLOAD PUSH2 0x1BC9 SWAP2 SWAP1 PUSH2 0x2DAB JUMP JUMPDEST GT PUSH2 0x1BE6 JUMPI PUSH1 0x40 MLOAD PUSH3 0x461BCD PUSH1 0xE5 SHL DUP2 MSTORE PUSH1 0x4 ADD PUSH2 0x9B9 SWAP1 PUSH2 0x2DD1 JUMP JUMPDEST PUSH1 0x5 SLOAD PUSH2 0x1BF4 SWAP1 PUSH1 0x1 PUSH2 0x2EAC JUMP JUMPDEST CALLER PUSH0 SWAP1 DUP2 MSTORE PUSH1 0x20 DUP2 SWAP1 MSTORE PUSH1 0x40 SWAP1 KECCAK256 SLOAD PUSH2 0x1C0D SWAP1 TIMESTAMP PUSH2 0x2DBE JUMP JUMPDEST LT ISZERO PUSH2 0x1C2B JUMPI PUSH1 0x40 MLOAD PUSH3 0x461BCD PUSH1 0xE5 SHL DUP2 MSTORE PUSH1 0x4 ADD PUSH2 0x9B9 SWAP1 PUSH2 0x2EC3 JUMP JUMPDEST PUSH1 0x8 SLOAD PUSH0 DUP2 DUP2 MSTORE PUSH1 0x3 PUSH1 0x20 SWAP1 DUP2 MSTORE PUSH1 0x40 SWAP2 DUP3 SWAP1 KECCAK256 SWAP3 DUP4 SSTORE SWAP1 MLOAD PUSH2 0x1C68 SWAP2 ADD PUSH19 0x26B4B734B6BAB6A1B7B73A3934B13ABA34B7B7 PUSH1 0x69 SHL DUP2 MSTORE PUSH1 0x13 ADD SWAP1 JUMP JUMPDEST PUSH1 0x40 MLOAD PUSH1 0x20 DUP2 DUP4 SUB SUB DUP2 MSTORE SWAP1 PUSH1 0x40 MSTORE DUP1 MLOAD SWAP1 PUSH1 0x20 ADD KECCAK256 DUP5 PUSH1 0x40 MLOAD PUSH1 0x20 ADD PUSH2 0x1C8F SWAP2 SWAP1 PUSH2 0x300F JUMP JUMPDEST PUSH1 0x40 MLOAD PUSH1 0x20 DUP2 DUP4 SUB SUB DUP2 MSTORE SWAP1 PUSH1 0x40 MSTORE DUP1 MLOAD SWAP1 PUSH1 0x20 ADD KECCAK256 SUB PUSH2 0x1CC6 JUMPI PUSH1 0x1 DUP1 DUP3 ADD DUP1 SLOAD PUSH0 SWAP3 PUSH1 0xFF NOT SWAP1 SWAP2 AND SWAP1 DUP4 JUMPDEST MUL OR SWAP1 SSTORE POP PUSH2 0x1E18 JUMP JUMPDEST PUSH1 0x40 MLOAD PUSH12 0x46726F7A656E456C61707365 PUSH1 0xA0 SHL PUSH1 0x20 DUP3 ADD MSTORE PUSH1 0x2C ADD PUSH1 0x40 MLOAD PUSH1 0x20 DUP2 DUP4 SUB SUB DUP2 MSTORE SWAP1 PUSH1 0x40 MSTORE DUP1 MLOAD SWAP1 PUSH1 0x20 ADD KECCAK256 DUP5 PUSH1 0x40 MLOAD PUSH1 0x20 ADD PUSH2 0x1D08 SWAP2 SWAP1 PUSH2 0x300F JUMP JUMPDEST PUSH1 0x40 MLOAD PUSH1 0x20 DUP2 DUP4 SUB SUB DUP2 MSTORE SWAP1 PUSH1 0x40 MSTORE DUP1 MLOAD SWAP1 PUSH1 0x20 ADD KECCAK256 SUB PUSH2 0x1D35 JUMPI PUSH1 0x1 DUP2 DUP2 ADD DUP1 SLOAD PUSH1 0xFF NOT AND DUP3 DUP1 PUSH2 0x1CBC JUMP JUMPDEST PUSH1 0x40 MLOAD PUSH14 0x86C2DAE0C2D2CEDC98CADCCEE8D PUSH1 0x93 SHL PUSH1 0x20 DUP3 ADD MSTORE PUSH1 0x2E ADD PUSH1 0x40 MLOAD PUSH1 0x20 DUP2 DUP4 SUB SUB DUP2 MSTORE SWAP1 PUSH1 0x40 MSTORE DUP1 MLOAD SWAP1 PUSH1 0x20 ADD KECCAK256 DUP5 PUSH1 0x40 MLOAD PUSH1 0x20 ADD PUSH2 0x1D79 SWAP2 SWAP1 PUSH2 0x300F JUMP JUMPDEST PUSH1 0x40 MLOAD PUSH1 0x20 DUP2 DUP4 SUB SUB DUP2 MSTORE SWAP1 PUSH1 0x40 MSTORE DUP1 MLOAD SWAP1 PUSH1 0x20 ADD KECCAK256 SUB PUSH2 0x1DAB JUMPI PUSH1 0x1 DUP1 DUP3 ADD DUP1 SLOAD PUSH1 0x2 SWAP3 PUSH1 0xFF NOT SWAP1 SWAP2 AND SWAP1 DUP4 PUSH2 0x1CBC JUMP JUMPDEST PUSH1 0x40 MLOAD PUSH12 0xACDEE8D2DCCE98CADCCEE8D PUSH1 0xA3 SHL PUSH1 0x20 DUP3 ADD MSTORE PUSH1 0x2C ADD PUSH1 0x40 MLOAD PUSH1 0x20 DUP2 DUP4 SUB SUB DUP2 MSTORE SWAP1 PUSH1 0x40 MSTORE DUP1 MLOAD SWAP1 PUSH1 0x20 ADD KECCAK256 DUP5 PUSH1 0x40 MLOAD PUSH1 0x20 ADD PUSH2 0x1DED SWAP2 SWAP1 PUSH2 0x300F JUMP JUMPDEST PUSH1 0x40 MLOAD PUSH1 0x20 DUP2 DUP4 SUB SUB DUP2 MSTORE SWAP1 PUSH1 0x40 MSTORE DUP1 MLOAD SWAP1 PUSH1 0x20 ADD KECCAK256 SUB PUSH2 0x1E18 JUMPI PUSH1 0x1 DUP2 ADD DUP1 SLOAD PUSH1 0xFF NOT AND PUSH1 0x3 OR SWAP1 SSTORE JUMPDEST PUSH1 0x2 DUP2 ADD DUP4 SWAP1 SSTORE TIMESTAMP PUSH1 0x3 DUP3 ADD SSTORE PUSH1 0x5 DUP2 ADD DUP1 SLOAD PUSH1 0xFF NOT AND SWAP1 SSTORE PUSH0 PUSH1 0x4 DUP3 ADD DUP2 SWAP1 SSTORE PUSH1 0x8 DUP1 SLOAD SWAP2 PUSH2 0x1B6F DUP4 PUSH2 0x2E94 JUMP JUMPDEST PUSH0 DUP3 DUP2 MSTORE PUSH1 0x1 PUSH1 0x20 SWAP1 DUP2 MSTORE PUSH1 0x40 DUP1 DUP4 KECCAK256 PUSH1 0x1 PUSH1 0x1 PUSH1 0xA0 SHL SUB DUP6 AND DUP5 MSTORE SWAP1 SWAP2 MSTORE SWAP1 KECCAK256 SLOAD JUMPDEST SWAP3 SWAP2 POP POP JUMP JUMPDEST PUSH32 0xF0C57E16840DF040F15088DC2F81FE391C3923BEC73E23A9662EFC9C229C6A00 DUP1 SLOAD PUSH1 0x1 PUSH1 0x40 SHL DUP2 DIV PUSH1 0xFF AND ISZERO SWAP1 PUSH8 0xFFFFFFFFFFFFFFFF AND PUSH0 DUP2 ISZERO DUP1 ISZERO PUSH2 0x1EB5 JUMPI POP DUP3 JUMPDEST SWAP1 POP PUSH0 DUP3 PUSH8 0xFFFFFFFFFFFFFFFF AND PUSH1 0x1 EQ DUP1 ISZERO PUSH2 0x1ED1 JUMPI POP ADDRESS EXTCODESIZE ISZERO JUMPDEST SWAP1 POP DUP2 ISZERO DUP1 ISZERO PUSH2 0x1EDF JUMPI POP DUP1 ISZERO JUMPDEST ISZERO PUSH2 0x1EFD JUMPI PUSH1 0x40 MLOAD PUSH4 0xF92EE8A9 PUSH1 0xE0 SHL DUP2 MSTORE PUSH1 0x4 ADD PUSH1 0x40 MLOAD DUP1 SWAP2 SUB SWAP1 REVERT JUMPDEST DUP5 SLOAD PUSH8 0xFFFFFFFFFFFFFFFF NOT AND PUSH1 0x1 OR DUP6 SSTORE DUP4 ISZERO PUSH2 0x1F27 JUMPI DUP5 SLOAD PUSH1 0xFF PUSH1 0x40 SHL NOT AND PUSH1 0x1 PUSH1 0x40 SHL OR DUP6 SSTORE JUMPDEST PUSH2 0x1F2F PUSH2 0x2688 JUMP JUMPDEST PUSH2 0x1F38 DUP7 PUSH2 0x2698 JUMP JUMPDEST PUSH2 0x1F40 PUSH2 0x26A9 JUMP JUMPDEST PUSH7 0x1902D7BB38000 PUSH1 0x4 SSTORE PUSH1 0x14 PUSH1 0x5 SSTORE PUSH1 0x7 PUSH1 0x6 DUP2 SWAP1 SSTORE PUSH1 0x9 SSTORE DUP4 ISZERO PUSH2 0x1FA0 JUMPI DUP5 SLOAD PUSH1 0xFF PUSH1 0x40 SHL NOT AND DUP6 SSTORE PUSH1 0x40 MLOAD PUSH1 0x1 DUP2 MSTORE PUSH32 0xC7F505B2F371AE2175EE4913F4499E1F2633A7B5936321EED1CDAEB6115181D2 SWAP1 PUSH1 0x20 ADD PUSH1 0x40 MLOAD DUP1 SWAP2 SUB SWAP1 LOG1 JUMPDEST POP POP POP POP POP POP JUMP JUMPDEST PUSH0 DUP2 DUP2 MSTORE PUSH1 0x2 PUSH1 0x20 DUP2 SWAP1 MSTORE PUSH1 0x40 DUP3 KECCAK256 DUP1 SLOAD PUSH1 0x1 DUP3 ADD SLOAD SWAP3 DUP3 ADD SLOAD PUSH1 0x3 SWAP1 SWAP3 ADD DUP1 SLOAD PUSH1 0x1 PUSH1 0x1 PUSH1 0xA0 SHL SUB SWAP1 SWAP3 AND SWAP5 PUSH1 0x60 SWAP3 SWAP1 SWAP2 DUP3 SWAP2 DUP3 SWAP2 DUP6 SWAP2 DUP4 SWAP2 DUP4 SWAP2 DUP3 SWAP2 SWAP1 PUSH2 0x1FF0 SWAP1 PUSH2 0x2D5F JUMP JUMPDEST DUP1 PUSH1 0x1F ADD PUSH1 0x20 DUP1 SWAP2 DIV MUL PUSH1 0x20 ADD PUSH1 0x40 MLOAD SWAP1 DUP2 ADD PUSH1 0x40 MSTORE DUP1 SWAP3 SWAP2 SWAP1 DUP2 DUP2 MSTORE PUSH1 0x20 ADD DUP3 DUP1 SLOAD PUSH2 0x201C SWAP1 PUSH2 0x2D5F JUMP JUMPDEST DUP1 ISZERO PUSH2 0x2067 JUMPI DUP1 PUSH1 0x1F LT PUSH2 0x203E JUMPI PUSH2 0x100 DUP1 DUP4 SLOAD DIV MUL DUP4 MSTORE SWAP2 PUSH1 0x20 ADD SWAP2 PUSH2 0x2067 JUMP JUMPDEST DUP3 ADD SWAP2 SWAP1 PUSH0 MSTORE PUSH1 0x20 PUSH0 KECCAK256 SWAP1 JUMPDEST DUP2 SLOAD DUP2 MSTORE SWAP1 PUSH1 0x1 ADD SWAP1 PUSH1 0x20 ADD DUP1 DUP4 GT PUSH2 0x204A JUMPI DUP3 SWAP1 SUB PUSH1 0x1F AND DUP3 ADD SWAP2 JUMPDEST POP POP POP PUSH0 DUP16 DUP2 MSTORE PUSH1 0x2 PUSH1 0x20 MSTORE PUSH1 0x40 DUP2 KECCAK256 PUSH1 0x4 DUP2 ADD SLOAD PUSH1 0x5 DUP3 ADD SLOAD PUSH1 0x6 DUP4 ADD SLOAD PUSH1 0x7 SWAP1 SWAP4 ADD SLOAD SWAP7 SWAP15 POP PUSH1 0x1 PUSH1 0x1 PUSH1 0xA0 SHL SUB SWAP1 SWAP2 AND SWAP13 POP SWAP11 POP SWAP9 POP PUSH1 0xFF SWAP1 SWAP4 AND SWAP3 SWAP2 POP PUSH2 0x20AF SWAP1 POP JUMP JUMPDEST DUP2 PUSH1 0x2 DUP2 GT ISZERO PUSH2 0x20C1 JUMPI PUSH2 0x20C1 PUSH2 0x2957 JUMP JUMPDEST SUB PUSH2 0x20EC JUMPI PUSH1 0x40 MLOAD DUP1 PUSH1 0x40 ADD PUSH1 0x40 MSTORE DUP1 PUSH1 0x6 DUP2 MSTORE PUSH1 0x20 ADD PUSH6 0x416374697665 PUSH1 0xD0 SHL DUP2 MSTORE POP SWAP5 POP PUSH2 0x2151 JUMP JUMPDEST PUSH1 0x1 DUP2 PUSH1 0x2 DUP2 GT ISZERO PUSH2 0x2100 JUMPI PUSH2 0x2100 PUSH2 0x2957 JUMP JUMPDEST SUB PUSH2 0x212C JUMPI PUSH1 0x40 MLOAD DUP1 PUSH1 0x40 ADD PUSH1 0x40 MSTORE DUP1 PUSH1 0x7 DUP2 MSTORE PUSH1 0x20 ADD PUSH7 0x115E1C1A5C9959 PUSH1 0xCA SHL DUP2 MSTORE POP SWAP5 POP PUSH2 0x2151 JUMP JUMPDEST PUSH1 0x40 MLOAD DUP1 PUSH1 0x40 ADD PUSH1 0x40 MSTORE DUP1 PUSH1 0x9 DUP2 MSTORE PUSH1 0x20 ADD PUSH9 0x10DBDB5C1B195D1959 PUSH1 0xBA SHL DUP2 MSTORE POP SWAP5 POP JUMPDEST PUSH0 DUP14 DUP2 MSTORE PUSH1 0x2 PUSH1 0x20 SWAP1 DUP2 MSTORE PUSH1 0x40 SWAP2 DUP3 SWAP1 KECCAK256 PUSH1 0x8 DUP2 ADD SLOAD PUSH1 0x9 SWAP1 SWAP2 ADD DUP1 SLOAD DUP5 MLOAD DUP2 DUP6 MUL DUP2 ADD DUP6 ADD SWAP1 SWAP6 MSTORE DUP1 DUP6 MSTORE SWAP2 SWAP8 POP SWAP2 DUP4 ADD DUP3 DUP3 DUP1 ISZERO PUSH2 0x21B8 JUMPI PUSH1 0x20 MUL DUP3 ADD SWAP2 SWAP1 PUSH0 MSTORE PUSH1 0x20 PUSH0 KECCAK256 SWAP1 JUMPDEST DUP2 SLOAD PUSH1 0x1 PUSH1 0x1 PUSH1 0xA0 SHL SUB AND DUP2 MSTORE PUSH1 0x1 SWAP1 SWAP2 ADD SWAP1 PUSH1 0x20 ADD DUP1 DUP4 GT PUSH2 0x219A JUMPI JUMPDEST POP POP POP POP POP SWAP3 POP PUSH1 0x2 PUSH0 DUP15 DUP2 MSTORE PUSH1 0x20 ADD SWAP1 DUP2 MSTORE PUSH1 0x20 ADD PUSH0 KECCAK256 PUSH1 0xA ADD DUP1 SLOAD DUP1 PUSH1 0x20 MUL PUSH1 0x20 ADD PUSH1 0x40 MLOAD SWAP1 DUP2 ADD PUSH1 0x40 MSTORE DUP1 SWAP3 SWAP2 SWAP1 DUP2 DUP2 MSTORE PUSH1 0x20 ADD DUP3 DUP1 SLOAD DUP1 ISZERO PUSH2 0x2225 JUMPI PUSH1 0x20 MUL DUP3 ADD SWAP2 SWAP1 PUSH0 MSTORE PUSH1 0x20 PUSH0 KECCAK256 SWAP1 JUMPDEST DUP2 SLOAD PUSH1 0x1 PUSH1 0x1 PUSH1 0xA0 SHL SUB AND DUP2 MSTORE PUSH1 0x1 SWAP1 SWAP2 ADD SWAP1 PUSH1 0x20 ADD DUP1 DUP4 GT PUSH2 0x2207 JUMPI JUMPDEST POP POP POP POP POP SWAP2 POP POP SWAP2 SWAP4 SWAP6 SWAP8 SWAP10 SWAP12 SWAP1 SWAP3 SWAP5 SWAP7 SWAP9 SWAP11 POP JUMP JUMPDEST PUSH2 0x2244 PUSH2 0x2303 JUMP JUMPDEST PUSH1 0x1 PUSH1 0x1 PUSH1 0xA0 SHL SUB DUP2 AND PUSH2 0x226D JUMPI PUSH1 0x40 MLOAD PUSH4 0x1E4FBDF7 PUSH1 0xE0 SHL DUP2 MSTORE PUSH0 PUSH1 0x4 DUP3 ADD MSTORE PUSH1 0x24 ADD PUSH2 0x9B9 JUMP JUMPDEST PUSH2 0x1BA3 DUP2 PUSH2 0x25B4 JUMP JUMPDEST PUSH0 DUP1 MLOAD PUSH1 0x20 PUSH2 0x3082 DUP4 CODECOPY DUP2 MLOAD SWAP2 MSTORE SLOAD PUSH1 0xFF AND ISZERO PUSH2 0xEB3 JUMPI PUSH1 0x40 MLOAD PUSH4 0xD93C0665 PUSH1 0xE0 SHL DUP2 MSTORE PUSH1 0x4 ADD PUSH1 0x40 MLOAD DUP1 SWAP2 SUB SWAP1 REVERT JUMPDEST PUSH0 PUSH1 0x7 DUP3 ADD SLOAD PUSH1 0xFF AND PUSH1 0x2 DUP2 GT ISZERO PUSH2 0x22C0 JUMPI PUSH2 0x22C0 PUSH2 0x2957 JUMP JUMPDEST SUB PUSH2 0x1BA3 JUMPI PUSH1 0x6 SLOAD PUSH2 0x22D5 SWAP1 PUSH3 0x15180 PUSH2 0x2EAC JUMP JUMPDEST PUSH1 0x2 DUP3 ADD SLOAD PUSH2 0x22E4 SWAP1 TIMESTAMP PUSH2 0x2DBE JUMP JUMPDEST GT ISZERO PUSH2 0x1BA3 JUMPI PUSH1 0x7 DUP2 ADD DUP1 SLOAD PUSH1 0x1 SWAP2 SWAP1 PUSH1 0xFF NOT AND DUP3 DUP1 JUMPDEST MUL OR SWAP1 SSTORE POP POP JUMP JUMPDEST CALLER PUSH2 0x2322 PUSH0 DUP1 MLOAD PUSH1 0x20 PUSH2 0x3042 DUP4 CODECOPY DUP2 MLOAD SWAP2 MSTORE SLOAD PUSH1 0x1 PUSH1 0x1 PUSH1 0xA0 SHL SUB AND SWAP1 JUMP JUMPDEST PUSH1 0x1 PUSH1 0x1 PUSH1 0xA0 SHL SUB AND EQ PUSH2 0xEB3 JUMPI PUSH1 0x40 MLOAD PUSH4 0x118CDAA7 PUSH1 0xE0 SHL DUP2 MSTORE CALLER PUSH1 0x4 DUP3 ADD MSTORE PUSH1 0x24 ADD PUSH2 0x9B9 JUMP JUMPDEST PUSH2 0x2353 PUSH2 0x2659 JUMP JUMPDEST PUSH0 DUP1 MLOAD PUSH1 0x20 PUSH2 0x3082 DUP4 CODECOPY DUP2 MLOAD SWAP2 MSTORE DUP1 SLOAD PUSH1 0xFF NOT AND DUP2 SSTORE PUSH32 0x5DB9EE0A495BF2E6FF9C91A7834C1BA4FDD244A5E8AA4E537BD38AEAE4B073AA CALLER JUMPDEST PUSH1 0x40 MLOAD PUSH1 0x1 PUSH1 0x1 PUSH1 0xA0 SHL SUB SWAP1 SWAP2 AND DUP2 MSTORE PUSH1 0x20 ADD PUSH1 0x40 MLOAD DUP1 SWAP2 SUB SWAP1 LOG1 POP JUMP JUMPDEST PUSH0 PUSH1 0x5 DUP3 ADD SLOAD PUSH1 0xFF AND PUSH1 0x2 DUP2 GT ISZERO PUSH2 0x23C4 JUMPI PUSH2 0x23C4 PUSH2 0x2957 JUMP JUMPDEST SUB PUSH2 0x1BA3 JUMPI PUSH1 0x9 SLOAD PUSH2 0x23D9 SWAP1 PUSH3 0x15180 PUSH2 0x2EAC JUMP JUMPDEST PUSH1 0x3 DUP3 ADD SLOAD PUSH2 0x23E8 SWAP1 TIMESTAMP PUSH2 0x2DBE JUMP JUMPDEST GT ISZERO PUSH2 0x1BA3 JUMPI PUSH1 0x5 DUP2 ADD DUP1 SLOAD PUSH1 0x1 SWAP2 SWAP1 PUSH1 0xFF NOT AND DUP3 DUP1 PUSH2 0x22FB JUMP JUMPDEST ADDRESS PUSH1 0x1 PUSH1 0x1 PUSH1 0xA0 SHL SUB PUSH32 0x0 AND EQ DUP1 PUSH2 0x2489 JUMPI POP PUSH32 0x0 PUSH1 0x1 PUSH1 0x1 PUSH1 0xA0 SHL SUB AND PUSH2 0x247D PUSH0 DUP1 MLOAD PUSH1 0x20 PUSH2 0x3062 DUP4 CODECOPY DUP2 MLOAD SWAP2 MSTORE SLOAD PUSH1 0x1 PUSH1 0x1 PUSH1 0xA0 SHL SUB AND SWAP1 JUMP JUMPDEST PUSH1 0x1 PUSH1 0x1 PUSH1 0xA0 SHL SUB AND EQ ISZERO JUMPDEST ISZERO PUSH2 0xEB3 JUMPI PUSH1 0x40 MLOAD PUSH4 0x703E46DD PUSH1 0xE1 SHL DUP2 MSTORE PUSH1 0x4 ADD PUSH1 0x40 MLOAD DUP1 SWAP2 SUB SWAP1 REVERT JUMPDEST PUSH2 0x1BA3 PUSH2 0x2303 JUMP JUMPDEST DUP2 PUSH1 0x1 PUSH1 0x1 PUSH1 0xA0 SHL SUB AND PUSH4 0x52D1902D PUSH1 0x40 MLOAD DUP2 PUSH4 0xFFFFFFFF AND PUSH1 0xE0 SHL DUP2 MSTORE PUSH1 0x4 ADD PUSH1 0x20 PUSH1 0x40 MLOAD DUP1 DUP4 SUB DUP2 DUP7 GAS STATICCALL SWAP3 POP POP POP DUP1 ISZERO PUSH2 0x2509 JUMPI POP PUSH1 0x40 DUP1 MLOAD PUSH1 0x1F RETURNDATASIZE SWAP1 DUP2 ADD PUSH1 0x1F NOT AND DUP3 ADD SWAP1 SWAP3 MSTORE PUSH2 0x2506 SWAP2 DUP2 ADD SWAP1 PUSH2 0x302A JUMP JUMPDEST PUSH1 0x1 JUMPDEST PUSH2 0x2531 JUMPI PUSH1 0x40 MLOAD PUSH4 0x4C9C8CE3 PUSH1 0xE0 SHL DUP2 MSTORE PUSH1 0x1 PUSH1 0x1 PUSH1 0xA0 SHL SUB DUP4 AND PUSH1 0x4 DUP3 ADD MSTORE PUSH1 0x24 ADD PUSH2 0x9B9 JUMP JUMPDEST PUSH0 DUP1 MLOAD PUSH1 0x20 PUSH2 0x3062 DUP4 CODECOPY DUP2 MLOAD SWAP2 MSTORE DUP2 EQ PUSH2 0x2561 JUMPI PUSH1 0x40 MLOAD PUSH4 0x2A875269 PUSH1 0xE2 SHL DUP2 MSTORE PUSH1 0x4 DUP2 ADD DUP3 SWAP1 MSTORE PUSH1 0x24 ADD PUSH2 0x9B9 JUMP JUMPDEST PUSH2 0xA56 DUP4 DUP4 PUSH2 0x26B1 JUMP JUMPDEST ADDRESS PUSH1 0x1 PUSH1 0x1 PUSH1 0xA0 SHL SUB PUSH32 0x0 AND EQ PUSH2 0xEB3 JUMPI PUSH1 0x40 MLOAD PUSH4 0x703E46DD PUSH1 0xE1 SHL DUP2 MSTORE PUSH1 0x4 ADD PUSH1 0x40 MLOAD DUP1 SWAP2 SUB SWAP1 REVERT JUMPDEST PUSH0 DUP1 MLOAD PUSH1 0x20 PUSH2 0x3042 DUP4 CODECOPY DUP2 MLOAD SWAP2 MSTORE DUP1 SLOAD PUSH1 0x1 PUSH1 0x1 PUSH1 0xA0 SHL SUB NOT DUP2 AND PUSH1 0x1 PUSH1 0x1 PUSH1 0xA0 SHL SUB DUP5 DUP2 AND SWAP2 DUP3 OR DUP5 SSTORE PUSH1 0x40 MLOAD SWAP3 AND SWAP2 DUP3 SWAP1 PUSH32 0x8BE0079C531659141344CD1FD0A4F28419497F9722A3DAAFE3B4186F6B6457E0 SWAP1 PUSH0 SWAP1 LOG3 POP POP POP JUMP JUMPDEST PUSH2 0x2619 PUSH2 0x2276 JUMP JUMPDEST PUSH0 DUP1 MLOAD PUSH1 0x20 PUSH2 0x3082 DUP4 CODECOPY DUP2 MLOAD SWAP2 MSTORE DUP1 SLOAD PUSH1 0xFF NOT AND PUSH1 0x1 OR DUP2 SSTORE PUSH32 0x62E78CEA01BEE320CD4E420270B5EA74000D11B0C9F74754EBDBFC544B05A258 CALLER PUSH2 0x238C JUMP JUMPDEST PUSH0 DUP1 MLOAD PUSH1 0x20 PUSH2 0x3082 DUP4 CODECOPY DUP2 MLOAD SWAP2 MSTORE SLOAD PUSH1 0xFF AND PUSH2 0xEB3 JUMPI PUSH1 0x40 MLOAD PUSH4 0x8DFC202B PUSH1 0xE0 SHL DUP2 MSTORE PUSH1 0x4 ADD PUSH1 0x40 MLOAD DUP1 SWAP2 SUB SWAP1 REVERT JUMPDEST PUSH2 0x2690 PUSH2 0x2706 JUMP JUMPDEST PUSH2 0xEB3 PUSH2 0x274F JUMP JUMPDEST PUSH2 0x26A0 PUSH2 0x2706 JUMP JUMPDEST PUSH2 0x1BA3 DUP2 PUSH2 0x276F JUMP JUMPDEST PUSH2 0xEB3 PUSH2 0x2706 JUMP JUMPDEST PUSH2 0x26BA DUP3 PUSH2 0x2777 JUMP JUMPDEST PUSH1 0x40 MLOAD PUSH1 0x1 PUSH1 0x1 PUSH1 0xA0 SHL SUB DUP4 AND SWAP1 PUSH32 0xBC7CD75A20EE27FD9ADEBAB32041F755214DBC6BFFA90CC0225B39DA2E5C2D3B SWAP1 PUSH0 SWAP1 LOG2 DUP1 MLOAD ISZERO PUSH2 0x26FE JUMPI PUSH2 0xA56 DUP3 DUP3 PUSH2 0x27DA JUMP JUMPDEST PUSH2 0x1332 PUSH2 0x284C JUMP JUMPDEST PUSH32 0xF0C57E16840DF040F15088DC2F81FE391C3923BEC73E23A9662EFC9C229C6A00 SLOAD PUSH1 0x1 PUSH1 0x40 SHL SWAP1 DIV PUSH1 0xFF AND PUSH2 0xEB3 JUMPI PUSH1 0x40 MLOAD PUSH4 0x1AFCD79F PUSH1 0xE3 SHL DUP2 MSTORE PUSH1 0x4 ADD PUSH1 0x40 MLOAD DUP1 SWAP2 SUB SWAP1 REVERT JUMPDEST PUSH2 0x2757 PUSH2 0x2706 JUMP JUMPDEST PUSH0 DUP1 MLOAD PUSH1 0x20 PUSH2 0x3082 DUP4 CODECOPY DUP2 MLOAD SWAP2 MSTORE DUP1 SLOAD PUSH1 0xFF NOT AND SWAP1 SSTORE JUMP JUMPDEST PUSH2 0x2244 PUSH2 0x2706 JUMP JUMPDEST DUP1 PUSH1 0x1 PUSH1 0x1 PUSH1 0xA0 SHL SUB AND EXTCODESIZE PUSH0 SUB PUSH2 0x27AC JUMPI PUSH1 0x40 MLOAD PUSH4 0x4C9C8CE3 PUSH1 0xE0 SHL DUP2 MSTORE PUSH1 0x1 PUSH1 0x1 PUSH1 0xA0 SHL SUB DUP3 AND PUSH1 0x4 DUP3 ADD MSTORE PUSH1 0x24 ADD PUSH2 0x9B9 JUMP JUMPDEST PUSH0 DUP1 MLOAD PUSH1 0x20 PUSH2 0x3062 DUP4 CODECOPY DUP2 MLOAD SWAP2 MSTORE DUP1 SLOAD PUSH1 0x1 PUSH1 0x1 PUSH1 0xA0 SHL SUB NOT AND PUSH1 0x1 PUSH1 0x1 PUSH1 0xA0 SHL SUB SWAP3 SWAP1 SWAP3 AND SWAP2 SWAP1 SWAP2 OR SWAP1 SSTORE JUMP JUMPDEST PUSH1 0x60 PUSH0 DUP1 DUP5 PUSH1 0x1 PUSH1 0x1 PUSH1 0xA0 SHL SUB AND DUP5 PUSH1 0x40 MLOAD PUSH2 0x27F6 SWAP2 SWAP1 PUSH2 0x300F JUMP JUMPDEST PUSH0 PUSH1 0x40 MLOAD DUP1 DUP4 SUB DUP2 DUP6 GAS DELEGATECALL SWAP2 POP POP RETURNDATASIZE DUP1 PUSH0 DUP2 EQ PUSH2 0x282E JUMPI PUSH1 0x40 MLOAD SWAP2 POP PUSH1 0x1F NOT PUSH1 0x3F RETURNDATASIZE ADD AND DUP3 ADD PUSH1 0x40 MSTORE RETURNDATASIZE DUP3 MSTORE RETURNDATASIZE PUSH0 PUSH1 0x20 DUP5 ADD RETURNDATACOPY PUSH2 0x2833 JUMP JUMPDEST PUSH1 0x60 SWAP2 POP JUMPDEST POP SWAP2 POP SWAP2 POP PUSH2 0x2843 DUP6 DUP4 DUP4 PUSH2 0x286B JUMP JUMPDEST SWAP6 SWAP5 POP POP POP POP POP JUMP JUMPDEST CALLVALUE ISZERO PUSH2 0xEB3 JUMPI PUSH1 0x40 MLOAD PUSH4 0xB398979F PUSH1 0xE0 SHL DUP2 MSTORE PUSH1 0x4 ADD PUSH1 0x40 MLOAD DUP1 SWAP2 SUB SWAP1 REVERT JUMPDEST PUSH1 0x60 DUP3 PUSH2 0x2880 JUMPI PUSH2 0x287B DUP3 PUSH2 0x28CA JUMP JUMPDEST PUSH2 0x28C3 JUMP JUMPDEST DUP2 MLOAD ISZERO DUP1 ISZERO PUSH2 0x2897 JUMPI POP PUSH1 0x1 PUSH1 0x1 PUSH1 0xA0 SHL SUB DUP5 AND EXTCODESIZE ISZERO JUMPDEST ISZERO PUSH2 0x28C0 JUMPI PUSH1 0x40 MLOAD PUSH4 0x9996B315 PUSH1 0xE0 SHL DUP2 MSTORE PUSH1 0x1 PUSH1 0x1 PUSH1 0xA0 SHL SUB DUP6 AND PUSH1 0x4 DUP3 ADD MSTORE PUSH1 0x24 ADD PUSH2 0x9B9 JUMP JUMPDEST POP DUP1 JUMPDEST SWAP4 SWAP3 POP POP POP JUMP JUMPDEST DUP1 MLOAD ISZERO PUSH2 0x28DA JUMPI DUP1 MLOAD DUP1 DUP3 PUSH1 0x20 ADD REVERT JUMPDEST PUSH1 0x40 MLOAD PUSH4 0xA12F521 PUSH1 0xE1 SHL DUP2 MSTORE PUSH1 0x4 ADD PUSH1 0x40 MLOAD DUP1 SWAP2 SUB SWAP1 REVERT JUMPDEST PUSH0 PUSH1 0x20 DUP3 DUP5 SUB SLT ISZERO PUSH2 0x2903 JUMPI PUSH0 DUP1 REVERT JUMPDEST POP CALLDATALOAD SWAP2 SWAP1 POP JUMP JUMPDEST PUSH0 JUMPDEST DUP4 DUP2 LT ISZERO PUSH2 0x2924 JUMPI DUP2 DUP2 ADD MLOAD DUP4 DUP3 ADD MSTORE PUSH1 0x20 ADD PUSH2 0x290C JUMP JUMPDEST POP POP PUSH0 SWAP2 ADD MSTORE JUMP JUMPDEST PUSH0 DUP2 MLOAD DUP1 DUP5 MSTORE PUSH2 0x2943 DUP2 PUSH1 0x20 DUP7 ADD PUSH1 0x20 DUP7 ADD PUSH2 0x290A JUMP JUMPDEST PUSH1 0x1F ADD PUSH1 0x1F NOT AND SWAP3 SWAP1 SWAP3 ADD PUSH1 0x20 ADD SWAP3 SWAP2 POP POP JUMP JUMPDEST PUSH4 0x4E487B71 PUSH1 0xE0 SHL PUSH0 MSTORE PUSH1 0x21 PUSH1 0x4 MSTORE PUSH1 0x24 PUSH0 REVERT JUMPDEST PUSH1 0x3 DUP2 LT PUSH2 0x297B JUMPI PUSH2 0x297B PUSH2 0x2957 JUMP JUMPDEST SWAP1 MSTORE JUMP JUMPDEST PUSH0 PUSH2 0x120 PUSH1 0x1 DUP1 PUSH1 0xA0 SHL SUB DUP1 DUP14 AND DUP5 MSTORE DUP12 PUSH1 0x20 DUP6 ADD MSTORE DUP11 PUSH1 0x40 DUP6 ADD MSTORE DUP2 PUSH1 0x60 DUP6 ADD MSTORE PUSH2 0x29AD DUP3 DUP6 ADD DUP12 PUSH2 0x292C JUMP JUMPDEST SWAP3 POP DUP1 DUP10 AND PUSH1 0x80 DUP6 ADD MSTORE POP POP DUP6 PUSH1 0xA0 DUP4 ADD MSTORE DUP5 PUSH1 0xC0 DUP4 ADD MSTORE PUSH2 0x29D2 PUSH1 0xE0 DUP4 ADD DUP6 PUSH2 0x296B JUMP JUMPDEST DUP3 PUSH2 0x100 DUP4 ADD MSTORE SWAP11 SWAP10 POP POP POP POP POP POP POP POP POP POP JUMP JUMPDEST PUSH1 0x1 PUSH1 0x1 PUSH1 0xA0 SHL SUB DUP2 AND DUP2 EQ PUSH2 0x1BA3 JUMPI PUSH0 DUP1 REVERT JUMPDEST PUSH0 PUSH1 0x20 DUP3 DUP5 SUB SLT ISZERO PUSH2 0x2A0B JUMPI PUSH0 DUP1 REVERT JUMPDEST DUP2 CALLDATALOAD PUSH2 0x28C3 DUP2 PUSH2 0x29E7 JUMP JUMPDEST DUP7 DUP2 MSTORE PUSH1 0xC0 PUSH1 0x20 DUP3 ADD MSTORE PUSH0 PUSH2 0x2A2E PUSH1 0xC0 DUP4 ADD DUP9 PUSH2 0x292C JUMP JUMPDEST DUP7 PUSH1 0x40 DUP5 ADD MSTORE DUP6 PUSH1 0x60 DUP5 ADD MSTORE DUP5 PUSH1 0x80 DUP5 ADD MSTORE DUP3 DUP2 SUB PUSH1 0xA0 DUP5 ADD MSTORE PUSH2 0x2A52 DUP2 DUP6 PUSH2 0x292C JUMP JUMPDEST SWAP10 SWAP9 POP POP POP POP POP POP POP POP POP JUMP JUMPDEST PUSH4 0x4E487B71 PUSH1 0xE0 SHL PUSH0 MSTORE PUSH1 0x41 PUSH1 0x4 MSTORE PUSH1 0x24 PUSH0 REVERT JUMPDEST PUSH0 PUSH8 0xFFFFFFFFFFFFFFFF DUP1 DUP5 GT ISZERO PUSH2 0x2A8D JUMPI PUSH2 0x2A8D PUSH2 0x2A5F JUMP JUMPDEST PUSH1 0x40 MLOAD PUSH1 0x1F DUP6 ADD PUSH1 0x1F NOT SWAP1 DUP2 AND PUSH1 0x3F ADD AND DUP2 ADD SWAP1 DUP3 DUP3 GT DUP2 DUP4 LT OR ISZERO PUSH2 0x2AB5 JUMPI PUSH2 0x2AB5 PUSH2 0x2A5F JUMP JUMPDEST DUP2 PUSH1 0x40 MSTORE DUP1 SWAP4 POP DUP6 DUP2 MSTORE DUP7 DUP7 DUP7 ADD GT ISZERO PUSH2 0x2ACD JUMPI PUSH0 DUP1 REVERT JUMPDEST DUP6 DUP6 PUSH1 0x20 DUP4 ADD CALLDATACOPY PUSH0 PUSH1 0x20 DUP8 DUP4 ADD ADD MSTORE POP POP POP SWAP4 SWAP3 POP POP POP JUMP JUMPDEST PUSH0 DUP1 PUSH1 0x40 DUP4 DUP6 SUB SLT ISZERO PUSH2 0x2AF7 JUMPI PUSH0 DUP1 REVERT JUMPDEST DUP3 CALLDATALOAD PUSH2 0x2B02 DUP2 PUSH2 0x29E7 JUMP JUMPDEST SWAP2 POP PUSH1 0x20 DUP4 ADD CALLDATALOAD PUSH8 0xFFFFFFFFFFFFFFFF DUP2 GT ISZERO PUSH2 0x2B1D JUMPI PUSH0 DUP1 REVERT JUMPDEST DUP4 ADD PUSH1 0x1F DUP2 ADD DUP6 SGT PUSH2 0x2B2D JUMPI PUSH0 DUP1 REVERT JUMPDEST PUSH2 0x2B3C DUP6 DUP3 CALLDATALOAD PUSH1 0x20 DUP5 ADD PUSH2 0x2A73 JUMP JUMPDEST SWAP2 POP POP SWAP3 POP SWAP3 SWAP1 POP JUMP JUMPDEST PUSH0 DUP3 PUSH1 0x1F DUP4 ADD SLT PUSH2 0x2B55 JUMPI PUSH0 DUP1 REVERT JUMPDEST PUSH2 0x28C3 DUP4 DUP4 CALLDATALOAD PUSH1 0x20 DUP6 ADD PUSH2 0x2A73 JUMP JUMPDEST PUSH0 DUP1 PUSH0 PUSH1 0x60 DUP5 DUP7 SUB SLT ISZERO PUSH2 0x2B76 JUMPI PUSH0 DUP1 REVERT JUMPDEST DUP4 CALLDATALOAD PUSH8 0xFFFFFFFFFFFFFFFF DUP2 GT ISZERO PUSH2 0x2B8C JUMPI PUSH0 DUP1 REVERT JUMPDEST PUSH2 0x2B98 DUP7 DUP3 DUP8 ADD PUSH2 0x2B46 JUMP JUMPDEST SWAP4 POP POP PUSH1 0x20 DUP5 ADD CALLDATALOAD PUSH2 0x2BA9 DUP2 PUSH2 0x29E7 JUMP JUMPDEST SWAP3 SWAP6 SWAP3 SWAP5 POP POP POP PUSH1 0x40 SWAP2 SWAP1 SWAP2 ADD CALLDATALOAD SWAP1 JUMP JUMPDEST PUSH0 DUP1 PUSH1 0x40 DUP4 DUP6 SUB SLT ISZERO PUSH2 0x2BCB JUMPI PUSH0 DUP1 REVERT JUMPDEST DUP3 CALLDATALOAD PUSH8 0xFFFFFFFFFFFFFFFF DUP2 GT ISZERO PUSH2 0x2BE1 JUMPI PUSH0 DUP1 REVERT JUMPDEST PUSH2 0x2BED DUP6 DUP3 DUP7 ADD PUSH2 0x2B46 JUMP JUMPDEST SWAP6 PUSH1 0x20 SWAP5 SWAP1 SWAP5 ADD CALLDATALOAD SWAP5 POP POP POP POP JUMP JUMPDEST PUSH0 DUP1 PUSH1 0x40 DUP4 DUP6 SUB SLT ISZERO PUSH2 0x2C0D JUMPI PUSH0 DUP1 REVERT JUMPDEST DUP3 CALLDATALOAD SWAP2 POP PUSH1 0x20 DUP4 ADD CALLDATALOAD PUSH2 0x2C1F DUP2 PUSH2 0x29E7 JUMP JUMPDEST DUP1 SWAP2 POP POP SWAP3 POP SWAP3 SWAP1 POP JUMP JUMPDEST PUSH1 0x20 DUP2 MSTORE PUSH0 PUSH2 0x28C3 PUSH1 0x20 DUP4 ADD DUP5 PUSH2 0x292C JUMP JUMPDEST PUSH0 DUP2 MLOAD DUP1 DUP5 MSTORE PUSH1 0x20 DUP1 DUP6 ADD SWAP5 POP DUP1 DUP5 ADD PUSH0 JUMPDEST DUP4 DUP2 LT ISZERO PUSH2 0x2C73 JUMPI DUP2 MLOAD PUSH1 0x1 PUSH1 0x1 PUSH1 0xA0 SHL SUB AND DUP8 MSTORE SWAP6 DUP3 ADD SWAP6 SWAP1 DUP3 ADD SWAP1 PUSH1 0x1 ADD PUSH2 0x2C4E JUMP JUMPDEST POP SWAP5 SWAP6 SWAP5 POP POP POP POP POP JUMP JUMPDEST PUSH0 PUSH2 0x160 PUSH1 0x1 DUP1 PUSH1 0xA0 SHL SUB DUP1 DUP16 AND DUP5 MSTORE DUP14 PUSH1 0x20 DUP6 ADD MSTORE DUP13 PUSH1 0x40 DUP6 ADD MSTORE DUP2 PUSH1 0x60 DUP6 ADD MSTORE PUSH2 0x2CAC DUP3 DUP6 ADD DUP14 PUSH2 0x292C JUMP JUMPDEST SWAP2 POP DUP1 DUP12 AND PUSH1 0x80 DUP6 ADD MSTORE POP DUP9 PUSH1 0xA0 DUP5 ADD MSTORE DUP8 PUSH1 0xC0 DUP5 ADD MSTORE DUP3 DUP2 SUB PUSH1 0xE0 DUP5 ADD MSTORE PUSH2 0x2CD5 DUP2 DUP9 PUSH2 0x292C JUMP JUMPDEST SWAP1 POP DUP6 PUSH2 0x100 DUP5 ADD MSTORE DUP3 DUP2 SUB PUSH2 0x120 DUP5 ADD MSTORE PUSH2 0x2CF1 DUP2 DUP7 PUSH2 0x2C3C JUMP JUMPDEST SWAP1 POP DUP3 DUP2 SUB PUSH2 0x140 DUP5 ADD MSTORE PUSH2 0x2D06 DUP2 DUP6 PUSH2 0x2C3C JUMP JUMPDEST SWAP15 SWAP14 POP POP POP POP POP POP POP POP POP POP POP POP POP POP JUMP JUMPDEST DUP7 DUP2 MSTORE PUSH1 0xC0 DUP2 ADD PUSH1 0x4 DUP8 LT PUSH2 0x2D2F JUMPI PUSH2 0x2D2F PUSH2 0x2957 JUMP JUMPDEST DUP7 PUSH1 0x20 DUP4 ADD MSTORE DUP6 PUSH1 0x40 DUP4 ADD MSTORE DUP5 PUSH1 0x60 DUP4 ADD MSTORE DUP4 PUSH1 0x80 DUP4 ADD MSTORE PUSH2 0x2D54 PUSH1 0xA0 DUP4 ADD DUP5 PUSH2 0x296B JUMP JUMPDEST SWAP8 SWAP7 POP POP POP POP POP POP POP JUMP JUMPDEST PUSH1 0x1 DUP2 DUP2 SHR SWAP1 DUP3 AND DUP1 PUSH2 0x2D73 JUMPI PUSH1 0x7F DUP3 AND SWAP2 POP JUMPDEST PUSH1 0x20 DUP3 LT DUP2 SUB PUSH2 0x2D91 JUMPI PUSH4 0x4E487B71 PUSH1 0xE0 SHL PUSH0 MSTORE PUSH1 0x22 PUSH1 0x4 MSTORE PUSH1 0x24 PUSH0 REVERT JUMPDEST POP SWAP2 SWAP1 POP JUMP JUMPDEST PUSH4 0x4E487B71 PUSH1 0xE0 SHL PUSH0 MSTORE PUSH1 0x11 PUSH1 0x4 MSTORE PUSH1 0x24 PUSH0 REVERT JUMPDEST DUP1 DUP3 ADD DUP1 DUP3 GT ISZERO PUSH2 0x1E6A JUMPI PUSH2 0x1E6A PUSH2 0x2D97 JUMP JUMPDEST DUP2 DUP2 SUB DUP2 DUP2 GT ISZERO PUSH2 0x1E6A JUMPI PUSH2 0x1E6A PUSH2 0x2D97 JUMP JUMPDEST PUSH1 0x20 DUP1 DUP3 MSTORE PUSH1 0x25 SWAP1 DUP3 ADD MSTORE PUSH32 0x596F75206D75737420646F6E61746520746F2074686520706C6174666F726D20 PUSH1 0x40 DUP3 ADD MSTORE PUSH5 0x199A5C9CDD PUSH1 0xDA SHL PUSH1 0x60 DUP3 ADD MSTORE PUSH1 0x80 ADD SWAP1 JUMP JUMPDEST PUSH0 DUP3 PUSH2 0x2E30 JUMPI PUSH4 0x4E487B71 PUSH1 0xE0 SHL PUSH0 MSTORE PUSH1 0x12 PUSH1 0x4 MSTORE PUSH1 0x24 PUSH0 REVERT JUMPDEST POP DIV SWAP1 JUMP JUMPDEST PUSH1 0x20 DUP1 DUP3 MSTORE PUSH1 0x2B SWAP1 DUP3 ADD MSTORE PUSH32 0x4F6E6C792070726F706F7365722063616E206368616E6765207468652063616D PUSH1 0x40 DUP3 ADD MSTORE PUSH11 0x706169676E207374617465 PUSH1 0xA8 SHL PUSH1 0x60 DUP3 ADD MSTORE PUSH1 0x80 ADD SWAP1 JUMP JUMPDEST PUSH4 0x4E487B71 PUSH1 0xE0 SHL PUSH0 MSTORE PUSH1 0x32 PUSH1 0x4 MSTORE PUSH1 0x24 PUSH0 REVERT JUMPDEST PUSH0 PUSH1 0x1 DUP3 ADD PUSH2 0x2EA5 JUMPI PUSH2 0x2EA5 PUSH2 0x2D97 JUMP JUMPDEST POP PUSH1 0x1 ADD SWAP1 JUMP JUMPDEST DUP1 DUP3 MUL DUP2 ISZERO DUP3 DUP3 DIV DUP5 EQ OR PUSH2 0x1E6A JUMPI PUSH2 0x1E6A PUSH2 0x2D97 JUMP JUMPDEST PUSH1 0x20 DUP1 DUP3 MSTORE PUSH1 0x2B SWAP1 DUP3 ADD MSTORE PUSH32 0x5468652062616C616E636520796F7520646F6E61746564206973207374696C6C PUSH1 0x40 DUP3 ADD MSTORE PUSH11 0x20696E2070656E64696E67 PUSH1 0xA8 SHL PUSH1 0x60 DUP3 ADD MSTORE PUSH1 0x80 ADD SWAP1 JUMP JUMPDEST PUSH1 0x1F DUP3 GT ISZERO PUSH2 0xA56 JUMPI PUSH0 DUP2 DUP2 MSTORE PUSH1 0x20 DUP2 KECCAK256 PUSH1 0x1F DUP6 ADD PUSH1 0x5 SHR DUP2 ADD PUSH1 0x20 DUP7 LT ISZERO PUSH2 0x2F34 JUMPI POP DUP1 JUMPDEST PUSH1 0x1F DUP6 ADD PUSH1 0x5 SHR DUP3 ADD SWAP2 POP JUMPDEST DUP2 DUP2 LT ISZERO PUSH2 0x1FA0 JUMPI DUP3 DUP2 SSTORE PUSH1 0x1 ADD PUSH2 0x2F40 JUMP JUMPDEST DUP2 MLOAD PUSH8 0xFFFFFFFFFFFFFFFF DUP2 GT ISZERO PUSH2 0x2F6D JUMPI PUSH2 0x2F6D PUSH2 0x2A5F JUMP JUMPDEST PUSH2 0x2F81 DUP2 PUSH2 0x2F7B DUP5 SLOAD PUSH2 0x2D5F JUMP JUMPDEST DUP5 PUSH2 0x2F0E JUMP JUMPDEST PUSH1 0x20 DUP1 PUSH1 0x1F DUP4 GT PUSH1 0x1 DUP2 EQ PUSH2 0x2FB4 JUMPI PUSH0 DUP5 ISZERO PUSH2 0x2F9D JUMPI POP DUP6 DUP4 ADD MLOAD JUMPDEST PUSH0 NOT PUSH1 0x3 DUP7 SWAP1 SHL SHR NOT AND PUSH1 0x1 DUP6 SWAP1 SHL OR DUP6 SSTORE PUSH2 0x1FA0 JUMP JUMPDEST PUSH0 DUP6 DUP2 MSTORE PUSH1 0x20 DUP2 KECCAK256 PUSH1 0x1F NOT DUP7 AND SWAP2 JUMPDEST DUP3 DUP2 LT ISZERO PUSH2 0x2FE2 JUMPI DUP9 DUP7 ADD MLOAD DUP3 SSTORE SWAP5 DUP5 ADD SWAP5 PUSH1 0x1 SWAP1 SWAP2 ADD SWAP1 DUP5 ADD PUSH2 0x2FC3 JUMP JUMPDEST POP DUP6 DUP3 LT ISZERO PUSH2 0x2FFF JUMPI DUP8 DUP6 ADD MLOAD PUSH0 NOT PUSH1 0x3 DUP9 SWAP1 SHL PUSH1 0xF8 AND SHR NOT AND DUP2 SSTORE JUMPDEST POP POP POP POP POP PUSH1 0x1 SWAP1 DUP2 SHL ADD SWAP1 SSTORE POP JUMP JUMPDEST PUSH0 DUP3 MLOAD PUSH2 0x3020 DUP2 DUP5 PUSH1 0x20 DUP8 ADD PUSH2 0x290A JUMP JUMPDEST SWAP2 SWAP1 SWAP2 ADD SWAP3 SWAP2 POP POP JUMP JUMPDEST PUSH0 PUSH1 0x20 DUP3 DUP5 SUB SLT ISZERO PUSH2 0x303A JUMPI PUSH0 DUP1 REVERT JUMPDEST POP MLOAD SWAP2 SWAP1 POP JUMP INVALID SWAP1 AND 0xD0 SWAP14 PUSH19 0xD40FDAE2FD8CEAC6B6234C7706214FD39C1CD1 0xE6 MULMOD LOG0 MSTORE DUP13 NOT SWAP4 STOP CALLDATASIZE ADDMOD SWAP5 LOG1 EXTCODESIZE LOG1 LOG3 0x21 MOD PUSH8 0xC828492DB98DCA3E KECCAK256 PUSH23 0xCC3735A920A3CA505D382BBCCD5ED15C6E187E77E9AEE8 DUP2 DUP5 0xC2 0x1F 0x4F 0x21 DUP3 0xAB PC 0x27 0xCB EXTCODESIZE PUSH31 0x7FBEDCD63F03300A2646970667358221220C28E002A292A31480F06699BCC 0x5D SWAP11 PUSH22 0x1A8DD2101B8B08AAE447AC7CDCE13D0A64736F6C6343 STOP ADDMOD ISZERO STOP CALLER "
		},
		"gasEstimates": {
			"creation": {
				"codeDepositCost": "2500600",
				"executionCost": "infinite",
				"totalCost": "infinite"
			},
			"external": {
				"UPGRADE_INTERFACE_VERSION()": "infinite",
				"campaignLength()": "2339",
				"cancelCampaign(uint256)": "infinite",
				"contributors(address)": "6834",
				"createProposal(string,address,uint256)": "infinite",
				"donateProposal(uint256)": "infinite",
				"executeDecision(uint256)": "infinite",
				"finishCampaign(uint256)": "infinite",
				"frozenElapse()": "2361",
				"getCampaignLength()": "2357",
				"getContractBalance()": "326",
				"getContributors(address)": "6934",
				"getFrozenElapse()": "2446",
				"getGovernanceDecisions(uint256)": "infinite",
				"getMinimumContribution()": "2445",
				"getNumDecisions()": "2359",
				"getNumProposals()": "2337",
				"getOwner()": "infinite",
				"getPaused()": "infinite",
				"getProposal(uint256)": "infinite",
				"getProposalDonationAmount(uint256,address)": "2762",
				"getVotingLength()": "2425",
				"governanceDecisions(uint256)": "13366",
				"initialize(address)": "infinite",
				"minimumContribution()": "2383",
				"numDecisions()": "2382",
				"numProposals()": "2384",
				"owner()": "infinite",
				"pause()": "infinite",
				"paused()": "infinite",
				"proposalDonationAmount(uint256,address)": "2746",
				"proposals(uint256)": "infinite",
				"proposeGovernanceDecision(string,uint256)": "infinite",
				"proxiableUUID()": "infinite",
				"receiveDonation()": "infinite",
				"renounceOwnership()": "infinite",
				"transferOwnership(address)": "infinite",
				"unpause()": "infinite",
				"updateOwner(address)": "infinite",
				"upgradeToAndCall(address,bytes)": "infinite",
				"voteToDecision(uint256)": "infinite",
				"votingLength()": "2363",
				"withdrawDonationFromCampaign(uint256)": "infinite",
				"withdrawDonationFromPlatform(address)": "infinite"
			},
			"internal": {
				"_authorizeUpgrade(address)": "infinite",
				"_updateCampaignState(struct CrowdFunding.Proposal storage pointer)": "infinite",
				"_updateDecisionState(struct CrowdFunding.Decision storage pointer)": "infinite"
			}
		},
		"methodIdentifiers": {
			"UPGRADE_INTERFACE_VERSION()": "ad3cb1cc",
			"campaignLength()": "a9c30766",
			"cancelCampaign(uint256)": "45598b4a",
			"contributors(address)": "1f6d4942",
			"createProposal(string,address,uint256)": "831c43ac",
			"donateProposal(uint256)": "566f9578",
			"executeDecision(uint256)": "403de107",
			"finishCampaign(uint256)": "5545db0d",
			"frozenElapse()": "acb18c0b",
			"getCampaignLength()": "df357d3e",
			"getContractBalance()": "6f9fb98a",
			"getContributors(address)": "43e9658c",
			"getFrozenElapse()": "a8846008",
			"getGovernanceDecisions(uint256)": "199b934d",
			"getMinimumContribution()": "f84038b1",
			"getNumDecisions()": "815bf268",
			"getNumProposals()": "798974dd",
			"getOwner()": "893d20e8",
			"getPaused()": "6805b84b",
			"getProposal(uint256)": "c7f758a8",
			"getProposalDonationAmount(uint256,address)": "b8077c25",
			"getVotingLength()": "5658d391",
			"governanceDecisions(uint256)": "edf5db5c",
			"initialize(address)": "c4d66de8",
			"minimumContribution()": "937e09b1",
			"numDecisions()": "e390d21f",
			"numProposals()": "400e3949",
			"owner()": "8da5cb5b",
			"pause()": "8456cb59",
			"paused()": "5c975abb",
			"proposalDonationAmount(uint256,address)": "a5fe07a9",
			"proposals(uint256)": "013cf08b",
			"proposeGovernanceDecision(string,uint256)": "9e84d441",
			"proxiableUUID()": "52d1902d",
			"receiveDonation()": "45d3292b",
			"renounceOwnership()": "715018a6",
			"transferOwnership(address)": "f2fde38b",
			"unpause()": "3f4ba83a",
			"updateOwner(address)": "880cdc31",
			"upgradeToAndCall(address,bytes)": "4f1ef286",
			"voteToDecision(uint256)": "5a332e65",
			"votingLength()": "0a64522f",
			"withdrawDonationFromCampaign(uint256)": "0ea142f7",
			"withdrawDonationFromPlatform(address)": "0af857c1"
		}
	},
	"abi": [
		{
			"inputs": [],
			"stateMutability": "nonpayable",
			"type": "constructor"
		},
		{
			"inputs": [
				{
					"internalType": "address",
					"name": "target",
					"type": "address"
				}
			],
			"name": "AddressEmptyCode",
			"type": "error"
		},
		{
			"inputs": [
				{
					"internalType": "address",
					"name": "implementation",
					"type": "address"
				}
			],
			"name": "ERC1967InvalidImplementation",
			"type": "error"
		},
		{
			"inputs": [],
			"name": "ERC1967NonPayable",
			"type": "error"
		},
		{
			"inputs": [],
			"name": "EnforcedPause",
			"type": "error"
		},
		{
			"inputs": [],
			"name": "ExpectedPause",
			"type": "error"
		},
		{
			"inputs": [],
			"name": "FailedInnerCall",
			"type": "error"
		},
		{
			"inputs": [],
			"name": "InvalidInitialization",
			"type": "error"
		},
		{
			"inputs": [],
			"name": "NotInitializing",
			"type": "error"
		},
		{
			"inputs": [
				{
					"internalType": "address",
					"name": "owner",
					"type": "address"
				}
			],
			"name": "OwnableInvalidOwner",
			"type": "error"
		},
		{
			"inputs": [
				{
					"internalType": "address",
					"name": "account",
					"type": "address"
				}
			],
			"name": "OwnableUnauthorizedAccount",
			"type": "error"
		},
		{
			"inputs": [],
			"name": "UUPSUnauthorizedCallContext",
			"type": "error"
		},
		{
			"inputs": [
				{
					"internalType": "bytes32",
					"name": "slot",
					"type": "bytes32"
				}
			],
			"name": "UUPSUnsupportedProxiableUUID",
			"type": "error"
		},
		{
			"anonymous": false,
			"inputs": [
				{
					"indexed": false,
					"internalType": "uint64",
					"name": "version",
					"type": "uint64"
				}
			],
			"name": "Initialized",
			"type": "event"
		},
		{
			"anonymous": false,
			"inputs": [
				{
					"indexed": true,
					"internalType": "address",
					"name": "previousOwner",
					"type": "address"
				},
				{
					"indexed": true,
					"internalType": "address",
					"name": "newOwner",
					"type": "address"
				}
			],
			"name": "OwnershipTransferred",
			"type": "event"
		},
		{
			"anonymous": false,
			"inputs": [
				{
					"indexed": false,
					"internalType": "address",
					"name": "account",
					"type": "address"
				}
			],
			"name": "Paused",
			"type": "event"
		},
		{
			"anonymous": false,
			"inputs": [
				{
					"indexed": false,
					"internalType": "address",
					"name": "account",
					"type": "address"
				}
			],
			"name": "Unpaused",
			"type": "event"
		},
		{
			"anonymous": false,
			"inputs": [
				{
					"indexed": true,
					"internalType": "address",
					"name": "implementation",
					"type": "address"
				}
			],
			"name": "Upgraded",
			"type": "event"
		},
		{
			"inputs": [],
			"name": "UPGRADE_INTERFACE_VERSION",
			"outputs": [
				{
					"internalType": "string",
					"name": "",
					"type": "string"
				}
			],
			"stateMutability": "view",
			"type": "function"
		},
		{
			"inputs": [],
			"name": "campaignLength",
			"outputs": [
				{
					"internalType": "uint256",
					"name": "",
					"type": "uint256"
				}
			],
			"stateMutability": "view",
			"type": "function"
		},
		{
			"inputs": [
				{
					"internalType": "uint256",
					"name": "proposalID",
					"type": "uint256"
				}
			],
			"name": "cancelCampaign",
			"outputs": [],
			"stateMutability": "nonpayable",
			"type": "function"
		},
		{
			"inputs": [
				{
					"internalType": "address",
					"name": "",
					"type": "address"
				}
			],
			"name": "contributors",
			"outputs": [
				{
					"internalType": "uint256",
					"name": "timestamp",
					"type": "uint256"
				},
				{
					"internalType": "uint256",
					"name": "coldAmount",
					"type": "uint256"
				},
				{
					"internalType": "uint256",
					"name": "hotAmount",
					"type": "uint256"
				}
			],
			"stateMutability": "view",
			"type": "function"
		},
		{
			"inputs": [
				{
					"internalType": "string",
					"name": "description",
					"type": "string"
				},
				{
					"internalType": "address payable",
					"name": "recipient",
					"type": "address"
				},
				{
					"internalType": "uint256",
					"name": "targetAmount",
					"type": "uint256"
				}
			],
			"name": "createProposal",
			"outputs": [],
			"stateMutability": "nonpayable",
			"type": "function"
		},
		{
			"inputs": [
				{
					"internalType": "uint256",
					"name": "proposalID",
					"type": "uint256"
				}
			],
			"name": "donateProposal",
			"outputs": [],
			"stateMutability": "nonpayable",
			"type": "function"
		},
		{
			"inputs": [
				{
					"internalType": "uint256",
					"name": "decisionID",
					"type": "uint256"
				}
			],
			"name": "executeDecision",
			"outputs": [],
			"stateMutability": "nonpayable",
			"type": "function"
		},
		{
			"inputs": [
				{
					"internalType": "uint256",
					"name": "proposalID",
					"type": "uint256"
				}
			],
			"name": "finishCampaign",
			"outputs": [],
			"stateMutability": "nonpayable",
			"type": "function"
		},
		{
			"inputs": [],
			"name": "frozenElapse",
			"outputs": [
				{
					"internalType": "uint256",
					"name": "",
					"type": "uint256"
				}
			],
			"stateMutability": "view",
			"type": "function"
		},
		{
			"inputs": [],
			"name": "getCampaignLength",
			"outputs": [
				{
					"internalType": "uint256",
					"name": "",
					"type": "uint256"
				}
			],
			"stateMutability": "view",
			"type": "function"
		},
		{
			"inputs": [],
			"name": "getContractBalance",
			"outputs": [
				{
					"internalType": "uint256",
					"name": "",
					"type": "uint256"
				}
			],
			"stateMutability": "view",
			"type": "function"
		},
		{
			"inputs": [
				{
					"internalType": "address",
					"name": "donor",
					"type": "address"
				}
			],
			"name": "getContributors",
			"outputs": [
				{
					"internalType": "uint256",
					"name": "timestamp",
					"type": "uint256"
				},
				{
					"internalType": "uint256",
					"name": "coldAmount",
					"type": "uint256"
				},
				{
					"internalType": "uint256",
					"name": "hotAmount",
					"type": "uint256"
				}
			],
			"stateMutability": "view",
			"type": "function"
		},
		{
			"inputs": [],
			"name": "getFrozenElapse",
			"outputs": [
				{
					"internalType": "uint256",
					"name": "",
					"type": "uint256"
				}
			],
			"stateMutability": "view",
			"type": "function"
		},
		{
			"inputs": [
				{
					"internalType": "uint256",
					"name": "decisionID",
					"type": "uint256"
				}
			],
			"name": "getGovernanceDecisions",
			"outputs": [
				{
					"internalType": "uint256",
					"name": "uniqueid",
					"type": "uint256"
				},
				{
					"internalType": "string",
					"name": "variable",
					"type": "string"
				},
				{
					"internalType": "uint256",
					"name": "newValue",
					"type": "uint256"
				},
				{
					"internalType": "uint256",
					"name": "startTime",
					"type": "uint256"
				},
				{
					"internalType": "uint256",
					"name": "voteVolumn",
					"type": "uint256"
				},
				{
					"internalType": "string",
					"name": "re_state",
					"type": "string"
				}
			],
			"stateMutability": "view",
			"type": "function"
		},
		{
			"inputs": [],
			"name": "getMinimumContribution",
			"outputs": [
				{
					"internalType": "uint256",
					"name": "",
					"type": "uint256"
				}
			],
			"stateMutability": "view",
			"type": "function"
		},
		{
			"inputs": [],
			"name": "getNumDecisions",
			"outputs": [
				{
					"internalType": "uint256",
					"name": "",
					"type": "uint256"
				}
			],
			"stateMutability": "view",
			"type": "function"
		},
		{
			"inputs": [],
			"name": "getNumProposals",
			"outputs": [
				{
					"internalType": "uint256",
					"name": "",
					"type": "uint256"
				}
			],
			"stateMutability": "view",
			"type": "function"
		},
		{
			"inputs": [],
			"name": "getOwner",
			"outputs": [
				{
					"internalType": "address",
					"name": "",
					"type": "address"
				}
			],
			"stateMutability": "view",
			"type": "function"
		},
		{
			"inputs": [],
			"name": "getPaused",
			"outputs": [
				{
					"internalType": "bool",
					"name": "",
					"type": "bool"
				}
			],
			"stateMutability": "view",
			"type": "function"
		},
		{
			"inputs": [
				{
					"internalType": "uint256",
					"name": "proposalID",
					"type": "uint256"
				}
			],
			"name": "getProposal",
			"outputs": [
				{
					"internalType": "address",
					"name": "proposer",
					"type": "address"
				},
				{
					"internalType": "uint256",
					"name": "uniqueid",
					"type": "uint256"
				},
				{
					"internalType": "uint256",
					"name": "startTime",
					"type": "uint256"
				},
				{
					"internalType": "string",
					"name": "description",
					"type": "string"
				},
				{
					"internalType": "address",
					"name": "recipient",
					"type": "address"
				},
				{
					"internalType": "uint256",
					"name": "targetAmount",
					"type": "uint256"
				},
				{
					"internalType": "uint256",
					"name": "currentAmount",
					"type": "uint256"
				},
				{
					"internalType": "string",
					"name": "re_state",
					"type": "string"
				},
				{
					"internalType": "uint256",
					"name": "numDonors",
					"type": "uint256"
				},
				{
					"internalType": "address[]",
					"name": "donors",
					"type": "address[]"
				},
				{
					"internalType": "address[]",
					"name": "finalDonors",
					"type": "address[]"
				}
			],
			"stateMutability": "view",
			"type": "function"
		},
		{
			"inputs": [
				{
					"internalType": "uint256",
					"name": "proposalID",
					"type": "uint256"
				},
				{
					"internalType": "address",
					"name": "donor",
					"type": "address"
				}
			],
			"name": "getProposalDonationAmount",
			"outputs": [
				{
					"internalType": "uint256",
					"name": "",
					"type": "uint256"
				}
			],
			"stateMutability": "view",
			"type": "function"
		},
		{
			"inputs": [],
			"name": "getVotingLength",
			"outputs": [
				{
					"internalType": "uint256",
					"name": "",
					"type": "uint256"
				}
			],
			"stateMutability": "view",
			"type": "function"
		},
		{
			"inputs": [
				{
					"internalType": "uint256",
					"name": "",
					"type": "uint256"
				}
			],
			"name": "governanceDecisions",
			"outputs": [
				{
					"internalType": "uint256",
					"name": "uniqueid",
					"type": "uint256"
				},
				{
					"internalType": "enum CrowdFunding.UpgradableVariable",
					"name": "variable",
					"type": "uint8"
				},
				{
					"internalType": "uint256",
					"name": "newValue",
					"type": "uint256"
				},
				{
					"internalType": "uint256",
					"name": "startTime",
					"type": "uint256"
				},
				{
					"internalType": "uint256",
					"name": "voteVolumn",
					"type": "uint256"
				},
				{
					"internalType": "enum CrowdFunding.State",
					"name": "state",
					"type": "uint8"
				}
			],
			"stateMutability": "view",
			"type": "function"
		},
		{
			"inputs": [
				{
					"internalType": "address",
					"name": "initialOwner",
					"type": "address"
				}
			],
			"name": "initialize",
			"outputs": [],
			"stateMutability": "nonpayable",
			"type": "function"
		},
		{
			"inputs": [],
			"name": "minimumContribution",
			"outputs": [
				{
					"internalType": "uint256",
					"name": "",
					"type": "uint256"
				}
			],
			"stateMutability": "view",
			"type": "function"
		},
		{
			"inputs": [],
			"name": "numDecisions",
			"outputs": [
				{
					"internalType": "uint256",
					"name": "",
					"type": "uint256"
				}
			],
			"stateMutability": "view",
			"type": "function"
		},
		{
			"inputs": [],
			"name": "numProposals",
			"outputs": [
				{
					"internalType": "uint256",
					"name": "",
					"type": "uint256"
				}
			],
			"stateMutability": "view",
			"type": "function"
		},
		{
			"inputs": [],
			"name": "owner",
			"outputs": [
				{
					"internalType": "address",
					"name": "",
					"type": "address"
				}
			],
			"stateMutability": "view",
			"type": "function"
		},
		{
			"inputs": [],
			"name": "pause",
			"outputs": [],
			"stateMutability": "nonpayable",
			"type": "function"
		},
		{
			"inputs": [],
			"name": "paused",
			"outputs": [
				{
					"internalType": "bool",
					"name": "",
					"type": "bool"
				}
			],
			"stateMutability": "view",
			"type": "function"
		},
		{
			"inputs": [
				{
					"internalType": "uint256",
					"name": "",
					"type": "uint256"
				},
				{
					"internalType": "address",
					"name": "",
					"type": "address"
				}
			],
			"name": "proposalDonationAmount",
			"outputs": [
				{
					"internalType": "uint256",
					"name": "",
					"type": "uint256"
				}
			],
			"stateMutability": "view",
			"type": "function"
		},
		{
			"inputs": [
				{
					"internalType": "uint256",
					"name": "",
					"type": "uint256"
				}
			],
			"name": "proposals",
			"outputs": [
				{
					"internalType": "address",
					"name": "proposer",
					"type": "address"
				},
				{
					"internalType": "uint256",
					"name": "uniqueid",
					"type": "uint256"
				},
				{
					"internalType": "uint256",
					"name": "startTime",
					"type": "uint256"
				},
				{
					"internalType": "string",
					"name": "description",
					"type": "string"
				},
				{
					"internalType": "address payable",
					"name": "recipient",
					"type": "address"
				},
				{
					"internalType": "uint256",
					"name": "targetAmount",
					"type": "uint256"
				},
				{
					"internalType": "uint256",
					"name": "currentAmount",
					"type": "uint256"
				},
				{
					"internalType": "enum CrowdFunding.State",
					"name": "state",
					"type": "uint8"
				},
				{
					"internalType": "uint256",
					"name": "numDonors",
					"type": "uint256"
				}
			],
			"stateMutability": "view",
			"type": "function"
		},
		{
			"inputs": [
				{
					"internalType": "string",
					"name": "variable",
					"type": "string"
				},
				{
					"internalType": "uint256",
					"name": "newValue",
					"type": "uint256"
				}
			],
			"name": "proposeGovernanceDecision",
			"outputs": [],
			"stateMutability": "nonpayable",
			"type": "function"
		},
		{
			"inputs": [],
			"name": "proxiableUUID",
			"outputs": [
				{
					"internalType": "bytes32",
					"name": "",
					"type": "bytes32"
				}
			],
			"stateMutability": "view",
			"type": "function"
		},
		{
			"inputs": [],
			"name": "receiveDonation",
			"outputs": [],
			"stateMutability": "payable",
			"type": "function"
		},
		{
			"inputs": [],
			"name": "renounceOwnership",
			"outputs": [],
			"stateMutability": "nonpayable",
			"type": "function"
		},
		{
			"inputs": [
				{
					"internalType": "address",
					"name": "newOwner",
					"type": "address"
				}
			],
			"name": "transferOwnership",
			"outputs": [],
			"stateMutability": "nonpayable",
			"type": "function"
		},
		{
			"inputs": [],
			"name": "unpause",
			"outputs": [],
			"stateMutability": "nonpayable",
			"type": "function"
		},
		{
			"inputs": [
				{
					"internalType": "address",
					"name": "newOwner",
					"type": "address"
				}
			],
			"name": "updateOwner",
			"outputs": [],
			"stateMutability": "nonpayable",
			"type": "function"
		},
		{
			"inputs": [
				{
					"internalType": "address",
					"name": "newImplementation",
					"type": "address"
				},
				{
					"internalType": "bytes",
					"name": "data",
					"type": "bytes"
				}
			],
			"name": "upgradeToAndCall",
			"outputs": [],
			"stateMutability": "payable",
			"type": "function"
		},
		{
			"inputs": [
				{
					"internalType": "uint256",
					"name": "decisionID",
					"type": "uint256"
				}
			],
			"name": "voteToDecision",
			"outputs": [],
			"stateMutability": "nonpayable",
			"type": "function"
		},
		{
			"inputs": [],
			"name": "votingLength",
			"outputs": [
				{
					"internalType": "uint256",
					"name": "",
					"type": "uint256"
				}
			],
			"stateMutability": "view",
			"type": "function"
		},
		{
			"inputs": [
				{
					"internalType": "uint256",
					"name": "proposalID",
					"type": "uint256"
				}
			],
			"name": "withdrawDonationFromCampaign",
			"outputs": [],
			"stateMutability": "nonpayable",
			"type": "function"
		},
		{
			"inputs": [
				{
					"internalType": "address payable",
					"name": "receiver",
					"type": "address"
				}
			],
			"name": "withdrawDonationFromPlatform",
			"outputs": [],
			"stateMutability": "nonpayable",
			"type": "function"
		},
		{
			"stateMutability": "payable",
			"type": "receive"
		}
	]
}