{
	"data": {
		"bytecode": {
			"linkReferences": {},
			"object": "60a06040523060805234801562000014575f80fd5b506200001f62000025565b620000d9565b7ff0c57e16840df040f15088dc2f81fe391c3923bec73e23a9662efc9c229c6a00805468010000000000000000900460ff1615620000765760405163f92ee8a960e01b815260040160405180910390fd5b80546001600160401b0390811614620000d65780546001600160401b0319166001600160401b0390811782556040519081527fc7f505b2f371ae2175ee4913f4499e1f2633a7b5936321eed1cdaeb6115181d29060200160405180910390a15b50565b60805161256e620001005f395f8181611a6f01528181611a980152611bd7015261256e5ff3fe608060405260043610610220575f3560e01c8063831c43ac1161011e578063a9c30766116100a8578063c4d66de81161006d578063c4d66de814610652578063c7f758a814610671578063df357d3e146106a7578063f2fde38b146106bb578063f84038b1146106da575f80fd5b8063a9c30766146105ad578063acb18c0b146105c2578063acd1bdb4146105d7578063ad3cb1cc146105f6578063b8077c2514610633575f80fd5b80638b40db2d116100ee5780638b40db2d1461051b5780638da5cb5b1461053a578063937e09b11461054e578063a5fe07a914610563578063a884600814610599575f80fd5b8063831c43ac1461049d5780638456cb59146104bc578063880cdc31146104d0578063893d20e8146104ef575f80fd5b806345d3292b116101aa5780635c975abb1161016f5780635c975abb146104205780636805b84b1461044f5780636f9fb98a14610463578063715018a614610475578063798974dd14610489575f80fd5b806345d3292b146103b35780634f1ef286146103bb57806352d1902d146103ce5780635545db0d146103e2578063566f957814610401575f80fd5b80631f6d4942116101f05780631f6d4942146102c75780633f4ba83a1461031c578063400e39491461033057806343e9658c1461035357806345598b4a14610394575f80fd5b8063013cf08b1461022b5780630af857c1146102685780630ea142f714610289578063155ce98f146102a8575f80fd5b3661022757005b5f80fd5b348015610236575f80fd5b5061024a610245366004611f38565b6106ee565b60405161025f99989796959493929190611fb0565b60405180910390f35b348015610273575f80fd5b5061028761028236600461203e565b6107d5565b005b348015610294575f80fd5b506102876102a3366004611f38565b6108fe565b3480156102b3575f80fd5b506102876102c2366004611f38565b610af1565b3480156102d2575f80fd5b506103016102e136600461203e565b5f6020819052908152604090208054600182015460029092015490919083565b6040805193845260208401929092529082015260600161025f565b348015610327575f80fd5b50610287610b06565b34801561033b575f80fd5b5061034560065481565b60405190815260200161025f565b34801561035e575f80fd5b5061030161036d36600461203e565b6001600160a01b03165f908152602081905260409020805460018201546002909201549092565b34801561039f575f80fd5b506102876103ae366004611f38565b610b18565b610287610cfe565b6102876103c93660046120e0565b610d83565b3480156103d9575f80fd5b50610345610da2565b3480156103ed575f80fd5b506102876103fc366004611f38565b610dbd565b34801561040c575f80fd5b5061028761041b366004611f38565b61108e565b34801561042b575f80fd5b505f805160206125198339815191525460ff165b604051901515815260200161025f565b34801561045a575f80fd5b5061043f61139c565b34801561046e575f80fd5b5047610345565b348015610480575f80fd5b506102876113ba565b348015610494575f80fd5b50600654610345565b3480156104a8575f80fd5b506102876104b7366004612140565b6113cb565b3480156104c7575f80fd5b50610287611469565b3480156104db575f80fd5b506102876104ea36600461203e565b611479565b3480156104fa575f80fd5b50610503611495565b6040516001600160a01b03909116815260200161025f565b348015610526575f80fd5b50610287610535366004611f38565b61149e565b348015610545575f80fd5b506105036114b3565b348015610559575f80fd5b5061034560035481565b34801561056e575f80fd5b5061034561057d3660046121a9565b600160209081525f928352604080842090915290825290205481565b3480156105a4575f80fd5b50600454610345565b3480156105b8575f80fd5b5061034560055481565b3480156105cd575f80fd5b5061034560045481565b3480156105e2575f80fd5b506102876105f1366004611f38565b6114e1565b348015610601575f80fd5b50610626604051806040016040528060058152602001640352e302e360dc1b81525081565b60405161025f91906121d7565b34801561063e575f80fd5b5061034561064d3660046121a9565b6114f6565b34801561065d575f80fd5b5061028761066c36600461203e565b61151f565b34801561067c575f80fd5b5061069061068b366004611f38565b611652565b60405161025f9b9a9998979695949392919061222b565b3480156106b2575f80fd5b50600554610345565b3480156106c6575f80fd5b506102876106d536600461203e565b6118e6565b3480156106e5575f80fd5b50600354610345565b600260208190525f918252604090912080546001820154928201546003830180546001600160a01b0390931694939192610727906122c5565b80601f0160208091040260200160405190810160405280929190818152602001828054610753906122c5565b801561079e5780601f106107755761010080835404028352916020019161079e565b820191905f5260205f20905b81548152906001019060200180831161078157829003601f168201915b50505050600483015460058401546006850154600786015460089096015494956001600160a01b03909316949193509160ff169089565b6107dd611920565b335f9081526020819052604081206001015490036108ad57335f90815260208190526040902060020154156108655760405162461bcd60e51b815260206004820152602360248201527f5468652063726f7766756e64696e67206973206e6f742066696e6973686564206044820152621e595d60ea1b60648201526084015b60405180910390fd5b60405162461bcd60e51b815260206004820152601d60248201527f596f752068617665206e6f206d6f6e657920746f207769746864726177000000604482015260640161085c565b335f90815260208190526040808220600101805490839055905190916001600160a01b0384169183156108fc0291849190818181858888f193505050501580156108f9573d5f803e3d5ffd5b505050565b610906611920565b5f81815260026020526040902061091c81611950565b5f600782015460ff16600281111561093657610936611f9c565b148061095a57506001600782015460ff16600281111561095857610958611f9c565b145b6109df5760405162461bcd60e51b815260206004820152604a60248201527f5468652063616d706169676e20697320636f6d706c657465642073756363657360448201527f7366756c6c7920616e6420646f6e6174696f6e20636f756c64206e6f74206265606482015269103bb4ba34323930bbb760b11b608482015260a40161085c565b5f82815260016020908152604080832033845290915290205480610a535760405162461bcd60e51b815260206004820152602560248201527f596f752068617665206e6f7420646f6e6174656420746f20746869732063616d6044820152643830b4b3b760d91b606482015260840161085c565b335f9081526020819052604081206001018054839290610a74908490612311565b9091555050335f9081526020819052604081206002018054839290610a9a908490612324565b9250508190555080826006015f828254610ab49190612324565b925050819055506001826008015f828254610acf9190612324565b9091555050505f91825250600160209081526040808320338452909152812055565b610af96119a4565b610b016119d6565b600555565b610b0e6119a4565b610b16611a05565b565b610b20611920565b5f81815260026020526040902080546001600160a01b03163314610b565760405162461bcd60e51b815260040161085c90612337565b610b5f81611950565b5f600782015460ff166002811115610b7957610b79611f9c565b14610be15760405162461bcd60e51b815260206004820152603260248201527f5468652063616d706169676e206973206e6f74206163746976652e20436f756c60448201527119081b9bdd0818994818d85b98d95b1b195960721b606482015260840161085c565b60078101805460ff191660011790555f5b6009820154811015610cec575f826009018281548110610c1457610c14612382565b5f9182526020808320909101548683526001825260408084206001600160a01b03909216808552919092529120549091508015610cd0576001600160a01b0382165f9081526020819052604081206001018054839290610c75908490612311565b90915550506001600160a01b0382165f9081526020819052604081206002018054839290610ca4908490612324565b90915550505f8581526001602090815260408083206001600160a01b0386168452909152812055610cd7565b5050610cda565b50505b80610ce481612396565b915050610bf2565b505f6006820181905560089091015550565b610d06611920565b600354341015610d585760405162461bcd60e51b815260206004820152601b60248201527f4d696e696d756d20646f6e6174696f6e206973206e6f74206d65740000000000604482015260640161085c565b335f9081526020819052604081204281556001018054349290610d7c908490612311565b9091555050565b610d8b611a64565b610d9482611b08565b610d9e8282611b10565b5050565b5f610dab611bcc565b505f805160206124f983398151915290565b610dc5611920565b5f81815260026020526040902080546001600160a01b03163314610dfb5760405162461bcd60e51b815260040161085c90612337565b610e0481611950565b5f600782015460ff166002811115610e1e57610e1e611f9c565b14610e835760405162461bcd60e51b815260206004820152602f60248201527f5468652063616d706169676e206973206e6f74206163746976652e20436f756c60448201526e19081b9bdd0818994818db1bdcd959608a1b606482015260840161085c565b806005015481600601541015610eeb5760405162461bcd60e51b815260206004820152602760248201527f5468652063616d706169676e20646f6573206e6f74206861766520656e6f756760448201526668206d6f6e657960c81b606482015260840161085c565b8060060154471015610f4f5760405162461bcd60e51b815260206004820152602760248201527f54686520636f6e747261637420646f6573206e6f74206861766520656e6f756760448201526668206d6f6e657960c81b606482015260840161085c565b60078101805460ff191660021790555f5b6009820154811015611050575f826009018281548110610f8257610f82612382565b5f9182526020808320909101548683526001825260408084206001600160a01b03909216808552919092529120549091508015611034576001600160a01b0382165f9081526020819052604081206002018054839290610fe3908490612324565b90915550505f8581526001602081815260408084206001600160a01b038716808652908352908420849055600a880180549384018155845292200180546001600160a01b031916909117905561103b565b505061103e565b50505b8061104881612396565b915050610f60565b50600481015460068201546040516001600160a01b039092169181156108fc0291905f818181858888f193505050501580156108f9573d5f803e3d5ffd5b611096611920565b5f8181526002602052604090206110ac81611950565b5f600782015460ff1660028111156110c6576110c6611f9c565b146111135760405162461bcd60e51b815260206004820152601a60248201527f5468652063616d706169676e206973206e6f7420616374697665000000000000604482015260640161085c565b335f90815260208190526040812060010154900361123557335f90815260208190526040902060020154156111e15760405162461bcd60e51b815260206004820152606260248201527f596f7520646f206e6f7420686176652062616c616e636520666f72206e65772060448201527f646f6e6174696f6e2c20706c65617365207761697420666f722074686520637560648201527f7272656e74206163746976652063726f7766756e64696e6720746f2066696e696084820152610e6d60f31b60a482015260c40161085c565b60405162461bcd60e51b8152602060048201526024808201527f596f7520646f206e6f7420686176652062616c616e636520666f7220646f6e616044820152633a34b7b760e11b606482015260840161085c565b6004546112439060016123ae565b335f9081526020819052604090205461125c9042612324565b10156112be5760405162461bcd60e51b815260206004820152602b60248201527f5468652062616c616e636520796f7520646f6e61746564206973207374696c6c60448201526a20696e2070656e64696e6760a81b606482015260840161085c565b335f9081526020819052604081206001810180549083905560029091018054919283926112ec908490612311565b9250508190555080826006015f8282546113069190612311565b90915550505f838152600160209081526040808320338452909152812054900361136a576001826008015f82825461133e9190612311565b90915550506009820180546001810182555f91825260209091200180546001600160a01b031916331790555b5f83815260016020908152604080832033845290915281208054839290611392908490612311565b9091555050505050565b5f6113b55f805160206125198339815191525460ff1690565b905090565b6113c26119a4565b610b165f611c15565b6113d3611920565b600680545f90815260026020819052604090912080546001600160a01b0319163317815591546001830155429082015560038101611411858261240a565b506004810180546001600160a01b0319166001600160a01b038516179055600581018290555f600680830182905560078301805460ff191690556008830182905580549161145e83612396565b919050555050505050565b6114716119a4565b610b16611c85565b6114816119a4565b6114896119d6565b611492816118e6565b50565b5f6113b56114b3565b6114a66119a4565b6114ae6119d6565b600455565b7f9016d09d72d40fdae2fd8ceac6b6234c7706214fd39c1cd1e609a0528c199300546001600160a01b031690565b6114e96119a4565b6114f16119d6565b600355565b5f8281526001602090815260408083206001600160a01b03851684529091529020545b92915050565b7ff0c57e16840df040f15088dc2f81fe391c3923bec73e23a9662efc9c229c6a008054600160401b810460ff16159067ffffffffffffffff165f811580156115645750825b90505f8267ffffffffffffffff1660011480156115805750303b155b90508115801561158e575080155b156115ac5760405163f92ee8a960e01b815260040160405180910390fd5b845467ffffffffffffffff1916600117855583156115d657845460ff60401b1916600160401b1785555b6115de611ccd565b6115e786611cdd565b6115ef611cee565b6601902d7bb3800060035560146004556007600555831561164a57845460ff60401b19168555604051600181527fc7f505b2f371ae2175ee4913f4499e1f2633a7b5936321eed1cdaeb6115181d29060200160405180910390a15b505050505050565b5f81815260026020819052604082208054600182015492820154600390920180546001600160a01b039092169460609290918291829185918391839182919061169a906122c5565b80601f01602080910402602001604051908101604052809291908181526020018280546116c6906122c5565b80156117115780601f106116e857610100808354040283529160200191611711565b820191905f5260205f20905b8154815290600101906020018083116116f457829003601f168201915b5050505f8f8152600260205260408120600481015460058201546006830154600790930154969e506001600160a01b039091169c509a50985060ff9093169291506117599050565b81600281111561176b5761176b611f9c565b03611796576040518060400160405280600681526020016541637469766560d01b81525094506117fb565b60018160028111156117aa576117aa611f9c565b036117d65760405180604001604052806007815260200166115e1c1a5c995960ca1b81525094506117fb565b6040518060400160405280600981526020016810dbdb5c1b195d195960ba1b81525094505b5f8d8152600260209081526040918290206008810154600990910180548451818502810185019095528085529197509183018282801561186257602002820191905f5260205f20905b81546001600160a01b03168152600190910190602001808311611844575b5050505050925060025f8e81526020019081526020015f20600a018054806020026020016040519081016040528092919081815260200182805480156118cf57602002820191905f5260205f20905b81546001600160a01b031681526001909101906020018083116118b1575b505050505091505091939597999b90929496989a50565b6118ee6119a4565b6001600160a01b03811661191757604051631e4fbdf760e01b81525f600482015260240161085c565b61149281611c15565b5f805160206125198339815191525460ff1615610b165760405163d93c066560e01b815260040160405180910390fd5b5f600782015460ff16600281111561196a5761196a611f9c565b036114925760055461197f90620151806123ae565b600282015461198e9042612324565b111561149257600701805460ff19166001179055565b336119ad6114b3565b6001600160a01b031614610b165760405163118cdaa760e01b815233600482015260240161085c565b5f805160206125198339815191525460ff16610b1657604051638dfc202b60e01b815260040160405180910390fd5b611a0d6119d6565b5f80516020612519833981519152805460ff191681557f5db9ee0a495bf2e6ff9c91a7834c1ba4fdd244a5e8aa4e537bd38aeae4b073aa335b6040516001600160a01b03909116815260200160405180910390a150565b306001600160a01b037f0000000000000000000000000000000000000000000000000000000000000000161480611aea57507f00000000000000000000000000000000000000000000000000000000000000006001600160a01b0316611ade5f805160206124f9833981519152546001600160a01b031690565b6001600160a01b031614155b15610b165760405163703e46dd60e11b815260040160405180910390fd5b6114926119a4565b816001600160a01b03166352d1902d6040518163ffffffff1660e01b8152600401602060405180830381865afa925050508015611b6a575060408051601f3d908101601f19168201909252611b67918101906124c6565b60015b611b9257604051634c9c8ce360e01b81526001600160a01b038316600482015260240161085c565b5f805160206124f98339815191528114611bc257604051632a87526960e21b81526004810182905260240161085c565b6108f98383611cf6565b306001600160a01b037f00000000000000000000000000000000000000000000000000000000000000001614610b165760405163703e46dd60e11b815260040160405180910390fd5b7f9016d09d72d40fdae2fd8ceac6b6234c7706214fd39c1cd1e609a0528c19930080546001600160a01b031981166001600160a01b03848116918217845560405192169182907f8be0079c531659141344cd1fd0a4f28419497f9722a3daafe3b4186f6b6457e0905f90a3505050565b611c8d611920565b5f80516020612519833981519152805460ff191660011781557f62e78cea01bee320cd4e420270b5ea74000d11b0c9f74754ebdbfc544b05a25833611a46565b611cd5611d4b565b610b16611d94565b611ce5611d4b565b61149281611db4565b610b16611d4b565b611cff82611dbc565b6040516001600160a01b038316907fbc7cd75a20ee27fd9adebab32041f755214dbc6bffa90cc0225b39da2e5c2d3b905f90a2805115611d43576108f98282611e1f565b610d9e611e91565b7ff0c57e16840df040f15088dc2f81fe391c3923bec73e23a9662efc9c229c6a0054600160401b900460ff16610b1657604051631afcd79f60e31b815260040160405180910390fd5b611d9c611d4b565b5f80516020612519833981519152805460ff19169055565b6118ee611d4b565b806001600160a01b03163b5f03611df157604051634c9c8ce360e01b81526001600160a01b038216600482015260240161085c565b5f805160206124f983398151915280546001600160a01b0319166001600160a01b0392909216919091179055565b60605f80846001600160a01b031684604051611e3b91906124dd565b5f60405180830381855af49150503d805f8114611e73576040519150601f19603f3d011682016040523d82523d5f602084013e611e78565b606091505b5091509150611e88858383611eb0565b95945050505050565b3415610b165760405163b398979f60e01b815260040160405180910390fd5b606082611ec557611ec082611f0f565b611f08565b8151158015611edc57506001600160a01b0384163b155b15611f0557604051639996b31560e01b81526001600160a01b038516600482015260240161085c565b50805b9392505050565b805115611f1f5780518082602001fd5b604051630a12f52160e11b815260040160405180910390fd5b5f60208284031215611f48575f80fd5b5035919050565b5f5b83811015611f69578181015183820152602001611f51565b50505f910152565b5f8151808452611f88816020860160208601611f4f565b601f01601f19169290920160200192915050565b634e487b7160e01b5f52602160045260245ffd5b5f61012060018060a01b03808d1684528b60208501528a6040850152816060850152611fde8285018b611f71565b9250808916608085015250508560a08301528460c08301526003841061201257634e487b7160e01b5f52602160045260245ffd5b60e08201939093526101000152979650505050505050565b6001600160a01b0381168114611492575f80fd5b5f6020828403121561204e575f80fd5b8135611f088161202a565b634e487b7160e01b5f52604160045260245ffd5b5f67ffffffffffffffff8084111561208757612087612059565b604051601f8501601f19908116603f011681019082821181831017156120af576120af612059565b816040528093508581528686860111156120c7575f80fd5b858560208301375f602087830101525050509392505050565b5f80604083850312156120f1575f80fd5b82356120fc8161202a565b9150602083013567ffffffffffffffff811115612117575f80fd5b8301601f81018513612127575f80fd5b6121368582356020840161206d565b9150509250929050565b5f805f60608486031215612152575f80fd5b833567ffffffffffffffff811115612168575f80fd5b8401601f81018613612178575f80fd5b6121878682356020840161206d565b93505060208401356121988161202a565b929592945050506040919091013590565b5f80604083850312156121ba575f80fd5b8235915060208301356121cc8161202a565b809150509250929050565b602081525f611f086020830184611f71565b5f8151808452602080850194508084015f5b838110156122205781516001600160a01b0316875295820195908201906001016121fb565b509495945050505050565b5f61016060018060a01b03808f1684528d60208501528c60408501528160608501526122598285018d611f71565b9150808b166080850152508860a08401528760c084015282810360e08401526122828188611f71565b90508561010084015282810361012084015261229e81866121e9565b90508281036101408401526122b381856121e9565b9e9d5050505050505050505050505050565b600181811c908216806122d957607f821691505b6020821081036122f757634e487b7160e01b5f52602260045260245ffd5b50919050565b634e487b7160e01b5f52601160045260245ffd5b80820180821115611519576115196122fd565b81810381811115611519576115196122fd565b6020808252602b908201527f4f6e6c792070726f706f7365722063616e206368616e6765207468652063616d60408201526a706169676e20737461746560a81b606082015260800190565b634e487b7160e01b5f52603260045260245ffd5b5f600182016123a7576123a76122fd565b5060010190565b8082028115828204841417611519576115196122fd565b601f8211156108f9575f81815260208120601f850160051c810160208610156123eb5750805b601f850160051c820191505b8181101561164a578281556001016123f7565b815167ffffffffffffffff81111561242457612424612059565b6124388161243284546122c5565b846123c5565b602080601f83116001811461246b575f84156124545750858301515b5f19600386901b1c1916600185901b17855561164a565b5f85815260208120601f198616915b828110156124995788860151825594840194600190910190840161247a565b50858210156124b657878501515f19600388901b60f8161c191681555b5050505050600190811b01905550565b5f602082840312156124d6575f80fd5b5051919050565b5f82516124ee818460208701611f4f565b919091019291505056fe360894a13ba1a3210667c828492db98dca3e2076cc3735a920a3ca505d382bbccd5ed15c6e187e77e9aee88184c21f4f2182ab5827cb3b7e07fbedcd63f03300a26469706673582212206b8ae83cca2fb0e09a9dc9252af56ab31bfefee62c229b9cb07e0c20ce5e615c64736f6c63430008150033",
			"opcodes": "PUSH1 0xA0 PUSH1 0x40 MSTORE ADDRESS PUSH1 0x80 MSTORE CALLVALUE DUP1 ISZERO PUSH3 0x14 JUMPI PUSH0 DUP1 REVERT JUMPDEST POP PUSH3 0x1F PUSH3 0x25 JUMP JUMPDEST PUSH3 0xD9 JUMP JUMPDEST PUSH32 0xF0C57E16840DF040F15088DC2F81FE391C3923BEC73E23A9662EFC9C229C6A00 DUP1 SLOAD PUSH9 0x10000000000000000 SWAP1 DIV PUSH1 0xFF AND ISZERO PUSH3 0x76 JUMPI PUSH1 0x40 MLOAD PUSH4 0xF92EE8A9 PUSH1 0xE0 SHL DUP2 MSTORE PUSH1 0x4 ADD PUSH1 0x40 MLOAD DUP1 SWAP2 SUB SWAP1 REVERT JUMPDEST DUP1 SLOAD PUSH1 0x1 PUSH1 0x1 PUSH1 0x40 SHL SUB SWAP1 DUP2 AND EQ PUSH3 0xD6 JUMPI DUP1 SLOAD PUSH1 0x1 PUSH1 0x1 PUSH1 0x40 SHL SUB NOT AND PUSH1 0x1 PUSH1 0x1 PUSH1 0x40 SHL SUB SWAP1 DUP2 OR DUP3 SSTORE PUSH1 0x40 MLOAD SWAP1 DUP2 MSTORE PUSH32 0xC7F505B2F371AE2175EE4913F4499E1F2633A7B5936321EED1CDAEB6115181D2 SWAP1 PUSH1 0x20 ADD PUSH1 0x40 MLOAD DUP1 SWAP2 SUB SWAP1 LOG1 JUMPDEST POP JUMP JUMPDEST PUSH1 0x80 MLOAD PUSH2 0x256E PUSH3 0x100 PUSH0 CODECOPY PUSH0 DUP2 DUP2 PUSH2 0x1A6F ADD MSTORE DUP2 DUP2 PUSH2 0x1A98 ADD MSTORE PUSH2 0x1BD7 ADD MSTORE PUSH2 0x256E PUSH0 RETURN INVALID PUSH1 0x80 PUSH1 0x40 MSTORE PUSH1 0x4 CALLDATASIZE LT PUSH2 0x220 JUMPI PUSH0 CALLDATALOAD PUSH1 0xE0 SHR DUP1 PUSH4 0x831C43AC GT PUSH2 0x11E JUMPI DUP1 PUSH4 0xA9C30766 GT PUSH2 0xA8 JUMPI DUP1 PUSH4 0xC4D66DE8 GT PUSH2 0x6D JUMPI DUP1 PUSH4 0xC4D66DE8 EQ PUSH2 0x652 JUMPI DUP1 PUSH4 0xC7F758A8 EQ PUSH2 0x671 JUMPI DUP1 PUSH4 0xDF357D3E EQ PUSH2 0x6A7 JUMPI DUP1 PUSH4 0xF2FDE38B EQ PUSH2 0x6BB JUMPI DUP1 PUSH4 0xF84038B1 EQ PUSH2 0x6DA JUMPI PUSH0 DUP1 REVERT JUMPDEST DUP1 PUSH4 0xA9C30766 EQ PUSH2 0x5AD JUMPI DUP1 PUSH4 0xACB18C0B EQ PUSH2 0x5C2 JUMPI DUP1 PUSH4 0xACD1BDB4 EQ PUSH2 0x5D7 JUMPI DUP1 PUSH4 0xAD3CB1CC EQ PUSH2 0x5F6 JUMPI DUP1 PUSH4 0xB8077C25 EQ PUSH2 0x633 JUMPI PUSH0 DUP1 REVERT JUMPDEST DUP1 PUSH4 0x8B40DB2D GT PUSH2 0xEE JUMPI DUP1 PUSH4 0x8B40DB2D EQ PUSH2 0x51B JUMPI DUP1 PUSH4 0x8DA5CB5B EQ PUSH2 0x53A JUMPI DUP1 PUSH4 0x937E09B1 EQ PUSH2 0x54E JUMPI DUP1 PUSH4 0xA5FE07A9 EQ PUSH2 0x563 JUMPI DUP1 PUSH4 0xA8846008 EQ PUSH2 0x599 JUMPI PUSH0 DUP1 REVERT JUMPDEST DUP1 PUSH4 0x831C43AC EQ PUSH2 0x49D JUMPI DUP1 PUSH4 0x8456CB59 EQ PUSH2 0x4BC JUMPI DUP1 PUSH4 0x880CDC31 EQ PUSH2 0x4D0 JUMPI DUP1 PUSH4 0x893D20E8 EQ PUSH2 0x4EF JUMPI PUSH0 DUP1 REVERT JUMPDEST DUP1 PUSH4 0x45D3292B GT PUSH2 0x1AA JUMPI DUP1 PUSH4 0x5C975ABB GT PUSH2 0x16F JUMPI DUP1 PUSH4 0x5C975ABB EQ PUSH2 0x420 JUMPI DUP1 PUSH4 0x6805B84B EQ PUSH2 0x44F JUMPI DUP1 PUSH4 0x6F9FB98A EQ PUSH2 0x463 JUMPI DUP1 PUSH4 0x715018A6 EQ PUSH2 0x475 JUMPI DUP1 PUSH4 0x798974DD EQ PUSH2 0x489 JUMPI PUSH0 DUP1 REVERT JUMPDEST DUP1 PUSH4 0x45D3292B EQ PUSH2 0x3B3 JUMPI DUP1 PUSH4 0x4F1EF286 EQ PUSH2 0x3BB JUMPI DUP1 PUSH4 0x52D1902D EQ PUSH2 0x3CE JUMPI DUP1 PUSH4 0x5545DB0D EQ PUSH2 0x3E2 JUMPI DUP1 PUSH4 0x566F9578 EQ PUSH2 0x401 JUMPI PUSH0 DUP1 REVERT JUMPDEST DUP1 PUSH4 0x1F6D4942 GT PUSH2 0x1F0 JUMPI DUP1 PUSH4 0x1F6D4942 EQ PUSH2 0x2C7 JUMPI DUP1 PUSH4 0x3F4BA83A EQ PUSH2 0x31C JUMPI DUP1 PUSH4 0x400E3949 EQ PUSH2 0x330 JUMPI DUP1 PUSH4 0x43E9658C EQ PUSH2 0x353 JUMPI DUP1 PUSH4 0x45598B4A EQ PUSH2 0x394 JUMPI PUSH0 DUP1 REVERT JUMPDEST DUP1 PUSH4 0x13CF08B EQ PUSH2 0x22B JUMPI DUP1 PUSH4 0xAF857C1 EQ PUSH2 0x268 JUMPI DUP1 PUSH4 0xEA142F7 EQ PUSH2 0x289 JUMPI DUP1 PUSH4 0x155CE98F EQ PUSH2 0x2A8 JUMPI PUSH0 DUP1 REVERT JUMPDEST CALLDATASIZE PUSH2 0x227 JUMPI STOP JUMPDEST PUSH0 DUP1 REVERT JUMPDEST CALLVALUE DUP1 ISZERO PUSH2 0x236 JUMPI PUSH0 DUP1 REVERT JUMPDEST POP PUSH2 0x24A PUSH2 0x245 CALLDATASIZE PUSH1 0x4 PUSH2 0x1F38 JUMP JUMPDEST PUSH2 0x6EE JUMP JUMPDEST PUSH1 0x40 MLOAD PUSH2 0x25F SWAP10 SWAP9 SWAP8 SWAP7 SWAP6 SWAP5 SWAP4 SWAP3 SWAP2 SWAP1 PUSH2 0x1FB0 JUMP JUMPDEST PUSH1 0x40 MLOAD DUP1 SWAP2 SUB SWAP1 RETURN JUMPDEST CALLVALUE DUP1 ISZERO PUSH2 0x273 JUMPI PUSH0 DUP1 REVERT JUMPDEST POP PUSH2 0x287 PUSH2 0x282 CALLDATASIZE PUSH1 0x4 PUSH2 0x203E JUMP JUMPDEST PUSH2 0x7D5 JUMP JUMPDEST STOP JUMPDEST CALLVALUE DUP1 ISZERO PUSH2 0x294 JUMPI PUSH0 DUP1 REVERT JUMPDEST POP PUSH2 0x287 PUSH2 0x2A3 CALLDATASIZE PUSH1 0x4 PUSH2 0x1F38 JUMP JUMPDEST PUSH2 0x8FE JUMP JUMPDEST CALLVALUE DUP1 ISZERO PUSH2 0x2B3 JUMPI PUSH0 DUP1 REVERT JUMPDEST POP PUSH2 0x287 PUSH2 0x2C2 CALLDATASIZE PUSH1 0x4 PUSH2 0x1F38 JUMP JUMPDEST PUSH2 0xAF1 JUMP JUMPDEST CALLVALUE DUP1 ISZERO PUSH2 0x2D2 JUMPI PUSH0 DUP1 REVERT JUMPDEST POP PUSH2 0x301 PUSH2 0x2E1 CALLDATASIZE PUSH1 0x4 PUSH2 0x203E JUMP JUMPDEST PUSH0 PUSH1 0x20 DUP2 SWAP1 MSTORE SWAP1 DUP2 MSTORE PUSH1 0x40 SWAP1 KECCAK256 DUP1 SLOAD PUSH1 0x1 DUP3 ADD SLOAD PUSH1 0x2 SWAP1 SWAP3 ADD SLOAD SWAP1 SWAP2 SWAP1 DUP4 JUMP JUMPDEST PUSH1 0x40 DUP1 MLOAD SWAP4 DUP5 MSTORE PUSH1 0x20 DUP5 ADD SWAP3 SWAP1 SWAP3 MSTORE SWAP1 DUP3 ADD MSTORE PUSH1 0x60 ADD PUSH2 0x25F JUMP JUMPDEST CALLVALUE DUP1 ISZERO PUSH2 0x327 JUMPI PUSH0 DUP1 REVERT JUMPDEST POP PUSH2 0x287 PUSH2 0xB06 JUMP JUMPDEST CALLVALUE DUP1 ISZERO PUSH2 0x33B JUMPI PUSH0 DUP1 REVERT JUMPDEST POP PUSH2 0x345 PUSH1 0x6 SLOAD DUP2 JUMP JUMPDEST PUSH1 0x40 MLOAD SWAP1 DUP2 MSTORE PUSH1 0x20 ADD PUSH2 0x25F JUMP JUMPDEST CALLVALUE DUP1 ISZERO PUSH2 0x35E JUMPI PUSH0 DUP1 REVERT JUMPDEST POP PUSH2 0x301 PUSH2 0x36D CALLDATASIZE PUSH1 0x4 PUSH2 0x203E JUMP JUMPDEST PUSH1 0x1 PUSH1 0x1 PUSH1 0xA0 SHL SUB AND PUSH0 SWAP1 DUP2 MSTORE PUSH1 0x20 DUP2 SWAP1 MSTORE PUSH1 0x40 SWAP1 KECCAK256 DUP1 SLOAD PUSH1 0x1 DUP3 ADD SLOAD PUSH1 0x2 SWAP1 SWAP3 ADD SLOAD SWAP1 SWAP3 JUMP JUMPDEST CALLVALUE DUP1 ISZERO PUSH2 0x39F JUMPI PUSH0 DUP1 REVERT JUMPDEST POP PUSH2 0x287 PUSH2 0x3AE CALLDATASIZE PUSH1 0x4 PUSH2 0x1F38 JUMP JUMPDEST PUSH2 0xB18 JUMP JUMPDEST PUSH2 0x287 PUSH2 0xCFE JUMP JUMPDEST PUSH2 0x287 PUSH2 0x3C9 CALLDATASIZE PUSH1 0x4 PUSH2 0x20E0 JUMP JUMPDEST PUSH2 0xD83 JUMP JUMPDEST CALLVALUE DUP1 ISZERO PUSH2 0x3D9 JUMPI PUSH0 DUP1 REVERT JUMPDEST POP PUSH2 0x345 PUSH2 0xDA2 JUMP JUMPDEST CALLVALUE DUP1 ISZERO PUSH2 0x3ED JUMPI PUSH0 DUP1 REVERT JUMPDEST POP PUSH2 0x287 PUSH2 0x3FC CALLDATASIZE PUSH1 0x4 PUSH2 0x1F38 JUMP JUMPDEST PUSH2 0xDBD JUMP JUMPDEST CALLVALUE DUP1 ISZERO PUSH2 0x40C JUMPI PUSH0 DUP1 REVERT JUMPDEST POP PUSH2 0x287 PUSH2 0x41B CALLDATASIZE PUSH1 0x4 PUSH2 0x1F38 JUMP JUMPDEST PUSH2 0x108E JUMP JUMPDEST CALLVALUE DUP1 ISZERO PUSH2 0x42B JUMPI PUSH0 DUP1 REVERT JUMPDEST POP PUSH0 DUP1 MLOAD PUSH1 0x20 PUSH2 0x2519 DUP4 CODECOPY DUP2 MLOAD SWAP2 MSTORE SLOAD PUSH1 0xFF AND JUMPDEST PUSH1 0x40 MLOAD SWAP1 ISZERO ISZERO DUP2 MSTORE PUSH1 0x20 ADD PUSH2 0x25F JUMP JUMPDEST CALLVALUE DUP1 ISZERO PUSH2 0x45A JUMPI PUSH0 DUP1 REVERT JUMPDEST POP PUSH2 0x43F PUSH2 0x139C JUMP JUMPDEST CALLVALUE DUP1 ISZERO PUSH2 0x46E JUMPI PUSH0 DUP1 REVERT JUMPDEST POP SELFBALANCE PUSH2 0x345 JUMP JUMPDEST CALLVALUE DUP1 ISZERO PUSH2 0x480 JUMPI PUSH0 DUP1 REVERT JUMPDEST POP PUSH2 0x287 PUSH2 0x13BA JUMP JUMPDEST CALLVALUE DUP1 ISZERO PUSH2 0x494 JUMPI PUSH0 DUP1 REVERT JUMPDEST POP PUSH1 0x6 SLOAD PUSH2 0x345 JUMP JUMPDEST CALLVALUE DUP1 ISZERO PUSH2 0x4A8 JUMPI PUSH0 DUP1 REVERT JUMPDEST POP PUSH2 0x287 PUSH2 0x4B7 CALLDATASIZE PUSH1 0x4 PUSH2 0x2140 JUMP JUMPDEST PUSH2 0x13CB JUMP JUMPDEST CALLVALUE DUP1 ISZERO PUSH2 0x4C7 JUMPI PUSH0 DUP1 REVERT JUMPDEST POP PUSH2 0x287 PUSH2 0x1469 JUMP JUMPDEST CALLVALUE DUP1 ISZERO PUSH2 0x4DB JUMPI PUSH0 DUP1 REVERT JUMPDEST POP PUSH2 0x287 PUSH2 0x4EA CALLDATASIZE PUSH1 0x4 PUSH2 0x203E JUMP JUMPDEST PUSH2 0x1479 JUMP JUMPDEST CALLVALUE DUP1 ISZERO PUSH2 0x4FA JUMPI PUSH0 DUP1 REVERT JUMPDEST POP PUSH2 0x503 PUSH2 0x1495 JUMP JUMPDEST PUSH1 0x40 MLOAD PUSH1 0x1 PUSH1 0x1 PUSH1 0xA0 SHL SUB SWAP1 SWAP2 AND DUP2 MSTORE PUSH1 0x20 ADD PUSH2 0x25F JUMP JUMPDEST CALLVALUE DUP1 ISZERO PUSH2 0x526 JUMPI PUSH0 DUP1 REVERT JUMPDEST POP PUSH2 0x287 PUSH2 0x535 CALLDATASIZE PUSH1 0x4 PUSH2 0x1F38 JUMP JUMPDEST PUSH2 0x149E JUMP JUMPDEST CALLVALUE DUP1 ISZERO PUSH2 0x545 JUMPI PUSH0 DUP1 REVERT JUMPDEST POP PUSH2 0x503 PUSH2 0x14B3 JUMP JUMPDEST CALLVALUE DUP1 ISZERO PUSH2 0x559 JUMPI PUSH0 DUP1 REVERT JUMPDEST POP PUSH2 0x345 PUSH1 0x3 SLOAD DUP2 JUMP JUMPDEST CALLVALUE DUP1 ISZERO PUSH2 0x56E JUMPI PUSH0 DUP1 REVERT JUMPDEST POP PUSH2 0x345 PUSH2 0x57D CALLDATASIZE PUSH1 0x4 PUSH2 0x21A9 JUMP JUMPDEST PUSH1 0x1 PUSH1 0x20 SWAP1 DUP2 MSTORE PUSH0 SWAP3 DUP4 MSTORE PUSH1 0x40 DUP1 DUP5 KECCAK256 SWAP1 SWAP2 MSTORE SWAP1 DUP3 MSTORE SWAP1 KECCAK256 SLOAD DUP2 JUMP JUMPDEST CALLVALUE DUP1 ISZERO PUSH2 0x5A4 JUMPI PUSH0 DUP1 REVERT JUMPDEST POP PUSH1 0x4 SLOAD PUSH2 0x345 JUMP JUMPDEST CALLVALUE DUP1 ISZERO PUSH2 0x5B8 JUMPI PUSH0 DUP1 REVERT JUMPDEST POP PUSH2 0x345 PUSH1 0x5 SLOAD DUP2 JUMP JUMPDEST CALLVALUE DUP1 ISZERO PUSH2 0x5CD JUMPI PUSH0 DUP1 REVERT JUMPDEST POP PUSH2 0x345 PUSH1 0x4 SLOAD DUP2 JUMP JUMPDEST CALLVALUE DUP1 ISZERO PUSH2 0x5E2 JUMPI PUSH0 DUP1 REVERT JUMPDEST POP PUSH2 0x287 PUSH2 0x5F1 CALLDATASIZE PUSH1 0x4 PUSH2 0x1F38 JUMP JUMPDEST PUSH2 0x14E1 JUMP JUMPDEST CALLVALUE DUP1 ISZERO PUSH2 0x601 JUMPI PUSH0 DUP1 REVERT JUMPDEST POP PUSH2 0x626 PUSH1 0x40 MLOAD DUP1 PUSH1 0x40 ADD PUSH1 0x40 MSTORE DUP1 PUSH1 0x5 DUP2 MSTORE PUSH1 0x20 ADD PUSH5 0x352E302E3 PUSH1 0xDC SHL DUP2 MSTORE POP DUP2 JUMP JUMPDEST PUSH1 0x40 MLOAD PUSH2 0x25F SWAP2 SWAP1 PUSH2 0x21D7 JUMP JUMPDEST CALLVALUE DUP1 ISZERO PUSH2 0x63E JUMPI PUSH0 DUP1 REVERT JUMPDEST POP PUSH2 0x345 PUSH2 0x64D CALLDATASIZE PUSH1 0x4 PUSH2 0x21A9 JUMP JUMPDEST PUSH2 0x14F6 JUMP JUMPDEST CALLVALUE DUP1 ISZERO PUSH2 0x65D JUMPI PUSH0 DUP1 REVERT JUMPDEST POP PUSH2 0x287 PUSH2 0x66C CALLDATASIZE PUSH1 0x4 PUSH2 0x203E JUMP JUMPDEST PUSH2 0x151F JUMP JUMPDEST CALLVALUE DUP1 ISZERO PUSH2 0x67C JUMPI PUSH0 DUP1 REVERT JUMPDEST POP PUSH2 0x690 PUSH2 0x68B CALLDATASIZE PUSH1 0x4 PUSH2 0x1F38 JUMP JUMPDEST PUSH2 0x1652 JUMP JUMPDEST PUSH1 0x40 MLOAD PUSH2 0x25F SWAP12 SWAP11 SWAP10 SWAP9 SWAP8 SWAP7 SWAP6 SWAP5 SWAP4 SWAP3 SWAP2 SWAP1 PUSH2 0x222B JUMP JUMPDEST CALLVALUE DUP1 ISZERO PUSH2 0x6B2 JUMPI PUSH0 DUP1 REVERT JUMPDEST POP PUSH1 0x5 SLOAD PUSH2 0x345 JUMP JUMPDEST CALLVALUE DUP1 ISZERO PUSH2 0x6C6 JUMPI PUSH0 DUP1 REVERT JUMPDEST POP PUSH2 0x287 PUSH2 0x6D5 CALLDATASIZE PUSH1 0x4 PUSH2 0x203E JUMP JUMPDEST PUSH2 0x18E6 JUMP JUMPDEST CALLVALUE DUP1 ISZERO PUSH2 0x6E5 JUMPI PUSH0 DUP1 REVERT JUMPDEST POP PUSH1 0x3 SLOAD PUSH2 0x345 JUMP JUMPDEST PUSH1 0x2 PUSH1 0x20 DUP2 SWAP1 MSTORE PUSH0 SWAP2 DUP3 MSTORE PUSH1 0x40 SWAP1 SWAP2 KECCAK256 DUP1 SLOAD PUSH1 0x1 DUP3 ADD SLOAD SWAP3 DUP3 ADD SLOAD PUSH1 0x3 DUP4 ADD DUP1 SLOAD PUSH1 0x1 PUSH1 0x1 PUSH1 0xA0 SHL SUB SWAP1 SWAP4 AND SWAP5 SWAP4 SWAP2 SWAP3 PUSH2 0x727 SWAP1 PUSH2 0x22C5 JUMP JUMPDEST DUP1 PUSH1 0x1F ADD PUSH1 0x20 DUP1 SWAP2 DIV MUL PUSH1 0x20 ADD PUSH1 0x40 MLOAD SWAP1 DUP2 ADD PUSH1 0x40 MSTORE DUP1 SWAP3 SWAP2 SWAP1 DUP2 DUP2 MSTORE PUSH1 0x20 ADD DUP3 DUP1 SLOAD PUSH2 0x753 SWAP1 PUSH2 0x22C5 JUMP JUMPDEST DUP1 ISZERO PUSH2 0x79E JUMPI DUP1 PUSH1 0x1F LT PUSH2 0x775 JUMPI PUSH2 0x100 DUP1 DUP4 SLOAD DIV MUL DUP4 MSTORE SWAP2 PUSH1 0x20 ADD SWAP2 PUSH2 0x79E JUMP JUMPDEST DUP3 ADD SWAP2 SWAP1 PUSH0 MSTORE PUSH1 0x20 PUSH0 KECCAK256 SWAP1 JUMPDEST DUP2 SLOAD DUP2 MSTORE SWAP1 PUSH1 0x1 ADD SWAP1 PUSH1 0x20 ADD DUP1 DUP4 GT PUSH2 0x781 JUMPI DUP3 SWAP1 SUB PUSH1 0x1F AND DUP3 ADD SWAP2 JUMPDEST POP POP POP POP PUSH1 0x4 DUP4 ADD SLOAD PUSH1 0x5 DUP5 ADD SLOAD PUSH1 0x6 DUP6 ADD SLOAD PUSH1 0x7 DUP7 ADD SLOAD PUSH1 0x8 SWAP1 SWAP7 ADD SLOAD SWAP5 SWAP6 PUSH1 0x1 PUSH1 0x1 PUSH1 0xA0 SHL SUB SWAP1 SWAP4 AND SWAP5 SWAP2 SWAP4 POP SWAP2 PUSH1 0xFF AND SWAP1 DUP10 JUMP JUMPDEST PUSH2 0x7DD PUSH2 0x1920 JUMP JUMPDEST CALLER PUSH0 SWAP1 DUP2 MSTORE PUSH1 0x20 DUP2 SWAP1 MSTORE PUSH1 0x40 DUP2 KECCAK256 PUSH1 0x1 ADD SLOAD SWAP1 SUB PUSH2 0x8AD JUMPI CALLER PUSH0 SWAP1 DUP2 MSTORE PUSH1 0x20 DUP2 SWAP1 MSTORE PUSH1 0x40 SWAP1 KECCAK256 PUSH1 0x2 ADD SLOAD ISZERO PUSH2 0x865 JUMPI PUSH1 0x40 MLOAD PUSH3 0x461BCD PUSH1 0xE5 SHL DUP2 MSTORE PUSH1 0x20 PUSH1 0x4 DUP3 ADD MSTORE PUSH1 0x23 PUSH1 0x24 DUP3 ADD MSTORE PUSH32 0x5468652063726F7766756E64696E67206973206E6F742066696E697368656420 PUSH1 0x44 DUP3 ADD MSTORE PUSH3 0x1E595D PUSH1 0xEA SHL PUSH1 0x64 DUP3 ADD MSTORE PUSH1 0x84 ADD JUMPDEST PUSH1 0x40 MLOAD DUP1 SWAP2 SUB SWAP1 REVERT JUMPDEST PUSH1 0x40 MLOAD PUSH3 0x461BCD PUSH1 0xE5 SHL DUP2 MSTORE PUSH1 0x20 PUSH1 0x4 DUP3 ADD MSTORE PUSH1 0x1D PUSH1 0x24 DUP3 ADD MSTORE PUSH32 0x596F752068617665206E6F206D6F6E657920746F207769746864726177000000 PUSH1 0x44 DUP3 ADD MSTORE PUSH1 0x64 ADD PUSH2 0x85C JUMP JUMPDEST CALLER PUSH0 SWAP1 DUP2 MSTORE PUSH1 0x20 DUP2 SWAP1 MSTORE PUSH1 0x40 DUP1 DUP3 KECCAK256 PUSH1 0x1 ADD DUP1 SLOAD SWAP1 DUP4 SWAP1 SSTORE SWAP1 MLOAD SWAP1 SWAP2 PUSH1 0x1 PUSH1 0x1 PUSH1 0xA0 SHL SUB DUP5 AND SWAP2 DUP4 ISZERO PUSH2 0x8FC MUL SWAP2 DUP5 SWAP2 SWAP1 DUP2 DUP2 DUP2 DUP6 DUP9 DUP9 CALL SWAP4 POP POP POP POP ISZERO DUP1 ISZERO PUSH2 0x8F9 JUMPI RETURNDATASIZE PUSH0 DUP1 RETURNDATACOPY RETURNDATASIZE PUSH0 REVERT JUMPDEST POP POP POP JUMP JUMPDEST PUSH2 0x906 PUSH2 0x1920 JUMP JUMPDEST PUSH0 DUP2 DUP2 MSTORE PUSH1 0x2 PUSH1 0x20 MSTORE PUSH1 0x40 SWAP1 KECCAK256 PUSH2 0x91C DUP2 PUSH2 0x1950 JUMP JUMPDEST PUSH0 PUSH1 0x7 DUP3 ADD SLOAD PUSH1 0xFF AND PUSH1 0x2 DUP2 GT ISZERO PUSH2 0x936 JUMPI PUSH2 0x936 PUSH2 0x1F9C JUMP JUMPDEST EQ DUP1 PUSH2 0x95A JUMPI POP PUSH1 0x1 PUSH1 0x7 DUP3 ADD SLOAD PUSH1 0xFF AND PUSH1 0x2 DUP2 GT ISZERO PUSH2 0x958 JUMPI PUSH2 0x958 PUSH2 0x1F9C JUMP JUMPDEST EQ JUMPDEST PUSH2 0x9DF JUMPI PUSH1 0x40 MLOAD PUSH3 0x461BCD PUSH1 0xE5 SHL DUP2 MSTORE PUSH1 0x20 PUSH1 0x4 DUP3 ADD MSTORE PUSH1 0x4A PUSH1 0x24 DUP3 ADD MSTORE PUSH32 0x5468652063616D706169676E20697320636F6D706C6574656420737563636573 PUSH1 0x44 DUP3 ADD MSTORE PUSH32 0x7366756C6C7920616E6420646F6E6174696F6E20636F756C64206E6F74206265 PUSH1 0x64 DUP3 ADD MSTORE PUSH10 0x103BB4BA34323930BBB7 PUSH1 0xB1 SHL PUSH1 0x84 DUP3 ADD MSTORE PUSH1 0xA4 ADD PUSH2 0x85C JUMP JUMPDEST PUSH0 DUP3 DUP2 MSTORE PUSH1 0x1 PUSH1 0x20 SWAP1 DUP2 MSTORE PUSH1 0x40 DUP1 DUP4 KECCAK256 CALLER DUP5 MSTORE SWAP1 SWAP2 MSTORE SWAP1 KECCAK256 SLOAD DUP1 PUSH2 0xA53 JUMPI PUSH1 0x40 MLOAD PUSH3 0x461BCD PUSH1 0xE5 SHL DUP2 MSTORE PUSH1 0x20 PUSH1 0x4 DUP3 ADD MSTORE PUSH1 0x25 PUSH1 0x24 DUP3 ADD MSTORE PUSH32 0x596F752068617665206E6F7420646F6E6174656420746F20746869732063616D PUSH1 0x44 DUP3 ADD MSTORE PUSH5 0x3830B4B3B7 PUSH1 0xD9 SHL PUSH1 0x64 DUP3 ADD MSTORE PUSH1 0x84 ADD PUSH2 0x85C JUMP JUMPDEST CALLER PUSH0 SWAP1 DUP2 MSTORE PUSH1 0x20 DUP2 SWAP1 MSTORE PUSH1 0x40 DUP2 KECCAK256 PUSH1 0x1 ADD DUP1 SLOAD DUP4 SWAP3 SWAP1 PUSH2 0xA74 SWAP1 DUP5 SWAP1 PUSH2 0x2311 JUMP JUMPDEST SWAP1 SWAP2 SSTORE POP POP CALLER PUSH0 SWAP1 DUP2 MSTORE PUSH1 0x20 DUP2 SWAP1 MSTORE PUSH1 0x40 DUP2 KECCAK256 PUSH1 0x2 ADD DUP1 SLOAD DUP4 SWAP3 SWAP1 PUSH2 0xA9A SWAP1 DUP5 SWAP1 PUSH2 0x2324 JUMP JUMPDEST SWAP3 POP POP DUP2 SWAP1 SSTORE POP DUP1 DUP3 PUSH1 0x6 ADD PUSH0 DUP3 DUP3 SLOAD PUSH2 0xAB4 SWAP2 SWAP1 PUSH2 0x2324 JUMP JUMPDEST SWAP3 POP POP DUP2 SWAP1 SSTORE POP PUSH1 0x1 DUP3 PUSH1 0x8 ADD PUSH0 DUP3 DUP3 SLOAD PUSH2 0xACF SWAP2 SWAP1 PUSH2 0x2324 JUMP JUMPDEST SWAP1 SWAP2 SSTORE POP POP POP PUSH0 SWAP2 DUP3 MSTORE POP PUSH1 0x1 PUSH1 0x20 SWAP1 DUP2 MSTORE PUSH1 0x40 DUP1 DUP4 KECCAK256 CALLER DUP5 MSTORE SWAP1 SWAP2 MSTORE DUP2 KECCAK256 SSTORE JUMP JUMPDEST PUSH2 0xAF9 PUSH2 0x19A4 JUMP JUMPDEST PUSH2 0xB01 PUSH2 0x19D6 JUMP JUMPDEST PUSH1 0x5 SSTORE JUMP JUMPDEST PUSH2 0xB0E PUSH2 0x19A4 JUMP JUMPDEST PUSH2 0xB16 PUSH2 0x1A05 JUMP JUMPDEST JUMP JUMPDEST PUSH2 0xB20 PUSH2 0x1920 JUMP JUMPDEST PUSH0 DUP2 DUP2 MSTORE PUSH1 0x2 PUSH1 0x20 MSTORE PUSH1 0x40 SWAP1 KECCAK256 DUP1 SLOAD PUSH1 0x1 PUSH1 0x1 PUSH1 0xA0 SHL SUB AND CALLER EQ PUSH2 0xB56 JUMPI PUSH1 0x40 MLOAD PUSH3 0x461BCD PUSH1 0xE5 SHL DUP2 MSTORE PUSH1 0x4 ADD PUSH2 0x85C SWAP1 PUSH2 0x2337 JUMP JUMPDEST PUSH2 0xB5F DUP2 PUSH2 0x1950 JUMP JUMPDEST PUSH0 PUSH1 0x7 DUP3 ADD SLOAD PUSH1 0xFF AND PUSH1 0x2 DUP2 GT ISZERO PUSH2 0xB79 JUMPI PUSH2 0xB79 PUSH2 0x1F9C JUMP JUMPDEST EQ PUSH2 0xBE1 JUMPI PUSH1 0x40 MLOAD PUSH3 0x461BCD PUSH1 0xE5 SHL DUP2 MSTORE PUSH1 0x20 PUSH1 0x4 DUP3 ADD MSTORE PUSH1 0x32 PUSH1 0x24 DUP3 ADD MSTORE PUSH32 0x5468652063616D706169676E206973206E6F74206163746976652E20436F756C PUSH1 0x44 DUP3 ADD MSTORE PUSH18 0x19081B9BDD0818994818D85B98D95B1B1959 PUSH1 0x72 SHL PUSH1 0x64 DUP3 ADD MSTORE PUSH1 0x84 ADD PUSH2 0x85C JUMP JUMPDEST PUSH1 0x7 DUP2 ADD DUP1 SLOAD PUSH1 0xFF NOT AND PUSH1 0x1 OR SWAP1 SSTORE PUSH0 JUMPDEST PUSH1 0x9 DUP3 ADD SLOAD DUP2 LT ISZERO PUSH2 0xCEC JUMPI PUSH0 DUP3 PUSH1 0x9 ADD DUP3 DUP2 SLOAD DUP2 LT PUSH2 0xC14 JUMPI PUSH2 0xC14 PUSH2 0x2382 JUMP JUMPDEST PUSH0 SWAP2 DUP3 MSTORE PUSH1 0x20 DUP1 DUP4 KECCAK256 SWAP1 SWAP2 ADD SLOAD DUP7 DUP4 MSTORE PUSH1 0x1 DUP3 MSTORE PUSH1 0x40 DUP1 DUP5 KECCAK256 PUSH1 0x1 PUSH1 0x1 PUSH1 0xA0 SHL SUB SWAP1 SWAP3 AND DUP1 DUP6 MSTORE SWAP2 SWAP1 SWAP3 MSTORE SWAP2 KECCAK256 SLOAD SWAP1 SWAP2 POP DUP1 ISZERO PUSH2 0xCD0 JUMPI PUSH1 0x1 PUSH1 0x1 PUSH1 0xA0 SHL SUB DUP3 AND PUSH0 SWAP1 DUP2 MSTORE PUSH1 0x20 DUP2 SWAP1 MSTORE PUSH1 0x40 DUP2 KECCAK256 PUSH1 0x1 ADD DUP1 SLOAD DUP4 SWAP3 SWAP1 PUSH2 0xC75 SWAP1 DUP5 SWAP1 PUSH2 0x2311 JUMP JUMPDEST SWAP1 SWAP2 SSTORE POP POP PUSH1 0x1 PUSH1 0x1 PUSH1 0xA0 SHL SUB DUP3 AND PUSH0 SWAP1 DUP2 MSTORE PUSH1 0x20 DUP2 SWAP1 MSTORE PUSH1 0x40 DUP2 KECCAK256 PUSH1 0x2 ADD DUP1 SLOAD DUP4 SWAP3 SWAP1 PUSH2 0xCA4 SWAP1 DUP5 SWAP1 PUSH2 0x2324 JUMP JUMPDEST SWAP1 SWAP2 SSTORE POP POP PUSH0 DUP6 DUP2 MSTORE PUSH1 0x1 PUSH1 0x20 SWAP1 DUP2 MSTORE PUSH1 0x40 DUP1 DUP4 KECCAK256 PUSH1 0x1 PUSH1 0x1 PUSH1 0xA0 SHL SUB DUP7 AND DUP5 MSTORE SWAP1 SWAP2 MSTORE DUP2 KECCAK256 SSTORE PUSH2 0xCD7 JUMP JUMPDEST POP POP PUSH2 0xCDA JUMP JUMPDEST POP POP JUMPDEST DUP1 PUSH2 0xCE4 DUP2 PUSH2 0x2396 JUMP JUMPDEST SWAP2 POP POP PUSH2 0xBF2 JUMP JUMPDEST POP PUSH0 PUSH1 0x6 DUP3 ADD DUP2 SWAP1 SSTORE PUSH1 0x8 SWAP1 SWAP2 ADD SSTORE POP JUMP JUMPDEST PUSH2 0xD06 PUSH2 0x1920 JUMP JUMPDEST PUSH1 0x3 SLOAD CALLVALUE LT ISZERO PUSH2 0xD58 JUMPI PUSH1 0x40 MLOAD PUSH3 0x461BCD PUSH1 0xE5 SHL DUP2 MSTORE PUSH1 0x20 PUSH1 0x4 DUP3 ADD MSTORE PUSH1 0x1B PUSH1 0x24 DUP3 ADD MSTORE PUSH32 0x4D696E696D756D20646F6E6174696F6E206973206E6F74206D65740000000000 PUSH1 0x44 DUP3 ADD MSTORE PUSH1 0x64 ADD PUSH2 0x85C JUMP JUMPDEST CALLER PUSH0 SWAP1 DUP2 MSTORE PUSH1 0x20 DUP2 SWAP1 MSTORE PUSH1 0x40 DUP2 KECCAK256 TIMESTAMP DUP2 SSTORE PUSH1 0x1 ADD DUP1 SLOAD CALLVALUE SWAP3 SWAP1 PUSH2 0xD7C SWAP1 DUP5 SWAP1 PUSH2 0x2311 JUMP JUMPDEST SWAP1 SWAP2 SSTORE POP POP JUMP JUMPDEST PUSH2 0xD8B PUSH2 0x1A64 JUMP JUMPDEST PUSH2 0xD94 DUP3 PUSH2 0x1B08 JUMP JUMPDEST PUSH2 0xD9E DUP3 DUP3 PUSH2 0x1B10 JUMP JUMPDEST POP POP JUMP JUMPDEST PUSH0 PUSH2 0xDAB PUSH2 0x1BCC JUMP JUMPDEST POP PUSH0 DUP1 MLOAD PUSH1 0x20 PUSH2 0x24F9 DUP4 CODECOPY DUP2 MLOAD SWAP2 MSTORE SWAP1 JUMP JUMPDEST PUSH2 0xDC5 PUSH2 0x1920 JUMP JUMPDEST PUSH0 DUP2 DUP2 MSTORE PUSH1 0x2 PUSH1 0x20 MSTORE PUSH1 0x40 SWAP1 KECCAK256 DUP1 SLOAD PUSH1 0x1 PUSH1 0x1 PUSH1 0xA0 SHL SUB AND CALLER EQ PUSH2 0xDFB JUMPI PUSH1 0x40 MLOAD PUSH3 0x461BCD PUSH1 0xE5 SHL DUP2 MSTORE PUSH1 0x4 ADD PUSH2 0x85C SWAP1 PUSH2 0x2337 JUMP JUMPDEST PUSH2 0xE04 DUP2 PUSH2 0x1950 JUMP JUMPDEST PUSH0 PUSH1 0x7 DUP3 ADD SLOAD PUSH1 0xFF AND PUSH1 0x2 DUP2 GT ISZERO PUSH2 0xE1E JUMPI PUSH2 0xE1E PUSH2 0x1F9C JUMP JUMPDEST EQ PUSH2 0xE83 JUMPI PUSH1 0x40 MLOAD PUSH3 0x461BCD PUSH1 0xE5 SHL DUP2 MSTORE PUSH1 0x20 PUSH1 0x4 DUP3 ADD MSTORE PUSH1 0x2F PUSH1 0x24 DUP3 ADD MSTORE PUSH32 0x5468652063616D706169676E206973206E6F74206163746976652E20436F756C PUSH1 0x44 DUP3 ADD MSTORE PUSH15 0x19081B9BDD0818994818DB1BDCD959 PUSH1 0x8A SHL PUSH1 0x64 DUP3 ADD MSTORE PUSH1 0x84 ADD PUSH2 0x85C JUMP JUMPDEST DUP1 PUSH1 0x5 ADD SLOAD DUP2 PUSH1 0x6 ADD SLOAD LT ISZERO PUSH2 0xEEB JUMPI PUSH1 0x40 MLOAD PUSH3 0x461BCD PUSH1 0xE5 SHL DUP2 MSTORE PUSH1 0x20 PUSH1 0x4 DUP3 ADD MSTORE PUSH1 0x27 PUSH1 0x24 DUP3 ADD MSTORE PUSH32 0x5468652063616D706169676E20646F6573206E6F74206861766520656E6F7567 PUSH1 0x44 DUP3 ADD MSTORE PUSH7 0x68206D6F6E6579 PUSH1 0xC8 SHL PUSH1 0x64 DUP3 ADD MSTORE PUSH1 0x84 ADD PUSH2 0x85C JUMP JUMPDEST DUP1 PUSH1 0x6 ADD SLOAD SELFBALANCE LT ISZERO PUSH2 0xF4F JUMPI PUSH1 0x40 MLOAD PUSH3 0x461BCD PUSH1 0xE5 SHL DUP2 MSTORE PUSH1 0x20 PUSH1 0x4 DUP3 ADD MSTORE PUSH1 0x27 PUSH1 0x24 DUP3 ADD MSTORE PUSH32 0x54686520636F6E747261637420646F6573206E6F74206861766520656E6F7567 PUSH1 0x44 DUP3 ADD MSTORE PUSH7 0x68206D6F6E6579 PUSH1 0xC8 SHL PUSH1 0x64 DUP3 ADD MSTORE PUSH1 0x84 ADD PUSH2 0x85C JUMP JUMPDEST PUSH1 0x7 DUP2 ADD DUP1 SLOAD PUSH1 0xFF NOT AND PUSH1 0x2 OR SWAP1 SSTORE PUSH0 JUMPDEST PUSH1 0x9 DUP3 ADD SLOAD DUP2 LT ISZERO PUSH2 0x1050 JUMPI PUSH0 DUP3 PUSH1 0x9 ADD DUP3 DUP2 SLOAD DUP2 LT PUSH2 0xF82 JUMPI PUSH2 0xF82 PUSH2 0x2382 JUMP JUMPDEST PUSH0 SWAP2 DUP3 MSTORE PUSH1 0x20 DUP1 DUP4 KECCAK256 SWAP1 SWAP2 ADD SLOAD DUP7 DUP4 MSTORE PUSH1 0x1 DUP3 MSTORE PUSH1 0x40 DUP1 DUP5 KECCAK256 PUSH1 0x1 PUSH1 0x1 PUSH1 0xA0 SHL SUB SWAP1 SWAP3 AND DUP1 DUP6 MSTORE SWAP2 SWAP1 SWAP3 MSTORE SWAP2 KECCAK256 SLOAD SWAP1 SWAP2 POP DUP1 ISZERO PUSH2 0x1034 JUMPI PUSH1 0x1 PUSH1 0x1 PUSH1 0xA0 SHL SUB DUP3 AND PUSH0 SWAP1 DUP2 MSTORE PUSH1 0x20 DUP2 SWAP1 MSTORE PUSH1 0x40 DUP2 KECCAK256 PUSH1 0x2 ADD DUP1 SLOAD DUP4 SWAP3 SWAP1 PUSH2 0xFE3 SWAP1 DUP5 SWAP1 PUSH2 0x2324 JUMP JUMPDEST SWAP1 SWAP2 SSTORE POP POP PUSH0 DUP6 DUP2 MSTORE PUSH1 0x1 PUSH1 0x20 DUP2 DUP2 MSTORE PUSH1 0x40 DUP1 DUP5 KECCAK256 PUSH1 0x1 PUSH1 0x1 PUSH1 0xA0 SHL SUB DUP8 AND DUP1 DUP7 MSTORE SWAP1 DUP4 MSTORE SWAP1 DUP5 KECCAK256 DUP5 SWAP1 SSTORE PUSH1 0xA DUP9 ADD DUP1 SLOAD SWAP4 DUP5 ADD DUP2 SSTORE DUP5 MSTORE SWAP3 KECCAK256 ADD DUP1 SLOAD PUSH1 0x1 PUSH1 0x1 PUSH1 0xA0 SHL SUB NOT AND SWAP1 SWAP2 OR SWAP1 SSTORE PUSH2 0x103B JUMP JUMPDEST POP POP PUSH2 0x103E JUMP JUMPDEST POP POP JUMPDEST DUP1 PUSH2 0x1048 DUP2 PUSH2 0x2396 JUMP JUMPDEST SWAP2 POP POP PUSH2 0xF60 JUMP JUMPDEST POP PUSH1 0x4 DUP2 ADD SLOAD PUSH1 0x6 DUP3 ADD SLOAD PUSH1 0x40 MLOAD PUSH1 0x1 PUSH1 0x1 PUSH1 0xA0 SHL SUB SWAP1 SWAP3 AND SWAP2 DUP2 ISZERO PUSH2 0x8FC MUL SWAP2 SWAP1 PUSH0 DUP2 DUP2 DUP2 DUP6 DUP9 DUP9 CALL SWAP4 POP POP POP POP ISZERO DUP1 ISZERO PUSH2 0x8F9 JUMPI RETURNDATASIZE PUSH0 DUP1 RETURNDATACOPY RETURNDATASIZE PUSH0 REVERT JUMPDEST PUSH2 0x1096 PUSH2 0x1920 JUMP JUMPDEST PUSH0 DUP2 DUP2 MSTORE PUSH1 0x2 PUSH1 0x20 MSTORE PUSH1 0x40 SWAP1 KECCAK256 PUSH2 0x10AC DUP2 PUSH2 0x1950 JUMP JUMPDEST PUSH0 PUSH1 0x7 DUP3 ADD SLOAD PUSH1 0xFF AND PUSH1 0x2 DUP2 GT ISZERO PUSH2 0x10C6 JUMPI PUSH2 0x10C6 PUSH2 0x1F9C JUMP JUMPDEST EQ PUSH2 0x1113 JUMPI PUSH1 0x40 MLOAD PUSH3 0x461BCD PUSH1 0xE5 SHL DUP2 MSTORE PUSH1 0x20 PUSH1 0x4 DUP3 ADD MSTORE PUSH1 0x1A PUSH1 0x24 DUP3 ADD MSTORE PUSH32 0x5468652063616D706169676E206973206E6F7420616374697665000000000000 PUSH1 0x44 DUP3 ADD MSTORE PUSH1 0x64 ADD PUSH2 0x85C JUMP JUMPDEST CALLER PUSH0 SWAP1 DUP2 MSTORE PUSH1 0x20 DUP2 SWAP1 MSTORE PUSH1 0x40 DUP2 KECCAK256 PUSH1 0x1 ADD SLOAD SWAP1 SUB PUSH2 0x1235 JUMPI CALLER PUSH0 SWAP1 DUP2 MSTORE PUSH1 0x20 DUP2 SWAP1 MSTORE PUSH1 0x40 SWAP1 KECCAK256 PUSH1 0x2 ADD SLOAD ISZERO PUSH2 0x11E1 JUMPI PUSH1 0x40 MLOAD PUSH3 0x461BCD PUSH1 0xE5 SHL DUP2 MSTORE PUSH1 0x20 PUSH1 0x4 DUP3 ADD MSTORE PUSH1 0x62 PUSH1 0x24 DUP3 ADD MSTORE PUSH32 0x596F7520646F206E6F7420686176652062616C616E636520666F72206E657720 PUSH1 0x44 DUP3 ADD MSTORE PUSH32 0x646F6E6174696F6E2C20706C65617365207761697420666F7220746865206375 PUSH1 0x64 DUP3 ADD MSTORE PUSH32 0x7272656E74206163746976652063726F7766756E64696E6720746F2066696E69 PUSH1 0x84 DUP3 ADD MSTORE PUSH2 0xE6D PUSH1 0xF3 SHL PUSH1 0xA4 DUP3 ADD MSTORE PUSH1 0xC4 ADD PUSH2 0x85C JUMP JUMPDEST PUSH1 0x40 MLOAD PUSH3 0x461BCD PUSH1 0xE5 SHL DUP2 MSTORE PUSH1 0x20 PUSH1 0x4 DUP3 ADD MSTORE PUSH1 0x24 DUP1 DUP3 ADD MSTORE PUSH32 0x596F7520646F206E6F7420686176652062616C616E636520666F7220646F6E61 PUSH1 0x44 DUP3 ADD MSTORE PUSH4 0x3A34B7B7 PUSH1 0xE1 SHL PUSH1 0x64 DUP3 ADD MSTORE PUSH1 0x84 ADD PUSH2 0x85C JUMP JUMPDEST PUSH1 0x4 SLOAD PUSH2 0x1243 SWAP1 PUSH1 0x1 PUSH2 0x23AE JUMP JUMPDEST CALLER PUSH0 SWAP1 DUP2 MSTORE PUSH1 0x20 DUP2 SWAP1 MSTORE PUSH1 0x40 SWAP1 KECCAK256 SLOAD PUSH2 0x125C SWAP1 TIMESTAMP PUSH2 0x2324 JUMP JUMPDEST LT ISZERO PUSH2 0x12BE JUMPI PUSH1 0x40 MLOAD PUSH3 0x461BCD PUSH1 0xE5 SHL DUP2 MSTORE PUSH1 0x20 PUSH1 0x4 DUP3 ADD MSTORE PUSH1 0x2B PUSH1 0x24 DUP3 ADD MSTORE PUSH32 0x5468652062616C616E636520796F7520646F6E61746564206973207374696C6C PUSH1 0x44 DUP3 ADD MSTORE PUSH11 0x20696E2070656E64696E67 PUSH1 0xA8 SHL PUSH1 0x64 DUP3 ADD MSTORE PUSH1 0x84 ADD PUSH2 0x85C JUMP JUMPDEST CALLER PUSH0 SWAP1 DUP2 MSTORE PUSH1 0x20 DUP2 SWAP1 MSTORE PUSH1 0x40 DUP2 KECCAK256 PUSH1 0x1 DUP2 ADD DUP1 SLOAD SWAP1 DUP4 SWAP1 SSTORE PUSH1 0x2 SWAP1 SWAP2 ADD DUP1 SLOAD SWAP2 SWAP3 DUP4 SWAP3 PUSH2 0x12EC SWAP1 DUP5 SWAP1 PUSH2 0x2311 JUMP JUMPDEST SWAP3 POP POP DUP2 SWAP1 SSTORE POP DUP1 DUP3 PUSH1 0x6 ADD PUSH0 DUP3 DUP3 SLOAD PUSH2 0x1306 SWAP2 SWAP1 PUSH2 0x2311 JUMP JUMPDEST SWAP1 SWAP2 SSTORE POP POP PUSH0 DUP4 DUP2 MSTORE PUSH1 0x1 PUSH1 0x20 SWAP1 DUP2 MSTORE PUSH1 0x40 DUP1 DUP4 KECCAK256 CALLER DUP5 MSTORE SWAP1 SWAP2 MSTORE DUP2 KECCAK256 SLOAD SWAP1 SUB PUSH2 0x136A JUMPI PUSH1 0x1 DUP3 PUSH1 0x8 ADD PUSH0 DUP3 DUP3 SLOAD PUSH2 0x133E SWAP2 SWAP1 PUSH2 0x2311 JUMP JUMPDEST SWAP1 SWAP2 SSTORE POP POP PUSH1 0x9 DUP3 ADD DUP1 SLOAD PUSH1 0x1 DUP2 ADD DUP3 SSTORE PUSH0 SWAP2 DUP3 MSTORE PUSH1 0x20 SWAP1 SWAP2 KECCAK256 ADD DUP1 SLOAD PUSH1 0x1 PUSH1 0x1 PUSH1 0xA0 SHL SUB NOT AND CALLER OR SWAP1 SSTORE JUMPDEST PUSH0 DUP4 DUP2 MSTORE PUSH1 0x1 PUSH1 0x20 SWAP1 DUP2 MSTORE PUSH1 0x40 DUP1 DUP4 KECCAK256 CALLER DUP5 MSTORE SWAP1 SWAP2 MSTORE DUP2 KECCAK256 DUP1 SLOAD DUP4 SWAP3 SWAP1 PUSH2 0x1392 SWAP1 DUP5 SWAP1 PUSH2 0x2311 JUMP JUMPDEST SWAP1 SWAP2 SSTORE POP POP POP POP POP JUMP JUMPDEST PUSH0 PUSH2 0x13B5 PUSH0 DUP1 MLOAD PUSH1 0x20 PUSH2 0x2519 DUP4 CODECOPY DUP2 MLOAD SWAP2 MSTORE SLOAD PUSH1 0xFF AND SWAP1 JUMP JUMPDEST SWAP1 POP SWAP1 JUMP JUMPDEST PUSH2 0x13C2 PUSH2 0x19A4 JUMP JUMPDEST PUSH2 0xB16 PUSH0 PUSH2 0x1C15 JUMP JUMPDEST PUSH2 0x13D3 PUSH2 0x1920 JUMP JUMPDEST PUSH1 0x6 DUP1 SLOAD PUSH0 SWAP1 DUP2 MSTORE PUSH1 0x2 PUSH1 0x20 DUP2 SWAP1 MSTORE PUSH1 0x40 SWAP1 SWAP2 KECCAK256 DUP1 SLOAD PUSH1 0x1 PUSH1 0x1 PUSH1 0xA0 SHL SUB NOT AND CALLER OR DUP2 SSTORE SWAP2 SLOAD PUSH1 0x1 DUP4 ADD SSTORE TIMESTAMP SWAP1 DUP3 ADD SSTORE PUSH1 0x3 DUP2 ADD PUSH2 0x1411 DUP6 DUP3 PUSH2 0x240A JUMP JUMPDEST POP PUSH1 0x4 DUP2 ADD DUP1 SLOAD PUSH1 0x1 PUSH1 0x1 PUSH1 0xA0 SHL SUB NOT AND PUSH1 0x1 PUSH1 0x1 PUSH1 0xA0 SHL SUB DUP6 AND OR SWAP1 SSTORE PUSH1 0x5 DUP2 ADD DUP3 SWAP1 SSTORE PUSH0 PUSH1 0x6 DUP1 DUP4 ADD DUP3 SWAP1 SSTORE PUSH1 0x7 DUP4 ADD DUP1 SLOAD PUSH1 0xFF NOT AND SWAP1 SSTORE PUSH1 0x8 DUP4 ADD DUP3 SWAP1 SSTORE DUP1 SLOAD SWAP2 PUSH2 0x145E DUP4 PUSH2 0x2396 JUMP JUMPDEST SWAP2 SWAP1 POP SSTORE POP POP POP POP POP JUMP JUMPDEST PUSH2 0x1471 PUSH2 0x19A4 JUMP JUMPDEST PUSH2 0xB16 PUSH2 0x1C85 JUMP JUMPDEST PUSH2 0x1481 PUSH2 0x19A4 JUMP JUMPDEST PUSH2 0x1489 PUSH2 0x19D6 JUMP JUMPDEST PUSH2 0x1492 DUP2 PUSH2 0x18E6 JUMP JUMPDEST POP JUMP JUMPDEST PUSH0 PUSH2 0x13B5 PUSH2 0x14B3 JUMP JUMPDEST PUSH2 0x14A6 PUSH2 0x19A4 JUMP JUMPDEST PUSH2 0x14AE PUSH2 0x19D6 JUMP JUMPDEST PUSH1 0x4 SSTORE JUMP JUMPDEST PUSH32 0x9016D09D72D40FDAE2FD8CEAC6B6234C7706214FD39C1CD1E609A0528C199300 SLOAD PUSH1 0x1 PUSH1 0x1 PUSH1 0xA0 SHL SUB AND SWAP1 JUMP JUMPDEST PUSH2 0x14E9 PUSH2 0x19A4 JUMP JUMPDEST PUSH2 0x14F1 PUSH2 0x19D6 JUMP JUMPDEST PUSH1 0x3 SSTORE JUMP JUMPDEST PUSH0 DUP3 DUP2 MSTORE PUSH1 0x1 PUSH1 0x20 SWAP1 DUP2 MSTORE PUSH1 0x40 DUP1 DUP4 KECCAK256 PUSH1 0x1 PUSH1 0x1 PUSH1 0xA0 SHL SUB DUP6 AND DUP5 MSTORE SWAP1 SWAP2 MSTORE SWAP1 KECCAK256 SLOAD JUMPDEST SWAP3 SWAP2 POP POP JUMP JUMPDEST PUSH32 0xF0C57E16840DF040F15088DC2F81FE391C3923BEC73E23A9662EFC9C229C6A00 DUP1 SLOAD PUSH1 0x1 PUSH1 0x40 SHL DUP2 DIV PUSH1 0xFF AND ISZERO SWAP1 PUSH8 0xFFFFFFFFFFFFFFFF AND PUSH0 DUP2 ISZERO DUP1 ISZERO PUSH2 0x1564 JUMPI POP DUP3 JUMPDEST SWAP1 POP PUSH0 DUP3 PUSH8 0xFFFFFFFFFFFFFFFF AND PUSH1 0x1 EQ DUP1 ISZERO PUSH2 0x1580 JUMPI POP ADDRESS EXTCODESIZE ISZERO JUMPDEST SWAP1 POP DUP2 ISZERO DUP1 ISZERO PUSH2 0x158E JUMPI POP DUP1 ISZERO JUMPDEST ISZERO PUSH2 0x15AC JUMPI PUSH1 0x40 MLOAD PUSH4 0xF92EE8A9 PUSH1 0xE0 SHL DUP2 MSTORE PUSH1 0x4 ADD PUSH1 0x40 MLOAD DUP1 SWAP2 SUB SWAP1 REVERT JUMPDEST DUP5 SLOAD PUSH8 0xFFFFFFFFFFFFFFFF NOT AND PUSH1 0x1 OR DUP6 SSTORE DUP4 ISZERO PUSH2 0x15D6 JUMPI DUP5 SLOAD PUSH1 0xFF PUSH1 0x40 SHL NOT AND PUSH1 0x1 PUSH1 0x40 SHL OR DUP6 SSTORE JUMPDEST PUSH2 0x15DE PUSH2 0x1CCD JUMP JUMPDEST PUSH2 0x15E7 DUP7 PUSH2 0x1CDD JUMP JUMPDEST PUSH2 0x15EF PUSH2 0x1CEE JUMP JUMPDEST PUSH7 0x1902D7BB38000 PUSH1 0x3 SSTORE PUSH1 0x14 PUSH1 0x4 SSTORE PUSH1 0x7 PUSH1 0x5 SSTORE DUP4 ISZERO PUSH2 0x164A JUMPI DUP5 SLOAD PUSH1 0xFF PUSH1 0x40 SHL NOT AND DUP6 SSTORE PUSH1 0x40 MLOAD PUSH1 0x1 DUP2 MSTORE PUSH32 0xC7F505B2F371AE2175EE4913F4499E1F2633A7B5936321EED1CDAEB6115181D2 SWAP1 PUSH1 0x20 ADD PUSH1 0x40 MLOAD DUP1 SWAP2 SUB SWAP1 LOG1 JUMPDEST POP POP POP POP POP POP JUMP JUMPDEST PUSH0 DUP2 DUP2 MSTORE PUSH1 0x2 PUSH1 0x20 DUP2 SWAP1 MSTORE PUSH1 0x40 DUP3 KECCAK256 DUP1 SLOAD PUSH1 0x1 DUP3 ADD SLOAD SWAP3 DUP3 ADD SLOAD PUSH1 0x3 SWAP1 SWAP3 ADD DUP1 SLOAD PUSH1 0x1 PUSH1 0x1 PUSH1 0xA0 SHL SUB SWAP1 SWAP3 AND SWAP5 PUSH1 0x60 SWAP3 SWAP1 SWAP2 DUP3 SWAP2 DUP3 SWAP2 DUP6 SWAP2 DUP4 SWAP2 DUP4 SWAP2 DUP3 SWAP2 SWAP1 PUSH2 0x169A SWAP1 PUSH2 0x22C5 JUMP JUMPDEST DUP1 PUSH1 0x1F ADD PUSH1 0x20 DUP1 SWAP2 DIV MUL PUSH1 0x20 ADD PUSH1 0x40 MLOAD SWAP1 DUP2 ADD PUSH1 0x40 MSTORE DUP1 SWAP3 SWAP2 SWAP1 DUP2 DUP2 MSTORE PUSH1 0x20 ADD DUP3 DUP1 SLOAD PUSH2 0x16C6 SWAP1 PUSH2 0x22C5 JUMP JUMPDEST DUP1 ISZERO PUSH2 0x1711 JUMPI DUP1 PUSH1 0x1F LT PUSH2 0x16E8 JUMPI PUSH2 0x100 DUP1 DUP4 SLOAD DIV MUL DUP4 MSTORE SWAP2 PUSH1 0x20 ADD SWAP2 PUSH2 0x1711 JUMP JUMPDEST DUP3 ADD SWAP2 SWAP1 PUSH0 MSTORE PUSH1 0x20 PUSH0 KECCAK256 SWAP1 JUMPDEST DUP2 SLOAD DUP2 MSTORE SWAP1 PUSH1 0x1 ADD SWAP1 PUSH1 0x20 ADD DUP1 DUP4 GT PUSH2 0x16F4 JUMPI DUP3 SWAP1 SUB PUSH1 0x1F AND DUP3 ADD SWAP2 JUMPDEST POP POP POP PUSH0 DUP16 DUP2 MSTORE PUSH1 0x2 PUSH1 0x20 MSTORE PUSH1 0x40 DUP2 KECCAK256 PUSH1 0x4 DUP2 ADD SLOAD PUSH1 0x5 DUP3 ADD SLOAD PUSH1 0x6 DUP4 ADD SLOAD PUSH1 0x7 SWAP1 SWAP4 ADD SLOAD SWAP7 SWAP15 POP PUSH1 0x1 PUSH1 0x1 PUSH1 0xA0 SHL SUB SWAP1 SWAP2 AND SWAP13 POP SWAP11 POP SWAP9 POP PUSH1 0xFF SWAP1 SWAP4 AND SWAP3 SWAP2 POP PUSH2 0x1759 SWAP1 POP JUMP JUMPDEST DUP2 PUSH1 0x2 DUP2 GT ISZERO PUSH2 0x176B JUMPI PUSH2 0x176B PUSH2 0x1F9C JUMP JUMPDEST SUB PUSH2 0x1796 JUMPI PUSH1 0x40 MLOAD DUP1 PUSH1 0x40 ADD PUSH1 0x40 MSTORE DUP1 PUSH1 0x6 DUP2 MSTORE PUSH1 0x20 ADD PUSH6 0x416374697665 PUSH1 0xD0 SHL DUP2 MSTORE POP SWAP5 POP PUSH2 0x17FB JUMP JUMPDEST PUSH1 0x1 DUP2 PUSH1 0x2 DUP2 GT ISZERO PUSH2 0x17AA JUMPI PUSH2 0x17AA PUSH2 0x1F9C JUMP JUMPDEST SUB PUSH2 0x17D6 JUMPI PUSH1 0x40 MLOAD DUP1 PUSH1 0x40 ADD PUSH1 0x40 MSTORE DUP1 PUSH1 0x7 DUP2 MSTORE PUSH1 0x20 ADD PUSH7 0x115E1C1A5C9959 PUSH1 0xCA SHL DUP2 MSTORE POP SWAP5 POP PUSH2 0x17FB JUMP JUMPDEST PUSH1 0x40 MLOAD DUP1 PUSH1 0x40 ADD PUSH1 0x40 MSTORE DUP1 PUSH1 0x9 DUP2 MSTORE PUSH1 0x20 ADD PUSH9 0x10DBDB5C1B195D1959 PUSH1 0xBA SHL DUP2 MSTORE POP SWAP5 POP JUMPDEST PUSH0 DUP14 DUP2 MSTORE PUSH1 0x2 PUSH1 0x20 SWAP1 DUP2 MSTORE PUSH1 0x40 SWAP2 DUP3 SWAP1 KECCAK256 PUSH1 0x8 DUP2 ADD SLOAD PUSH1 0x9 SWAP1 SWAP2 ADD DUP1 SLOAD DUP5 MLOAD DUP2 DUP6 MUL DUP2 ADD DUP6 ADD SWAP1 SWAP6 MSTORE DUP1 DUP6 MSTORE SWAP2 SWAP8 POP SWAP2 DUP4 ADD DUP3 DUP3 DUP1 ISZERO PUSH2 0x1862 JUMPI PUSH1 0x20 MUL DUP3 ADD SWAP2 SWAP1 PUSH0 MSTORE PUSH1 0x20 PUSH0 KECCAK256 SWAP1 JUMPDEST DUP2 SLOAD PUSH1 0x1 PUSH1 0x1 PUSH1 0xA0 SHL SUB AND DUP2 MSTORE PUSH1 0x1 SWAP1 SWAP2 ADD SWAP1 PUSH1 0x20 ADD DUP1 DUP4 GT PUSH2 0x1844 JUMPI JUMPDEST POP POP POP POP POP SWAP3 POP PUSH1 0x2 PUSH0 DUP15 DUP2 MSTORE PUSH1 0x20 ADD SWAP1 DUP2 MSTORE PUSH1 0x20 ADD PUSH0 KECCAK256 PUSH1 0xA ADD DUP1 SLOAD DUP1 PUSH1 0x20 MUL PUSH1 0x20 ADD PUSH1 0x40 MLOAD SWAP1 DUP2 ADD PUSH1 0x40 MSTORE DUP1 SWAP3 SWAP2 SWAP1 DUP2 DUP2 MSTORE PUSH1 0x20 ADD DUP3 DUP1 SLOAD DUP1 ISZERO PUSH2 0x18CF JUMPI PUSH1 0x20 MUL DUP3 ADD SWAP2 SWAP1 PUSH0 MSTORE PUSH1 0x20 PUSH0 KECCAK256 SWAP1 JUMPDEST DUP2 SLOAD PUSH1 0x1 PUSH1 0x1 PUSH1 0xA0 SHL SUB AND DUP2 MSTORE PUSH1 0x1 SWAP1 SWAP2 ADD SWAP1 PUSH1 0x20 ADD DUP1 DUP4 GT PUSH2 0x18B1 JUMPI JUMPDEST POP POP POP POP POP SWAP2 POP POP SWAP2 SWAP4 SWAP6 SWAP8 SWAP10 SWAP12 SWAP1 SWAP3 SWAP5 SWAP7 SWAP9 SWAP11 POP JUMP JUMPDEST PUSH2 0x18EE PUSH2 0x19A4 JUMP JUMPDEST PUSH1 0x1 PUSH1 0x1 PUSH1 0xA0 SHL SUB DUP2 AND PUSH2 0x1917 JUMPI PUSH1 0x40 MLOAD PUSH4 0x1E4FBDF7 PUSH1 0xE0 SHL DUP2 MSTORE PUSH0 PUSH1 0x4 DUP3 ADD MSTORE PUSH1 0x24 ADD PUSH2 0x85C JUMP JUMPDEST PUSH2 0x1492 DUP2 PUSH2 0x1C15 JUMP JUMPDEST PUSH0 DUP1 MLOAD PUSH1 0x20 PUSH2 0x2519 DUP4 CODECOPY DUP2 MLOAD SWAP2 MSTORE SLOAD PUSH1 0xFF AND ISZERO PUSH2 0xB16 JUMPI PUSH1 0x40 MLOAD PUSH4 0xD93C0665 PUSH1 0xE0 SHL DUP2 MSTORE PUSH1 0x4 ADD PUSH1 0x40 MLOAD DUP1 SWAP2 SUB SWAP1 REVERT JUMPDEST PUSH0 PUSH1 0x7 DUP3 ADD SLOAD PUSH1 0xFF AND PUSH1 0x2 DUP2 GT ISZERO PUSH2 0x196A JUMPI PUSH2 0x196A PUSH2 0x1F9C JUMP JUMPDEST SUB PUSH2 0x1492 JUMPI PUSH1 0x5 SLOAD PUSH2 0x197F SWAP1 PUSH3 0x15180 PUSH2 0x23AE JUMP JUMPDEST PUSH1 0x2 DUP3 ADD SLOAD PUSH2 0x198E SWAP1 TIMESTAMP PUSH2 0x2324 JUMP JUMPDEST GT ISZERO PUSH2 0x1492 JUMPI PUSH1 0x7 ADD DUP1 SLOAD PUSH1 0xFF NOT AND PUSH1 0x1 OR SWAP1 SSTORE JUMP JUMPDEST CALLER PUSH2 0x19AD PUSH2 0x14B3 JUMP JUMPDEST PUSH1 0x1 PUSH1 0x1 PUSH1 0xA0 SHL SUB AND EQ PUSH2 0xB16 JUMPI PUSH1 0x40 MLOAD PUSH4 0x118CDAA7 PUSH1 0xE0 SHL DUP2 MSTORE CALLER PUSH1 0x4 DUP3 ADD MSTORE PUSH1 0x24 ADD PUSH2 0x85C JUMP JUMPDEST PUSH0 DUP1 MLOAD PUSH1 0x20 PUSH2 0x2519 DUP4 CODECOPY DUP2 MLOAD SWAP2 MSTORE SLOAD PUSH1 0xFF AND PUSH2 0xB16 JUMPI PUSH1 0x40 MLOAD PUSH4 0x8DFC202B PUSH1 0xE0 SHL DUP2 MSTORE PUSH1 0x4 ADD PUSH1 0x40 MLOAD DUP1 SWAP2 SUB SWAP1 REVERT JUMPDEST PUSH2 0x1A0D PUSH2 0x19D6 JUMP JUMPDEST PUSH0 DUP1 MLOAD PUSH1 0x20 PUSH2 0x2519 DUP4 CODECOPY DUP2 MLOAD SWAP2 MSTORE DUP1 SLOAD PUSH1 0xFF NOT AND DUP2 SSTORE PUSH32 0x5DB9EE0A495BF2E6FF9C91A7834C1BA4FDD244A5E8AA4E537BD38AEAE4B073AA CALLER JUMPDEST PUSH1 0x40 MLOAD PUSH1 0x1 PUSH1 0x1 PUSH1 0xA0 SHL SUB SWAP1 SWAP2 AND DUP2 MSTORE PUSH1 0x20 ADD PUSH1 0x40 MLOAD DUP1 SWAP2 SUB SWAP1 LOG1 POP JUMP JUMPDEST ADDRESS PUSH1 0x1 PUSH1 0x1 PUSH1 0xA0 SHL SUB PUSH32 0x0 AND EQ DUP1 PUSH2 0x1AEA JUMPI POP PUSH32 0x0 PUSH1 0x1 PUSH1 0x1 PUSH1 0xA0 SHL SUB AND PUSH2 0x1ADE PUSH0 DUP1 MLOAD PUSH1 0x20 PUSH2 0x24F9 DUP4 CODECOPY DUP2 MLOAD SWAP2 MSTORE SLOAD PUSH1 0x1 PUSH1 0x1 PUSH1 0xA0 SHL SUB AND SWAP1 JUMP JUMPDEST PUSH1 0x1 PUSH1 0x1 PUSH1 0xA0 SHL SUB AND EQ ISZERO JUMPDEST ISZERO PUSH2 0xB16 JUMPI PUSH1 0x40 MLOAD PUSH4 0x703E46DD PUSH1 0xE1 SHL DUP2 MSTORE PUSH1 0x4 ADD PUSH1 0x40 MLOAD DUP1 SWAP2 SUB SWAP1 REVERT JUMPDEST PUSH2 0x1492 PUSH2 0x19A4 JUMP JUMPDEST DUP2 PUSH1 0x1 PUSH1 0x1 PUSH1 0xA0 SHL SUB AND PUSH4 0x52D1902D PUSH1 0x40 MLOAD DUP2 PUSH4 0xFFFFFFFF AND PUSH1 0xE0 SHL DUP2 MSTORE PUSH1 0x4 ADD PUSH1 0x20 PUSH1 0x40 MLOAD DUP1 DUP4 SUB DUP2 DUP7 GAS STATICCALL SWAP3 POP POP POP DUP1 ISZERO PUSH2 0x1B6A JUMPI POP PUSH1 0x40 DUP1 MLOAD PUSH1 0x1F RETURNDATASIZE SWAP1 DUP2 ADD PUSH1 0x1F NOT AND DUP3 ADD SWAP1 SWAP3 MSTORE PUSH2 0x1B67 SWAP2 DUP2 ADD SWAP1 PUSH2 0x24C6 JUMP JUMPDEST PUSH1 0x1 JUMPDEST PUSH2 0x1B92 JUMPI PUSH1 0x40 MLOAD PUSH4 0x4C9C8CE3 PUSH1 0xE0 SHL DUP2 MSTORE PUSH1 0x1 PUSH1 0x1 PUSH1 0xA0 SHL SUB DUP4 AND PUSH1 0x4 DUP3 ADD MSTORE PUSH1 0x24 ADD PUSH2 0x85C JUMP JUMPDEST PUSH0 DUP1 MLOAD PUSH1 0x20 PUSH2 0x24F9 DUP4 CODECOPY DUP2 MLOAD SWAP2 MSTORE DUP2 EQ PUSH2 0x1BC2 JUMPI PUSH1 0x40 MLOAD PUSH4 0x2A875269 PUSH1 0xE2 SHL DUP2 MSTORE PUSH1 0x4 DUP2 ADD DUP3 SWAP1 MSTORE PUSH1 0x24 ADD PUSH2 0x85C JUMP JUMPDEST PUSH2 0x8F9 DUP4 DUP4 PUSH2 0x1CF6 JUMP JUMPDEST ADDRESS PUSH1 0x1 PUSH1 0x1 PUSH1 0xA0 SHL SUB PUSH32 0x0 AND EQ PUSH2 0xB16 JUMPI PUSH1 0x40 MLOAD PUSH4 0x703E46DD PUSH1 0xE1 SHL DUP2 MSTORE PUSH1 0x4 ADD PUSH1 0x40 MLOAD DUP1 SWAP2 SUB SWAP1 REVERT JUMPDEST PUSH32 0x9016D09D72D40FDAE2FD8CEAC6B6234C7706214FD39C1CD1E609A0528C199300 DUP1 SLOAD PUSH1 0x1 PUSH1 0x1 PUSH1 0xA0 SHL SUB NOT DUP2 AND PUSH1 0x1 PUSH1 0x1 PUSH1 0xA0 SHL SUB DUP5 DUP2 AND SWAP2 DUP3 OR DUP5 SSTORE PUSH1 0x40 MLOAD SWAP3 AND SWAP2 DUP3 SWAP1 PUSH32 0x8BE0079C531659141344CD1FD0A4F28419497F9722A3DAAFE3B4186F6B6457E0 SWAP1 PUSH0 SWAP1 LOG3 POP POP POP JUMP JUMPDEST PUSH2 0x1C8D PUSH2 0x1920 JUMP JUMPDEST PUSH0 DUP1 MLOAD PUSH1 0x20 PUSH2 0x2519 DUP4 CODECOPY DUP2 MLOAD SWAP2 MSTORE DUP1 SLOAD PUSH1 0xFF NOT AND PUSH1 0x1 OR DUP2 SSTORE PUSH32 0x62E78CEA01BEE320CD4E420270B5EA74000D11B0C9F74754EBDBFC544B05A258 CALLER PUSH2 0x1A46 JUMP JUMPDEST PUSH2 0x1CD5 PUSH2 0x1D4B JUMP JUMPDEST PUSH2 0xB16 PUSH2 0x1D94 JUMP JUMPDEST PUSH2 0x1CE5 PUSH2 0x1D4B JUMP JUMPDEST PUSH2 0x1492 DUP2 PUSH2 0x1DB4 JUMP JUMPDEST PUSH2 0xB16 PUSH2 0x1D4B JUMP JUMPDEST PUSH2 0x1CFF DUP3 PUSH2 0x1DBC JUMP JUMPDEST PUSH1 0x40 MLOAD PUSH1 0x1 PUSH1 0x1 PUSH1 0xA0 SHL SUB DUP4 AND SWAP1 PUSH32 0xBC7CD75A20EE27FD9ADEBAB32041F755214DBC6BFFA90CC0225B39DA2E5C2D3B SWAP1 PUSH0 SWAP1 LOG2 DUP1 MLOAD ISZERO PUSH2 0x1D43 JUMPI PUSH2 0x8F9 DUP3 DUP3 PUSH2 0x1E1F JUMP JUMPDEST PUSH2 0xD9E PUSH2 0x1E91 JUMP JUMPDEST PUSH32 0xF0C57E16840DF040F15088DC2F81FE391C3923BEC73E23A9662EFC9C229C6A00 SLOAD PUSH1 0x1 PUSH1 0x40 SHL SWAP1 DIV PUSH1 0xFF AND PUSH2 0xB16 JUMPI PUSH1 0x40 MLOAD PUSH4 0x1AFCD79F PUSH1 0xE3 SHL DUP2 MSTORE PUSH1 0x4 ADD PUSH1 0x40 MLOAD DUP1 SWAP2 SUB SWAP1 REVERT JUMPDEST PUSH2 0x1D9C PUSH2 0x1D4B JUMP JUMPDEST PUSH0 DUP1 MLOAD PUSH1 0x20 PUSH2 0x2519 DUP4 CODECOPY DUP2 MLOAD SWAP2 MSTORE DUP1 SLOAD PUSH1 0xFF NOT AND SWAP1 SSTORE JUMP JUMPDEST PUSH2 0x18EE PUSH2 0x1D4B JUMP JUMPDEST DUP1 PUSH1 0x1 PUSH1 0x1 PUSH1 0xA0 SHL SUB AND EXTCODESIZE PUSH0 SUB PUSH2 0x1DF1 JUMPI PUSH1 0x40 MLOAD PUSH4 0x4C9C8CE3 PUSH1 0xE0 SHL DUP2 MSTORE PUSH1 0x1 PUSH1 0x1 PUSH1 0xA0 SHL SUB DUP3 AND PUSH1 0x4 DUP3 ADD MSTORE PUSH1 0x24 ADD PUSH2 0x85C JUMP JUMPDEST PUSH0 DUP1 MLOAD PUSH1 0x20 PUSH2 0x24F9 DUP4 CODECOPY DUP2 MLOAD SWAP2 MSTORE DUP1 SLOAD PUSH1 0x1 PUSH1 0x1 PUSH1 0xA0 SHL SUB NOT AND PUSH1 0x1 PUSH1 0x1 PUSH1 0xA0 SHL SUB SWAP3 SWAP1 SWAP3 AND SWAP2 SWAP1 SWAP2 OR SWAP1 SSTORE JUMP JUMPDEST PUSH1 0x60 PUSH0 DUP1 DUP5 PUSH1 0x1 PUSH1 0x1 PUSH1 0xA0 SHL SUB AND DUP5 PUSH1 0x40 MLOAD PUSH2 0x1E3B SWAP2 SWAP1 PUSH2 0x24DD JUMP JUMPDEST PUSH0 PUSH1 0x40 MLOAD DUP1 DUP4 SUB DUP2 DUP6 GAS DELEGATECALL SWAP2 POP POP RETURNDATASIZE DUP1 PUSH0 DUP2 EQ PUSH2 0x1E73 JUMPI PUSH1 0x40 MLOAD SWAP2 POP PUSH1 0x1F NOT PUSH1 0x3F RETURNDATASIZE ADD AND DUP3 ADD PUSH1 0x40 MSTORE RETURNDATASIZE DUP3 MSTORE RETURNDATASIZE PUSH0 PUSH1 0x20 DUP5 ADD RETURNDATACOPY PUSH2 0x1E78 JUMP JUMPDEST PUSH1 0x60 SWAP2 POP JUMPDEST POP SWAP2 POP SWAP2 POP PUSH2 0x1E88 DUP6 DUP4 DUP4 PUSH2 0x1EB0 JUMP JUMPDEST SWAP6 SWAP5 POP POP POP POP POP JUMP JUMPDEST CALLVALUE ISZERO PUSH2 0xB16 JUMPI PUSH1 0x40 MLOAD PUSH4 0xB398979F PUSH1 0xE0 SHL DUP2 MSTORE PUSH1 0x4 ADD PUSH1 0x40 MLOAD DUP1 SWAP2 SUB SWAP1 REVERT JUMPDEST PUSH1 0x60 DUP3 PUSH2 0x1EC5 JUMPI PUSH2 0x1EC0 DUP3 PUSH2 0x1F0F JUMP JUMPDEST PUSH2 0x1F08 JUMP JUMPDEST DUP2 MLOAD ISZERO DUP1 ISZERO PUSH2 0x1EDC JUMPI POP PUSH1 0x1 PUSH1 0x1 PUSH1 0xA0 SHL SUB DUP5 AND EXTCODESIZE ISZERO JUMPDEST ISZERO PUSH2 0x1F05 JUMPI PUSH1 0x40 MLOAD PUSH4 0x9996B315 PUSH1 0xE0 SHL DUP2 MSTORE PUSH1 0x1 PUSH1 0x1 PUSH1 0xA0 SHL SUB DUP6 AND PUSH1 0x4 DUP3 ADD MSTORE PUSH1 0x24 ADD PUSH2 0x85C JUMP JUMPDEST POP DUP1 JUMPDEST SWAP4 SWAP3 POP POP POP JUMP JUMPDEST DUP1 MLOAD ISZERO PUSH2 0x1F1F JUMPI DUP1 MLOAD DUP1 DUP3 PUSH1 0x20 ADD REVERT JUMPDEST PUSH1 0x40 MLOAD PUSH4 0xA12F521 PUSH1 0xE1 SHL DUP2 MSTORE PUSH1 0x4 ADD PUSH1 0x40 MLOAD DUP1 SWAP2 SUB SWAP1 REVERT JUMPDEST PUSH0 PUSH1 0x20 DUP3 DUP5 SUB SLT ISZERO PUSH2 0x1F48 JUMPI PUSH0 DUP1 REVERT JUMPDEST POP CALLDATALOAD SWAP2 SWAP1 POP JUMP JUMPDEST PUSH0 JUMPDEST DUP4 DUP2 LT ISZERO PUSH2 0x1F69 JUMPI DUP2 DUP2 ADD MLOAD DUP4 DUP3 ADD MSTORE PUSH1 0x20 ADD PUSH2 0x1F51 JUMP JUMPDEST POP POP PUSH0 SWAP2 ADD MSTORE JUMP JUMPDEST PUSH0 DUP2 MLOAD DUP1 DUP5 MSTORE PUSH2 0x1F88 DUP2 PUSH1 0x20 DUP7 ADD PUSH1 0x20 DUP7 ADD PUSH2 0x1F4F JUMP JUMPDEST PUSH1 0x1F ADD PUSH1 0x1F NOT AND SWAP3 SWAP1 SWAP3 ADD PUSH1 0x20 ADD SWAP3 SWAP2 POP POP JUMP JUMPDEST PUSH4 0x4E487B71 PUSH1 0xE0 SHL PUSH0 MSTORE PUSH1 0x21 PUSH1 0x4 MSTORE PUSH1 0x24 PUSH0 REVERT JUMPDEST PUSH0 PUSH2 0x120 PUSH1 0x1 DUP1 PUSH1 0xA0 SHL SUB DUP1 DUP14 AND DUP5 MSTORE DUP12 PUSH1 0x20 DUP6 ADD MSTORE DUP11 PUSH1 0x40 DUP6 ADD MSTORE DUP2 PUSH1 0x60 DUP6 ADD MSTORE PUSH2 0x1FDE DUP3 DUP6 ADD DUP12 PUSH2 0x1F71 JUMP JUMPDEST SWAP3 POP DUP1 DUP10 AND PUSH1 0x80 DUP6 ADD MSTORE POP POP DUP6 PUSH1 0xA0 DUP4 ADD MSTORE DUP5 PUSH1 0xC0 DUP4 ADD MSTORE PUSH1 0x3 DUP5 LT PUSH2 0x2012 JUMPI PUSH4 0x4E487B71 PUSH1 0xE0 SHL PUSH0 MSTORE PUSH1 0x21 PUSH1 0x4 MSTORE PUSH1 0x24 PUSH0 REVERT JUMPDEST PUSH1 0xE0 DUP3 ADD SWAP4 SWAP1 SWAP4 MSTORE PUSH2 0x100 ADD MSTORE SWAP8 SWAP7 POP POP POP POP POP POP POP JUMP JUMPDEST PUSH1 0x1 PUSH1 0x1 PUSH1 0xA0 SHL SUB DUP2 AND DUP2 EQ PUSH2 0x1492 JUMPI PUSH0 DUP1 REVERT JUMPDEST PUSH0 PUSH1 0x20 DUP3 DUP5 SUB SLT ISZERO PUSH2 0x204E JUMPI PUSH0 DUP1 REVERT JUMPDEST DUP2 CALLDATALOAD PUSH2 0x1F08 DUP2 PUSH2 0x202A JUMP JUMPDEST PUSH4 0x4E487B71 PUSH1 0xE0 SHL PUSH0 MSTORE PUSH1 0x41 PUSH1 0x4 MSTORE PUSH1 0x24 PUSH0 REVERT JUMPDEST PUSH0 PUSH8 0xFFFFFFFFFFFFFFFF DUP1 DUP5 GT ISZERO PUSH2 0x2087 JUMPI PUSH2 0x2087 PUSH2 0x2059 JUMP JUMPDEST PUSH1 0x40 MLOAD PUSH1 0x1F DUP6 ADD PUSH1 0x1F NOT SWAP1 DUP2 AND PUSH1 0x3F ADD AND DUP2 ADD SWAP1 DUP3 DUP3 GT DUP2 DUP4 LT OR ISZERO PUSH2 0x20AF JUMPI PUSH2 0x20AF PUSH2 0x2059 JUMP JUMPDEST DUP2 PUSH1 0x40 MSTORE DUP1 SWAP4 POP DUP6 DUP2 MSTORE DUP7 DUP7 DUP7 ADD GT ISZERO PUSH2 0x20C7 JUMPI PUSH0 DUP1 REVERT JUMPDEST DUP6 DUP6 PUSH1 0x20 DUP4 ADD CALLDATACOPY PUSH0 PUSH1 0x20 DUP8 DUP4 ADD ADD MSTORE POP POP POP SWAP4 SWAP3 POP POP POP JUMP JUMPDEST PUSH0 DUP1 PUSH1 0x40 DUP4 DUP6 SUB SLT ISZERO PUSH2 0x20F1 JUMPI PUSH0 DUP1 REVERT JUMPDEST DUP3 CALLDATALOAD PUSH2 0x20FC DUP2 PUSH2 0x202A JUMP JUMPDEST SWAP2 POP PUSH1 0x20 DUP4 ADD CALLDATALOAD PUSH8 0xFFFFFFFFFFFFFFFF DUP2 GT ISZERO PUSH2 0x2117 JUMPI PUSH0 DUP1 REVERT JUMPDEST DUP4 ADD PUSH1 0x1F DUP2 ADD DUP6 SGT PUSH2 0x2127 JUMPI PUSH0 DUP1 REVERT JUMPDEST PUSH2 0x2136 DUP6 DUP3 CALLDATALOAD PUSH1 0x20 DUP5 ADD PUSH2 0x206D JUMP JUMPDEST SWAP2 POP POP SWAP3 POP SWAP3 SWAP1 POP JUMP JUMPDEST PUSH0 DUP1 PUSH0 PUSH1 0x60 DUP5 DUP7 SUB SLT ISZERO PUSH2 0x2152 JUMPI PUSH0 DUP1 REVERT JUMPDEST DUP4 CALLDATALOAD PUSH8 0xFFFFFFFFFFFFFFFF DUP2 GT ISZERO PUSH2 0x2168 JUMPI PUSH0 DUP1 REVERT JUMPDEST DUP5 ADD PUSH1 0x1F DUP2 ADD DUP7 SGT PUSH2 0x2178 JUMPI PUSH0 DUP1 REVERT JUMPDEST PUSH2 0x2187 DUP7 DUP3 CALLDATALOAD PUSH1 0x20 DUP5 ADD PUSH2 0x206D JUMP JUMPDEST SWAP4 POP POP PUSH1 0x20 DUP5 ADD CALLDATALOAD PUSH2 0x2198 DUP2 PUSH2 0x202A JUMP JUMPDEST SWAP3 SWAP6 SWAP3 SWAP5 POP POP POP PUSH1 0x40 SWAP2 SWAP1 SWAP2 ADD CALLDATALOAD SWAP1 JUMP JUMPDEST PUSH0 DUP1 PUSH1 0x40 DUP4 DUP6 SUB SLT ISZERO PUSH2 0x21BA JUMPI PUSH0 DUP1 REVERT JUMPDEST DUP3 CALLDATALOAD SWAP2 POP PUSH1 0x20 DUP4 ADD CALLDATALOAD PUSH2 0x21CC DUP2 PUSH2 0x202A JUMP JUMPDEST DUP1 SWAP2 POP POP SWAP3 POP SWAP3 SWAP1 POP JUMP JUMPDEST PUSH1 0x20 DUP2 MSTORE PUSH0 PUSH2 0x1F08 PUSH1 0x20 DUP4 ADD DUP5 PUSH2 0x1F71 JUMP JUMPDEST PUSH0 DUP2 MLOAD DUP1 DUP5 MSTORE PUSH1 0x20 DUP1 DUP6 ADD SWAP5 POP DUP1 DUP5 ADD PUSH0 JUMPDEST DUP4 DUP2 LT ISZERO PUSH2 0x2220 JUMPI DUP2 MLOAD PUSH1 0x1 PUSH1 0x1 PUSH1 0xA0 SHL SUB AND DUP8 MSTORE SWAP6 DUP3 ADD SWAP6 SWAP1 DUP3 ADD SWAP1 PUSH1 0x1 ADD PUSH2 0x21FB JUMP JUMPDEST POP SWAP5 SWAP6 SWAP5 POP POP POP POP POP JUMP JUMPDEST PUSH0 PUSH2 0x160 PUSH1 0x1 DUP1 PUSH1 0xA0 SHL SUB DUP1 DUP16 AND DUP5 MSTORE DUP14 PUSH1 0x20 DUP6 ADD MSTORE DUP13 PUSH1 0x40 DUP6 ADD MSTORE DUP2 PUSH1 0x60 DUP6 ADD MSTORE PUSH2 0x2259 DUP3 DUP6 ADD DUP14 PUSH2 0x1F71 JUMP JUMPDEST SWAP2 POP DUP1 DUP12 AND PUSH1 0x80 DUP6 ADD MSTORE POP DUP9 PUSH1 0xA0 DUP5 ADD MSTORE DUP8 PUSH1 0xC0 DUP5 ADD MSTORE DUP3 DUP2 SUB PUSH1 0xE0 DUP5 ADD MSTORE PUSH2 0x2282 DUP2 DUP9 PUSH2 0x1F71 JUMP JUMPDEST SWAP1 POP DUP6 PUSH2 0x100 DUP5 ADD MSTORE DUP3 DUP2 SUB PUSH2 0x120 DUP5 ADD MSTORE PUSH2 0x229E DUP2 DUP7 PUSH2 0x21E9 JUMP JUMPDEST SWAP1 POP DUP3 DUP2 SUB PUSH2 0x140 DUP5 ADD MSTORE PUSH2 0x22B3 DUP2 DUP6 PUSH2 0x21E9 JUMP JUMPDEST SWAP15 SWAP14 POP POP POP POP POP POP POP POP POP POP POP POP POP POP JUMP JUMPDEST PUSH1 0x1 DUP2 DUP2 SHR SWAP1 DUP3 AND DUP1 PUSH2 0x22D9 JUMPI PUSH1 0x7F DUP3 AND SWAP2 POP JUMPDEST PUSH1 0x20 DUP3 LT DUP2 SUB PUSH2 0x22F7 JUMPI PUSH4 0x4E487B71 PUSH1 0xE0 SHL PUSH0 MSTORE PUSH1 0x22 PUSH1 0x4 MSTORE PUSH1 0x24 PUSH0 REVERT JUMPDEST POP SWAP2 SWAP1 POP JUMP JUMPDEST PUSH4 0x4E487B71 PUSH1 0xE0 SHL PUSH0 MSTORE PUSH1 0x11 PUSH1 0x4 MSTORE PUSH1 0x24 PUSH0 REVERT JUMPDEST DUP1 DUP3 ADD DUP1 DUP3 GT ISZERO PUSH2 0x1519 JUMPI PUSH2 0x1519 PUSH2 0x22FD JUMP JUMPDEST DUP2 DUP2 SUB DUP2 DUP2 GT ISZERO PUSH2 0x1519 JUMPI PUSH2 0x1519 PUSH2 0x22FD JUMP JUMPDEST PUSH1 0x20 DUP1 DUP3 MSTORE PUSH1 0x2B SWAP1 DUP3 ADD MSTORE PUSH32 0x4F6E6C792070726F706F7365722063616E206368616E6765207468652063616D PUSH1 0x40 DUP3 ADD MSTORE PUSH11 0x706169676E207374617465 PUSH1 0xA8 SHL PUSH1 0x60 DUP3 ADD MSTORE PUSH1 0x80 ADD SWAP1 JUMP JUMPDEST PUSH4 0x4E487B71 PUSH1 0xE0 SHL PUSH0 MSTORE PUSH1 0x32 PUSH1 0x4 MSTORE PUSH1 0x24 PUSH0 REVERT JUMPDEST PUSH0 PUSH1 0x1 DUP3 ADD PUSH2 0x23A7 JUMPI PUSH2 0x23A7 PUSH2 0x22FD JUMP JUMPDEST POP PUSH1 0x1 ADD SWAP1 JUMP JUMPDEST DUP1 DUP3 MUL DUP2 ISZERO DUP3 DUP3 DIV DUP5 EQ OR PUSH2 0x1519 JUMPI PUSH2 0x1519 PUSH2 0x22FD JUMP JUMPDEST PUSH1 0x1F DUP3 GT ISZERO PUSH2 0x8F9 JUMPI PUSH0 DUP2 DUP2 MSTORE PUSH1 0x20 DUP2 KECCAK256 PUSH1 0x1F DUP6 ADD PUSH1 0x5 SHR DUP2 ADD PUSH1 0x20 DUP7 LT ISZERO PUSH2 0x23EB JUMPI POP DUP1 JUMPDEST PUSH1 0x1F DUP6 ADD PUSH1 0x5 SHR DUP3 ADD SWAP2 POP JUMPDEST DUP2 DUP2 LT ISZERO PUSH2 0x164A JUMPI DUP3 DUP2 SSTORE PUSH1 0x1 ADD PUSH2 0x23F7 JUMP JUMPDEST DUP2 MLOAD PUSH8 0xFFFFFFFFFFFFFFFF DUP2 GT ISZERO PUSH2 0x2424 JUMPI PUSH2 0x2424 PUSH2 0x2059 JUMP JUMPDEST PUSH2 0x2438 DUP2 PUSH2 0x2432 DUP5 SLOAD PUSH2 0x22C5 JUMP JUMPDEST DUP5 PUSH2 0x23C5 JUMP JUMPDEST PUSH1 0x20 DUP1 PUSH1 0x1F DUP4 GT PUSH1 0x1 DUP2 EQ PUSH2 0x246B JUMPI PUSH0 DUP5 ISZERO PUSH2 0x2454 JUMPI POP DUP6 DUP4 ADD MLOAD JUMPDEST PUSH0 NOT PUSH1 0x3 DUP7 SWAP1 SHL SHR NOT AND PUSH1 0x1 DUP6 SWAP1 SHL OR DUP6 SSTORE PUSH2 0x164A JUMP JUMPDEST PUSH0 DUP6 DUP2 MSTORE PUSH1 0x20 DUP2 KECCAK256 PUSH1 0x1F NOT DUP7 AND SWAP2 JUMPDEST DUP3 DUP2 LT ISZERO PUSH2 0x2499 JUMPI DUP9 DUP7 ADD MLOAD DUP3 SSTORE SWAP5 DUP5 ADD SWAP5 PUSH1 0x1 SWAP1 SWAP2 ADD SWAP1 DUP5 ADD PUSH2 0x247A JUMP JUMPDEST POP DUP6 DUP3 LT ISZERO PUSH2 0x24B6 JUMPI DUP8 DUP6 ADD MLOAD PUSH0 NOT PUSH1 0x3 DUP9 SWAP1 SHL PUSH1 0xF8 AND SHR NOT AND DUP2 SSTORE JUMPDEST POP POP POP POP POP PUSH1 0x1 SWAP1 DUP2 SHL ADD SWAP1 SSTORE POP JUMP JUMPDEST PUSH0 PUSH1 0x20 DUP3 DUP5 SUB SLT ISZERO PUSH2 0x24D6 JUMPI PUSH0 DUP1 REVERT JUMPDEST POP MLOAD SWAP2 SWAP1 POP JUMP JUMPDEST PUSH0 DUP3 MLOAD PUSH2 0x24EE DUP2 DUP5 PUSH1 0x20 DUP8 ADD PUSH2 0x1F4F JUMP JUMPDEST SWAP2 SWAP1 SWAP2 ADD SWAP3 SWAP2 POP POP JUMP INVALID CALLDATASIZE ADDMOD SWAP5 LOG1 EXTCODESIZE LOG1 LOG3 0x21 MOD PUSH8 0xC828492DB98DCA3E KECCAK256 PUSH23 0xCC3735A920A3CA505D382BBCCD5ED15C6E187E77E9AEE8 DUP2 DUP5 0xC2 0x1F 0x4F 0x21 DUP3 0xAB PC 0x27 0xCB EXTCODESIZE PUSH31 0x7FBEDCD63F03300A26469706673582212206B8AE83CCA2FB0E09A9DC9252A CREATE2 PUSH11 0xB31BFEFEE62C229B9CB07E 0xC KECCAK256 0xCE 0x5E PUSH2 0x5C64 PUSH20 0x6F6C634300081500330000000000000000000000 "
		},
		"gasEstimates": {
			"creation": {
				"codeDepositCost": "1916400",
				"executionCost": "infinite",
				"totalCost": "infinite"
			},
			"external": {
				"UPGRADE_INTERFACE_VERSION()": "infinite",
				"campaignLength()": "2339",
				"cancelCampaign(uint256)": "infinite",
				"contributors(address)": "6834",
				"createProposal(string,address,uint256)": "infinite",
				"donateProposal(uint256)": "infinite",
				"finishCampaign(uint256)": "infinite",
				"frozenElapse()": "2361",
				"getCampaignLength()": "2379",
				"getContractBalance()": "282",
				"getContributors(address)": "6912",
				"getFrozenElapse()": "2424",
				"getMinimumContribution()": "2423",
				"getNumProposals()": "2424",
				"getOwner()": "2491",
				"getPaused()": "infinite",
				"getProposal(uint256)": "infinite",
				"getProposalDonationAmount(uint256,address)": "2784",
				"initialize(address)": "infinite",
				"minimumContribution()": "2383",
				"numProposals()": "2384",
				"owner()": "2412",
				"pause()": "infinite",
				"paused()": "infinite",
				"proposalDonationAmount(uint256,address)": "2724",
				"proposals(uint256)": "infinite",
				"proxiableUUID()": "infinite",
				"receiveDonation()": "infinite",
				"renounceOwnership()": "infinite",
				"transferOwnership(address)": "infinite",
				"unpause()": "infinite",
				"updateCampaignLength(uint256)": "infinite",
				"updateFrozenElapse(uint256)": "infinite",
				"updateMinimumContribution(uint256)": "infinite",
				"updateOwner(address)": "infinite",
				"upgradeToAndCall(address,bytes)": "infinite",
				"withdrawDonationFromCampaign(uint256)": "infinite",
				"withdrawDonationFromPlatform(address)": "infinite"
			},
			"internal": {
				"_authorizeUpgrade(address)": "infinite",
				"_updateCampaignState(struct CrowdFunding.Proposal storage pointer)": "infinite"
			}
		},
		"methodIdentifiers": {
			"UPGRADE_INTERFACE_VERSION()": "ad3cb1cc",
			"campaignLength()": "a9c30766",
			"cancelCampaign(uint256)": "45598b4a",
			"contributors(address)": "1f6d4942",
			"createProposal(string,address,uint256)": "831c43ac",
			"donateProposal(uint256)": "566f9578",
			"finishCampaign(uint256)": "5545db0d",
			"frozenElapse()": "acb18c0b",
			"getCampaignLength()": "df357d3e",
			"getContractBalance()": "6f9fb98a",
			"getContributors(address)": "43e9658c",
			"getFrozenElapse()": "a8846008",
			"getMinimumContribution()": "f84038b1",
			"getNumProposals()": "798974dd",
			"getOwner()": "893d20e8",
			"getPaused()": "6805b84b",
			"getProposal(uint256)": "c7f758a8",
			"getProposalDonationAmount(uint256,address)": "b8077c25",
			"initialize(address)": "c4d66de8",
			"minimumContribution()": "937e09b1",
			"numProposals()": "400e3949",
			"owner()": "8da5cb5b",
			"pause()": "8456cb59",
			"paused()": "5c975abb",
			"proposalDonationAmount(uint256,address)": "a5fe07a9",
			"proposals(uint256)": "013cf08b",
			"proxiableUUID()": "52d1902d",
			"receiveDonation()": "45d3292b",
			"renounceOwnership()": "715018a6",
			"transferOwnership(address)": "f2fde38b",
			"unpause()": "3f4ba83a",
			"updateCampaignLength(uint256)": "155ce98f",
			"updateFrozenElapse(uint256)": "8b40db2d",
			"updateMinimumContribution(uint256)": "acd1bdb4",
			"updateOwner(address)": "880cdc31",
			"upgradeToAndCall(address,bytes)": "4f1ef286",
			"withdrawDonationFromCampaign(uint256)": "0ea142f7",
			"withdrawDonationFromPlatform(address)": "0af857c1"
		}
	},
	"abi": [
		{
			"inputs": [],
			"stateMutability": "nonpayable",
			"type": "constructor"
		},
		{
			"inputs": [
				{
					"internalType": "address",
					"name": "target",
					"type": "address"
				}
			],
			"name": "AddressEmptyCode",
			"type": "error"
		},
		{
			"inputs": [
				{
					"internalType": "address",
					"name": "implementation",
					"type": "address"
				}
			],
			"name": "ERC1967InvalidImplementation",
			"type": "error"
		},
		{
			"inputs": [],
			"name": "ERC1967NonPayable",
			"type": "error"
		},
		{
			"inputs": [],
			"name": "EnforcedPause",
			"type": "error"
		},
		{
			"inputs": [],
			"name": "ExpectedPause",
			"type": "error"
		},
		{
			"inputs": [],
			"name": "FailedInnerCall",
			"type": "error"
		},
		{
			"inputs": [],
			"name": "InvalidInitialization",
			"type": "error"
		},
		{
			"inputs": [],
			"name": "NotInitializing",
			"type": "error"
		},
		{
			"inputs": [
				{
					"internalType": "address",
					"name": "owner",
					"type": "address"
				}
			],
			"name": "OwnableInvalidOwner",
			"type": "error"
		},
		{
			"inputs": [
				{
					"internalType": "address",
					"name": "account",
					"type": "address"
				}
			],
			"name": "OwnableUnauthorizedAccount",
			"type": "error"
		},
		{
			"inputs": [],
			"name": "UUPSUnauthorizedCallContext",
			"type": "error"
		},
		{
			"inputs": [
				{
					"internalType": "bytes32",
					"name": "slot",
					"type": "bytes32"
				}
			],
			"name": "UUPSUnsupportedProxiableUUID",
			"type": "error"
		},
		{
			"anonymous": false,
			"inputs": [
				{
					"indexed": false,
					"internalType": "uint64",
					"name": "version",
					"type": "uint64"
				}
			],
			"name": "Initialized",
			"type": "event"
		},
		{
			"anonymous": false,
			"inputs": [
				{
					"indexed": true,
					"internalType": "address",
					"name": "previousOwner",
					"type": "address"
				},
				{
					"indexed": true,
					"internalType": "address",
					"name": "newOwner",
					"type": "address"
				}
			],
			"name": "OwnershipTransferred",
			"type": "event"
		},
		{
			"anonymous": false,
			"inputs": [
				{
					"indexed": false,
					"internalType": "address",
					"name": "account",
					"type": "address"
				}
			],
			"name": "Paused",
			"type": "event"
		},
		{
			"anonymous": false,
			"inputs": [
				{
					"indexed": false,
					"internalType": "address",
					"name": "account",
					"type": "address"
				}
			],
			"name": "Unpaused",
			"type": "event"
		},
		{
			"anonymous": false,
			"inputs": [
				{
					"indexed": true,
					"internalType": "address",
					"name": "implementation",
					"type": "address"
				}
			],
			"name": "Upgraded",
			"type": "event"
		},
		{
			"inputs": [],
			"name": "UPGRADE_INTERFACE_VERSION",
			"outputs": [
				{
					"internalType": "string",
					"name": "",
					"type": "string"
				}
			],
			"stateMutability": "view",
			"type": "function"
		},
		{
			"inputs": [],
			"name": "campaignLength",
			"outputs": [
				{
					"internalType": "uint256",
					"name": "",
					"type": "uint256"
				}
			],
			"stateMutability": "view",
			"type": "function"
		},
		{
			"inputs": [
				{
					"internalType": "uint256",
					"name": "proposalID",
					"type": "uint256"
				}
			],
			"name": "cancelCampaign",
			"outputs": [],
			"stateMutability": "nonpayable",
			"type": "function"
		},
		{
			"inputs": [
				{
					"internalType": "address",
					"name": "",
					"type": "address"
				}
			],
			"name": "contributors",
			"outputs": [
				{
					"internalType": "uint256",
					"name": "timestamp",
					"type": "uint256"
				},
				{
					"internalType": "uint256",
					"name": "coldAmount",
					"type": "uint256"
				},
				{
					"internalType": "uint256",
					"name": "hotAmount",
					"type": "uint256"
				}
			],
			"stateMutability": "view",
			"type": "function"
		},
		{
			"inputs": [
				{
					"internalType": "string",
					"name": "description",
					"type": "string"
				},
				{
					"internalType": "address payable",
					"name": "recipient",
					"type": "address"
				},
				{
					"internalType": "uint256",
					"name": "targetAmount",
					"type": "uint256"
				}
			],
			"name": "createProposal",
			"outputs": [],
			"stateMutability": "nonpayable",
			"type": "function"
		},
		{
			"inputs": [
				{
					"internalType": "uint256",
					"name": "proposalID",
					"type": "uint256"
				}
			],
			"name": "donateProposal",
			"outputs": [],
			"stateMutability": "nonpayable",
			"type": "function"
		},
		{
			"inputs": [
				{
					"internalType": "uint256",
					"name": "proposalID",
					"type": "uint256"
				}
			],
			"name": "finishCampaign",
			"outputs": [],
			"stateMutability": "nonpayable",
			"type": "function"
		},
		{
			"inputs": [],
			"name": "frozenElapse",
			"outputs": [
				{
					"internalType": "uint256",
					"name": "",
					"type": "uint256"
				}
			],
			"stateMutability": "view",
			"type": "function"
		},
		{
			"inputs": [],
			"name": "getCampaignLength",
			"outputs": [
				{
					"internalType": "uint256",
					"name": "",
					"type": "uint256"
				}
			],
			"stateMutability": "view",
			"type": "function"
		},
		{
			"inputs": [],
			"name": "getContractBalance",
			"outputs": [
				{
					"internalType": "uint256",
					"name": "",
					"type": "uint256"
				}
			],
			"stateMutability": "view",
			"type": "function"
		},
		{
			"inputs": [
				{
					"internalType": "address",
					"name": "donor",
					"type": "address"
				}
			],
			"name": "getContributors",
			"outputs": [
				{
					"internalType": "uint256",
					"name": "timestamp",
					"type": "uint256"
				},
				{
					"internalType": "uint256",
					"name": "coldAmount",
					"type": "uint256"
				},
				{
					"internalType": "uint256",
					"name": "hotAmount",
					"type": "uint256"
				}
			],
			"stateMutability": "view",
			"type": "function"
		},
		{
			"inputs": [],
			"name": "getFrozenElapse",
			"outputs": [
				{
					"internalType": "uint256",
					"name": "",
					"type": "uint256"
				}
			],
			"stateMutability": "view",
			"type": "function"
		},
		{
			"inputs": [],
			"name": "getMinimumContribution",
			"outputs": [
				{
					"internalType": "uint256",
					"name": "",
					"type": "uint256"
				}
			],
			"stateMutability": "view",
			"type": "function"
		},
		{
			"inputs": [],
			"name": "getNumProposals",
			"outputs": [
				{
					"internalType": "uint256",
					"name": "",
					"type": "uint256"
				}
			],
			"stateMutability": "view",
			"type": "function"
		},
		{
			"inputs": [],
			"name": "getOwner",
			"outputs": [
				{
					"internalType": "address",
					"name": "",
					"type": "address"
				}
			],
			"stateMutability": "view",
			"type": "function"
		},
		{
			"inputs": [],
			"name": "getPaused",
			"outputs": [
				{
					"internalType": "bool",
					"name": "",
					"type": "bool"
				}
			],
			"stateMutability": "view",
			"type": "function"
		},
		{
			"inputs": [
				{
					"internalType": "uint256",
					"name": "proposalID",
					"type": "uint256"
				}
			],
			"name": "getProposal",
			"outputs": [
				{
					"internalType": "address",
					"name": "proposer",
					"type": "address"
				},
				{
					"internalType": "uint256",
					"name": "uniqueid",
					"type": "uint256"
				},
				{
					"internalType": "uint256",
					"name": "startTime",
					"type": "uint256"
				},
				{
					"internalType": "string",
					"name": "description",
					"type": "string"
				},
				{
					"internalType": "address",
					"name": "recipient",
					"type": "address"
				},
				{
					"internalType": "uint256",
					"name": "targetAmount",
					"type": "uint256"
				},
				{
					"internalType": "uint256",
					"name": "currentAmount",
					"type": "uint256"
				},
				{
					"internalType": "string",
					"name": "re_state",
					"type": "string"
				},
				{
					"internalType": "uint256",
					"name": "numDonors",
					"type": "uint256"
				},
				{
					"internalType": "address[]",
					"name": "donors",
					"type": "address[]"
				},
				{
					"internalType": "address[]",
					"name": "finalDonors",
					"type": "address[]"
				}
			],
			"stateMutability": "view",
			"type": "function"
		},
		{
			"inputs": [
				{
					"internalType": "uint256",
					"name": "proposalID",
					"type": "uint256"
				},
				{
					"internalType": "address",
					"name": "donor",
					"type": "address"
				}
			],
			"name": "getProposalDonationAmount",
			"outputs": [
				{
					"internalType": "uint256",
					"name": "",
					"type": "uint256"
				}
			],
			"stateMutability": "view",
			"type": "function"
		},
		{
			"inputs": [
				{
					"internalType": "address",
					"name": "initialOwner",
					"type": "address"
				}
			],
			"name": "initialize",
			"outputs": [],
			"stateMutability": "nonpayable",
			"type": "function"
		},
		{
			"inputs": [],
			"name": "minimumContribution",
			"outputs": [
				{
					"internalType": "uint256",
					"name": "",
					"type": "uint256"
				}
			],
			"stateMutability": "view",
			"type": "function"
		},
		{
			"inputs": [],
			"name": "numProposals",
			"outputs": [
				{
					"internalType": "uint256",
					"name": "",
					"type": "uint256"
				}
			],
			"stateMutability": "view",
			"type": "function"
		},
		{
			"inputs": [],
			"name": "owner",
			"outputs": [
				{
					"internalType": "address",
					"name": "",
					"type": "address"
				}
			],
			"stateMutability": "view",
			"type": "function"
		},
		{
			"inputs": [],
			"name": "pause",
			"outputs": [],
			"stateMutability": "nonpayable",
			"type": "function"
		},
		{
			"inputs": [],
			"name": "paused",
			"outputs": [
				{
					"internalType": "bool",
					"name": "",
					"type": "bool"
				}
			],
			"stateMutability": "view",
			"type": "function"
		},
		{
			"inputs": [
				{
					"internalType": "uint256",
					"name": "",
					"type": "uint256"
				},
				{
					"internalType": "address",
					"name": "",
					"type": "address"
				}
			],
			"name": "proposalDonationAmount",
			"outputs": [
				{
					"internalType": "uint256",
					"name": "",
					"type": "uint256"
				}
			],
			"stateMutability": "view",
			"type": "function"
		},
		{
			"inputs": [
				{
					"internalType": "uint256",
					"name": "",
					"type": "uint256"
				}
			],
			"name": "proposals",
			"outputs": [
				{
					"internalType": "address",
					"name": "proposer",
					"type": "address"
				},
				{
					"internalType": "uint256",
					"name": "uniqueid",
					"type": "uint256"
				},
				{
					"internalType": "uint256",
					"name": "startTime",
					"type": "uint256"
				},
				{
					"internalType": "string",
					"name": "description",
					"type": "string"
				},
				{
					"internalType": "address payable",
					"name": "recipient",
					"type": "address"
				},
				{
					"internalType": "uint256",
					"name": "targetAmount",
					"type": "uint256"
				},
				{
					"internalType": "uint256",
					"name": "currentAmount",
					"type": "uint256"
				},
				{
					"internalType": "enum CrowdFunding.State",
					"name": "state",
					"type": "uint8"
				},
				{
					"internalType": "uint256",
					"name": "numDonors",
					"type": "uint256"
				}
			],
			"stateMutability": "view",
			"type": "function"
		},
		{
			"inputs": [],
			"name": "proxiableUUID",
			"outputs": [
				{
					"internalType": "bytes32",
					"name": "",
					"type": "bytes32"
				}
			],
			"stateMutability": "view",
			"type": "function"
		},
		{
			"inputs": [],
			"name": "receiveDonation",
			"outputs": [],
			"stateMutability": "payable",
			"type": "function"
		},
		{
			"inputs": [],
			"name": "renounceOwnership",
			"outputs": [],
			"stateMutability": "nonpayable",
			"type": "function"
		},
		{
			"inputs": [
				{
					"internalType": "address",
					"name": "newOwner",
					"type": "address"
				}
			],
			"name": "transferOwnership",
			"outputs": [],
			"stateMutability": "nonpayable",
			"type": "function"
		},
		{
			"inputs": [],
			"name": "unpause",
			"outputs": [],
			"stateMutability": "nonpayable",
			"type": "function"
		},
		{
			"inputs": [
				{
					"internalType": "uint256",
					"name": "newCampaignLength",
					"type": "uint256"
				}
			],
			"name": "updateCampaignLength",
			"outputs": [],
			"stateMutability": "nonpayable",
			"type": "function"
		},
		{
			"inputs": [
				{
					"internalType": "uint256",
					"name": "newFrozenElapse",
					"type": "uint256"
				}
			],
			"name": "updateFrozenElapse",
			"outputs": [],
			"stateMutability": "nonpayable",
			"type": "function"
		},
		{
			"inputs": [
				{
					"internalType": "uint256",
					"name": "newMinimumContribution",
					"type": "uint256"
				}
			],
			"name": "updateMinimumContribution",
			"outputs": [],
			"stateMutability": "nonpayable",
			"type": "function"
		},
		{
			"inputs": [
				{
					"internalType": "address",
					"name": "newOwner",
					"type": "address"
				}
			],
			"name": "updateOwner",
			"outputs": [],
			"stateMutability": "nonpayable",
			"type": "function"
		},
		{
			"inputs": [
				{
					"internalType": "address",
					"name": "newImplementation",
					"type": "address"
				},
				{
					"internalType": "bytes",
					"name": "data",
					"type": "bytes"
				}
			],
			"name": "upgradeToAndCall",
			"outputs": [],
			"stateMutability": "payable",
			"type": "function"
		},
		{
			"inputs": [
				{
					"internalType": "uint256",
					"name": "proposalID",
					"type": "uint256"
				}
			],
			"name": "withdrawDonationFromCampaign",
			"outputs": [],
			"stateMutability": "nonpayable",
			"type": "function"
		},
		{
			"inputs": [
				{
					"internalType": "address payable",
					"name": "receiver",
					"type": "address"
				}
			],
			"name": "withdrawDonationFromPlatform",
			"outputs": [],
			"stateMutability": "nonpayable",
			"type": "function"
		},
		{
			"stateMutability": "payable",
			"type": "receive"
		}
	]
}